:10000000008000200D2C0000392C0000392C00004D
:10001000392C0000392C0000392C0000392C00004C
:10002000392C0000392C0000392C0000392C00003C
:10003000392C0000392C0000392C0000392C00002C
:10004000F5200000392C0000ED050000392C0000DF
:10005000392C0000392C00000106000019060000B0
:10006000392C0000392C0000392C0000392C0000FC
:10007000392C0000392C0000392C0000392C0000EC
:10008000392C0000392C0000392C0000392C0000DC
:10009000392C0000392C0000392C0000392C0000CC
:1000A000392C0000392C0000F9060000392C000022
:1000B000392C0000392C0000392C0000392C0000AC
:1000C000392C0000392C0000392C0000392C00009C
:1000D000392C0000392C0000392C0000392C00008C
:1000E00010B5054C237833B9044B13B10448AFF372
:1000F00000800123237010BD0001002000000000DB
:100100008C3C000008B5064B1BB106480649AFF30E
:1001100000800648036813B1054B03B1984708BD3A
:10012000000000008C3C0000040100209000002032
:1001300000000000154B002B08BF134B9D46A3F594
:10014000803A00218B460F461348144A121A03F0D6
:1001500079FD0F4B002B00D098470E4B002B00D0A1
:1001600098470020002104000D000D48002802D00F
:100170000C48AFF3008003F03FFD2000290000F0A1
:1001800015FE03F025FD00BF0000080000800020E0
:10019000000000000000000000010020E00B002033
:1001A000000000000000000080B483B000AF0346F0
:1001B000FB71084B97F907205209F97901F01F01EB
:1001C000012000FA01F143F822100C37BD465DF81A
:1001D000047B704700E100E080B483B000AF0346C9
:1001E000FB71094B97F907205209F97901F01F01BA
:1001F000012000FA01F1603243F822100C37BD46AD
:100200005DF8047B704700BF00E100E080B483B07C
:1002100000AF03463960FB71FB79002B0DD0FB79F1
:10022000012B0AD0FB79022B07D0FB79032B04D0DA
:10023000FB79042B01D0FB79052B0948FA793B683F
:10024000012101FA03F319461346DB0013449B0016
:100250000344103359600C37BD465DF8047B70478A
:100260000060004080B483B000AF03463960FB718A
:10027000FB79002B0DD0FB79012B0AD0FB79022BE7
:1002800007D0FB79032B04D0FB79042B01D0FB7939
:10029000052B0948FA793B68012101FA03F3194655
:1002A0001346DB0013449B000344103319600C37E2
:1002B000BD465DF8047B70470060004080B582B0A9
:1002C00000AF0C4B1B687B603B46184602F0DEFB20
:1002D0007B681B0E0F2B0AD93B78032B07D1064BEB
:1002E000054A126822F0500242F010021A600837E4
:1002F000BD4680BDFC81E00FC0800C4080B400AFE3
:1003000072B6084B1B68B3F1FF3F04D0054B1B6866
:100310005A1C044B1A60034B1B681846BD465DF817
:10032000047B70474401002080B483B000AF0C4BC5
:100330001B68002B0DD00A4B1B685A1E084B1A6015
:10034000074B1B687B607B68002B00D162B67B6823
:1003500000E0002318460C37BD465DF8047B70476B
:100360004401002080B483B000AF786039607B68BE
:100370003A689A620C37BD465DF8047B704700BF4F
:1003800080B483B000AF786039607B68DA6A3B681C
:100390001A437B68DA620C37BD465DF8047B704710
:1003A00080B483B000AF786039607B683A689A6146
:1003B0000C37BD465DF8047B704700BF80B483B046
:1003C00000AF786039607B68DA683B681A437B6805
:1003D000DA600C37BD465DF8047B704780B483B0AB
:1003E00000AF78600B46FB707A680F4B9A420BD0D7
:1003F0007A680E4B9A4207D07A680D4B9A4203D026
:100400007A680C4B9A4200D100BFFB78002B03D0D6
:100410007B6801225A6002E07B6802225A600C3736
:10042000BD465DF8047B70470000014000040140B8
:1004300000080140000C014080B483B000AF786038
:1004400039607B683A689A610C37BD465DF8047B79
:10045000704700BF80B483B000AF786039607B68BC
:10046000DA683B681A437B68DA600C37BD465DF892
:10047000047B704780B483B000AF786039607B68DC
:100480003A681A620C37BD465DF8047B704700BFBE
:1004900080B483B000AF78600B46FB70FA787B685D
:1004A0005A600C37BD465DF8047B704780B586B056
:1004B00000AF7860164B1B6803F47F031B0C1846D3
:1004C00003F048F903467B61124B1B681B0D18466D
:1004D00003F040F903463B610F4BFB60786803F083
:1004E0003DF903463869194603F082F80346184679
:1004F000F96803F03BFA03467869194603F078F887
:100500000346BB60BB6818461837BD4680BD00BFB8
:10051000B081E00FBC81E00FD7A3C8C080B588B020
:1005200000AFF8600B467A60FB720023FB614FF06E
:1005300000037B610023BB61274B274A526842F0CE
:1005400002025A60012000F091FC0023BB610BE025
:10055000224BBA6933F812309BB21BB2FA691344CA
:10056000FB61BB690133BB61BB69B3F57A7FEFDB2C
:10057000FA691B4BA3FB02139B09FB61FB6918463D
:10058000FFF794FF78617869164903F0EDFA0346A6
:10059000002B0BD07869144903F0DCFA0346002BDA
:1005A00004D004200321FFF731FE11E078690D49E2
:1005B00003F0C6FA0346002B06D178690A4903F016
:1005C000D3FA0346002B03D004200321FFF74AFE91
:1005D0002037BD4680BD00BF002000400004002041
:1005E000D34D62100000704100000C4280B500AF96
:1005F00002480121FFF720FF80BD00BF000001403D
:1006000080B400AF034B01229A61BD465DF8047BC4
:10061000704700BF0010004080B582B000AF4FF0BF
:1006200000037B60FFF76AFE2D480121FFF722FFE0
:100630002C4B1B88002B0DD0294B5A6A2A4B1B6868
:100640001A44294B1A60274B1B88013B9AB2254B51
:100650001A803FE0234B4FF47A721A80224B1A68BB
:10066000224BA3FB02139A091F4B1A601E4B1B68F7
:100670001846FFF71BFF786078681D4903F074FA8D
:100680000346002B0BD078681A4903F063FA03463F
:10069000002B04D004200321FFF7B8FD11E0786897
:1006A000134903F04DFA0346002B06D1786811492F
:1006B00003F05AFA0346002B03D004200321FFF76E
:1006C000D1FD074B064A526842F002025A600120EF
:1006D00000F0CCFBFFF728FE0837BD4680BD00BF09
:1006E00000200040040000202C010020D34D6210A7
:1006F0000000704100000C4280B584B002AF0023BE
:100700007B60FFF7FBFD4E4B9B6803F002035A082A
:100710004C4B1A604C4B01229A624C4B1B68002BCD
:100720002BD04A4B1B685A1E484B1A6003200621E7
:10073000FFF798FD444B0022DA60454B1B681846D2
:1007400002F0A2FC02460B46104619463AA3D3E932
:10075000002302F00FFD02460B461046194602F038
:100760001BFF03467B60384A7B68D90F0B445B1044
:10077000C3F57F43FF3313610FE0344B1B685A1CF2
:10078000324B1A6003200621FFF740FD2E4B00225A
:10079000DA602D4B2F4A12681A612C4B1B68002B14
:1007A00014D0284B1B68002B10D004200221FFF727
:1007B0002DFD294B02221A612148274900F0E8FB50
:1007C0001F480A21062200F0BDFB17E01F4B1B68E3
:1007D000002B13D01B4B1B68002B0FD104200221D0
:1007E000FFF740FD1C4B3D221A6115481A4900F0E5
:1007F000CFFB13480A21062200F0A4FB134B1B6811
:10080000002B11D0012000F04DFB144B009340F25F
:10081000E7330193002001210022114B01F0D6FCA7
:1008200010480121FFF734FEFFF77EFD0837BD4673
:1008300080BD00BFAFF30080FCA9F1D24D62703FD4
:10084000001000401C010020002008400000002093
:10085000280100202401002008000020242000405E
:10086000000400200020004080B582B000AF0346A5
:10087000FB71FB79022B09D100200121012201F03B
:10088000F3FA0E48022101F093F90BE0FB79032BF8
:1008900008D105200121012201F0E6FA07480921CB
:1008A00001F086F90648012100F07CFF054801218E
:1008B00000F078FF0837BD4680BD00BF0200180079
:1008C000408104000043020080B586B000AF0346BB
:1008D000FB71FB79184600F0E5FA3648012100F07B
:1008E00061FF01233B7300237B730023BB73002351
:1008F000FB7300233B7400237B740023BB74002331
:10090000FB7400233B7500237B750023BB752A4BCA
:100910009B6A29481946FFF725FD27480121FFF763
:100920002FFDFB79022B18D1244B244A926E42F4FE
:1009300080729A66224B4FF6BE721A60204B1B687B
:10094000C3F57F43FF331E4A13601D4B1B681A48D3
:1009500000211A4601F0E2FF1CE0FB79032B19D1BC
:10096000184B1B6840F69C7202FB03F2164BA3FB6C
:1009700002139A09154B1A60144B1B68C3F57F4389
:10098000FF33124A1360114B1B680B4800211A46B3
:1009900001F0C4FF07F10C030748194602F000F804
:1009A0001A20FFF701FC0448012101F0E3FF18378A
:1009B000BD4680BD602612000020084000800C402B
:1009C0002001002028010020D34D621024010020C6
:1009D00080B582B000AF0346FB711348012100F0DF
:1009E000E1FE1248124900F0D3FA10480A2106220B
:1009F00000F0A8FA0D4B9B690C481946FFF7D0FC94
:100A00000A480121FFF7DAFC00BF084B9B6803F09E
:100A10000103002BF9D00620FFF7DEFB0620FFF7CD
:100A2000C3FB0837BD4680BD0092040000100040A3
:100A30000800002080B500AF0E48012100F0B2FE92
:100A4000042002210422002301F0E0FE04200321FF
:100A50000422002301F0DAFE0320062104220023F1
:100A600001F0D4FE022006210022002301F0CEFE78
:100A700080BD00BF00D2040080B588B000AF21481F
:100A8000012100F08FFE2048012100F08BFE07F1CC
:100A9000100300221A60043300221A60043300227B
:100AA0001A60043300221A7001333B4600221A6098
:100AB000043300221A60043300221A600433002237
:100AC0001A7001330223FB7001233B7307F11003FB
:100AD0000E48194602F014F83B460D48194602F03C
:100AE0000FF80A4B9B6909481946FFF7A5FC074810
:100AF0000121FFF7AFFC0220FFF756FB2037BD4670
:100B000080BD00BF005204000062040000000140EC
:100B10000004014090B587B000AF00237B61002343
:100B20003B61012000F0BEF9FFF7A6FF0020012184
:100B3000012201F099F95F48022101F039F85E487D
:100B4000012100F02FFE5D48012100F02BFE012362
:100B50003B7100237B710023BB710023FB710023D9
:100B60003B7200237B720023BB720023FB720023C5
:100B70003B7300237B730023BB730123BB730123EF
:100B80003B7200233B714E4B4FF400421A613B1DF8
:100B90004B48194601F004FF494B4FF40042DA601C
:100BA0004748012101F0E6FE46480121FFF716FC07
:100BB00045480121FFF712FC414BDB687B6102E0F5
:100BC0003F4BDB687B617B69002BF9D13D4B5A6A57
:100BD0003D4B5B6A1B0413447B6100200021012212
:100BE00001F042F905200121012201F03DF93148CF
:100BF000092100F0DDFF33480021FFF7EFFB324809
:100C00000021FFF7EBFB2E4B4FF47A721A612C4B4D
:100C10004FF47A72DA602B4B00225A622A4B002280
:100C20005A622748012101F0A5FE26480121FFF75D
:100C3000D5FB25480121FFF7D1FB214BDB683B6148
:100C400002E01F4BDB683B613B69002BF9D11D4B78
:100C50005A6A1D4B5B6A1B0413443B61786902F0BE
:100C600079FD0446386902F075FD034620461946B1
:100C700002F07CFE03461846144902F0C3FD034609
:100C8000184602F085FF0246114B1A600D480021FC
:100C9000FFF7A4FB0C480021FFF7A0FB0520002173
:100CA000012201F0E1F8012000F0E0F81C37BD4618
:100CB00090BD00BF02001800004302006026120031
:100CC00000200840000001400004014000007A4478
:100CD0002801002080B586B000AF1048012100F047
:100CE00061FD0F4A07F110031068186092889A801E
:100CF00007F110030B48194600F02AFA0A4A3B1D77
:100D00001068516803C3127A1A703B1D05481946D2
:100D100000F062FA1837BD4680BD00BF0002050032
:100D2000703C000000200040783C000080B588B096
:100D300000AF1A48012100F035FD00233B76184B27
:100D4000FB6107F11803184601F0E0FA154B164A4B
:100D50001A60144B00225A60124B7B6101237B7393
:100D600001233B734FF400233B6107F10C03002088
:100D7000194601F04BFA0023FB7101233B71032359
:100D80007B710123BB7100233B723B1D00200121BD
:100D90001A4601F083FA2037BD4680BD00030200E9
:100DA00000020020D00B00201D05000080B500AF20
:100DB000FFF784FA032000F075F8FFF7ABFEFFF7AA
:100DC00039FEFFF787FFFFF7B1FF0320FFF700FEB3
:100DD0000320FFF749FD0320FFF776FD00F078F8C8
:100DE000FCE700BF80B400AF72B6084B1B68B3F1DC
:100DF000FF3F04D0054B1B685A1C044B1A60034B81
:100E00001B681846BD465DF8047B7047440100200E
:100E100080B483B000AF0C4B1B68002B0DD00A4B85
:100E20001B685A1E084B1A60074B1B687B607B6867
:100E3000002B00D162B67B6800E0002318460C3717
:100E4000BD465DF8047B70474401002080B400AFCC
:100E5000054B054A126922F004021A6130BFBD46F3
:100E60005DF8047B704700BF00ED00E080B582B004
:100E700000AF0346FB71FFF7B5FFFA79084B53F853
:100E80002230002B07DDFB79054A52F82320511E42
:100E9000034A42F82310FFF7BBFF0837BD4680BD69
:100EA0003001002080B582B000AF0346FB71FFF730
:100EB00099FFFB79054A52F82320511C034A42F856
:100EC0002310FFF7A5FF0837BD4680BD3001002085
:100ED00080B500AF0F4B1B68002B00DD18E00D4BF9
:100EE0005B68002B02DDFFF7B1FF11E0094B9B6847
:100EF000002B03DD012001F04FFB09E0054BDB680F
:100F0000002B03DD012001F095FB01E001F0F0FB77
:100F100080BD00BF3001002080B487B000AFF86012
:100F2000B9607A60FB6803F10473DA00BB681344AC
:100F30009B007B617B697A681A601C37BD465DF84F
:100F4000047B704780B483B000AF786013460A46D4
:100F5000FA70BB707A680C4B9A4203D07A680B4BDC
:100F60009A4200D100BF7B685B6823F0F702FB78F0
:100F70001B011A43BB781A437B685A600C37BD4685
:100F80005DF8047B704700BF001000400014004073
:100F900080B582B000AF786039607A68224B9A429F
:100FA00003D07A68214B9A4200D100BF7B68184673
:100FB00000210022FFF7B0FF3B681B78DA073B688F
:100FC0005B789B0713431A463B685B681B061A4312
:100FD0003B681B7A5B041A433B685B7A1B041A4329
:100FE0003B689B7A1B021A433B68DB7A1B011A435E
:100FF0003B681B7B9B001A437B681A603B685B7BEA
:101000001B041A463B681B691B021A437B685A6023
:101010007A683B681B7D104600211A46FFF77CFF6B
:101020000837BD4680BD00BF0010004000140040DE
:1010300080B487B000AF786013460A46FA70BB7080
:10104000BB78002B04D01023FB603E4B3B6103E0D8
:101050000023FB603C4B3B617B685A6B3B69134050
:10106000BB6000237B61FB78062B5BD801A252F8A2
:1010700023F000BF91100000AF100000D31000005B
:10108000F1100000251100002511000015110000CD
:101090002E4B5B6803F4FE437A6913437B612B4B51
:1010A0005B6803F07F037A6913437B613DE0274B64
:1010B0005B6803F0FE431B0E1B027A6913437B61DE
:1010C000224B5B6803F4FE031B0C7A6913437B61BC
:1010D0002BE01E4B9B6803F4FE437A6913437B614C
:1010E0001A4B9B6803F07F037A6913437B611CE012
:1010F000164B9B6803F0FE431B0E1B027A691343D9
:101100007B61124B9B6803F4FE031B0C7A6913434B
:101110007B610AE00D4BDB6803F07F037A691343C0
:101120007B6102E000237B6100BFFB687A699A4023
:10113000BB681A437B685A631C37BD465DF8047B65
:10114000704700BFFFFF80808080FFFFB081E00F0D
:1011500080B584B000AF786039603B681B79FB7262
:10116000FB7A002B06D11B48002100F081F80346D2
:10117000FB7208E01748002100F07AF84FF4FA40BB
:10118000002100F075F87B680A225A603B681B78E2
:101190001A063B68DB781B0403F4FE031A43FB7A50
:1011A0001B0203F4FE431A433B685B781B011A439E
:1011B0003B689B781343FB603B685B79002B03D053
:1011C000FB6843F00803FB607B68FA681A6010371D
:1011D000BD4680BD405DC60080B584B000AF78607C
:1011E00039607B6802225A603B689B7878681946B0
:1011F0000022FFF71DFF3B681B781A073B685B78EE
:101200001B051A433B681B791B0213431A463B68B4
:10121000DB781B011343FB603B689B79002B03D0F9
:10122000FB6843F08073FB603B68DB79002B03D0E5
:10123000FB6843F00403FB603B685B79002B03D041
:10124000FB6843F00203FB603B681B7A002B03D072
:10125000FB6843F00103FB603B689B781B04FA6862
:101260001343FB607B68FA68DA601037BD4680BDC7
:1012700080B584B000AF786039607A68134B9A42C9
:1012800002D9124B7B6006E07B68B3F5FA4F02D2BD
:101290004FF4FA437B603B68002B03D10C4800F00D
:1012A000EDFA38603A687B6813445A1E7B68B2FBDB
:1012B000F3F3FB60FB68002B02D0FB68013BFB6093
:1012C000FB68DBB218461037BD4680BD405DC600E6
:1012D0004081040080B487B000AFF860B9607A60E4
:1012E000FB6803F10473DA00BB6813449B007B6165
:1012F0007B697A681A601C37BD465DF8047B7047CD
:1013000080B485B000AF786039607B6803F1047306
:10131000DA003B6813449B00FB60FB681B681846BF
:101320001437BD465DF8047B704700BF80B485B0BC
:1013300000AF78607B68002B04D07B68B3F5004F6A
:1013400000D800BF7B68B3FA83F3C3F11F03FB60CF
:10135000FB6818461437BD465DF8047B704700BF34
:1013600080B400AF044BDB6C1B0EDBB21846BD46ED
:101370005DF8047B704700BFB081E00F80B400AF20
:10138000054BDB6C03F47F031B0CDBB21846BD4638
:101390005DF8047B704700BFB081E00F80B582B07C
:1013A00000AFFFF7EBFF03464A2B04D0792B02D0A6
:1013B000482B22D023E0144B1B699BB203F03F0360
:1013C0009BB21B02FB80104B9B699BB203F0F003A6
:1013D0009AB2FB881343FB800B4BDB6903F0F003ED
:1013E0001B099AB2FB881343FB80FB88B3F5017F8E
:1013F00001D3064B04E0064B02E0054B00E000235E
:1014000018460837BD4680BDD0FF0FE000366E019C
:101410000048E80180B584B000AF786039607A6830
:101420003B689A4294BF00230123DBB2FB6006486D
:101430001E21FA68FFF74EFF04480821FA68FFF7FB
:1014400049FF1037BD4680BD00800C4004800C4031
:1014500080B582B000AF07481E21FFF751FF7860CA
:1014600005480821FFF74CFF38607B6818460837AD
:10147000BD4680BD00800C4004800C4080B582B029
:1014800000AF214B5B6903F4E063B3F5007F1CD030
:10149000B3F5007F05D8002B25D0B3F5807F1FD092
:1014A0002AE0B3F5C06F24D0B3F5E06F1ED0B3F5DA
:1014B000407F21D1FFF754FF0346122B02D9134B73
:1014C0007B601CE0124B7B6019E0FFF749FF03468D
:1014D000122B02D90F4B7B6011E00F4B7B600EE0AB
:1014E0000E4B7B600BE00E4B7B6008E00D4B7B608E
:1014F00005E00D4B7B6002E000237B6000BF7B6852
:1015000018460837BD4680BD00800C40804F120051
:1015100040420F0040B56400C0CF6A00C0D8A700A9
:10152000809FD500406F4001003FAB0180B582B085
:1015300000AF0D4800F08EFA0346FB70FB78072BD6
:1015400005D0082B07D101F0ABFB786006E0FFF770
:1015500095FF786002E000237B6000BF7B6818463F
:101560000837BD4680BD00BF06000C0080B485B0C2
:1015700000AF7860284BDB6B002B0CBF00230123EE
:10158000BB72254B41F67132DA63234B5B6803F083
:101590000703FB60FB68012B01D9042B02D1002358
:1015A000FB7202E00123FB7200BF7A681B4B9A4278
:1015B00007D9FB7A002B01D0052300E00423FB6050
:1015C00016E07A68154B9A420BD87A68144B9A4207
:1015D00007D9FB7A002B01D0032300E00123FB6035
:1015E00006E0FB7A002B01D0022300E00023FB6021
:1015F000094B094A526822F00701FA680A435A6007
:10160000BB7A002B02D0044B0022DA631437BD46AC
:101610005DF8047B704700BF00000C400048E80103
:101620000024F40080B500AF01F030FB03461846FB
:10163000FFF79CFF80BD00BF90B585B000AF78601C
:101640000023BB607B68344A934203D0334A934201
:1016500000D000E000BF786800F0FCF90346FB60B2
:101660007B682D4A934203D02C4A934206D00CE06B
:101670002B4B9B6A03F00303FB6006E0284B9B6A3D
:1016800003F00C039B08FB6000BFFB68032B3AD8F8
:1016900001A252F823F000BFCF160000A9160000E7
:1016A000B1160000B916000001F08CFBB8602DE007
:1016B00001F09CFBB86029E001F0CEFA0446FFF788
:1016C000C7FE0346013324FA03F3BB601EE0002388
:1016D000BB607A68104B9A4203D07A680F4B9A42EB
:1016E00010D10F4B9A6A79680B4B994201D11023A4
:1016F00000E0142322FA03F3002B03D001F06CFB6B
:10170000B86003E002E00023BB6000BFBB6818467E
:101710001437BD4690BD00BF0200180003001A0038
:1017200000800C4080B483B000AF7860094B5B6DE3
:1017300003F00103002B00D006E000BF054B1A6D3B
:101740007B681340002BF9D10C37BD465DF8047B54
:10175000704700BF00800C4080B582B000AF1048D9
:1017600000F078F90346FB70FB78032B07D0082BB9
:1017700009D0022B0BD101F039FB78600AE001F0AF
:1017800021FB786006E001F08BFA786002E000232C
:101790007B6000BF7B6818460837BD4680BD00BF30
:1017A0000723200090B587B000AF78600B46FB7030
:1017B00000233B617B681B0A03F00F03013B092BED
:1017C00049D801A252F823F00D18000013180000A8
:1017D000F1170000571800005718000019180000F2
:1017E0002318000057180000571800002D1800009B
:1017F0001B4B7B611B4800F041F80446FFF7CEFD10
:10180000034620461946FFF705FE12E0164B7B61A2
:101810000FE0164B7B610CE0154B7B6101233B61B4
:1018200007E0144B7B6110233B6102E0124B7B61AC
:1018300000BF7B681B0B03F01F03FB603B69002BA1
:1018400002D03869FFF76EFFFB787869F9681A46AD
:10185000FFF740FD00E000BF1C37BD4690BD00BF54
:1018600040800C400043020008800C4044800C4043
:1018700058800C4060800C4078800C4090B585B05A
:1018800000AF78607B6803F47813B3F5A01F00F015
:10189000AB80B3F5A01F1AD8B3F5402F00F0BF807E
:1018A000B3F5402F08D8B3F5003F3CD0B3F5802FF7
:1018B0002DD0002B27D0BEE0B3F5801F3CD0B3F570
:1018C000901F47D0B3F5602F00F0AD80B3E0B3F5C3
:1018D000001F00F0AC80B3F5001F0AD8B3F5C01F9D
:1018E00025D0B3F5D01F7AD0B3F5B01F00F08980B2
:1018F000A1E0B3F5181F4ED0B3F5201F62D0B3F5A9
:10190000101F35D097E001F0CBF9F86096E001F0B8
:10191000C7F9F8604C4B9B6803F00F03FA6822FA92
:1019200003F3FB608AE001F097F9F86086E047482E
:10193000FFF782FEF86081E04448FFF77DFEF86023
:10194000414B9B6E03F0F0031B09FA6822FA03F384
:10195000FB6073E03D48FFF76FFEF8603A4B9B6E0B
:1019600003F470631B0AFA6822FA03F3FB6065E074
:101970003648FFF761FEF860334B9B6E03F440532B
:101980001C0B1020FFF7D2FC03462344FA6822FA0E
:1019900003F3FB6052E02D48FFF74EFEF8602A4B40
:1019A0009B6E03F440531B0BFA6822FA03F3FB60AF
:1019B000254BDB6F03F007030133FA68B2FBF3F347
:1019C000FB603BE02148FFF737FEF8601E4B9B6E43
:1019D00003F00303FA6822FA03F3FB602EE01C48CD
:1019E000FFF72AFEF86029E01948FFF725FEF860A6
:1019F000154B1B6F03F00303FA6822FA03F3FB6035
:101A00001CE01348FFF718FEF8600F4B1B6F03F044
:101A100030031B09FA6822FA03F3FB600EE0FFF7BC
:101A200085FDF8600AE0FFF729FDF86006E0FFF7A2
:101A300093FEF86002E00023FB6000BFFB681846DD
:101A40001437BD4690BD00BF00800C400200180056
:101A500003001A0080B485B000AF78600123FB73E7
:101A60007B6803F00F03BB60BB68013B062B00F2F1
:101A7000938001A252F823F0951A0000CB1A0000BF
:101A8000071B0000991B0000991B0000431B00006E
:101A9000651B0000454BDB6A03F47053B3F5805FB0
:101AA00009D0B3F5005F03D0B3F5006F06D008E0AE
:101AB0000223FB7308E00323FB7305E00423FB739D
:101AC00002E00523FB7300BF69E0384B9B6A03F01B
:101AD0000303022B06D0032B07D0012B08D10323CD
:101AE000FB730FE00223FB730CE00623FB7309E09A
:101AF0002E4B9B6A03F48033002B02D00923FB7327
:101B000000E000BF4BE0294B9B6A03F00C03082B5D
:101B100006D00C2B07D0042B08D10323FB730FE056
:101B20000223FB730CE00623FB7309E01F4B9B6A47
:101B300003F48013002B02D00923FB7300E000BFE5
:101B40002DE01A4B1B6803F08053002B03D0B3F138
:101B5000805F03D023E00723FB7302E00823FB73BD
:101B600000BF1CE0114BDB6A03F46033B3F5803F28
:101B700008D0B3F5003F08D0B3F5004F08D10823D3
:101B8000FB7308E00223FB7305E00323FB7302E011
:101B90000123FB7300BF02E00023FB7300BFFB7B4C
:101BA00018461437BD465DF8047B704700800C4032
:101BB00090B589B000AF78600B46FB700323FB61E2
:101BC0000323FB7600233B617B6803F00F03FB607C
:101BD000FB68013B062B00F2348101A252F823F08E
:101BE000FD1B0000E91C0000E91C0000431E000072
:101BF000431E0000B11D0000DB1D0000FB78023B0E
:101C0000072B00F2228101A252F823F02D1C0000C4
:101C1000371C0000411C00008B1C00004B1E000004
:101C20004B1E00004B1E00004B1E00000423FB61F6
:101C30000023FB7639E00323FB610123FB7634E0CC
:101C40000223FB610223FB76FFF7A8FB03465C1C23
:101C5000FFF7A4FB034620461946FFF7DBFB01F024
:101C60009FF802467C4B9A4206D97C4B7B4A12680D
:101C700042F060021A6018E0784B784A126822F04D
:101C8000600242F020021A600FE00123FB6103238F
:101C9000FB76FFF783FB03465C1CFFF77FFB0346E5
:101CA00020461946FFF7B6FB00BFFB7E1846012110
:101CB000012200F0D9F8FFF7B5FC684BFA695A62C7
:101CC0006748FFF7DBFD0446FFF768FB0346204645
:101CD0001946FFF79FFB00F033FD00F0BDFFB86031
:101CE000B868FFF743FCADE0FB78013B082B00F23E
:101CF000AE8001A252F823F01D1D0000231D00003C
:101D0000331D00004F1E00004F1E0000431D000049
:101D10004F1E00004F1E0000671D000000237B6166
:101D200026E000200121012200F09EF802237B61C1
:101D30001EE001200121012200F096F801237B61C1
:101D400016E000F089FFB860FFF728FB0346B8688B
:101D50001946FFF75FFB434804210122FFF7BAFA57
:101D600003237B6104E000237B6101233B6100BF0F
:101D7000FB68022B0DD1394A384B9B6A23F4803320
:101D800023F00303796919433B691B040B439362F6
:101D900058E0324A314B9B6A23F4801323F00C0342
:101DA0007969890019433B691B050B43936249E03C
:101DB000FB78072B02D0082B07D049E0274B274A96
:101DC000126822F080521A6006E0244B234A1268FF
:101DD00042F080521A6000BF34E0FB78032B14D02D
:101DE000082B22D0022B00D032E00020012101225A
:101DF00000F03AF8194B40225A6200BF174BDB6AD9
:101E000003F48033002BF9D01AE0012001210122D4
:101E100000F02AF8114B60225A6200BF0F4BDB6AB8
:101E200003F40033002BF9D00AE00C4B20225A6255
:101E300000BF0A4BDB6A03F40043002BF9D000BF5C
:101E400000E000BFFFF704FB02E000BF00E000BFBE
:101E50002437BD4690BD00BF0048E80100800C401B
:101E60000043020040800C4080B586B000AF1346AE
:101E70000246FA710A46BA717B71FB79042B4AD883
:101E800001A252F823F000BFD51E0000C71E0000BB
:101E9000AB1E00009D1E0000B91E000001233B6127
:101EA0000223FB6001237B611DE004233B610823C7
:101EB000FB6003237B6116E010233B612023FB6062
:101EC00005237B610FE040233B618023FB600723F8
:101ED0007B6108E04FF480733B614FF40073FB605B
:101EE00009237B6100BFBB79002B0ED00C4B3A69F4
:101EF0001A627B79002B0BD000BF0A487969FFF783
:101F0000FFF90346002BF8D002E0054BFA681A628D
:101F100000F016FC00E000BF1837BD4680BD00BFD2
:101F200000800C402C800C4080B483B000AF03468E
:101F3000FB71084B97F907205209F97901F01F014D
:101F4000012000FA01F143F822100C37BD465DF87C
:101F5000047B704700E100E080B483B000AF03462B
:101F6000FB71094B97F907205209F97901F01F011C
:101F7000012000FA01F1203243F822100C37BD464F
:101F80005DF8047B704700BF00E100E080B483B0DF
:101F900000AF0346FB71094B97F907205209F97905
:101FA00001F01F01012000FA01F1603243F8221014
:101FB0000C37BD465DF8047B704700BF00E100E0D0
:101FC00080B487B000AFF860B9607A60FB6803F155
:101FD0000473DA00BB6813449B007B617B697A68F9
:101FE0001A601C37BD465DF8047B704780B489B029
:101FF00000AF7860F970BA707B707B681A013C4B57
:102000009B681344BB61BB78002B02D0BB69FB61AA
:1020100005E07B681A01364BDB681344FB61BB6942
:10202000DB687B617B69002B02D0BA787B691A720E
:10203000FB6A002B14D0FB699B6803F040639B0E86
:102040003B613B69032B03D1FB69FA6A1A6007E025
:102050003B693A6B9A40FB6A13441A46FB691A6063
:10206000BB6A002B12D0FB699B689B0F3B613B69ED
:10207000032B03D1FB69BA6A5A6007E03B693A6BEC
:102080009A40BB6A13441A46FB695A607B68012276
:1020900002FA03F3FB607B78002B03D0144BFA6841
:1020A0009A6102E0124BFA68DA61BB78002B03D028
:1020B0000F4BFA685A6302E00D4BFA681A63FB692A
:1020C0009B6823F47F5323F03703BB603B6B1B01FA
:1020D000BA681343BB60FB78BA681343BB60FB6903
:1020E000BA689A602437BD465DF8047B704700BF2C
:1020F00000200C4080B58AB000AF334B03F580530D
:102100001B68BB61304B03F580530C331B68BA6905
:102110001340BB612C4B9B6B7B61BA697B6913409D
:102120003B620023FB6149E000237B623BE03B6AAA
:1021300003F00103002B30D0234B9B683B6101224D
:102140007B6A02FA03F3FB601F4B03F580530833ED
:10215000FA681A607B6A1B013A691344DB68BB604A
:10216000BB68002B19D0BB681B7A7B60BB681B7AED
:1021700083F00103DAB2BB681A72BB681B68002BDC
:102180000BD0BB681B68786A7A68002A0CBF0022F3
:102190000122D1B2BA68526898473B6A5B083B6239
:1021A0007B6A01337B623B6A002BC0D17B69DA43D7
:1021B000BB6913403B62FB690133FB61FB69012B87
:1021C000B2DD2837BD4680BD00200C4080B588B008
:1021D00004AFF8607B600B46FB721346BB72FA7A61
:1021E000BB7A79680091B9690191F9690291F8683F
:1021F0000121FFF7FBFE044BFA68012101FA02F20C
:102200009A621037BD4680BD00200C4080B584B076
:1022100000AF786039601F4B9B68FB607B681B01D7
:10222000FA6813443A689268DA603B681B78002BBE
:1022300006D0184B7A68012101FA02F29A6305E090
:10224000144B7A68012101FA02F2DA63114B3A6801
:1022500051687A6802F5886243F822103B685B781F
:10226000002B0ED00B4B7A68012101FA02F203F524
:10227000805308331A60084879680122FFF7A0FEEE
:1022800004E0054879680022FFF79AFE1037BD4642
:1022900080BD00BF00200C400C300C4080B487B0E3
:1022A00000AFF8600B467A60FB72FB7A002B03D01C
:1022B000154B9B687B6102E0134BDB687B61FB681D
:1022C0001B017A6913447B617B681B789A077B68E2
:1022D0009B781B071A437B685B789B061A437B68D5
:1022E0009B781B0613431A467B681B799B041A4391
:1022F0007B68DB789B031A437B699A601C37BD4679
:102300005DF8047B704700BF00200C4080B582B0B0
:1023100000AF786010480121FFF744FA00F020F880
:102320000020FFF733FE0020FFF7FEFD0B4B03F507
:1023300080530C334FF000421A60084B7A685268A1
:102340009A60064B7A681278520142F001025A6094
:102350000837BD4680BD00BF0003020000200C40CE
:1023600080B582B000AF0020FFF7F6FD1C4B0022C5
:102370005A601B4B40F6FF72DA61194B40F6FF7250
:102380005A62174B40F6FF72DA62154B40F6FF7245
:102390005A63134B40F6FF72DA63114B0122DA6481
:1023A0000F4B03F580530C3300221A600C4B03F5DE
:1023B000805308330B4A1A6000237B6009E0084B06
:1023C0007A6802F58862002143F822107B680133A5
:1023D0007B607B680B2BF2DD0837BD4680BD00BFFC
:1023E00000200C40FF0F008080B500AF00F034FCEF
:1023F00080BD00BF80B400AF034B4AF6E8529A603C
:10240000BD465DF8047B704700600C4080B400AFAF
:10241000034B0022C3F88420BD465DF8047B70475F
:1024200000800C4080B400AF044B45F60E02C3F8A8
:102430008420BD465DF8047B704700BF00800C40DF
:1024400080B582B000AF384BD3F8843003F001037D
:102450007B60FFF7E7FF00233B60344B1B6803F012
:1024600001033A6813433B60304B1B6803F01003D1
:102470003A6813433B602D4B1B6803F040033A68F6
:1024800013433B60294B1B6803F004033A68134372
:102490003B60264B1B6803F480733A6813433B6030
:1024A000214B3A681A62214B1B6803F47053B3F551
:1024B000805F06D0B3F5005F0ED0B3F5006F16D085
:1024C00020E000BF184BDB6A03F08003002BF9D03B
:1024D000154B03225A6215E000BF134BDB6A03F46D
:1024E0000073002BF9D0104B04225A620AE000BF9F
:1024F0000D4BDB6A03F00803002BF9D00A4B0222D4
:102500005A6200BF094B1B6803F00103002B02D184
:10251000054B02221A627B68002B01D0FFF776FF81
:102520000837BD4680BD00BF00800C404001002040
:1025300080B483B000AF174B1B699BB203F03F031D
:102540009BB21B02FB80134B9B699BB203F0F00311
:102550009AB2FB881343FB800E4BDB6903F0F00358
:102560001B099AB2FB881343FB80FB88B3F5827F7B
:1025700003D3FB88B3F5017F01D1012300E00023E1
:1025800003F00103DBB218460C37BD465DF8047B4F
:10259000704700BFD0FF0FE080B586B000AF0346A4
:1025A000FB711F4BDA6A1F4B1A601F4B1E4A1269E0
:1025B00042F004021A61FFF7BBFF0346FB75FB7D87
:1025C000002B11D0194B1A68194B1340FB60174BA5
:1025D000FA68C3F88020154B5B6823F046033B6123
:1025E000124B3A69C3F8842030BFFB7D002B05D025
:1025F0000E4BFA681A600D4B3A695A60FB79002B52
:1026000002D0FFF71DFF07E0064B1B6803F4806351
:10261000002B01D1FFF7E8FE1837BD4680BD00BF93
:1026200000800C404001002000ED00E000E100E0EF
:102630009CF1FD0080B586B000AF0346FB71274BCF
:10264000DA6A274B1A60254BD3F8843003F0010374
:102650007B61FFF7E7FE214B4FF420721A627B6922
:10266000002B01D0FFF7D2FE1E4B1E4A126942F02A
:1026700004021A61FFF75CFF0346FB74FB7C002B2E
:1026800011D0194B1A68194B1340BB60164BBA682E
:10269000C3F88020144B5B6823F04603FB60124BA9
:1026A000FA68C3F8842030BFFB7C002B05D00E4BAA
:1026B000BA681A600C4BFA685A60FB79002B02D09A
:1026C000FFF7BEFE07E0064B1B6803F48063002B98
:1026D00001D1FFF789FE1837BD4680BD00800C4050
:1026E0004001002000ED00E000E100E09CF1FD0071
:1026F00080B584B000AF114B1B6823F00C0343F08E
:102700000803BB600D4B1B6843F00C037B60FFF7B5
:1027100071FE0023FB6008E0084BBA681A60074BA3
:102720007A681A60FB680133FB60FB68032BF3DDFA
:10273000024BBA681A601037BD4680BD00600C407D
:1027400080B400AF034BDA6A034B1A60BD465DF8F4
:10275000047B704700800C404001002080B483B0AF
:1027600000AF03463960FB71FB79002B0DD0FB797C
:10277000012B0AD0FB79022B07D0FB79032B04D065
:10278000FB79042B01D0FB79052B0948FA793B68CA
:10279000012101FA03F319461346DB0013449B00A1
:1027A0000344103359600C37BD465DF8047B704715
:1027B0000060004080B483B000AF03463960FB7115
:1027C000FB79002B0DD0FB79012B0AD0FB79022B72
:1027D00007D0FB79032B04D0FB79042B01D0FB79C4
:1027E000052B0948FA793B68012101FA03F31946E0
:1027F0001346DB0013449B000344103319600C376D
:10280000BD465DF8047B70470060004090B585B020
:1028100000AFB9607B600346FB731346BB73FB7B61
:10282000002B0DD0FB7B012B0AD0FB7B022B07D0AA
:10283000FB7B032B04D0FB7B042B01D0FB7B052B04
:10284000BB7B002B0DD07B68002B05D0FB7B184693
:10285000B968FFF7AFFF04E0FB7B1846B968FFF7E4
:102860007DFFBB68072B1DD82B48FA7B2A4CF97BD0
:102870000B46DB000B449B0023445968BB689B005C
:102880000F2404FA03F3DB431940BC7BBB689B00B5
:1028900004FA03F319431346DB0013449B0003447B
:1028A000596024E01C48FA7B1B4CF97B0B46DB008B
:1028B0000B449B00234408331968BB6803F1804331
:1028C000083B9B000F2404FA03F3DB431940BC7B55
:1028D000BB6803F18043083B9B0004FA03F31943F0
:1028E0001346DB0013449B00034408331960BB7B91
:1028F000002B0DD17B68002B05D0FB7B1846B968F7
:10290000FFF758FF04E0FB7B1846B968FFF726FF86
:102910001437BD4690BD00BF0060004080B487B052
:1029200000AFF860B9607A60FA68114B9A4208D13A
:10293000BB68012B05D87B681B0C1B04002B00D146
:1029400000BFBB68002B02D0012B04D00AE0FB685B
:1029500010337B6103E0FB6814337B6100BF7B694C
:102960007A681A601C37BD465DF8047B704700BF6B
:102970000020084080B483B000AF78600B46FB7045
:10298000FB78002B03D07B6801225A6002E07B6851
:1029900002225A600C37BD465DF8047B704700BFC9
:1029A00080B485B000AF786039600023FB603B687D
:1029B0001B7883F00103DBB2002B08D07B689B6897
:1029C00003F00103002B02D07B6802225A603B68AF
:1029D0005B78002B03D0FB6843F48053FB603B68BB
:1029E0009B78002B03D0FB6843F48063FB603B685B
:1029F000DB78002B03D0FB6843F40063FB603B688B
:102A00001B79002B03D0FB6843F40073FB603B6829
:102A10005B79002B03D0FB6843F48073FB603B6859
:102A20009B79002B03D0FB6843F04003FB603B68BD
:102A3000DB79002B03D0FB6843F08003FB603B682D
:102A40001B7A9B00FA681343FB603B685B7A1B01AF
:102A5000FA681343FB603B689B7AFA681343FB6098
:102A60007B68FA681A603B681B78002B08D07B688B
:102A70009B6803F00103002B02D17B6801225A609E
:102A80001437BD465DF8047B704700BF80B485B045
:102A900000AF7860194B5B69DBB203F00F03DBB268
:102AA0009B00FB73154B1B6903F0C0039B09DAB253
:102AB000FB7B1343FB737B68FA7B9A700F4B1B699C
:102AC000DBB203F03F03DAB27B685A700B4B9B69B1
:102AD000DBB223F00F03FB73084BDB6903F0F00359
:102AE0001B09DAB2FB7B1343FB737B68FA7B1A701A
:102AF0001437BD465DF8047B704700BFD0FF0FE080
:102B000080B483B000AF786039607A683B4B9A42FA
:102B10000BD07A683A4B9A4207D07A68394B9A427E
:102B200003D07A68384B9A4200D100BF3B681B78CB
:102B300083F00103DBB2002B02D07B6802225A60D3
:102B40007B6800225A623B689B781A063B68DB78F8
:102B50001B041A433B689B799B021A433B68DB7951
:102B60001B021A433B681B7A1A433B685B78002BB5
:102B700001D0402300E000231A433B685B7A002B1E
:102B800001D0802300E000231A433B689B7A002B8E
:102B900001D0202300E000231A433B68DB7A002B9E
:102BA00001D0102300E000231A433B681B79002B5F
:102BB00002D04FF4005300E000231A433B685B79D6
:102BC000002B02D04FF0805300E000231A433B68F3
:102BD0001B7B002B01D0082300E000231A437B68F5
:102BE0001A603B681B78002B02D07B6801225A6078
:102BF0000C37BD465DF8047B704700BF0000014004
:102C00000004014000080140000C014006488047D4
:102C10000649074A074B9A42BEBF51F8040B42F8D7
:102C2000040BF8E7FDF786FAB92D0000983C000088
:102C30000000002094000020FEE700BF80B400AF39
:102C4000044BDB6C1B0EDBB21846BD465DF8047B03
:102C5000704700BFB081E00F80B582B000AF00F0D8
:102C60001FF87860074B5B6803F00F037A6822FA5D
:102C700003F37B60044B7A681A607B681846083758
:102C8000BD4680BD00800C40DC0B002080B400AF4E
:102C9000024B1846BD465DF8047B7047006CDC02B1
:102CA00080B582B000AF334BDB6A03F47053B3F5E9
:102CB000805F0AD0B3F5005F03D0B3F5006F08D092
:102CC0000BE02D4B1B687B6047E04FF400437B60BB
:102CD00043E02A4B1B687B603FE0264BDB6803F434
:102CE000E063B3F5007F1BD0B3F5007F05D8002B60
:102CF00024D0B3F5807F16D02BE0B3F5806F09D0D8
:102D0000B3F5A06F03D0B3F5407F06D021E01C4B94
:102D10007B6021E01B4B7B601EE01B4B7B601BE05C
:102D20001A4B7B6018E0FFF789FF0346122B02D98C
:102D3000174B7B6010E0174B7B600DE0FFF77EFFC9
:102D40000346122B02D9144B7B6005E0134B7B60CA
:102D500002E000237B6000BF00BF064B1B6803F44A
:102D6000E0339B0B01337A68B2FBF3F31846083764
:102D7000BD4680BD00800C402400002020000020C3
:102D8000003FAB01406F4001809FD500C0D8A70035
:102D900040B56400C0CF6A00804F120040420F006F
:102DA00080B400AF034B1B681846BD465DF8047B3A
:102DB000704700BF2000002080B400AFBD465DF822
:102DC000047B704780B400AF4FF400431846BD4603
:102DD0005DF8047B704700BF80B400AF4FF47A7396
:102DE0001846BD465DF8047B704700BF80B400AF55
:102DF000034B1B681846BD465DF8047B704700BF57
:102E00002400002081F0004102E000BF83F0004375
:102E100030B54FEA41044FEA430594EA050F08BF75
:102E200090EA020F1FBF54EA000C55EA020C7FEA39
:102E3000645C7FEA655C00F0E2804FEA5454D4EBB6
:102E40005555B8BF6D420CDD2C4480EA020281EA80
:102E5000030382EA000083EA010180EA020281EAB8
:102E60000303362D88BF30BD11F0004F4FEA01310A
:102E70004FF4801C4CEA113102D0404261EB410119
:102E800013F0004F4FEA03334CEA133302D052429F
:102E900063EB430394EA050F00F0A780A4F101045B
:102EA000D5F1200E0DDB02FA0EFC22FA05F2801895
:102EB00041F1000103FA0EF2801843FA05F359417B
:102EC0000EE0A5F120050EF1200E012A03FA0EFCFA
:102ED00028BF4CF0020C43FA05F3C01851EBE37124
:102EE00001F0004507D54FF0000EDCF1000C7EEB41
:102EF00000006EEB0101B1F5801F1BD3B1F5001F7F
:102F00000CD349085FEA30004FEA3C0C04F101049D
:102F10004FEA445212F5800F80F09A80BCF1004FC6
:102F200008BF5FEA500C50F1000041EB045141EA48
:102F3000050130BD5FEA4C0C404141EB010111F449
:102F4000801FA4F10104E9D191F0000F04BF0146F4
:102F50000020B1FA81F308BF2033A3F10B03B3F1D2
:102F600020020CDA0C3208DD02F1140CC2F10C0262
:102F700001FA0CF021FA02F10CE002F11402D8BFC0
:102F8000C2F1200C01FA02F120FA0CFCDCBF41EA8C
:102F90000C019040E41AA2BF01EB0451294330BD5B
:102FA0006FEA04041F3C1CDA0C340EDC04F1140438
:102FB000C4F1200220FA04F001FA02F340EA03000F
:102FC00021FA04F345EA030130BDC4F10C04C4F155
:102FD000200220FA02F001FA04F340EA0300294635
:102FE00030BD21FA04F0294630BD94F0000F83F47F
:102FF000801306BF81F480110134013D4EE77FEA62
:10300000645C18BF7FEA655C29D094EA050F08BFAD
:1030100090EA020F05D054EA000C04BF194610468E
:1030200030BD91EA030F1EBF0021002030BD5FEAD2
:10303000545C05D14000494128BF41F0004130BDFA
:1030400014F580043CBF01F5801130BD01F000454E
:1030500045F0FE4141F470014FF0000030BD7FEAC1
:10306000645C1ABF194610467FEA655C1CBF0B46BC
:10307000024650EA013406BF52EA033591EA030FD3
:1030800041F4002130BD00BF90F0000F04BF0021CB
:10309000704730B54FF4806404F132044FF00005FE
:1030A0004FF0000150E700BF90F0000F04BF002177
:1030B000704730B54FF4806404F1320410F00045DD
:1030C00048BF40424FF000013EE700BF42004FEAD8
:1030D000E2014FEA31014FEA02701FBF12F07F4355
:1030E00093F07F4F81F06051704792F0000F14BF52
:1030F00093F07F4F704730B54FF4607401F0004596
:1031000021F0004120E700BF50EA010208BF7047EC
:1031100030B54FF000050AE050EA010208BF7047E1
:1031200030B511F0004502D5404261EB41014FF44A
:10313000806404F132045FEA915C3FF4DCAE4FF04E
:1031400003025FEADC0C18BF03325FEADC0C18BF35
:10315000033202EBDC02C2F1200300FA03FC20FA86
:1031600002F001FA03FE40EA0E0021FA02F11444D3
:10317000C1E600BF70B54FF0FF0C4CF4E06C1CEAE8
:1031800011541DBF1CEA135594EA0C0F95EA0C0F5D
:1031900000F0DEF82C4481EA030621EA4C5123EAD0
:1031A0004C5350EA013518BF52EA033541F48011FF
:1031B00043F4801338D0A0FB02CE4FF00005E1FBB2
:1031C00002E506F00042E0FB03E54FF00006E1FBFC
:1031D00003569CF0000F18BF4EF0010EA4F1FF043F
:1031E000B6F5007F64F5407404D25FEA4E0E6D417F
:1031F00046EB060642EAC62141EA55514FEAC52090
:1032000040EA5E504FEACE2EB4F1FD0C88BFBCF50B
:10321000E06F1ED8BEF1004F08BF5FEA500E50F1BC
:10322000000041EB045170BD06F0004646EA010182
:1032300040EA020081EA0301B4EB5C04C2BFD4EBB4
:103240000C0541EA045170BD41F480114FF0000EAD
:10325000013C00F3AB8014F1360FDEBF002001F01B
:10326000004170BDC4F10004203C35DA0C341BDC95
:1032700004F11404C4F1200500FA05F320FA04F067
:1032800001FA05F240EA020001F0004221F000419B
:1032900010EBD37021FA04F642EB06015EEA430E0E
:1032A00008BF20EAD37070BDC4F10C04C4F120053E
:1032B00000FA04F320FA05F001FA04F240EA0200F1
:1032C00001F0004110EBD37041F100015EEA430EC2
:1032D00008BF20EAD37070BDC4F1200500FA05F2E2
:1032E0004EEA020E20FA04F301FA05F243EA020361
:1032F00021FA04F001F0004121FA04F220EA020070
:1033000000EBD3705EEA430E08BF20EAD37070BDB5
:1033100094F0000F0FD101F00046400041EB010195
:1033200011F4801F08BF013CF7D041EA060195F077
:10333000000F18BF704703F00046520043EB030331
:1033400013F4801F08BF013DF7D043EA060370471E
:1033500094EA0C0F0CEA135518BF95EA0C0F0CD029
:1033600050EA410618BF52EA4306D1D181EA03016F
:1033700001F000414FF0000070BD50EA410606BF69
:103380001046194652EA430619D094EA0C0F02D1AE
:1033900050EA013613D195EA0C0F05D152EA0336F3
:1033A0001CBF104619460AD181EA030101F0004111
:1033B00041F0FE4141F470014FF0000070BD41F05A
:1033C000FE4141F4780170BD70B54FF0FF0C4CF434
:1033D000E06C1CEA11541DBF1CEA135594EA0C0F53
:1033E00095EA0C0F00F0A7F8A4EB050481EA030EA0
:1033F00052EA03354FEA013100F088804FEA033387
:103400004FF0805545EA131343EA12634FEA022254
:1034100045EA111545EA10654FEA00260EF0004115
:103420009D4208BF964244F1FD0404F5407402D267
:103430005B084FEA3202B61A65EB03055B084FEAF8
:1034400032024FF480104FF4002CB6EB020E75EBF5
:10345000030E22BFB61A754640EA0C005B084FEA1D
:103460003202B6EB020E75EB030E22BFB61A75469A
:1034700040EA5C005B084FEA3202B6EB020E75EBE5
:10348000030E22BFB61A754640EA9C005B084FEA5D
:103490003202B6EB020E75EB030E22BFB61A75466A
:1034A00040EADC0055EA060E18D04FEA051545EA59
:1034B00016754FEA06164FEAC30343EA52734FEA02
:1034C000C2025FEA1C1CC0D111F4801F0BD141EA7B
:1034D00000014FF000004FF0004CB6E711F4801FE0
:1034E00004BF01430020B4F1FD0C88BFBCF5E06FC0
:1034F0003FF6AFAEB5EB030C04BFB6EB020C5FEAD0
:10350000500C50F1000041EB045170BD0EF0004E24
:103510004EEA113114EB5C04C2BFD4EB0C0541EA56
:10352000045170BD41F480114FF0000E013C90E653
:1035300045EA060E8DE60CEA135594EA0C0F08BF17
:1035400095EA0C0F3FF43BAF94EA0C0F0AD150EA16
:1035500001347FF434AF95EA0C0F7FF425AF1046A9
:1035600019462CE795EA0C0F06D152EA03353FF4D1
:10357000FDAE1046194622E750EA410618BF52EA4E
:1035800043067FF4C5AE50EA41047FF40DAF52EA22
:1035900043057FF4EBAE12E74FEA410212F5001249
:1035A00015D211D56FF47873B3EB625212D94FEA8A
:1035B000C12343F0004343EA505311F0004F23FA74
:1035C00002F018BF404270474FF00000704750EAC9
:1035D000013005D111F0004008BF6FF00040704786
:1035E0004FF00000704700BF80F0004002E000BFD5
:1035F00081F0004142001FBF5FEA410392EA030FDE
:103600007FEA226C7FEA236C6AD04FEA1262D2EB27
:103610001363C1BFD218414048404140B8BF5B422C
:10362000192B88BF704710F0004F40F4000020F0C5
:103630007F4018BF404211F0004F41F4000121F0DB
:103640007F4118BF494292EA030F3FD0A2F1010225
:1036500041FA03FC10EB0C00C3F1200301FA03F163
:1036600000F0004302D5494260EB4000B0F5000F86
:1036700013D3B0F1807F06D340084FEA310102F145
:103680000102FE2A51D2B1F1004F40EBC25008BFF7
:1036900020F0010040EA03007047490040EB0000C1
:1036A00010F4000FA2F10102EDD1B0FA80FCACF1F0
:1036B000080CB2EB0C0200FA0CF0AABF00EBC250EF
:1036C00052421843BCBFD0401843704792F0000FDD
:1036D00081F4000106BF80F400000132013BB5E730
:1036E0004FEA41037FEA226C18BF7FEA236C21D0A6
:1036F00092EA030F04D092F0000F08BF084670470B
:1037000090EA010F1CBF0020704712F07F4F04D1D8
:10371000400028BF40F00040704712F100723CBFEB
:1037200000F50000704700F0004343F0FE4040F415
:10373000000070477FEA226216BF08467FEA2363D3
:103740000146420206BF5FEA412390EA010F40F4BE
:10375000800070474FF0000304E000BF10F000430A
:1037600048BF40425FEA000C08BF704743F09643F1
:1037700001464FF000001CE050EA010208BF70470C
:103780004FF000030AE000BF50EA010208BF704793
:1037900011F0004302D5404261EB41015FEA010CA8
:1037A00002BF84460146002043F0B64308BFA3F1A0
:1037B0008053A3F50003BCFA8CF2083AA3EBC25382
:1037C00010DB01FA02FC634400FA02FCC2F12002A1
:1037D000BCF1004F20FA02F243EB020008BF20F0D8
:1037E0000100704702F1200201FA02FCC2F120023E
:1037F00050EA4C0021FA02F243EB020008BF20EA33
:10380000DC7070474FF0FF0C1CEAD0521EBF1CEA60
:10381000D15392EA0C0F93EA0C0F6FD01A4480EA4E
:10382000010C400218BF5FEA41211ED04FF0006337
:1038300043EA501043EA5111A0FB01310CF0004063
:10384000B1F5000F3EBF490041EAD3715B0040EA89
:10385000010062F17F02FD2A1DD8B3F1004F40EB59
:10386000C25008BF20F00100704790F0000F0CF02C
:10387000004C08BF49024CEA502040EA51207F3AF0
:10388000C2BFD2F1FF0340EAC250704740F40000CB
:103890004FF00003013A5DDC12F1190FDCBF00F0BC
:1038A00000407047C2F10002410021FA02F1C2F16A
:1038B000200200FA02FC5FEA310040F1000053EA06
:1038C0004C0308BF20EADC70704792F0000F00F054
:1038D000004C02BF400010F4000F013AF9D040EA5A
:1038E0000C0093F0000F01F0004C02BF490011F4EE
:1038F000000F013BF9D041EA0C018FE70CEAD153EC
:1039000092EA0C0F18BF93EA0C0F0AD030F0004C6B
:1039100018BF31F0004CD8D180EA010000F000401F
:10392000704790F0000F17BF90F0004F084691F0DD
:10393000000F91F0004F14D092EA0C0F01D1420217
:103940000FD193EA0C0F03D14B0218BF084608D1E0
:1039500080EA010000F0004040F0FE4040F400002A
:10396000704740F0FE4040F4400070474FF0FF0CBD
:103970001CEAD0521EBF1CEAD15392EA0C0F93EA04
:103980000C0F69D0A2EB030280EA010C49024FEA56
:10399000402037D04FF0805343EA111143EA10130F
:1039A0000CF000408B4238BF5B0042F17D024FF4C7
:1039B000000C8B4224BF5B1A40EA0C00B3EB510FA2
:1039C00024BFA3EB510340EA5C00B3EB910F24BF8B
:1039D000A3EB910340EA9C00B3EBD10F24BFA3EB10
:1039E000D10340EADC001B0118BF5FEA1C1CE0D1D8
:1039F000FD2A3FF650AF8B4240EBC25008BF20F08B
:103A0000010070470CF0004C4CEA50207F32C2BFDE
:103A1000D2F1FF0340EAC250704740F400004FF07B
:103A20000003013A37E792F0000F00F0004C02BFAC
:103A3000400010F4000F013AF9D040EA0C0093F076
:103A4000000F01F0004C02BF490011F4000F013BD0
:103A5000F9D041EA0C0195E70CEAD15392EA0C0F38
:103A600008D142027FF47DAF93EA0C0F7FF470AF70
:103A7000084676E793EA0C0F04D14B023FF44CAFB3
:103A800008466EE730F0004C18BF31F0004CCAD148
:103A900030F000427FF45CAF31F000437FF43CAF84
:103AA0005FE700BF4FF0FF3C06E000BF4FF0010CA6
:103AB00002E000BF4FF0010C4DF804CD4FEA400288
:103AC0004FEA41037FEA226C18BF7FEA236C11D0D2
:103AD00001B052EA530C18BF90EA010F58BFB2EB85
:103AE000030088BFC81738BF6FEAE17018BF40F005
:103AF000010070477FEA226C02D15FEA402C05D1B9
:103B00007FEA236CE4D15FEA412CE1D05DF8040B3D
:103B1000704700BF844608466146FFE70FB5FFF7D0
:103B2000C9FF002848BF10F1000F0FBD4DF808ED88
:103B3000FFF7F4FF0CBF012000205DF808FB00BF79
:103B40004DF808EDFFF7EAFF34BF012000205DF8D3
:103B500008FB00BF4DF808EDFFF7E0FF94BF012020
:103B600000205DF808FB00BF4DF808EDFFF7D2FF1D
:103B700094BF012000205DF808FB00BF4DF808ED60
:103B8000FFF7C8FF34BF012000205DF808FB00BF2D
:103B900042000ED2B2F1FE4F0BD34FF09E03B3EBB7
:103BA000126209D44FEA002343F0004323FA02F0E3
:103BB00070474FF00000704712F1610F01D14202CF
:103BC00002D14FF0FF3070474FF00000704700BF48
:103BD00008B5074B044613B10021AFF30080054B35
:103BE0001868836A03B19847204600F033F800BF95
:103BF00000000000883C000070B50E4B0E4D002404
:103C0000ED1AAD101E46AC4204D056F82420904761
:103C10000134F8E700F020F8084D094B0024ED1AB4
:103C2000AD101E46AC4204D056F824209047013413
:103C3000F8E770BD88000020880000208C0000207C
:103C40008800002002440346934202D003F8011B7F
:103C5000FAE77047FEE700BFF8B500BFF8BC08BC44
:103C60009E467047F8B500BFF8BC08BC9E4670473A
:103C70000000001F6B0000000000000008000000B2
:103C800001000000430000002800002000000000A8
:083C9000A4C4FF7F0100000045
:103C980001000000E803000000010000000000002F
:103CA80000000604000100000200000001000000FE
:103CB800006CDC0200800000000000000000000032
:103CC80000000000000000000000000000000000EC
:103CD8000000000000000000843C0000000000001C
:103CE80000000000000000000000000000000000CC
:103CF80000000000000000000000000000000000BC
:103D080000000000000000000000000000000000AB
:103D1800000000000000000005010000E1000000B4
:043D28000000000097
:0400000300002C0DC0
:00000001FF
