:10000000008000204D590000795900007959000006
:100010007959000079590000795900007959000098
:100020007959000079590000795900007959000088
:100030007959000079590000795900007959000078
:100040005D3B000079590000FD1600007959000061
:100050007959000079590000111700002917000094
:10006000795900007959000079590000651600009F
:100070007959000079590000795900007959000038
:1000800079590000C50A000079590000795900002B
:100090007959000079590000795900007959000018
:1000A000550F0000795900007118000079590000BF
:1000B00079590000795900007959000079590000F8
:1000C00079590000795900007959000079590000E8
:1000D00079590000795900007959000079590000D8
:1000E00010B5054C237833B9044B13B10448AFF372
:1000F00000800123237010BD0001002000000000DB
:100100008094000008B5064B1BB106480649AFF3C2
:1001100000800648036813B1054B03B1984708BD3A
:10012000000000008094000004010020F000002086
:1001300000000000154B002B08BF134B9D46A3F594
:10014000803A00218B460F461348144A121A06F0D3
:10015000EBF90F4B002B00D098470E4B002B00D033
:1001600098470020002104000D000D48002802D00F
:100170000C48AFF3008006F0A9F92000290001F037
:1001800049FF06F08FF900BF000008000080002042
:10019000000000000000000000010020080800200E
:1001A000000000000000000080B483B000AF0346F0
:1001B000FB71084B97F907205209F97901F01F01EB
:1001C000012000FA01F143F822100C37BD465DF81A
:1001D000047B704700E100E080B483B000AF0346C9
:1001E0003960FB71FB79002B0DD0FB79012B0AD014
:1001F000FB79022B07D0FB79032B04D0FB79042B6E
:1002000001D0FB79052B0948FA793B68012101FAF5
:1002100003F319461346DB0013449B0003441033D9
:1002200019600C37BD465DF8047B704700600040E4
:1002300080B400AF0B4B72225A620A4B01225A6003
:1002400000BF084B9B6A03F04003002BF9D0054B1D
:1002500040221A63034B80221A63BD465DF8047B7B
:10026000704700BF00A4004080B582B000AF0246D6
:100270000B46FA71BB71FFF7DBFF184BFA795A6234
:1002800000BF164B9B6A03F04003002BF9D0134BC1
:1002900040221A63114B80221A63104BBA795A62BA
:1002A00000BF0E4B9B6A03F04003002BF9D00B4BB1
:1002B00040221A63094B80221A63084B02225A60BB
:1002C00000BF064B9B6A03F48073002BF9D0034BED
:1002D00080221A630837BD4680BD00BF00A40040DD
:1002E00080B584B000AF0346FB710023FB73FFF7BA
:1002F0009FFF1D4BFA795A6200BF1B4B9B6A03F0AC
:100300004003002BF9D0184B40221A63164B802271
:100310001A63154B01225A60134B73225A6200BFB5
:10032000114B9B6A03F04003002BF9D00E4B402287
:100330001A630D4B80221A6300BF0B4B9B6A03F0BC
:100340002003002BF9D0084B80221A63064BDB698F
:10035000FB73054B08225A60034B02225A60FB7B59
:1003600018461037BD4680BD00A4004080B584B05B
:1003700000AF02460B46FA71BB710023FB7380206D
:10038000FFF7AEFF0346FB73BB7903F00103BB71BC
:10039000FB79062B18D8BB79002B09D0FB790122F9
:1003A00002FA03F3DAB2FB7B1343DBB2FB7316E012
:1003B000FB79012202FA03F3DBB2DB43DAB2FB7B07
:1003C0001343DBB2FB730AE0FB79072B07D1BB7940
:1003D000002B02D07F23FB7301E00023FB73FB7B28
:1003E00080201946FFF740FF1037BD4680BD00BF93
:1003F00080B584B000AF0346FB718F20FFF770FF1C
:100400000346FB73FB7903F00303FB71FB799B004D
:10041000FB71FB7B23F00C03FB73FA7BFB7913432B
:10042000FB73FB7B8F201946FFF71EFF1037BD467D
:1004300080BD00BF80B584B000AF0346FB718F2044
:10044000FFF74EFF0346FB73FB7903F00303FB71D9
:10045000FB799B01FB71FB7B03F03F03FB73FA7B92
:10046000FB791343FB73FB7B8F201946FFF7FCFEE0
:100470001037BD4680BD00BF80B584B000AF0346D5
:10048000FB718020FFF72CFF0346FB73FB7903F021
:100490000103FB71FB795B01FB71FB7B23F0200304
:1004A000FB73FA7BFB791343FB73FB7B80201946BC
:1004B000FFF7DAFE1037BD4680BD00BF80B500AF44
:1004C00000200121FFF752FF80BD00BF80B500AFC3
:1004D0009C20FFF705FF0346184680BD80B582B01B
:1004E00000AF0346FB710120FFF782FF0020FFF7FA
:1004F000A1FFFB79002B03D00120FFF7BDFF02E035
:100500000020FFF7B9FFFFF7D9FF02200121FFF715
:100510002DFF03200121FFF75FFE0B20FFF744FEB4
:100520000837BD4680BD00BF80B582B000AF02462F
:100530000B46FA71BB71FA79BB7910461946FFF781
:1005400093FE0837BD4680BD80B500AF072000216F
:10055000FFF70CFF8120DB21FFF786FE8320F621C9
:10056000FFF782FE8E208721FFF77EFE9D2000216F
:10057000FFF77AFE9E200021FFF776FE8D20602196
:10058000FFF772FE0020FFF755FF0120FFF730FF55
:1005900089200021FFF7C8FF8B203221FFF7C4FF1D
:1005A0008C20A121FFF760FE90200121FFF75CFE67
:1005B0009F200021FFF758FE80BD00BF80B500AF2F
:1005C000FFF7C2FF0120FFF713FF89200021FFF78B
:1005D000ABFF8B203221FFF7A7FF0120FFF77EFF43
:1005E00080BD00BF80B582B000AF0346FB71FFF74E
:1005F0001FFE094BFA795A6200BF074B9B6A03F052
:100600004003002BF9D0044B40221A63024B022214
:100610005A600837BD4680BD00A4004080B500AFD9
:10062000022005210822012303F0ECFE0220042110
:100630000822012303F0E6FE80BD00BF90B585B01F
:1006400000AF0F48012102F0C3FDFFF7E7FF0D4B9C
:100650003C460FCB84E80F000B4B03229A633B46CA
:100660000948194603F0FEFF074B9B6803F001039E
:10067000002B02D0044B20225A601437BD4690BD97
:1006800000C20400488B000000A4004080B483B086
:1006900000AF0346FB71084B97F907205209F9791F
:1006A00001F01F01012000FA01F143F822100C377C
:1006B000BD465DF8047B704700E100E080B500AF07
:1006C00005F06AF980BD00BF80B400AF72B6084B78
:1006D0001B68B3F1FF3F04D0054B1B685A1C044B49
:1006E0001A60034B1B681846BD465DF8047B7047D3
:1006F000AC01002080B483B000AF0C4B1B68002B12
:100700000DD00A4B1B685A1E084B1A60074B1B681A
:100710007B607B68002B00D162B67B6800E0002321
:1007200018460C37BD465DF8047B7047AC010020CD
:1007300080B400AF034B1B6A1846BD465DF8047BCE
:10074000704700BF00C0084080B400AF034B9B6AF5
:100750001846BD465DF8047B704700BF00C00840E6
:1007600080B483B000AF7860064B7A6802F00F0265
:10077000A03253F8223018460C37BD465DF8047B92
:10078000704700BF00C0084080B483B000AF7860FD
:10079000034B7A685A640C37BD465DF8047B70479A
:1007A00000C0084080B483B000AF7860054B054AB4
:1007B000D16C7A680A43DA640C37BD465DF8047B75
:1007C000704700BF00C0084080B483B000AF7860BD
:1007D000054B054AD16C7A68D2430A40DA640C377B
:1007E000BD465DF8047B704700C0084080B483B00C
:1007F00000AF064BDB6C7B60044B1A6C7B681340CC
:1008000018460C37BD465DF8047B704700C00840B1
:1008100080B500AFFFF752FF1120052102F0DEFE88
:100820001248032102F0DAFE1148012102F0D6FE3F
:100830001048012102F0CCFC0F48012102F0C8FC55
:100840000E48012102F0C4FC0D48012102F0C0FC59
:100850000C48012102F0BCFC0B48012102F0B8FC5D
:100860000948012102F09CFB80BD00BF0200180076
:1008700003001A004081040000D20400009204002A
:1008800000A20400004302006006280080B500AF0B
:100890000220002103F018FD02200821002200237D
:1008A00003F0B0FD022009210022002303F0AAFD7D
:1008B00002200A210022002303F0A4FD02200B21C4
:1008C0000022002303F09EFD80BD00BF80B500AF75
:1008D0000A4800210022002301F082FF084800217D
:1008E0000022002301F07CFF0448064901F016FFB6
:1008F0000348044901F012FF80BD00BF0010004012
:1009000000140040948B000090B585B000AF034602
:10091000FB715B4B1B78002B03D05A48012104F07C
:1009200021FAFB79002B37D004F002FD00BFFFF75E
:10093000FFFE034603F01003002BF8D104F012FD74
:100940000020042104F0C2FA0020002104F054FB2E
:100950004D4804F081FB4D4B1B88082037211A4677
:1009600004F080FC494B5B88092037211A4604F0CB
:1009700079FC464B9B880A2037211A4604F072FC0A
:10098000424BDB880B2037211A4604F06BFC4FF4F6
:100990008030FFF719FF1EE004F0CAFC00BFFFF72C
:1009A000C7FE034603F01003002BF8D14FF480304C
:1009B000FFF7EAFE04F0D6FC0020402104F086FA9E
:1009C0000020032104F018FB314804F045FB4FF4EC
:1009D0008030FFF7E7FE1120FFF758FE04F08EFC91
:1009E000274B1B78002B47D0254B00221A7000BFE5
:1009F000284B1B6A03F00203002BF9D00023FB7382
:100A00000023BB7319E0BB7B234AD35C002B11D0BE
:100A1000FB7B032B0BD8FC7BBB7B1846FFF7A0FEB0
:100A200003469BB2013B9AB2184B23F81420FB7B80
:100A30000133FB73BB7B0133BB73BB7B0F2BE2D951
:100A4000124B1B88082037211A4604F00BFC0F4B71
:100A50005B88092037211A4604F004FC0B4B9B8865
:100A60000A2037211A4604F0FDFB084BDB880B20D7
:100A700037211A4604F0F6FB1437BD4690BD00BF7F
:100A800040000020A88B0000E88B000068010020D7
:100A9000E88D000000C00840588B000080B483B08F
:100AA00000AF78603960054B7A681A60044B3A6889
:100AB0001A600C37BD465DF8047B70475C0100206E
:100AC0006001002080B582B000AFFFF78FFE0346C3
:100AD00003F48033002B42D04FF48030FFF754FEF4
:100AE000294B00221A702EE0274B1B78DBB2274AD5
:100AF000D35C83F00103DBB2002B00D01CE0FFF7D6
:100B000023FE7860204B1B78DBB21A46204B7968B5
:100B100043F822101C4B1B78DBB21A461D4B53F8CE
:100B200022207B689A4207D2174B1B78DBB21A4609
:100B3000184B796843F82210134B1B78DBB2013352
:100B4000DAB2114B1A70104B1B78DBB20F2BCBD9DA
:100B5000114B1B68002B02D00F4B1B689847FFF707
:100B600045FE034603F47063002B0AD04FF4706017
:100B7000FFF70AFE094B1B68002B02D0074B1B68CE
:100B800098470837BD4680BD64010020588B00009F
:100B90001C010020000000205C01002060010020FA
:100BA000B0B491B000AF4FF0FF33BB63EC237B6375
:100BB0004F4B07F118041D460FCD0FC495E80300F5
:100BC00084E803004B4B3C1D1D460FCD0FC42B6822
:100BD00023600123FB6344E0FB6B9B0007F14000B3
:100BE000034453F83C3C5A1E434B53F822301A023C
:100BF000FB6B9B0007F140010B4443F8282CFB6B77
:100C00009B0007F14002134453F8282CFB6B9B0018
:100C100007F14000034453F83C3C591E374B53F84E
:100C20002130B2FBF3F2FB6B9B0007F140010B4458
:100C300043F8282CFB6B9B0007F14002134453F848
:100C4000282C7B6B9A4209D2FB6B9B0007F140007A
:100C5000034453F8283C7B63FB6BBB63FB6B0133A2
:100C6000FB63FB6B042BB7DDBB6BB3F1FF3F02D122
:100C70004FF0FF3336E0BB6B013B1B013B633A6B2C
:100C8000BB6B013B9B0007F140010B4453F8283C30
:100C9000C3F58073D900BB6B9B0007F14000034490
:100CA00053F8283CC3F58073B1FBF3F3D31A3B63CD
:100CB000BB6B01339B0007F140010B4453F8283C08
:100CC000C3F58073DA00BB6B9B0007F1400003445F
:100CD00053F8283CC3F58073B2FBF3F23B6B13442B
:100CE0003B633B6B18464437BD46B0BC704700BF02
:100CF000688B0000808B00001C0100200000002099
:100D000080B582B000AF0346FB71FFF7DDFCFFF753
:100D10007FFDFFF7BBFDFFF7D9FDFB791846FFF715
:100D2000F3FDFFF7E7FC0837BD4680BD80B500AF97
:100D30000E2005F0F1FB0246044B1A60034B002223
:100D40005A71024B00221A7180BD00BFBC01002005
:100D500080B483B000AF78607B685B79DBB2591CEC
:100D60000C4B81FB03230B44DA10CB17D21A13462A
:100D7000DB009B1A5B00CA1A7B681B79DBB29A42C4
:100D800001D1012300E0002318460C37BD465DF871
:100D9000047B70479324499280B586B000AFF86019
:100DA000B9601346FB7100237B61F868FFF7D0FF41
:100DB0000346002B01D0002328E000237B6120E0C4
:100DC000FB681A68FB685B79DBB213447A69B9681F
:100DD0000A4412781A70FB685B79DBB2591C0D4B20
:100DE00081FB03230B44DA10CB17D21A1346DB0026
:100DF0009B1A5B00CA1AD2B2FB685A717B69013335
:100E00007B61FA797B699A42DADC0123184618374C
:100E1000BD4680BD9324499280B400AF0B4B1B7933
:100E2000DBB2591C0A4B81FB03230B44DA10CB17AE
:100E3000D21A1346DB009B1A5B00CA1AD2B2034BCC
:100E40001A71BD465DF8047B704700BFBC010020ED
:100E50009324499280B483B000AF0346FB71084BE2
:100E600097F907205209F97901F01F01012000FAD2
:100E700001F143F822100C37BD465DF8047B704742
:100E800000E100E080B483B000AF0346FB71094B82
:100E900097F907205209F97901F01F01012000FAA2
:100EA00001F1603243F822100C37BD465DF8047B37
:100EB000704700BF00E100E080B400AF72B6084B9D
:100EC0001B68B3F1FF3F04D0054B1B685A1C044B51
:100ED0001A60034B1B681846BD465DF8047B7047DB
:100EE000AC01002080B483B000AF0C4B1B68002B1A
:100EF0000DD00A4B1B685A1E084B1A60074B1B6823
:100F00007B607B68002B00D162B67B6800E0002329
:100F100018460C37BD465DF8047B7047AC010020D5
:100F200080B483B000AF786039607B683A685A63F8
:100F30000C37BD465DF8047B704700BF80B483B0BA
:100F400000AF78607B68DB6A18460C37BD465DF8F9
:100F5000047B704780B582B000AFFFF7ADFF434818
:100F6000FFF7ECFF786041487968FFF7D9FF7B68AD
:100F700003F00203002B32D03D4B1B7883F00103BA
:100F8000DBB2002B2BD03B4B5B79DAB2394B1B79B0
:100F9000DBB29A4222D9354B364A1168354A12796A
:100FA000D2B20A4412789A62324B1A68314B1B79DA
:100FB000DBB2134400221A70FFF72EFF2B4B2B4A93
:100FC000926B22F002029A63284B284A926B42F0FD
:100FD00001029A63264B01221A7042E041E07B68CD
:100FE00003F00103002B3CD0214B1B78002B38D0A1
:100FF000204B5B79DAB21F4B1B79DBB29A4213D0DC
:101000001A4B1C4A11681B4A1279D2B20A44127850
:101010009A62184B1A68174B1B79DBB213440022F3
:101020001A70FFF7F9FE1CE0124B5B79DAB2114B34
:101030001B79DBB29A4214D10D4B00221A700023A7
:101040000C4A194611710B4A5371084B074A926BAF
:1010500022F001029A63054B044A526B42F00102EE
:101060005A63FFF73FFF0837BD4680BD0040084088
:1010700070010020BC01002080B485B000AFF86092
:101080000B467A60FB72054B044A126822F4005248
:101090001A601437BD465DF8047B70470040084075
:1010A00080B500AF032004210422012303F0AAF934
:1010B000032005210222012303F0A4F980BD00BF13
:1010C00080B586B000AF154B154A1A60134B00224D
:1010D0005A60124B7B6101237B7301233B73114BDD
:1010E0003B6107F10C030020194602F0C3FD002309
:1010F000FB7103233B7100237B710023BB71002331
:101100003B723B1D002001211A4602F0FBFD064BFD
:10111000064A5A601837BD4680BD00BFE807002068
:101120007910000001001000000200202840084053
:1011300090B585B000AF1348012102F049F812487C
:1011400004F00CFB114B3C460FCB84E80F003B46F0
:101150000D48194604F0C0FA0B4B0B4A526D5A6504
:10116000094B094A526D42F003025A65FFF798FF96
:101170001820FFF787FE1820FFF76CFE1437BD46D6
:1011800090BD00BF7007140000400840E88F0000C9
:1011900080B483B000AF0346FB71084B97F907207A
:1011A0005209F97901F01F01012000FA01F143F819
:1011B00022100C37BD465DF8047B704700E100E06B
:1011C00080B483B000AF0346FB71094B97F9072049
:1011D0005209F97901F01F01012000FA01F12032D2
:1011E00043F822100C37BD465DF8047B704700BF02
:1011F00000E100E080B483B000AF7860044B7A680F
:10120000C3F81C210C37BD465DF8047B704700BF56
:101210000060004080B400AF034BD3F8143118468F
:10122000BD465DF8047B70470060004080B483B029
:1012300000AF03463960FB71FB79002B0DD0FB79C1
:10124000012B0AD0FB79022B07D0FB79032B04D0AA
:10125000FB79042B01D0FB79052B0948FA793B680F
:10126000012101FA03F319461346DB0013449B00E6
:101270000344103359600C37BD465DF8047B70475A
:101280000060004080B483B000AF03463960FB715A
:10129000FB79002B0DD0FB79012B0AD0FB79022BB7
:1012A00007D0FB79032B04D0FB79042B01D0FB7909
:1012B000052B0948FA793B68012101FA03F3194625
:1012C0001346DB0013449B000344103319600C37B2
:1012D000BD465DF8047B70470060004080B584B077
:1012E00002AF39600146F971BA717B71FA79BB7945
:1012F00079790091397C0191104639683A6803F098
:101300001BF80837BD4680BD80B582B000AF0C4BDE
:101310001B687B603B46184604F058FA7B681B0E3E
:101320000F2B0AD93B78032B07D1064B054A1268CD
:1013300022F0500242F010021A600837BD4680BD0C
:10134000FC81E00FC0800C4080B400AF72B6084B47
:101350001B68B3F1FF3F04D0054B1B685A1C044BBC
:101360001A60034B1B681846BD465DF8047B704746
:10137000AC01002080B483B000AF0C4B1B68002B85
:101380000DD00A4B1B685A1E084B1A60074B1B688E
:101390007B607B68002B00D162B67B6800E0002395
:1013A00018460C37BD465DF8047B7047AC01002041
:1013B00080B483B000AF786039607B683A689A6225
:1013C0000C37BD465DF8047B704700BF80B483B026
:1013D00000AF786039607B68DA6A3B681A437B68E3
:1013E000DA620C37BD465DF8047B704780B483B089
:1013F00000AF78600B46FB707A680F4B9A420BD0B7
:101400007A680E4B9A4207D07A680D4B9A4203D005
:101410007A680C4B9A4200D100BFFB78002B03D0B6
:101420007B6801225A6002E07B6802225A600C3716
:10143000BD465DF8047B7047000001400004014098
:1014400000080140000C014080B483B000AF786018
:1014500039607B683A689A610C37BD465DF8047B59
:10146000704700BF80B483B000AF786039607B689C
:10147000DA683B681A437B68DA600C37BD465DF872
:10148000047B704780B483B000AF786039607B68BC
:101490003A681A620C37BD465DF8047B704700BF9E
:1014A00080B483B000AF78600B46FB70FA787B683D
:1014B0005A600C37BD465DF8047B704780B586B036
:1014C00000AF7860164B1B6803F47F031B0C1846B3
:1014D00004F0A6FD03467B61124B1B681B0D1846EA
:1014E00004F09EFD03463B610F4BFB60786804F0FF
:1014F0009BFD03463869194604F0E0FC0346184694
:10150000F96804F099FE03467869194604F0D6FCA0
:101510000346BB60BB6818461837BD4680BD00BF98
:10152000B081E00FBC81E00FD7A3C8C080B58AB0FE
:1015300002AFF8600B467A60FB720023FB614FF04C
:1015400000037B610023BB613A4B3A4A526842F088
:1015500002025A60012001F061F80023BB610BE038
:10156000354BBA6933F812309BB21BB2FA69134497
:10157000FB61BB690133BB61BB69B3F5FA7FEFDB8C
:10158000FA692E4BA3FB02135B09FB61FB6918464A
:10159000FFF794FF78617869294904F04BFF03460F
:1015A000002B0BD07869274904F03AFF0346002B43
:1015B00004D004200321FFF739FE11E078692049A7
:1015C00004F024FF0346002B06D178691D4904F07E
:1015D00031FF0346002B03D004200321FFF752FE06
:1015E000194B54221A70786904F010FC02460B461D
:1015F000CDE9002315480621154A05F045F81548A0
:1016000011490622FFF7C8FB134B144A1A60144B0A
:10161000134A126842F400521A6000230093052313
:101620000193002001210022002302F003FB203758
:10163000BD4680BD0020004000040020D34D621054
:101640000000704100000C42840100208501002050
:10165000F88F0000BC01002000020020890100205A
:101660000040084080B584B002AFFFF76DFEFFF781
:10167000D1FD03461846FFF7BDFDFEF727FF0346E1
:10168000FB71174B44221A70FB79632B01D963233A
:10169000FB71FB7913480621134A04F0F5FF134848
:1016A0000F490622FFF778FB114B124A1A60124BC2
:1016B000114A126842F400521A6000230093052375
:1016C0000193002001210022002302F0B3FAE5205B
:1016D000FEF788FFFFF74EFE0837BD4680BD00BF0E
:1016E0008401002085010020FC8F0000BC01002047
:1016F00000020020890100200040084080B500AFB2
:1017000002480121FFF7A0FE80BD00BF000001409C
:1017100080B400AF034B01229A61BD465DF8047BA3
:10172000704700BF0010004080B584B002AF4FF09A
:1017300000037B60FFF708FE40480121FFF7A2FE8F
:101740003F4B1B88002B0DD03C4B5A6A3D4B1B680E
:101750001A443C4B1A603A4B1B88013B9AB2384BF7
:101760001A8066E0364B4FF4FA721A80354B1A68CD
:10177000354BA3FB02135A09324B1A60314B1B68DD
:101780001846FFF79BFE78607868304904F052FEF7
:101790000346002B0BD078682D4904F041FE034628
:1017A000002B04D004200321FFF740FD11E07868EE
:1017B000264904F02BFE0346002B06D17868244905
:1017C00004F038FE0346002B03D004200321FFF76A
:1017D00059FD1A4B194A526842F002025A601D4BD9
:1017E00054221A70786804F011FB02460B46CDE9CA
:1017F000002319480621194A04F046FF18481549E4
:101800000622FFF7C9FA174B174A1A60174B174AF7
:10181000126842F400521A600023009305230193DA
:10182000002001210022002302F004FA012000F030
:10183000F5FEFFF79FFD0837BD4680BD0020004044
:101840004200002090010020D34D62100000704142
:1018500000000C428401002085010020F88F000068
:10186000BC01002000020020890100200040084047
:1018700080B584B002AF0023FB71FFF765FD2C4BF0
:1018800001229A622A4B0022DA60294B294A126807
:101890001A61294B1B78002B06D1274B1B7801338B
:1018A000DAB2254B1A702BE0234B1B78012B13D196
:1018B000032001210122002302F0A4FD03200121C5
:1018C000FFF7E0FC0B20FFF763FC1B4B1B78013399
:1018D000DAB2194B1A7013E0174B1B78022B0FD199
:1018E0000B20FFF76DFC032001210022002302F0F2
:1018F00089FD03200121FFF799FC0F4B00221A708C
:10190000012000F0A7FE0D4B009340F2F31301936A
:101910000120012100220A4B02F08CF90948012123
:10192000FFF7BEFDFFF726FD0837BD4680BD00BFAF
:101930000020084074010020800100202420004085
:10194000000400200020004080B582B000AF0346B4
:10195000FB71FB79022B09D100200121012201F04A
:10196000B7FF1248022101F039FE0BE0FB79032B8F
:1019700008D105200121012201F0AAFF0B4809210D
:1019800001F02CFE0A48012101F022FC0948012146
:1019900001F01EFC0848022101F020FE064801214A
:1019A00001F016FC0837BD4680BD00BF02001800DC
:1019B000408104000043020003001A0080B586B095
:1019C00000AF0346FB71FB79184600F043FE364832
:1019D000012101F0FDFB01233B7300237B730023F6
:1019E000BB730023FB7300233B7400237B74002331
:1019F000BB740023FB7400233B7500237B7500231D
:101A0000BB752A4B9B6A29481946FFF7D1FC27482A
:101A10000121FFF7DBFCFB79022B18D1244B244A70
:101A2000926E42F400729A66224B4FF448421A605A
:101A3000204B1B68C3F57F43FF331E4A13601D4BC9
:101A40001B681A4800211A4603F01CFD1CE0FB79B4
:101A5000032B19D1184B1B6841F66A0202FB03F2F3
:101A6000164BA3FB02139A09154B1A60144B1B6803
:101A7000C3F57F43FF33124A1360114B1B680B48B9
:101A800000211A4603F0FEFC07F10C030748194633
:101A900003F03AFD1A20FFF77BFB0448012103F015
:101AA0001DFD1837BD4680BD60261200002008408D
:101AB00000800C40740100207C010020D34D621096
:101AC0007801002080B582B002AF1B48012101F0EF
:101AD0007FFB042002210422002302F093FC042057
:101AE00003210422002302F08DFC0320062104229E
:101AF000002302F087FC022006210022002302F0CE
:101B000081FC032000210422002302F07BFC03203F
:101B1000002102F0D9FB032001210122002302F061
:101B200071FC012300930320012100220123FFF710
:101B3000D5FBBD4680BD00BF00D2040080B588B093
:101B400000AF2148012101F043FB2048012101F0B1
:101B50003FFB07F1100300221A60043300221A60D1
:101B6000043300221A60043300221A7001333B460A
:101B700000221A60043300221A60043300221A6023
:101B8000043300221A7001330223FB7001233B73DC
:101B900007F110030E48194603F052FE3B460D486C
:101BA000194603F04DFE0A4B9B6909481946FFF799
:101BB0004BFC07480121FFF755FC0220FFF7E8FA2C
:101BC0002037BD4680BD00BF005204000062040003
:101BD000000001400004014090B587B000AF002331
:101BE0007B6100233B61012000F034FDFFF7A6FF7D
:101BF00000200121012201F06BFE5F48022101F06B
:101C0000EDFC5E48012101F0E3FA5D48012101F09D
:101C1000DFFA01233B7100237B710023BB7100239A
:101C2000FB7100233B7200237B720023BB720023F5
:101C3000FB7200233B7300237B730023BB730123E0
:101C4000BB7301233B7200233B714E4B4FF40042A8
:101C50001A613B1D4B48194603F056FC494B4FF4A3
:101C60000042DA604748012103F038FC4648012170
:101C7000FFF7BCFB45480121FFF7B8FB414BDB6890
:101C80007B6102E03F4BDB687B617B69002BF9D114
:101C90003D4B5A6A3D4B5B6A1B0413447B61002039
:101CA0000021012201F014FE05200121012201F092
:101CB0000FFE3148092101F091FC33480021FFF764
:101CC00095FB32480021FFF791FB2E4B4FF47A72BF
:101CD0001A612C4B4FF47A72DA602B4B00225A6255
:101CE0002A4B00225A622748012103F0F7FB2648BD
:101CF0000121FFF77BFB25480121FFF777FB214BF3
:101D0000DB683B6102E01F4BDB683B613B69002BFA
:101D1000F9D11D4B5A6A1D4B5B6A1B0413443B618E
:101D2000786904F07DF90446386904F079F90346CE
:101D30002046194604F080FA03461846144904F078
:101D4000C7F90346184604F089FB0246114B1A6096
:101D50000D480021FFF74AFB0C480021FFF746FB26
:101D600005200021012201F0B3FD012000F056FC06
:101D70001C37BD4690BD00BF0200180000430200A2
:101D800060261200002008400000014000040140CD
:101D900000007A447C01002080B586B000AF104876
:101DA000012101F015FA0F4A07F1100310681860BD
:101DB00092889A8007F110030B48194600F0C6FD7F
:101DC0000A4A3B1D1068516803C3127A1A703B1D02
:101DD0000548194600F0FEFD1837BD4680BD00BF1E
:101DE0000002050000900000002000400890000064
:101DF00080B588B000AF1A48012101F0E9F900234D
:101E00003B76184BFB6107F11803184601F0B2FF4F
:101E1000154B164ADA60144B00221A61144B7B6191
:101E200001237B7301233B734FF400233B6107F1D4
:101E30000C030120194601F01DFF0023FB71012353
:101E40003B7103237B710123BB7100233B723B1D5C
:101E5000012001211A4601F055FF2037BD4680BD03
:101E60000003020000020020E80700202D150000FA
:101E7000F407002080B500AF174800F095FC174824
:101E800000F092FC03F054FA08200021002203F035
:101E9000AFF909200021002203F0AAF90A2000214D
:101EA000002203F0A5F90B200021002203F0A0F985
:101EB0000B48002101F08CF90A48002101F088F953
:101EC0000948002101F084F90848002101F080F957
:101ED000022000F0A3FB80BD001000400014004071
:101EE00000D204000092040000A204006006280052
:101EF00080B400AFBD465DF8047B704780B400AF8E
:101F0000034B02221A70BD465DF8047B704700BF88
:101F10008D01002080B582B000AF0023FB7100234B
:101F2000BB71022000F096FB33483449FEF7B6FD42
:101F3000334B1B78DBB2032B55D801A252F823F0A8
:101F4000511F0000631F0000691F0000871F000071
:101F50000120FEF7D9FC00F087F9294B01221A7005
:101F600041E000F08DFB3EE00020FEF7CDFC254B6C
:101F70001B78184600F08CF9234800F09FFA204B9C
:101F800003221A702FE000F07BFBFEF709FE386099
:101F9000386800F0D9F93B68B3F1FF3F22D03B68C5
:101FA000282B16DDFB7983F00103DBB2002B10D068
:101FB0000123FB71154B1A683B681A44134B1A60D6
:101FC000124B1B68BF2B04DD114800F077FA012388
:101FD000BB713B680E2B05DCFB79002B02D0002384
:101FE000FB71FFE700BFBB79002B00D000E09FE74B
:101FF0000837BD4680BD00BFF11E0000FD1E000079
:102000008D0100208C01002014900000940100201C
:102010001C90000080B500AFFFF776F9032000F0B8
:1020200019FB0120FEF76CFEFFF774FFFFF722FF9C
:10203000FFF7D2FD0220FFF787FCFEF777FEFFF7E0
:1020400041FDFFF775F8FFF7A7FEFFF7D1FEFFF799
:1020500037F8FEF7F3FAFEF7B1FA0220FFF7AEFC0D
:1020600000F00EFBFCE700BF80B483B000AF034676
:10207000FB71FB79002B06D0084B084A126842F02E
:1020800001021A6005E0054B044A126822F00102C1
:102090001A600C37BD465DF8047B704700A008400D
:1020A00080B483B000AF0346FB71FB79002B03D0F3
:1020B000054B01221A6602E0034B00221A660C3718
:1020C000BD465DF8047B704700A0084080B483B033
:1020D00000AF786000BF054B5A6E7B681340002B41
:1020E000F9D10C37BD465DF8047B704700A008406D
:1020F00080B483B000AF7860054B054A916A7A6876
:10210000D2430A409A620C37BD465DF8047B7047A3
:1021100000A0084080B500AF00202849002202F04E
:102120007BFC01202549002202F076FC0220234995
:10213000002202F071FC03202049002202F06CFC16
:1021400004201E49002202F067FC05201B490022E2
:1021500002F062FC06201949002202F05DFC072013
:102160001649002202F058FC0020FF21002202F054
:1021700011FD0120FF21002202F00CFD0220FF21B1
:10218000002202F007FD0320FF21002202F002FDE1
:102190000420FF21002202F0FDFC0520FF21002287
:1021A00002F0F8FC0620FF21002202F0F3FC0720D9
:1021B000FF21002202F0EEFC80BD00BF00F00FF016
:1021C00080B500AF07202649002202F025FC06203A
:1021D0002449002202F020FC05202249002202F0BE
:1021E0001BFC04201F49002202F016FC03201D499D
:1021F000002202F011FC02201A49002202F00CFC1D
:1022000001201849002202F007FC00204FF0204175
:10221000002202F001FC07200721002202F0BAFC94
:1022200006200721002202F0B5FC0520072100222C
:1022300002F0B0FC04200721002202F0ABFC0320D6
:102240000721002202F0A6FC02200721002202F052
:10225000A1FC01200721002202F09CFC00BF80BDF0
:1022600000E00F5000E00FF080B500AF0020FFF756
:10227000FBFE0120FFF72AFF0348002100F0A8FF22
:10228000024B0022DA6780BD0036260000800C4039
:1022900080B582B000AF0346FB712548012100F0F4
:1022A00097FF2448032101F099F92348402100F0C9
:1022B00077FE012001F0EEFA2048012100F088FFAE
:1022C0004FF0FF30FFF714FF1D4802F039FA0820E5
:1022D000012102F08FFA1020012102F08BFA8020F8
:1022E000012102F087FA4FF48070012102F082FA96
:1022F0004FF40070012102F07DFAFB79002B0DD024
:102300004FF4402002F004FD4FF4803002F050FA08
:102310000C4B0C4AD26F42F00802DA67FFF7FAFE64
:102320004FF0FF30FFF7D2FE0837BD4680BD00BF3B
:10233000004302000200180060002400003626005E
:102340000493000000800C4080B58AB000AF786034
:102350007A6842F20E739A4202DD42F20F737B609A
:102360007B6813F57A7F01DC3C4B7B607B68002B3C
:1023700006DA786804F092F878600123BB6101E026
:102380000023BB614FF0FF30FFF7A0FE0120FFF7F5
:1023900087FE00F06BF80123FB6100233B6254E0F1
:1023A0007A68FB6992FBF3F12D4B83FB01239A10B2
:1023B000CB17D21A13469B0013445B00CA1A13466C
:1023C000FB82BB69012B04D13B6A032B01D1102393
:1023D000FB82FA8A234B33F81230BB8200237B62E4
:1023E00027E021493A6A1346DB009B1A5B00CA18B2
:1023F0007B6A1344C033DB7A3B611B493A6A13465C
:10240000DB009B1A5B00CA187B6A1344C0331B793C
:10241000FB60BA8A7B6A42FA03F303F00103002BE4
:1024200004D0F8683969012202F004FA7B6A0133AA
:102430007B627B6A062BD4DDFA6913469B0013444A
:102440005B00FB613B6A01333B623B6A032BA7DD08
:102450000020FFF725FE2837BD4680BD19FCFFFF91
:1024600067666666E09200002890000080B500AFC5
:1024700001207821002202F08DFB02207821002229
:1024800002F088FB03207821002202F083FB042065
:102490007821002202F07EFB05207821002202F044
:1024A00079FB06207821002202F074FB07207821B6
:1024B000002202F06FFB00BF80BD00BF80B58AB074
:1024C00000AF7860786804F011F90346BB6100231F
:1024D0003B624FF0FF30FFF7F9FD0120FFF7E0FD11
:1024E000FFF76EFE00233B6246E03A6ABB699A4200
:1024F00003DA7B681B787B6201E020237B627B6AC6
:10250000203B7B62214B7A6A33F81230FB82002336
:10251000FB6128E01E493A6A1346DB009B1A9B00C8
:10252000CA18FB69134408339B793B6118493A6A1E
:102530001346DB009B1A9B00FA6913440B441B787B
:10254000FB60FA8AFB6942FA03F303F00103002BF4
:1025500006D0FA683B6910461946012202F06AF972
:10256000FB690133FB61FB690D2BD3DD7B68013314
:102570007B603B6A01333B623B6A062BB5DD002082
:10258000FFF78EFD2837BD4680BD00BF28920000B2
:102590002890000080B400AF72B6084B1B68B3F1FE
:1025A000FF3F04D0054B1B685A1C044B1A60034BB9
:1025B0001B681846BD465DF8047B7047AC010020DF
:1025C00080B483B000AF0C4B1B68002B0DD00A4BBE
:1025D0001B685A1E084B1A60074B1B687B607B68A0
:1025E000002B00D162B67B6800E0002318460C3750
:1025F000BD465DF8047B7047AC01002080B400AF9D
:10260000054B054A126922F004021A6130BFBD462B
:102610005DF8047B704700BF00ED00E080B582B03C
:1026200000AF0346FB71FFF7B5FFFA79084B53F88B
:102630002230002B07DDFB79054A52F82320511E7A
:10264000034A42F82310FFF7BBFF0837BD4680BDA1
:102650009801002080B582B000AF0346FB71FFF700
:1026600099FFFB79054A52F82320511C034A42F88E
:102670002310FFF7A5FF0837BD4680BD9801002055
:1026800080B500AF0F4B1B68002B00DD18E00D4B31
:102690005B68002B02DDFFF7B1FF11E0094B9B687F
:1026A000002B03DD012001F0ABFC09E0054BDB68EA
:1026B000002B03DD012001F0F1FC01E001F04CFDF5
:1026C00080BD00BF9801002080B487B000AFF860E3
:1026D000B9607A60FB6803F10473DA00BB681344E5
:1026E0009B007B617B697A681A601C37BD465DF888
:1026F000047B704780B485B000AFF860B9607A6041
:10270000FB681A68BB68DB431A407B681A43FB68A6
:102710001A601437BD465DF8047B704780B582B0FF
:1027200000AF786039607A681D4B9A4203D07A68AE
:102730001C4B9A4200D100BF3B681B78DA073B680C
:102740005B789B0713431A463B685B681B061A437A
:102750003B681B7A1B021A433B685B7A1B011A43D6
:102760007B681A603B689B7A1B071A463B68DB7ADA
:102770001B041A433B68DB681B02134343F080735E
:1027800043F0B0037A6853607A683B681B7C10465C
:1027900000211A46FFF798FF0837BD4680BD00BFED
:1027A000001000400014004080B483B000AF786097
:1027B0007A68094B9A4203D07A68084B9A4200D152
:1027C00000BF7B681B6823F001027B681A600C372E
:1027D000BD465DF8047B70470010004000140040C7
:1027E00080B584B000AFF860B960FA71BB71FA6867
:1027F0000C4B9A4203D0FA680B4B9A4200D100BFAF
:10280000FA68BB79DB00104608211A46FFF772FF11
:10281000BB681A02FB791A43FB68DA611037BD46C0
:1028200080BD00BF001000400014004080B487B09D
:1028300000AF786013460A46FA70BB70BB78002B75
:1028400004D01023FB603E4B3B6103E00023FB60A0
:102850003C4B3B617B685A6B3B691340BB60002378
:102860007B61FB78062B5BD801A252F823F000BFF6
:102870008D280000AB280000CF280000ED280000C4
:102880002129000021290000112900002E4B5B683E
:1028900003F4FE437A6913437B612B4B5B6803F0BF
:1028A0007F037A6913437B613DE0274B5B6803F04C
:1028B000FE431B0E1B027A6913437B61224B5B684C
:1028C00003F4FE031B0C7A6913437B612BE01E4B60
:1028D0009B6803F4FE437A6913437B611A4B9B6840
:1028E00003F07F037A6913437B611CE0164B9B68FE
:1028F00003F0FE431B0E1B027A6913437B61124BEC
:102900009B6803F4FE031B0C7A6913437B610AE0A6
:102910000D4BDB6803F07F037A6913437B6102E0B0
:1029200000237B6100BFFB687A699A40BB681A4349
:102930007B685A631C37BD465DF8047B704700BF57
:10294000FFFF80808080FFFFB081E00F80B584B002
:1029500000AF786039603B681B79FB72FB7A002B13
:1029600006D11B48002100F081F80346FB7208E005
:102970001748002100F07AF84FF4FA40002100F0E7
:1029800075F87B680A225A603B681B781A063B6818
:10299000DB781B0403F4FE031A43FB7A1B0203F4E7
:1029A000FE431A433B685B781B011A433B689B78E4
:1029B0001343FB603B685B79002B03D0FB6843F05B
:1029C0000803FB607B68FA681A601037BD4680BD5B
:1029D000405DC60080B584B000AF786039607B6828
:1029E00002225A603B689B78786819460022FFF7FC
:1029F0001DFF3B681B781A073B685B781B051A4371
:102A00003B681B791B0213431A463B68DB781B01AA
:102A10001343FB603B689B79002B03D0FB6843F0BA
:102A20008073FB603B68DB79002B03D0FB6843F0CD
:102A30000403FB603B685B79002B03D0FB6843F029
:102A40000203FB603B681B7A002B03D0FB6843F05A
:102A50000103FB603B689B781B04FA681343FB602F
:102A60007B68FA68DA601037BD4680BD80B584B0F7
:102A700000AF786039607A68134B9A4202D9124BE2
:102A80007B6006E07B68B3F5FA4F02D24FF4FA435D
:102A90007B603B68002B03D10C4800F005FC3860DC
:102AA0003A687B6813445A1E7B68B2FBF3F3FB6001
:102AB000FB68002B02D0FB68013BFB60FB68DBB2CC
:102AC00018461037BD4680BD405DC60040810400F9
:102AD00080B487B000AFF860B9607A60FB6803F13A
:102AE0000473DA00BB6813449B007B617B697A68DE
:102AF0001A601C37BD465DF8047B704780B485B012
:102B000000AF786039607B6803F10473DA003B68DA
:102B100013449B00FB60FB681B6818461437BD46D6
:102B20005DF8047B704700BF80B485B000AF78606B
:102B30007B68002B04D07B68B3F5004F00D800BF42
:102B40007B68B3FA83F3C3F11F03FB60FB6818468D
:102B50001437BD465DF8047B704700BF80B400AFFA
:102B6000044BDB6C1B0EDBB21846BD465DF8047BE4
:102B7000704700BFB081E00F80B400AF054BDB6C45
:102B800003F47F031B0CDBB21846BD465DF8047BE3
:102B9000704700BFB081E00F80B582B000AFFFF793
:102BA000EBFF03464A2B04D0792B02D0482B22D0CE
:102BB00023E0144B1B699BB203F03F039BB21B0243
:102BC000FB80104B9B699BB203F0F0039AB2FB8829
:102BD0001343FB800B4BDB6903F0F0031B099AB234
:102BE000FB881343FB80FB88B3F5017F01D3064BC1
:102BF00004E0064B02E0054B00E0002318460837CE
:102C0000BD4680BDD0FF0FE000366E010048E801F0
:102C100080B584B000AF786039607A683B689A42CA
:102C200094BF00230123DBB2FB6006481E21FA6833
:102C3000FFF74EFF04480821FA68FFF749FF1037F5
:102C4000BD4680BD00800C4004800C4080B582B041
:102C500000AF07481E21FFF751FF786005480821A3
:102C6000FFF74CFF38607B6818460837BD4680BDCB
:102C700000800C4004800C4080B582B000AF214B36
:102C80005B6903F4E063B3F5007F1CD0B3F5007F0C
:102C900005D8002B25D0B3F5807F1FD02AE0B3F5EF
:102CA000C06F24D0B3F5E06F1ED0B3F5407F21D1C3
:102CB000FFF754FF0346122B02D9134B7B601CE035
:102CC000124B7B6019E0FFF749FF0346122B02D934
:102CD0000F4B7B6011E00F4B7B600EE00E4B7B6077
:102CE0000BE00E4B7B6008E00D4B7B6005E00D4B6D
:102CF0007B6002E000237B6000BF7B6818460837DA
:102D0000BD4680BD00800C40804F120040420F0045
:102D100040B56400C0CF6A00C0D8A700809FD5002E
:102D2000406F4001003FAB0180B582B000AF0D485D
:102D300000F0A6FB0346FB70FB78072B05D0082BA1
:102D400007D102F04DFE786006E0FFF795FF78604E
:102D500002E000237B6000BF7B6818460837BD4651
:102D600080BD00BF06000C0080B485B000AF786065
:102D7000284BDB6B002B0CBF00230123BB72254BC0
:102D800041F67132DA63234B5B6803F00703FB60A3
:102D9000FB68012B01D9042B02D10023FB7202E056
:102DA0000123FB7200BF7A681B4B9A4207D9FB7A5A
:102DB000002B01D0052300E00423FB6016E07A68B5
:102DC000154B9A420BD87A68144B9A4207D9FB7A72
:102DD000002B01D0032300E00123FB6006E0FB7A17
:102DE000002B01D0022300E00023FB60094B094ABD
:102DF000526822F00701FA680A435A60BB7A002B36
:102E000002D0044B0022DA631437BD465DF8047B20
:102E1000704700BF00000C400048E8010024F400A7
:102E200080B500AF02F0D2FD03461846FFF79CFFC5
:102E300080BD00BF90B585B000AF78600023BB6057
:102E40007B68344A934203D0334A934200D000E077
:102E500000BF786800F014FB0346FB607B682D4AD6
:102E6000934203D02C4A934206D00CE02B4B9B6A32
:102E700003F00303FB6006E0284B9B6A03F00C039E
:102E80009B08FB6000BFFB68032B3AD801A252F8F5
:102E900023F000BFCB2E0000A52E0000AD2E0000B9
:102EA000B52E000002F02EFEB8602DE002F03EFECE
:102EB000B86029E002F070FD0446FFF7C7FE034644
:102EC000013324FA03F3BB601EE00023BB607A6881
:102ED000104B9A4203D07A680F4B9A4210D10F4B95
:102EE0009A6A79680B4B994201D1102300E01423B0
:102EF00022FA03F3002B03D002F00EFEB86003E0C9
:102F000002E00023BB6000BFBB6818461437BD4613
:102F100090BD00BF0200180003001A0000800C40A2
:102F200080B483B000AF7860094B5B6D03F00103A0
:102F3000002B00D006E000BF054B1A6D7B681340E4
:102F4000002BF9D10C37BD465DF8047B704700BFFC
:102F500000800C4080B582B000AF104800F090FABD
:102F60000346FB70FB78032B07D0082B09D0022BFC
:102F70000BD102F0DBFD78600AE002F0C3FD78605F
:102F800006E002F02DFD786002E000237B6000BFC8
:102F90007B6818460837BD4680BD00BF0723200068
:102FA000B0B584B000AF786039607B681B0903F06E
:102FB0000F03FB60FB68013B062B00F2F68001A2C9
:102FC00052F823F0E12F0000AB310000AB310000DC
:102FD000153000003F3000009330000057310000F2
:102FE0003B68002B03D03B68082B00D800BFFFF7DD
:102FF00017FF704B6F4A126822F4E0313A68013AC9
:1030000092030A431A6002F0C7FCB860B868FFF781
:10301000ABFECBE03B68002B04D03B68B3F5007FF0
:1030200000D800BF3868FFF77FFD3860614B614A08
:10303000926822F00F013A680A439A60B6E03B6852
:10304000002B04D03B68B3F5007F00D800BFFFF72A
:10305000E7FE02F0C5FC02463B68B2FBF3F4FFF763
:103060009BFD034620461946FFF7D2FD3868FFF75F
:103070005BFD38604F4B4F4A526822F00F013A68AF
:103080000A435A6002F088FCB860B868FFF76CFE2B
:103090008CE07B68484A93421ED0474A934203D84B
:1030A000464A934207D055E0454A934225D0454AC7
:1030B00093423FD04EE00420FFF732FF3868FFF71D
:1030C00033FD38603B4B3B4A926E22F0F0013A6888
:1030D00012010A439A663DE00420FFF721FF386899
:1030E000FFF722FD3860334B324A926E22F4706152
:1030F0003A6812020A439A662CE03B680F2B03D908
:103100003B68802B00D800BF0420FFF709FF386818
:10311000FFF70AFD3860274C264B9B6E23F4405581
:103120001020FFF701FD03463A68D31A1B032B4317
:10313000A3660FE00420FFF7F3FE3868FFF7F4FC06
:1031400038601C4B1B4A926E22F003013A680A4316
:103150009A6600BF2AE07B681B4A934203D01B4A51
:10316000934210D020E04020FFF7DAFE3868FFF7E6
:10317000DBFC38600F4B0F4A126F22F003013A68F4
:103180000A431A6710E04020FFF7CAFE3868FFF7CD
:10319000CBFC3860074B074A126F22F030013A68C7
:1031A00012010A431A6700BF00E000BF1037BD4696
:1031B000B0BD00BF00800C406026120060161000F9
:1031C00060002400600628007007140070171600C5
:1031D00090B587B000AF78600B46FB7000233B6171
:1031E0007B681B0A03F00F03013B092B49D801A29E
:1031F00052F823F0393200003F3200001D32000047
:103200008332000083320000453200004F3200005C
:103210008332000083320000593200001B4B7B6177
:103220001B4800F041F80446FFF7B6FC0346204671
:103230001946FFF7EDFC12E0164B7B610FE0164BD1
:103240007B610CE0154B7B6101233B6107E0144B74
:103250007B6110233B6102E0124B7B6100BF7B6806
:103260001B0B03F01F03FB603B69002B02D0386986
:10327000FFF756FEFB787869F9681A46FFF728FCD5
:1032800000E000BF1C37BD4690BD00BF40800C4031
:103290000043020008800C4044800C4058800C40E1
:1032A00060800C4078800C4090B585B000AF7860AD
:1032B0007B6803F47813B3F5A01F00F0AB80B3F57F
:1032C000A01F1AD8B3F5402F00F0BF80B3F5402FF0
:1032D00008D8B3F5003F3CD0B3F5802F2DD0002B9C
:1032E00027D0BEE0B3F5801F3CD0B3F5901F47D088
:1032F000B3F5602F00F0AD80B3E0B3F5001F00F030
:10330000AC80B3F5001F0AD8B3F5C01F25D0B3F5C4
:10331000D01F7AD0B3F5B01F00F08980A1E0B3F5DB
:10332000181F4ED0B3F5201F62D0B3F5101F35D053
:1033300097E002F055FBF86096E002F051FBF86070
:103340004C4B9B6803F00F03FA6822FA03F3FB600F
:103350008AE002F021FBF86086E04748FFF76AFD4B
:10336000F86081E04448FFF765FDF860414B9B6ED3
:1033700003F0F0031B09FA6822FA03F3FB6073E021
:103380003D48FFF757FDF8603A4B9B6E03F47063BE
:103390001B0AFA6822FA03F3FB6065E03648FFF780
:1033A00049FDF860334B9B6E03F440531C0B102017
:1033B000FFF7BAFB03462344FA6822FA03F3FB60E3
:1033C00052E02D48FFF736FDF8602A4B9B6E03F460
:1033D00040531B0BFA6822FA03F3FB60254BDB6FAB
:1033E00003F007030133FA68B2FBF3F3FB603BE041
:1033F0002148FFF71FFDF8601E4B9B6E03F003038F
:10340000FA6822FA03F3FB602EE01C48FFF712FD76
:10341000F86029E01948FFF70DFDF860154B1B6FA8
:1034200003F00303FA6822FA03F3FB601CE013487D
:10343000FFF700FDF8600F4B1B6F03F030031B0913
:10344000FA6822FA03F3FB600EE0FFF76DFCF86008
:103450000AE0FFF711FCF86006E0FFF77BFDF8607B
:1034600002E00023FB6000BFFB6818461437BD462E
:1034700090BD00BF00800C400200180003001A003D
:1034800080B485B000AF78600123FB737B6803F0E4
:103490000F03BB60BB68013B062B00F2938001A2C7
:1034A00052F823F0C1340000F73400003335000037
:1034B000C5350000C53500006F35000091350000AE
:1034C000454BDB6A03F47053B3F5805F09D0B3F565
:1034D000005F03D0B3F5006F06D008E00223FB7352
:1034E00008E00323FB7305E00423FB7302E00523DC
:1034F000FB7300BF69E0384B9B6A03F00303022BA8
:1035000006D0032B07D0012B08D10323FB730FE058
:103510000223FB730CE00623FB7309E02E4B9B6A2E
:1035200003F48033002B02D00923FB7300E000BFBB
:103530004BE0294B9B6A03F00C03082B06D00C2BA5
:1035400007D0042B08D10323FB730FE00223FB7386
:103550000CE00623FB7309E01F4B9B6A03F4801306
:10356000002B02D00923FB7300E000BF2DE01A4BB3
:103570001B6803F08053002B03D0B3F1805F03D0AE
:1035800023E00723FB7302E00823FB7300BF1CE06A
:10359000114BDB6A03F46033B3F5803F08D0B3F519
:1035A000003F08D0B3F5004F08D10823FB7308E0B3
:1035B0000223FB7305E00323FB7302E00123FB738B
:1035C00000BF02E00023FB7300BFFB7B18461437EB
:1035D000BD465DF8047B704700800C4090B589B013
:1035E00000AF78600B46FB700323FB610323FB767F
:1035F00000233B617B6803F00F03FB60FB68013B2A
:10360000062B00F2348101A252F823F02936000083
:1036100015370000153700006F3800006F380000C4
:10362000DD37000007380000FB78023B072B00F273
:10363000228101A252F823F05936000063360000BF
:103640006D360000B736000077380000773800008C
:1036500077380000773800000423FB610023FB76F5
:1036600039E00323FB610123FB7634E00223FB6195
:103670000223FB76FFF790FA03465C1CFFF78CFAF7
:10368000034620461946FFF7C3FA02F029FA02461C
:103690007C4B9A4206D97C4B7B4A126842F060020E
:1036A0001A6018E0784B784A126822F0600242F003
:1036B00020021A600FE00123FB610323FB76FFF772
:1036C0006BFA03465C1CFFF767FA0346204619466F
:1036D000FFF79EFA00BFFB7E18460121012200F091
:1036E000F7F8FFF79DFB684BFA695A626748FFF7E6
:1036F000DBFD0446FFF750FA034620461946FFF764
:1037000087FA00F051FD02F047F9B860B868FFF79A
:103710002BFBADE0FB78013B082B00F2AE8001A251
:1037200052F823F0493700004F3700005F370000A0
:103730007B3800007B3800006F3700007B380000CA
:103740007B3800009337000000237B6126E00020D7
:103750000121012200F0BCF802237B611EE0012060
:103760000121012200F0B4F801237B6116E002F090
:1037700013F9B860FFF710FA0346B8681946FFF767
:1037800047FA434804210122FFF7A2F903237B6192
:1037900004E000237B6101233B6100BFFB68022B37
:1037A0000DD1394A384B9B6A23F4803323F003034D
:1037B000796919433B691B040B43936258E0324A11
:1037C000314B9B6A23F4801323F00C037969890041
:1037D00019433B691B050B43936249E0FB78072BB8
:1037E00002D0082B07D049E0274B274A126822F065
:1037F00080521A6006E0244B234A126842F080523D
:103800001A6000BF34E0FB78032B14D0082B22D0C1
:10381000022B00D032E000200121012200F058F8F4
:10382000194B40225A6200BF174BDB6A03F4803306
:10383000002BF9D01AE001200121012200F048F804
:10384000114B60225A6200BF0F4BDB6A03F4003356
:10385000002BF9D00AE00C4B20225A6200BF0A4B21
:10386000DB6A03F40043002BF9D000BF00E000BF87
:10387000FFF7ECF902E000BF00E000BF2437BD46CF
:1038800090BD00BF0048E80100800C4000430200EA
:1038900040800C4080B483B000AF78600B4B9B6DD0
:1038A00003F00803002B00D00BE07B6803F0070354
:1038B0007B60064B054AD26F22F007017A680A4303
:1038C000DA670C37BD465DF8047B704700800C401A
:1038D00080B586B000AF13460246FA710A46BA7147
:1038E0007B71FB79042B4AD801A252F823F000BF68
:1038F0003D3900002F390000133900000539000060
:103900002139000001233B610223FB6001237B611D
:103910001DE004233B610823FB6003237B6116E069
:1039200010233B612023FB6005237B610FE04023D4
:103930003B618023FB6007237B6108E04FF48073C9
:103940003B614FF40073FB6009237B6100BFBB79CF
:10395000002B0ED00C4B3A691A627B79002B0BD0EE
:1039600000BF0A487969FFF7C9F80346002BF8D071
:1039700002E0054BFA681A6200F016FC00E000BF96
:103980001837BD4680BD00BF00800C402C800C4025
:1039900080B483B000AF0346FB71084B97F9072052
:1039A0005209F97901F01F01012000FA01F143F8F1
:1039B00022100C37BD465DF8047B704700E100E043
:1039C00080B483B000AF0346FB71094B97F9072021
:1039D0005209F97901F01F01012000FA01F12032AA
:1039E00043F822100C37BD465DF8047B704700BFDA
:1039F00000E100E080B483B000AF0346FB71094BE7
:103A000097F907205209F97901F01F01012000FA06
:103A100001F1603243F822100C37BD465DF8047B9B
:103A2000704700BF00E100E080B487B000AFF860ED
:103A3000B9607A60FB6803F10473DA00BB68134471
:103A40009B007B617B697A681A601C37BD465DF814
:103A5000047B704780B489B000AF7860F970BA70A9
:103A60007B707B681A013C4B9B681344BB61BB783D
:103A7000002B02D0BB69FB6105E07B681A01364B65
:103A8000DB681344FB61BB69DB687B617B69002BEE
:103A900002D0BA787B691A72FB6A002B14D0FB69DA
:103AA0009B6803F040639B0E3B613B69032B03D192
:103AB000FB69FA6A1A6007E03B693A6B9A40FB6A55
:103AC00013441A46FB691A60BB6A002B12D0FB69CB
:103AD0009B689B0F3B613B69032B03D1FB69BA6A6F
:103AE0005A6007E03B693A6B9A40BB6A13441A4636
:103AF000FB695A607B68012202FA03F3FB607B7862
:103B0000002B03D0144BFA689A6102E0124BFA685A
:103B1000DA61BB78002B03D00F4BFA685A6302E0DE
:103B20000D4BFA681A63FB699B6823F47F5323F0FB
:103B30003703BB603B6B1B01BA681343BB60FB7868
:103B4000BA681343BB60FB69BA689A602437BD4604
:103B50005DF8047B704700BF00200C4080B58AB040
:103B600000AF334B03F580531B68BB61304B03F54B
:103B700080530C331B68BA691340BB612C4B9B6BA1
:103B80007B61BA697B6913403B620023FB6149E0BA
:103B900000237B623BE03B6A03F00103002B30D043
:103BA000234B9B683B6101227B6A02FA03F3FB60B3
:103BB0001F4B03F580530833FA681A607B6A1B01B8
:103BC0003A691344DB68BB60BB68002B19D0BB6843
:103BD0001B7A7B60BB681B7A83F00103DAB2BB6897
:103BE0001A72BB681B68002B0BD0BB681B68786A15
:103BF0007A68002A0CBF00220122D1B2BA6852684A
:103C000098473B6A5B083B627B6A01337B623B6A95
:103C1000002BC0D17B69DA43BB6913403B62FB696F
:103C20000133FB61FB69012BB2DD2837BD4680BD46
:103C300000200C4080B588B004AFF8607B600B4674
:103C4000FB721346BB72FA7ABB7A79680091B96944
:103C50000191F9690291F8680121FFF7FBFE044B1D
:103C6000FA68012101FA02F29A621037BD4680BD5E
:103C700000200C4080B584B000AF786039601F4BE5
:103C80009B68FB607B681B01FA6813443A68926882
:103C9000DA603B681B78002B06D0184B7A6801214C
:103CA00001FA02F29A6305E0144B7A68012101FAE5
:103CB00002F2DA63114B3A6851687A6802F5886259
:103CC00043F822103B685B78002B0ED00B4B7A68D0
:103CD000012101FA02F203F5805308331A60084803
:103CE00079680122FFF7A0FE04E005487968002208
:103CF000FFF79AFE1037BD4680BD00BF00200C4084
:103D00000C300C4080B487B000AFF8600B467A608E
:103D1000FB72FB7A002B03D0154B9B687B6102E0A2
:103D2000134BDB687B61FB681B017A6913447B6181
:103D30007B681B789A077B689B781B071A437B6814
:103D40005B789B061A437B689B781B0613431A46D5
:103D50007B681B799B041A437B68DB789B031A43BF
:103D60007B699A601C37BD465DF8047B704700BFD5
:103D700000200C4080B582B000AF7860104801216F
:103D8000FFF726FA00F020F80020FFF733FE0020AE
:103D9000FFF7FEFD0B4B03F580530C334FF0004251
:103DA0001A60084B7A6852689A60064B7A681278F3
:103DB000520142F001025A600837BD4680BD00BF83
:103DC0000003020000200C4080B582B000AF00204C
:103DD000FFF7F6FD1C4B00225A601B4B40F6FF72AA
:103DE000DA61194B40F6FF725A62174B40F6FF72C8
:103DF000DA62154B40F6FF725A63134B40F6FF72BE
:103E0000DA63114B0122DA640F4B03F580530C3354
:103E100000221A600C4B03F5805308330B4A1A60DA
:103E200000237B6009E0084B7A6802F58862002174
:103E300043F822107B6801337B607B680B2BF2DD3B
:103E40000837BD4680BD00BF00200C40FF0F00803A
:103E500080B500AF01F0A0FD80BD00BF80B400AF11
:103E6000034B4AF6E8529A60BD465DF8047B704702
:103E700000600C4080B400AF034B0022C3F88420E4
:103E8000BD465DF8047B704700800C4080B400AFF5
:103E9000044B45F60E02C3F88420BD465DF8047B52
:103EA000704700BF00800C4080B582B000AF384B37
:103EB000D3F8843003F001037B60FFF7E7FF0023B2
:103EC0003B60344B1B6803F001033A6813433B60CB
:103ED000304B1B6803F010033A6813433B602D4BD3
:103EE0001B6803F040033A6813433B60294B1B688F
:103EF00003F004033A6813433B60264B1B6803F44A
:103F000080733A6813433B60214B3A681A62214B35
:103F10001B6803F47053B3F5805F06D0B3F5005F00
:103F20000ED0B3F5006F16D020E000BF184BDB6A4F
:103F300003F08003002BF9D0154B03225A6215E0E1
:103F400000BF134BDB6A03F40073002BF9D0104B56
:103F500004225A620AE000BF0D4BDB6A03F008033B
:103F6000002BF9D00A4B02225A6200BF094B1B6892
:103F700003F00103002B02D1054B02221A627B6879
:103F8000002B01D0FFF776FF0837BD4680BD00BF8C
:103F900000800C40A801002080B483B000AF174B14
:103FA0001B699BB203F03F039BB21B02FB80134BC8
:103FB0009B699BB203F0F0039AB2FB881343FB802A
:103FC0000E4BDB6903F0F0031B099AB2FB88134325
:103FD000FB80FB88B3F5827F03D3FB88B3F5017FB9
:103FE00001D1012300E0002303F00103DBB21846F6
:103FF0000C37BD465DF8047B704700BFD0FF0FE073
:1040000080B586B000AF0346FB711F4BDA6A1F4BC9
:104010001A601F4B1E4A126942F004021A61FFF730
:10402000BBFF0346FB75FB7D002B11D0194B1A68B3
:10403000194B1340FB60174BFA68C3F88020154BEF
:104040005B6823F046033B61124B3A69C3F8842056
:1040500030BFFB7D002B05D00E4BFA681A600D4B6C
:104060003A695A60FB79002B02D0FFF71DFF07E089
:10407000064B1B6803F48063002B01D1FFF7E8FEB9
:104080001837BD4680BD00BF00800C40A80100204D
:1040900000ED00E000E100E09CF1FD0080B586B09D
:1040A00000AF0346FB71274BDA6A274B1A60254B9A
:1040B000D3F8843003F001037B61FFF7E7FE214B67
:1040C0004FF420721A627B69002B01D0FFF7D2FEF9
:1040D0001E4B1E4A126942F004021A61FFF75CFF90
:1040E0000346FB74FB7C002B11D0194B1A68194B4B
:1040F0001340BB60164BBA68C3F88020144B5B6852
:1041000023F04603FB60124BFA68C3F8842030BFEB
:10411000FB7C002B05D00E4BBA681A600C4BFA687A
:104120005A60FB79002B02D0FFF7BEFE07E0064B7A
:104130001B6803F48063002B01D1FFF789FE183759
:10414000BD4680BD00800C40A801002000ED00E0CD
:1041500000E100E09CF1FD0080B584B000AF114BA0
:104160001B6823F00C0343F00803BB600D4B1B6876
:1041700043F00C037B60FFF771FE0023FB6008E057
:10418000084BBA681A60074B7A681A60FB680133FB
:10419000FB60FB68032BF3DD024BBA681A60103733
:1041A000BD4680BD00600C4080B400AF034BDA6AAE
:1041B000034B1A60BD465DF8047B704700800C40DD
:1041C000A801002080B487B000AFF860B9607A60C1
:1041D000FB6803F10473DA00BB6813449B007B6146
:1041E0007B697A681A601C37BD465DF8047B7047AE
:1041F00080B485B000AFF860B9607A60FB681A6877
:10420000BB68DB431A407B681A43FB681A601437AB
:10421000BD465DF8047B704780B483B000AF0346B1
:104220003960FB71FB79002B0DD0FB79012B0AD093
:10423000FB79022B07D0FB79032B04D0FB79042BED
:1042400001D0FB79052B0948FA793B68012101FA75
:1042500003F319461346DB0013449B000344103359
:1042600059600C37BD465DF8047B70470060004024
:1042700080B483B000AF03463960FB71FB79002B3B
:104280000DD0FB79012B0AD0FB79022B07D0FB79EB
:10429000032B04D0FB79042B01D0FB79052B0948B3
:1042A000FA793B68012101FA03F319461346DB0052
:1042B00013449B000344103319600C37BD465DF86E
:1042C000047B70470060004090B482B000AF0246AB
:1042D0000B46FA71BB71FB79002B0ED0FB79012BD9
:1042E0000BD0FB79022B08D0FB79032B05D0FB798F
:1042F000042B02D0FB79052B03D1BB79032B00D80B
:1043000000BF0C48FA790B4CF9790B46DB000B44E3
:104310009B0023441B6823F00301BB791943134618
:10432000DB0013449B00034419600837BD4690BC72
:10433000704700BF0060004080B586B000AFB96034
:104340007A600246FA73BB73FB7B002B0DD0FB7BBC
:10435000012B0AD0FB7B022B07D0FB7B032B04D065
:10436000FB7B042B01D0FB7B052BBB68072B0ED8F6
:10437000BB689B0007229A40F97BBB689B0001FA4F
:1043800003F31A4811461A46FFF732FF10E0BB68E4
:10439000083B7B617B699B0007229A40F97B7B6924
:1043A0009B0001FA03F3124811461A46FFF720FF5B
:1043B000BB7B1048B9681A46FFF704FF97F8203016
:1043C0000D48B9681A46FFF7FDFE0C4BBA6801218B
:1043D00001FA02F2C3F81C2197F824300848B968A2
:1043E0001A46FFF7EFFE1837BD4680BD006100405A
:1043F00004610040086100400C6100400060004022
:104400001061004090B585B000AFB9607B60034695
:10441000FB731346BB73FB7B002B0DD0FB7B012B87
:104420000AD0FB7B022B07D0FB7B032B04D0FB7B4A
:10443000042B01D0FB7B052BBB7B002B0DD07B68B5
:10444000002B05D0FB7B1846B968FFF711FF04E08D
:10445000FB7B1846B968FFF7DFFEBB68072B1DD84A
:104460002B48FA7B2A4CF97B0B46DB000B449B0064
:1044700023445968BB689B000F2404FA03F3DB4311
:104480001940BC7BBB689B0004FA03F31943134635
:10449000DB0013449B000344596024E01C48FA7B72
:1044A0001B4CF97B0B46DB000B449B002344083379
:1044B0001968BB6803F18043083B9B000F2404FA92
:1044C00003F3DB431940BC7BBB6803F18043083B2B
:1044D0009B0004FA03F319431346DB0013449B00CB
:1044E000034408331960BB7B002B0DD17B68002B84
:1044F00005D0FB7B1846B968FFF7BAFE04E0FB7BEA
:104500001846B968FFF788FE1437BD4690BD00BF56
:104510000060004080B487B000AFF860B9607A6096
:10452000FB6803F10473DA00BB6813449B007B61F2
:104530007B697A681A601C37BD465DF8047B70475A
:1045400080B485B000AFF860B9607A60FB681A6823
:10455000BB68DB431A407B681A43FB681A60143758
:10456000BD465DF8047B704780B588B000AFF86049
:10457000B9607A60FB707B68002B00D15EE0FB685D
:104580001B6823F44072FB681A60FA68FB781B0210
:1045900010464FF440711A46FFF7D2FFBB68002B5C
:1045A00003D12848FEF780FEB8604FF0FF33BB61AF
:1045B000FB681B6803F00203002B11D0FB78012B72
:1045C00007D0022B08D0002B00D019E01E4BBB6196
:1045D00005E01E4BBB6102E01D4BBB6100BF0FE05D
:1045E000FB78012B06D0022B07D0002B08D1194BEA
:1045F000BB6105E0184BBB6102E0184BBB6100BF1B
:10460000FB78174AD35C7B617B689B00BA68D21A3F
:104610007B69796801FB03F3B2FBF3F3013BFB61B8
:10462000FB681B6803F00203002B04D0FB69002B1E
:1046300001D10123FB61FA69FB681A612037BD468D
:1046400080BD00BF4081040040164000C0D8A700D4
:104650008050740180841E0040548900002D310177
:104660001893000080B582B000AF786039607A6836
:10467000174B9A4203D07A68164B9A4200D100BF7A
:104680007B6800225A637B68134A1A637A683B6826
:104690005B78002B01D0002300E0012310460121AC
:1046A0001A46FFF737FF3B6859683B689A683B68D2
:1046B0001B7B7868FFF758FF7A683B681B781046C9
:1046C00000211A46FFF726FF0837BD4680BD00BF10
:1046D00000A0004000A40040CFFF010080B483B0E0
:1046E00000AF0346FB71FB79002B06D0084B084A4C
:1046F000126842F001021A6005E0054B044A126894
:1047000022F001021A600C37BD465DF8047B704749
:1047100000A0084080B487B000AFF860B9607A604C
:10472000FB6803F10473DA00BB6813449B007B61F0
:104730007B697A681A601C37BD465DF8047B704758
:1047400080B584B000AF7860184B5B68FB600020D8
:10475000FFF7C4FFFB6823F4830323F01F03FB6010
:104760007B685B68FA681343FB607B681B7AFA68B6
:104770001343FB607B685B7AFA681343FB607B68DA
:10478000DB68FA681343FB607B681B8AFA68134393
:10479000FB60064BFA685A607B681B78002B02D0DE
:1047A0000120FFF79BFF1037BD4680BD00A00840E9
:1047B00080B485B000AF78600D4B5B68FB60FB6830
:1047C00023F48033FB607B68002B08D0B3F5803F77
:1047D00000D005E0FB6843F48033FB6000E000BFDD
:1047E000034BFA685A601437BD465DF8047B704786
:1047F00000A0084080B483B000AF02460B46FA80A8
:104800007B717B79002B06D0094B094A9168FA88A5
:104810000A439A6006E0064B054A9168FA88D2433B
:104820000A409A600C37BD465DF8047B704700BFB4
:1048300000A0084080B584B000AFF860B9601346AE
:10484000FB71FB68072B00F2C38001A252F823F032
:10485000714800009D480000C9480000F54800006C
:10486000214900004D49000079490000A549000098
:10487000BB681F2B07DCBA68FB79574811461A46FC
:10488000FFF748FFA5E0BB68203BBB60BA68FB7937
:10489000524811461A46FFF73DFF9AE0BB681F2BAE
:1048A00007DCBA68FB794E4811461A46FFF732FF1B
:1048B0008FE0BB68203BBB60BA68FB794948114672
:1048C0001A46FFF727FF84E0BB681F2B07DCBA6896
:1048D000FB79454811461A46FFF71CFF79E0BB6893
:1048E000203BBB60BA68FB79404811461A46FFF787
:1048F00011FF6EE0BB681F2B07DCBA68FB793C48F0
:1049000011461A46FFF706FF63E0BB68203BBB6019
:10491000BA68FB79374811461A46FFF7FBFE58E0A4
:10492000BB681F2B07DCBA68FB79334811461A466F
:10493000FFF7F0FE4DE0BB68203BBB60BA68FB7937
:104940002E4811461A46FFF7E5FE42E0BB681F2BD2
:1049500007DCBA68FB792A4811461A46FFF7DAFEE7
:1049600037E0BB68203BBB60BA68FB79254811463D
:104970001A46FFF7CFFE2CE0BB681F2B07DCBA6896
:10498000FB79214811461A46FFF7C4FE21E0BB68B7
:10499000203BBB60BA68FB791C4811461A46FFF7FA
:1049A000B9FE16E0BB681F2B07DCBA68FB79184814
:1049B00011461A46FFF7AEFE0BE0BB68203BBB601A
:1049C000BA68FB79134811461A46FFF7A3FE00E0C8
:1049D00000BF1037BD4680BD40A0084050A0084031
:1049E00044A0084054A0084048A0084058A00840EF
:1049F0004CA008405CA00840CCA00840B4A00840EF
:104A0000D0A00840B8A00840D4A00840BCA00840EE
:104A1000D8A00840C0A0084080B487B000AFF860BC
:104A2000B9607A60FB68072B00F2AC8001A252F8F3
:104A300023F000BF554A0000794A00009D4A00005B
:104A4000C14A0000E54A00000D4B0000354B000054
:104A50005D4B00004E4B1B6C7B61BB68DB437A698E
:104A600013407B61BA687B6813407A6913437B61AA
:104A7000474B7A691A6486E0454B5B6C7B61BB6887
:104A8000DB437A6913407B61BA687B6813407A69BB
:104A900013437B613E4B7A695A6474E03C4B9B6CD8
:104AA0007B61BB68DB437A6913407B61BA687B68D2
:104AB00013407A6913437B61354B7A699A6462E0EB
:104AC000334BDB6C7B61BB68DB437A6913407B61F2
:104AD000BA687B6813407A6913437B612C4B7A690F
:104AE000DA6450E02A4BD3F8CC307B61BB68DB43FF
:104AF0007A6913407B61BA687B6813407A69134313
:104B00007B61234B7A69C3F8CC203CE0204BD3F87F
:104B1000D0307B61BB68DB437A6913407B61BA6844
:104B20007B6813407A6913437B61194B7A69C3F838
:104B3000D02028E0164BD3F8D4307B61BB68DB4330
:104B40007A6913407B61BA687B6813407A691343C2
:104B50007B610F4B7A69C3F8D42014E00C4BD3F877
:104B6000D8307B61BB68DB437A6913407B61BA68EC
:104B70007B6813407A6913437B61054B7A69C3F8FC
:104B8000D82000E000BF1C37BD465DF8047B7047AD
:104B900000A0084080B487B000AFF860B9607A60C8
:104BA000FB68072B00F2AC8001A252F823F000BF93
:104BB000D14B0000F54B0000194C00003D4C0000AB
:104BC000614C0000894C0000B14C0000D94C000041
:104BD0004E4B1B6D7B61BB68DB437A6913407B6185
:104BE000BA687B6813407A6913437B61474B7A69E3
:104BF0001A6586E0454B5B6D7B61BB68DB437A6978
:104C000013407B61BA687B6813407A6913437B6108
:104C10003E4B7A695A6574E03C4B9B6D7B61BB6887
:104C2000DB437A6913407B61BA687B6813407A6919
:104C300013437B61354B7A699A6562E0334BDB6DD8
:104C40007B61BB68DB437A6913407B61BA687B6830
:104C500013407A6913437B612C4B7A69DA6550E023
:104C60002A4BD3F8B4307B61BB68DB437A691340CD
:104C70007B61BA687B6813407A6913437B61234B7D
:104C80007A69C3F8B4203CE0204BD3F8B8307B619C
:104C9000BB68DB437A6913407B61BA687B68134069
:104CA0007A6913437B61194B7A69C3F8B82028E00D
:104CB000164BD3F8BC307B61BB68DB437A69134089
:104CC0007B61BA687B6813407A6913437B610F4B41
:104CD0007A69C3F8BC2014E00C4BD3F8C0307B6178
:104CE000BB68DB437A6913407B61BA687B68134019
:104CF0007A6913437B61054B7A69C3F8C02000E0F1
:104D000000BF1C37BD465DF8047B704700A008401B
:104D100080B483B000AF7860064B064A526822F434
:104D2000E0117A680A435A600C37BD465DF8047B8F
:104D3000704700BF00A0084080B487B000AFF860A3
:104D4000B9607A60FB6803F10473DA00BB6813444E
:104D50009B007B617B697A681A601C37BD465DF8F1
:104D6000047B704780B582B000AF78600B46FB7063
:104D7000FB78002B01D000F00FFB7B681B7D1846F1
:104D800000F020F9504B7A68527891007A68927856
:104D900011437A68926811437A68D26811437A683D
:104DA000D278520211437A681279920211437A68DA
:104DB0005279520311437A689279520411437A6806
:104DC000D279120411437A68527C92050A431A6020
:104DD0007B681B781846002100F0D6F83A4B7A68B9
:104DE000127E11467A68527E920011437A68927E52
:104DF000920111437A68D27E520011437A68127F81
:104E0000120111437A68527F120211437A68927F2D
:104E1000920211437A68126A11437A6892F8242048
:104E2000120511437A6892F82520920511437A6899
:104E3000926A0A439A60244B7A68928D11467A6886
:104E400092F83B20920211437A6892F83C20920338
:104E500011437A6892F83D20920411437A6892F8DF
:104E60003E20920511437A6892F834205200114393
:104E70007A6892F83520920011437A6892F83620C9
:104E8000D20011437A6892F83720120111437A68F0
:104E900092F83820520111437A6892F83920920131
:104EA00011437A6892F83A20D2010A43DA607B68AB
:104EB0001B6B184600F012FA034B7A68127C1A61D9
:104EC0000837BD4680BD00BF00C0084080B588B02F
:104ED00000AF786039600023FB610123BB613F2391
:104EE0007B617B68002B03D12548FEF7DDF97860F4
:104EF0003B68002B04D03A687B689A4200D808E0EF
:104F000007E0FB690133FB61FB69012202FA03F34D
:104F1000BB613B68BA6902FB03F37A68B2FBF3F248
:104F20007B6901339A4202D9FB69062BE9D93B68B8
:104F3000BA6902FB03F37A68B2FBF3F3013B7B61CE
:104F4000104B5B6823F47F2323F4E0633B61FB6930
:104F50001A027B691B0313433A6913433B61094BF4
:104F60003A695A607B690133BA6902FB03F37A68D4
:104F7000B2FBF3F3FB60FB6818462037BD4680BDEB
:104F80006006280000C0084080B584B000AF02462B
:104F90000B46FA71BB710A4B1B6823F00303FB60DD
:104FA000FB79FA681343FB60054BFA681A60BB791A
:104FB000002B01D000F0A2F91037BD4680BD00BF24
:104FC00000C0084080B485B000AF0346FB71094BB8
:104FD0005B6823F44003FB60FB799B05FA6813438D
:104FE000FB60044BFA685A601437BD465DF8047BD9
:104FF000704700BF00C0084080B485B000AF0246D3
:105000000B46FA71BB71FB79002B0FD0012B00D03E
:105010001AE0104B5B6823F00303FB60BB79FA686E
:105020001343FB600B4BFA685A600DE0094B5B6859
:1050300023F07003FB60BB791B01FA681343FB602C
:10504000044BFA685A6000BF1437BD465DF8047B14
:10505000704700BF00C0084080B584B000AF7860E2
:105060000023FB600AE0FB685B017A681344184682
:10507000F96800F009F8FB680133FB60FB680F2B4F
:10508000F1D91037BD4680BD80B584B000AF7860DF
:1050900039607B685B68B3F5C03F0BD13B68022B7E
:1050A00008D03B68032B05D03B68042B02D03B683B
:1050B000052B00D100BF7B681B7A032B0BD13B680B
:1050C0000C2B08D03B680D2B05D03B680E2B02D073
:1050D0003B680F2B00D100BF7B681B7A032B0BD1E1
:1050E0003B68002B08D03B68012B05D03B68022BA6
:1050F00002D03B68032B00D100BF394B9A6B3B6851
:105100005B00032101FA03F3DB431340FB607B6880
:105110001B7A1A463B685B0002FA03F3FA681343F2
:10512000FB602F4BFA689A633B68D8B27B68D97BE7
:105130007B681A7C7B685B7C00F078F828497B6888
:105140005B7B5A047B689B7B9B041A437B689B8A2E
:105150001A437B68DB8A1A437B685B681A437B6867
:105160005B7ADB041A433B682C331B010B445A6007
:105170001B497B68DA697B689B7A5B041A437B680E
:105180001B7B9B041A437B68DB7ADB041A433B6876
:105190001B010B4403F532731A603B68D9B27B687C
:1051A0005A8A7B681B8B084611461A4600F05AF84B
:1051B0007B689B780B4839681A46FFF7BDFD7B6812
:1051C0005B78094839681A46FFF7B6FD7B681B789B
:1051D000064839681A46FFF7AFFD1037BD4680BD57
:1051E00000C008404CC0084054C0084018C00840E7
:1051F00080B582B000AF13460246FA710A46BA7112
:105200007B71FA797B79074811461A46FFF794FDBE
:10521000FA79BB79044811461A46FFF78DFD083725
:10522000BD4680BD54C0084018C0084080B483B05B
:1052300000AFF871B9717A713B710949FB79B8799E
:105240007A79920110433A79520302432C331B01BD
:105250000B441A600C37BD465DF8047B704700BFF5
:1052600000C0084080B485B000AF13460246FA7112
:105270000A46BA807B80184AFB792C331B01134401
:105280005B6823F47F6323F00F03FB60BB88FA683D
:105290001343FB60104AFB792C331B011344FA685B
:1052A0005A600D4AFB791B01134403F532731B68E6
:1052B0001B0C1B04FB607B88FA681343FB60064AE7
:1052C000FB791B01134403F53273FA681A60143733
:1052D000BD465DF8047B704700C0084080B483B0D1
:1052E00000AF7860044B7A6802F00F021A630C3743
:1052F000BD465DF8047B704700C0084080B400AF35
:1053000000BF0A4B1B6D03F02003002BF9D1074BA4
:1053100001225A6100BF054B1B6D03F02003002BD7
:10532000F9D1BD465DF8047B704700BF00C008405E
:1053300080B400AF00BF0A4B1B6D03F02003002BAD
:10534000F9D1074B02225A6100BF054B1B6D03F0D8
:105350002003002BF9D1BD465DF8047B704700BFE8
:1053600000C0084080B400AF00BF0A4B1B6D03F0C3
:105370002003002BF9D1074B08225A6100BF054BCF
:105380001B6D03F02003002BF9D1BD465DF8047BB3
:10539000704700BF00C0084080B483B000AF374BF7
:1053A0000022DA64354B364A5A64344B334AD268A9
:1053B00042F00102DA6000BF304B1B6D03F02003A6
:1053C000002BF9D12D4B0A225A612C4B00221A6076
:1053D0002A4B00229A60294B0022DA60274B0022D8
:1053E0001A61264B00229A61244B00229A63234BB8
:1053F0000022DA63214B00225A6500237B6018E00B
:105400001E4A7B682C331B01134400221A601B4A7E
:105410007B682C331B01134400225A60174A7B68B7
:105420001B01134403F5327300221A607B680133B9
:105430007B607B680F2BE3D900237B600FE00F4B71
:105440007A684032002143F832100C4A7B684033BE
:10545000DB00134400225A607B6801337B607B6869
:105460000F2BECD900BF054B1B6D03F02003002B65
:10547000F9D10C37BD465DF8047B704700C0084089
:10548000FFFF7F0080B487B000AFF860B9607A603A
:10549000FA68114B9A4208D1BB68012B05D87B688A
:1054A0001B0C1B04002B00D100BFBB68002B02D0DB
:1054B000012B04D00AE0FB6810337B6103E0FB683A
:1054C00014337B6100BF7B697A681A601C37BD4664
:1054D0005DF8047B704700BF0020084080B483B0B3
:1054E00000AF78600B46FB70FB78002B03D07B6825
:1054F00001225A6002E07B6802225A600C37BD46E6
:105500005DF8047B704700BF80B485B000AF786061
:1055100039600023FB603B681B7883F00103DBB23A
:10552000002B08D07B689B6803F00103002B02D09E
:105530007B6802225A603B685B78002B03D0FB68D3
:1055400043F48053FB603B689B78002B03D0FB68DF
:1055500043F48063FB603B68DB78002B03D0FB687F
:1055600043F40063FB603B681B79002B03D0FB68AE
:1055700043F40073FB603B685B79002B03D0FB684E
:1055800043F48073FB603B689B79002B03D0FB687E
:1055900043F04003FB603B68DB79002B03D0FB68E2
:1055A00043F08003FB603B681B7A9B00FA6813435F
:1055B000FB603B685B7A1B01FA681343FB603B6846
:1055C0009B7AFA681343FB607B68FA681A603B6851
:1055D0001B78002B08D07B689B6803F00103002B2D
:1055E00002D17B6801225A601437BD465DF8047B06
:1055F000704700BF80B483B000AF786039607B68CB
:105600001B6C03F00103002B00D006E000BF7B6899
:105610005A6C3B681340002BF9D10C37BD465DF83E
:10562000047B704780B586B000AFF860B9607A60DF
:10563000BB68002B12D1FA68164B9A4202D1164B66
:105640007B6107E0FA68154B9A4202D1144B7B61EB
:1056500000E01BE07869FDF727FEB860BB685A01DF
:105660007B68B2FBF3F33B613B69203B3B613B69E9
:10567000DB003B613A6947F6F87313403B61F86819
:105680000421FFF7B7FFFB683A69DA601837BD46B7
:1056900080BD00BF0040084070071400004408406F
:1056A0007017160080B483B000AF78600B46FB70B3
:1056B000FB78002B08D000BF7B685B6C002BFBD114
:1056C0007B6801221A6402E07B6800221A640C37AE
:1056D000BD465DF8047B704780B582B000AF78604E
:1056E00039607A681B4B9A4203D07A681A4B9A4207
:1056F00000D100BF78680221FFF77CFF7B680A2297
:105700005A6078680121FFF7CDFF7B681B6823F0A2
:105710001C023B681B7B1A433B685B7B1A433B685C
:105720009B7B1A437B681A603B685A683B689B689E
:10573000786811461A46FFF775FF3B681B781A46D2
:105740007B685A6078680021FFF7ACFF0837BD46D8
:1057500080BD00BF004008400044084080B582B0D2
:1057600000AF78607A68174B9A4203D07A68164B7C
:105770009A4200D100BF78680121FFF793FF7B6850
:10578000EA225A607B6800221A607B680022DA6095
:105790007B6800221A617B6800225A617B680022C4
:1057A0009A637B6840F2F9725A637B680022DA637D
:1057B0007B6800225A6578680021FFF773FF08377D
:1057C000BD4680BD004008400044084080B485B01C
:1057D00000AF7860194B5B69DBB203F00F03DBB2FB
:1057E0009B00FB73154B1B6903F0C0039B09DAB2E6
:1057F000FB7B1343FB737B68FA7B9A700F4B1B692F
:10580000DBB203F03F03DAB27B685A700B4B9B6943
:10581000DBB223F00F03FB73084BDB6903F0F003EB
:105820001B09DAB2FB7B1343FB737B68FA7B1A70AC
:105830001437BD465DF8047B704700BFD0FF0FE012
:1058400080B483B000AF786039607A683B4B9A428D
:105850000BD07A683A4B9A4207D07A68394B9A4211
:1058600003D07A68384B9A4200D100BF3B681B785E
:1058700083F00103DBB2002B02D07B6802225A6066
:105880007B6800225A623B689B781A063B68DB788B
:105890001B041A433B689B799B021A433B68DB79E4
:1058A0001B021A433B681B7A1A433B685B78002B48
:1058B00001D0402300E000231A433B685B7A002BB1
:1058C00001D0802300E000231A433B689B7A002B21
:1058D00001D0202300E000231A433B68DB7A002B31
:1058E00001D0102300E000231A433B681B79002BF2
:1058F00002D04FF4005300E000231A433B685B7969
:10590000002B02D04FF0805300E000231A433B6885
:105910001B7B002B01D0082300E000231A437B6887
:105920001A603B681B78002B02D07B6801225A600A
:105930000C37BD465DF8047B704700BF0000014096
:105940000004014000080140000C01400648804767
:105950000649074A074B9A42BEBF51F8040B42F86A
:10596000040BF8E7FAF7E6FBF95A00008C94000004
:1059700000000020F4000020FEE700BF80B400AF6C
:10598000044BDB6C1B0EDBB21846BD465DF8047B96
:10599000704700BFB081E00F80B582B000AF00F06B
:1059A0001FF87860074B5B6803F00F037A6822FAF0
:1059B00003F37B60044B7A681A607B6818460837EB
:1059C000BD4680BD00800C400008002080B400AFC0
:1059D000024B1846BD465DF8047B7047006CDC0244
:1059E00080B582B000AF334BDB6A03F47053B3F57C
:1059F000805F0AD0B3F5005F03D0B3F5006F08D025
:105A00000BE02D4B1B687B6047E04FF400437B604D
:105A100043E02A4B1B687B603FE0264BDB6803F4C6
:105A2000E063B3F5007F1BD0B3F5007F05D8002BF2
:105A300024D0B3F5807F16D02BE0B3F5806F09D06A
:105A4000B3F5A06F03D0B3F5407F06D021E01C4B27
:105A50007B6021E01B4B7B601EE01B4B7B601BE0EF
:105A60001A4B7B6018E0FFF789FF0346122B02D91F
:105A7000174B7B6010E0174B7B600DE0FFF77EFF5C
:105A80000346122B02D9144B7B6005E0134B7B605D
:105A900002E000237B6000BF00BF064B1B6803F4DD
:105AA000E0339B0B01337A68B2FBF3F318460837F7
:105AB000BD4680BD00800C4048000020440000200E
:105AC000003FAB01406F4001809FD500C0D8A700C8
:105AD00040B56400C0CF6A00804F120040420F0002
