:1000000000800020655300009153000091530000D0
:100010009153000091530000915300009153000050
:100020009153000091530000915300009153000040
:100030009153000091530000915300009153000030
:10004000C13C000091530000C51B0000915300000B
:100050009153000091530000D91B0000F11B0000D8
:10006000915300009153000091530000191B0000B0
:1000700091530000915300009153000091530000F0
:10008000915300003911000091530000915300007A
:1000900091530000915300009153000091530000D0
:1000A0003D14000091530000391D000091530000E1
:1000B00091530000915300009153000091530000B0
:1000C00091530000915300009153000091530000A0
:1000D0009153000091530000915300009153000090
:1000E00010B5054C237833B9044B13B10448AFF372
:1000F00000800123237010BD0001002000000000DB
:10010000488A000008B5064B1BB106480649AFF304
:1001100000800648036813B1054B03B1984708BD3A
:1001200000000000488A000004010020F0000020C8
:1001300000000000154B002B08BF134B9D46A3F594
:10014000803A00218B460F461348144A121A05F0D4
:10015000F7FE0F4B002B00D098470E4B002B00D022
:1001600098470020002104000D000D48002802D00F
:100170000C48AFF3008005F0B5FE2000290002F026
:10018000DBF805F09BFE00BF0000080000800020A7
:10019000000000000000000000010020080900200D
:1001A000000000000000000080B483B000AF0346F0
:1001B000FB71084B97F907205209F97901F01F01EB
:1001C000012000FA01F143F822100C37BD465DF81A
:1001D000047B704700E100E080B483B000AF0346C9
:1001E0003960FB71FB79002B0DD0FB79012B0AD014
:1001F000FB79022B07D0FB79032B04D0FB79042B6E
:1002000001D0FB79052B0948FA793B68012101FAF5
:1002100003F319461346DB0013449B0003441033D9
:1002200019600C37BD465DF8047B704700600040E4
:1002300080B400AF094B72225A62084B01225A6007
:1002400000BF064B9B6A03F04003002BF9D0034B21
:1002500040221A63BD465DF8047B704700A400404D
:1002600080B582B000AF02460B46FA71BB71FFF752
:10027000DFFF154BFA795A6200BF134B9B6A03F0FC
:100280004003002BF9D0104B40221A630E4BBA7971
:100290005A6200BF0C4B9B6A03F04003002BF9D05D
:1002A000094B40221A63084B02225A6000BF064BDA
:1002B0009B6A03F48073002BF9D0034B4FF48072D8
:1002C0001A630837BD4680BD00A4004080B584B0E5
:1002D00000AF0346FB710023FB73FFF7A9FF1E4B22
:1002E000FA795A6200BF1C4B9B6A03F04003002B53
:1002F000F9D0194B40221A63174B01225A60164B52
:1003000073225A6200BF144B9B6A03F04003002B18
:10031000F9D0114B40221A6300BF0F4B9B6A03F0C8
:100320002003002BF9D00C4BDB69FB730A4B08222E
:100330005A60094B02225A6000BF074B9B6A03F4C4
:100340008073002BF9D0044B4FF480721A63FB7B4F
:1003500018461037BD4680BD00A4004080B584B06B
:1003600000AF396013460246FA71BB71FFF760FFB8
:100370002E4BFA795A6200BF2C4B9B6A03F0400364
:10038000002BF9D0294B40221A63284B01225A60D6
:10039000264B73225A6200BF244B9B6A03F0400332
:1003A000002BF9D0214B40221A630023FB7313E08A
:1003B00000BF1E4B9B6A03F02003002BF9D0FB7B90
:1003C0003A681344194AD269D2B21A70174B042200
:1003D0005A60FB7B0133FB73FA7BBB79013B9A428A
:1003E000E6DB00BF114B9B6A03F02003002BF9D022
:1003F000FB7B3A6813440D4AD269D2B21A700B4B98
:1004000008225A60094B02225A6000BF074B9B6AC0
:1004100003F48073002BF9D0044B4FF480721A63FD
:10042000FB7B18461037BD4680BD00BF00A40040CE
:1004300080B584B000AF02460B46FA71BB71002351
:10044000FB738020FFF742FF0346FB73BB7903F089
:100450000103BB71FB79062B18D8BB79002B09D09F
:10046000FB79012202FA03F3DAB2FB7B1343DBB21E
:10047000FB7316E0FB79012202FA03F3DBB2DB43E4
:10048000DAB2FB7B1343DBB2FB730AE0FB79072B89
:1004900007D1BB79002B02D07F23FB7301E000233F
:1004A000FB73FB7B80201946FFF7DAFE1037BD4651
:1004B00080BD00BF80B584B000AF0346FB718F20C4
:1004C000FFF704FF0346FB73FB7903F00303FB71A3
:1004D000FB799B00FB71FB7B23F00C03FB73FA7B26
:1004E000FB791343FB73FB7B8F201946FFF7B8FEA4
:1004F0001037BD4680BD00BF80B584B000AF034655
:10050000FB718F20FFF7E2FE0346FB73FB7903F0DC
:100510000303FB71FB799B01FB71FB7B03F03F0342
:10052000FB73FA7BFB791343FB73FB7B8F2019462C
:10053000FFF796FE1037BD4680BD00BF80B500AF07
:1005400000200121FFF774FF80BD00BF80B500AF20
:100550009C20FFF7BBFE0346184680BD80B582B0E5
:1005600000AF02460B46FA71BB71FA79BB791046AF
:100570001946FFF775FE0837BD4680BD80B582B0CD
:1005800000AF02460B46FA71BB71FA79BB7910468F
:100590001946FFF765FE0837BD4680BD80B584B0BB
:1005A00000AF0346FB71A320FFF790FE0346FB73E9
:1005B000FB7903F00303FB71FB795B01FB71FB7BB0
:1005C00023F06003FB73FA7BFB791343FB73FB7B24
:1005D000A3201946FFF744FE1037BD4680BD00BF7B
:1005E00080B584B000AF0346FB71A320FFF76EFE19
:1005F0000346FB73FB7903F00303FB71FB79DB001C
:10060000FB71FB7B23F01803FB73FA7BFB7913432D
:10061000FB73FB7BA3201946FFF722FE1037BD4674
:1006200080BD00BF80B584B000AF0346FB71A3203E
:10063000FFF74CFE0346FB73FB7903F00703FB71E6
:10064000FB7B23F00703FB73FA7BFB791343FB73FC
:10065000FB7BA3201946FFF703FE1037BD4680BD84
:1006600080B584B000AF0346FB71AB20FFF72EFED0
:100670000346FB73FB7903F00103FB71FB795B001D
:10068000FB71FB7B23F00203FB73FA7BFB791343C3
:10069000FB73FB7BAB201946FFF7E2FD1037BD462D
:1006A00080BD00BF80B584B000AF0346FB719020D1
:1006B000FFF70CFE0346FB73FB7903F00303FB71AA
:1006C000FB791B01FB71FB7B23F03003FB73FA7B8F
:1006D000FB791343FB73FB7B90201946FFF7C0FDAA
:1006E0001037BD4680BD00BF80B584B000AF034663
:1006F000FB71AB20FFF7EAFD0346FB73FB7903F0C8
:100700000103FB71FB7B23F00103FB73FA7BFB7995
:100710001343FB73FB7BAB201946FFF7A1FD10379A
:10072000BD4680BD80B58AB000AF002387F8273072
:10073000002387F82630002387F82530002387F828
:100740002430002387F82330002387F82230002349
:1007500087F82130002387F82030AE4B93F88130A2
:10076000042B01D80023B5E1AA4B93F88130202B4C
:1007700000F29F80A74B93F88130002B00F0998006
:100780000023FB6139E0A34AFB6913441B780A2B61
:1007900030D9A04AFB69134420331B780A2B29D98E
:1007A0009C4AFB69134440331B780A2B22D9994A8F
:1007B000FB69134460331B780A2B1BD9954AFB69EC
:1007C00013441B7887F82730924AFB69134420337F
:1007D0001B7887F826308F4AFB69134440331B7817
:1007E00087F825308B4AFB69134460331B7887F800
:1007F000243009E0FB690133FB61864B93F88130BB
:100800001A46FB699A42BEDC97F82730002B0BD0C2
:1008100097F82630002B07D097F82530002B03D00F
:1008200097F82430002B01D1002353E1794B93F842
:100830008130013BFB6139E0764AFB6913441B7848
:100840000A2B30D9734AFB69134420331B780A2BD7
:1008500029D9704AFB69134440331B780A2B22D9EB
:100860006C4AFB69134460331B780A2B1BD9694A15
:10087000FB6913441B7887F82330664AFB691344ED
:1008800020331B7887F82230624AFB6913444033D7
:100890001B7887F821305F4AFB69134460331B786B
:1008A00087F8203005E0FB69013BFB61FB69002B09
:1008B000C2DD97F8272097F82630D31A642202FB6E
:1008C00003F297F8271097F826300B4492FBF3F3C6
:1008D000BB6197F8252097F82430D31A642202FBD5
:1008E00003F297F8251097F824300B4492FBF3F3AA
:1008F0007B6197F8232097F82230D31A642202FBF9
:1009000003F297F8231097F822300B4492FBF3F38D
:100910003B6197F8212097F82030D31A642202FB1C
:1009200003F297F8211097F820300B4492FBF3F371
:10093000FB603A69BB69D31ABB60FA687B69D31A5A
:100940007B60344BD3F88420BB681A44314BC3F826
:100950008420304BD3F888207B681A442D4BC3F891
:1009600088202C4BD3F88430312B04DD294B012215
:10097000C3F88C200FE0274BD3F8843013F1310FEC
:1009800005DA244B4FF0FF32C3F88C2003E0214BF3
:100990000022C3F88C201F4BD3F88830312B04DDA4
:1009A0001C4B0122C3F890200FE01A4BD3F888307B
:1009B00013F1310F05DA174B4FF0FF32C3F89020D7
:1009C00003E0144B0022C3F89020124BD3F88C3074
:1009D000002B50D10F4BD3F89030002B4BD1B8687F
:1009E00005F068FA0346132B44DC786805F062FAD8
:1009F0000346132B3EDCBB68002B0DD17B68002B1C
:100A00000AD1044BD3F894305A1C024BC3F89420FB
:100A10000FE000BFAC010020BB68002B02D17B6857
:100A2000002B06D02D4BD3F898305A1C2B4BC3F813
:100A300098202A4BD3F89430092B1BDD274BD3F891
:100A40009830012B16DDBB68002B07D17B68002B8B
:100A500004D1224B0122C3F89C2009E0BB68002B83
:100A600006D07B68002B03D01C4B0222C3F89C20CD
:100A700001232FE02DE0B86805F01CFA0346132B84
:100A800027DC786805F016FA0346132B21DCBB68D7
:100A9000002B09D17B68002B06D1104BD3F8943082
:100AA0005A1C0E4BC3F894200C4BD3F89430092BEE
:100AB0000FDD0A4B0022C3F88C20084B0022C3F83C
:100AC0009020064B0022C3F88420044B0022C3F878
:100AD0008820002318462837BD4680BDAC01002081
:100AE00098B500AF764BD3F89C30012B05D1744BF1
:100AF0000522C3F8A0200123DFE0714BD3F89C301E
:100B0000022B05D16E4B0622C3F8A0200123D4E0AE
:100B10006B4BD3F88C30B3F1FF3F09D1684BD3F85E
:100B20009030002B04D1664B0322C3F8A020C3E011
:100B3000634BD3F88C30012B09D1614BD3F8903043
:100B4000002B04D15E4B0422C3F8A020B4E05C4B20
:100B5000D3F88C30002B09D1594BD3F89030012BAE
:100B600004D1574B0222C3F8A020A5E0544BD3F880
:100B70008C30002B0AD1524BD3F89030B3F1FF3FA9
:100B800004D14F4B0122C3F8A02095E04C4BD3F881
:100B90008C30B3F1FF3F1ED1494BD3F89030012B7D
:100BA00019D1474BD3F88430184605F083F9044631
:100BB000434BD3F88830184605F07CF903469C4235
:100BC00004DD3F4B0322C3F8A02075E03C4B02221A
:100BD000C3F8A02070E03A4BD3F88C30012B1FD122
:100BE000374BD3F89030B3F1FF3F19D1344BD3F8E2
:100BF0008430184605F05EF90446314BD3F888304E
:100C0000184605F057F903469C4204DD2C4B04229C
:100C1000C3F8A02050E02A4B0122C3F8A0204BE0EB
:100C2000274BD3F88C30B3F1FF3F1FD1244BD3F8BF
:100C30009030B3F1FF3F19D1214BD3F884301846DF
:100C400005F038F904461E4BD3F88830184605F0F5
:100C500031F903469C4204DD194B0322C3F8A0205E
:100C60002AE0174B0122C3F8A02025E0144BD3F84B
:100C70008C30012B1ED1124BD3F89030012B19D19F
:100C80000F4BD3F88430184605F014F904460C4B8A
:100C9000D3F88830184605F00DF903469C4204DD70
:100CA000074B0422C3F8A02006E0054B0222C3F83C
:100CB000A02001E0002300E00123184698BD00BFFA
:100CC000AC01002080B582B000AFAF20FFF7FEFA84
:100CD0000346FB71FB7903F00103FB71FB79012BE8
:100CE00001D1012300E0002318460837BD4680BD2E
:100CF00080B5A4B000AF002387F88B30002387F8BD
:100D00008A30FFF7DFFF034683F00103DBB2002BDD
:100D100001D00023C6E00023C7F88C3004E0D7F8E8
:100D20008C300133C7F88C30D7F88C2042F20F7327
:100D30009A42F4DDAF20FFF7C9FA034687F88930FD
:100D400097F8893003F00103002B00F08380AE2078
:100D5000FFF7BCFA034687F88B3097F88B30002BEF
:100D600000F09F8097F88B309B00DBB23A1DFC208F
:100D700011461A46FFF7F2FA034687F88A3097F8C9
:100D80008A30032B40F28D800023C7F88C304BE073
:100D9000464B93F88030391DD7F88C200A441178DF
:100DA000424AD154414B93F88030D7F88C2001321D
:100DB00007F190010A4412F88C2C3C490B4483F84B
:100DC00020203A4B93F88030D7F88C20023207F17C
:100DD00090010A4412F88C2C34490B4483F84020CB
:100DE000324B93F88030D7F88C20033207F1900112
:100DF0000A4412F88C2C2D490B4483F860202B4BAD
:100E000093F880300133DAB2284B83F88020274BE7
:100E100093F881300133DAB2244B83F88120D7F87C
:100E20008C300433C7F88C3097F88A20D7F88C3090
:100E30009A42ADDCFFF776FC0346002B01D0FFF7AA
:100E40004FFE1A4B002283F88120184B002283F8B2
:100E5000802060E70023C7F88C3004E0D7F88C309E
:100E60000133C7F88C30D7F88C2042F20F739A42C6
:100E7000F4DDFFF735FEAF20FFF728FA034687F8C9
:100E80008930AE20FFF722FA034687F88B30074BF4
:100E9000D3F8A030C7F8843000F074F8D7F8843065
:100EA00000E038E718469037BD4680BDAC01002011
:100EB00080B500AF07200021FFF7BAFA8120DB21BF
:100EC000FFF7CEF98320F621FFF7CAF98E2087219C
:100ED000FFF7C6F99D200021FFF7C2F99E200021EF
:100EE000FFF7BEF98D206021FFF7BAF90020FFF768
:100EF00003FB0120FFF7DEFA89200021FFF72EFB1C
:100F00008B203221FFF72AFB8C20A121FFF7A8F9C3
:100F100090200121FFF7A4F99F200021FFF7A0F9FD
:100F2000A0202821FFF72AFBA1201E21FFF726FB86
:100F3000A2204021FFF794F90220FFF72FFB0020A9
:100F4000FFF74EFB0120FFF76DFBA4200021FFF708
:100F500087F9A5200021FFF783F9A7200021FFF7DB
:100F60007FF9A9200021FFF77BF9A620C921FFF70F
:100F700077F9AA200021FFF773F90020FFF770FB33
:100F800080BD00BF80B400AF154B002283F88020E5
:100F9000134B002283F88120114B0022C3F88420D8
:100FA0000F4B0022C3F888200D4B0022C3F88C2081
:100FB0000B4B0022C3F89020094B0022C3F8942069
:100FC000074B0022C3F89820054B0022C3F89C2051
:100FD000034B0022C3F8A020BD465DF8047B704798
:100FE000AC01002080B582B000AF0346FB71FFF773
:100FF000C9FF8320FF21FFF733F98E208921FFF7F6
:101000002FF90320FFF74EFBFB79002B03D00120C3
:10101000FFF726FB02E00020FFF722FB0120FFF78D
:1010200063FBFFF78BFA02200121FFF701FA06208C
:101030000121FFF7FDF903200121FFF7CDF80B2077
:10104000FFF7B2F80837BD4680BD00BF80B582B05B
:1010500000AF0346FB71FB79002B03D00120FFF7A3
:10106000C1FF02E00020FFF7BDFF0837BD4680BD8D
:1010700080B500AF022005210822012303F074FA95
:10108000022004210822012303F06EFA80BD00BF74
:1010900090B585B000AF0F48012102F04BF9FFF782
:1010A000E7FF0D4B3C460FCB84E80F000B4B0322B0
:1010B0009A633B460948194603F086FB074B9B6839
:1010C00003F00103002B02D0044B20225A60143796
:1010D000BD4690BD00C204006085000000A4004031
:1010E00080B400AF034B9B6A1846BD465DF8047B95
:1010F000704700BF00C0084080B483B000AF786084
:10110000034B7A685A640C37BD465DF8047B704720
:1011100000C0084080B483B000AF064BDB6C7B603E
:10112000044B1A6C7B68134018460C37BD465DF8BB
:10113000047B704700C0084080B582B000AFFFF765
:10114000E9FF034603F48033002B42D04FF4803094
:10115000FFF7D2FF294B00221A702EE0274B1B7895
:10116000DBB2274AD35C83F00103DBB2002B00D053
:101170001CE0FFF7B5FF7860204B1B78DBB21A4606
:10118000204B796843F822101C4B1B78DBB21A46BF
:101190001D4B53F822207B689A4207D2174B1B78CD
:1011A000DBB21A46184B796843F82210134B1B78B0
:1011B000DBB20133DAB2114B1A70104B1B78DBB281
:1011C0000F2BCBD9114B1B68002B02D00F4B1B6888
:1011D0009847FFF79FFF034603F47063002B0AD084
:1011E0004FF47060FFF788FF094B1B68002B02D09B
:1011F000074B1B6898470837BD4680BD6401002037
:10120000708500001C010020000000205C0100200F
:101210006001002080B500AF0E2004F089FE024678
:10122000044B1A60034B00225A71024B00221A71C0
:1012300080BD00BF5002002080B483B000AF786052
:101240007B685B79DBB2591C0C4B81FB03230B449D
:10125000DA10CB17D21A1346DB009B1A5B00CA1AAE
:101260007B681B79DBB29A4201D1012300E00023A5
:1012700018460C37BD465DF8047B704793244992AD
:1012800080B586B000AFF860B9601346FB710023EB
:101290007B61F868FFF7D0FF0346002B01D00023E5
:1012A00028E000237B6120E0FB681A68FB685B791B
:1012B000DBB213447A69B9680A4412781A70FB6881
:1012C0005B79DBB2591C0D4B81FB03230B44DA1015
:1012D000CB17D21A1346DB009B1A5B00CA1AD2B294
:1012E000FB685A717B6901337B61FA797B699A42A9
:1012F000DADC012318461837BD4680BD9324499295
:1013000080B400AF0B4B1B79DBB2591C0A4B81FB3D
:1013100003230B44DA10CB17D21A1346DB009B1AB7
:101320005B00CA1AD2B2034B1A71BD465DF8047B4A
:10133000704700BF500200209324499280B483B0CC
:1013400000AF0346FB71084B97F907205209F97962
:1013500001F01F01012000FA01F143F822100C37BF
:10136000BD465DF8047B704700E100E080B483B0C7
:1013700000AF0346FB71094B97F907205209F97931
:1013800001F01F01012000FA01F1603243F8221040
:101390000C37BD465DF8047B704700BF00E100E0FC
:1013A00080B400AF72B6084B1B68B3F1FF3F04D0A6
:1013B000054B1B685A1C044B1A60034B1B681846EC
:1013C000BD465DF8047B70479C01002080B483B06B
:1013D00000AF0C4B1B68002B0DD00A4B1B685A1E2C
:1013E000084B1A60074B1B687B607B68002B00D1A1
:1013F00062B67B6800E0002318460C37BD465DF8F6
:10140000047B70479C01002080B483B000AF7860FB
:1014100039607B683A685A630C37BD465DF8047BD7
:10142000704700BF80B483B000AF78607B68DB6A30
:1014300018460C37BD465DF8047B704780B582B016
:1014400000AFFFF7ADFF4348FFF7ECFF786041487E
:101450007968FFF7D9FF7B6803F00203002B32D0D5
:101460003D4B1B7883F00103DBB2002B2BD03B4BB1
:101470005B79DAB2394B1B79DBB29A4222D9354B10
:10148000364A1168354A1279D2B20A4412789A6201
:10149000324B1A68314B1B79DBB2134400221A70AD
:1014A000FFF72EFF2B4B2B4A926B22F002029A631E
:1014B000284B284A926B42F001029A63264B012284
:1014C0001A7042E041E07B6803F00103002B3CD03E
:1014D000214B1B78002B38D0204B5B79DAB21F4BA5
:1014E0001B79DBB29A4213D01A4B1C4A11681B4A73
:1014F0001279D2B20A4412789A62184B1A68174BC2
:101500001B79DBB2134400221A70FFF7F9FE1CE0CE
:10151000124B5B79DAB2114B1B79DBB29A4214D1D0
:101520000D4B00221A7000230C4A194611710B4A08
:101530005371084B074A926B22F001029A63054BE4
:10154000044A526B42F001025A63FFF73FFF08372B
:10155000BD4680BD004008406501002050020020CB
:1015600080B485B000AFF8600B467A60FB72054B23
:10157000044A126822F400521A601437BD465DF81E
:10158000047B70470040084080B500AF0320042171
:101590000422012302F0E8FF032005210222012397
:1015A00002F0E2FF80BD00BF80B586B000AF154BF2
:1015B000154A1A60134B00225A60124B7B610123BB
:1015C0007B7301233B73114B3B6107F10C0300203C
:1015D000194602F001FC0023FB7103233B71002339
:1015E0007B710023BB7100233B723B1D0020012156
:1015F0001A4602F039FC064B064A5A601837BD46B7
:1016000080BD00BFE8080020611500000100100047
:10161000000300202840084090B585B000AF134873
:10162000012101F087FE124803F0A4FD114B3C4656
:101630000FCB84E80F003B460D48194603F058FDD8
:101640000B4B0B4A526D5A65094B094A526D42F0D9
:1016500003025A65FFF798FF1820FFF787FE18204E
:10166000FFF76CFE1437BD4690BD00BF7007140035
:10167000004008408085000080B483B000AF03467E
:10168000FB71084B97F907205209F97901F01F0106
:10169000012000FA01F143F822100C37BD465DF835
:1016A000047B704700E100E080B483B000AF786055
:1016B000044B7A68C3F81C210C37BD465DF8047BE7
:1016C000704700BF0060004080B400AF034BD3F808
:1016D00014311846BD465DF8047B70470060004039
:1016E00080B483B000AF03463960FB71FB79002BF7
:1016F0000DD0FB79012B0AD0FB79022B07D0FB79A7
:10170000032B04D0FB79042B01D0FB79052B09486E
:10171000FA793B68012101FA03F319461346DB000D
:1017200013449B000344103359600C37BD465DF8E9
:10173000047B70470060004080B483B000AF034674
:101740003960FB71FB79002B0DD0FB79012B0AD09E
:10175000FB79022B07D0FB79032B04D0FB79042BF8
:1017600001D0FB79052B0948FA793B68012101FA80
:1017700003F319461346DB0013449B000344103364
:1017800019600C37BD465DF8047B7047006000406F
:1017900080B584B002AF39600146F971BA717B71CE
:1017A000FA79BB7979790091397C019110463968D1
:1017B0003A6802F073FE0837BD4680BD80B582B03E
:1017C00000AF0C4B1B687B603B46184603F00AFDDC
:1017D0007B681B0E0F2B0AD93B78032B07D1064BD6
:1017E000054A126822F0500242F010021A600837CF
:1017F000BD4680BDFC81E00FC0800C4080B400AFCE
:1018000072B6084B1B68B3F1FF3F04D0054B1B6851
:101810005A1C044B1A60034B1B681846BD465DF802
:10182000047B70479C01002080B483B000AF0C4B58
:101830001B68002B0DD00A4B1B685A1E084B1A6000
:10184000074B1B687B607B68002B00D162B67B680E
:1018500000E0002318460C37BD465DF8047B704756
:101860009C01002080B483B000AF786039607B6851
:101870003A689A620C37BD465DF8047B704700BF3A
:1018800080B483B000AF786039607B68DA6A3B6807
:101890001A437B68DA620C37BD465DF8047B7047FB
:1018A00080B483B000AF78600B46FB707A680F4B52
:1018B0009A420BD07A680E4B9A4207D07A680D4B49
:1018C0009A4203D07A680C4B9A4200D100BFFB7851
:1018D000002B03D07B6801225A6002E07B68022261
:1018E0005A600C37BD465DF8047B7047000001402C
:1018F0000004014000080140000C014080B483B0A6
:1019000000AF786039607B683A689A610C37BD46F1
:101910005DF8047B704700BF80B483B000AF78608F
:1019200039607B68DA683B681A437B68DA600C3799
:10193000BD465DF8047B704780B483B000AF78602B
:1019400039607B683A681A620C37BD465DF8047BE3
:10195000704700BF80B483B000AF78600B46FB7067
:10196000FA787B685A600C37BD465DF8047B704797
:1019700080B586B000AF7860164B1B6803F47F0318
:101980001B0C184604F058F803467B61124B1B6889
:101990001B0D184604F050F803463B610F4BFB60EB
:1019A000786804F04DF803463869194603F092FF51
:1019B00003461846F96804F04BF90346786919465E
:1019C00003F088FF0346BB60BB6818461837BD4666
:1019D00080BD00BFB081E00FBC81E00FD7A3C8C0BD
:1019E00080B58AB002AFF8600B467A60FB720023C4
:1019F000FB614FF000037B610023BB613A4B3A4A25
:101A0000526842F002025A60012000F06BFF00238E
:101A1000BB610BE0354BBA6933F812309BB21BB295
:101A2000FA691344FB61BB690133BB61BB69B3F560
:101A3000FA7FEFDBFA692E4BA3FB02135B09FB6114
:101A4000FB691846FFF794FF78617869294904F02B
:101A5000FDF90346002B0BD07869274904F0ECF917
:101A60000346002B04D004200321FFF739FE11E0C8
:101A70007869204904F0D6F90346002B06D178692D
:101A80001D4904F0E3F90346002B03D00420032191
:101A9000FFF752FE194B54221A70786903F0C2FE08
:101AA00002460B46CDE9002315480621154A04F0ED
:101AB000F7FA154811490622FFF7E2FB134B144AC7
:101AC0001A60144B134A126842F400521A60002341
:101AD000009305230193002001210022002302F03E
:101AE0005BF92037BD4680BD002000400005002086
:101AF000D34D62100000704100000C4278010020BC
:101B00007901002090850000500200200003002091
:101B10007D0100200040084080B582B000AFFFF793
:101B20006DFEFFF7D1FD03461846FFF7BDFDFFF739
:101B3000C9F80346FB71FB79002B30D0FFF7D8F8CA
:101B400038603B68013B052B26D801A252F823F0F0
:101B5000791B0000811B0000691B0000711B000045
:101B6000891B0000911B00000F4800F00BFE16E0DF
:101B70000E4800F007FE12E00D4800F003FE0EE0F4
:101B80000C4800F0FFFD0AE00B4800F0FBFD06E00A
:101B90000A4800F0F7FD02E0094800F0F3FDFFF706
:101BA00043FE0837BD4680BD94850000988500003F
:101BB000A0850000A8850000B0850000B885000061
:101BC000BC85000080B500AF02480121FFF796FEFA
:101BD00080BD00BF0000014080B400AF034B012274
:101BE0009A61BD465DF8047B704700BF001000405D
:101BF00080B584B002AF4FF000037B60FFF7FEFDBD
:101C000040480121FFF798FE3F4B1B88002B0DD069
:101C10003C4B5A6A3D4B1B681A443C4B1A603A4B8A
:101C20001B88013B9AB2384B1A8066E0364B4FF462
:101C3000FA721A80354B1A68354BA3FB02135A0906
:101C4000324B1A60314B1B681846FFF791FE7860E3
:101C50007868304904F0FAF80346002B0BD0786816
:101C60002D4904F0E9F80346002B04D00420032199
:101C7000FFF736FD11E07868264904F0D3F80346F3
:101C8000002B06D17868244904F0E0F80346002BC5
:101C900003D004200321FFF74FFD1A4B194A526865
:101CA00042F002025A601D4B54221A70786803F009
:101CB000B9FD02460B46CDE9002319480621194A11
:101CC00004F0EEF9184815490622FFF7D9FA174B28
:101CD000174A1A60174B174A126842F400521A60EA
:101CE00000230093052301930020012100220023FB
:101CF00002F052F8012000F0F5FDFFF795FD0837DE
:101D0000BD4680BD0020004040000020840100202E
:101D1000D34D62100000704100000C427801002099
:101D2000790100209085000050020020000300206F
:101D30007D0100200040084080B584B002AF002340
:101D4000FB71FFF75BFD2B4B01229A62294B0022AE
:101D5000DA60284B284A12681A61284B1B78002B3E
:101D60000ED1FEF7F3FB0346FB71FB79184600F03A
:101D70004FFC224B1B780133DAB2204B1A7021E062
:101D80001E4B1B78012B0ED1FEF7E0FB0346FB71C7
:101D9000FB79184600F03CFC184B1B780133DAB293
:101DA000164B1A700EE0154B1B78022B0AD1FEF76A
:101DB000CDFB0346FB71FB79184600F029FC0F4B65
:101DC00000221A70012000F0A9FD0D4B009340F293
:101DD000F31301930120012100220A4B01F0DCFFE3
:101DE00009480121FFF7B6FDFFF71EFD0837BD4684
:101DF00080BD00BF00200840680100207401002061
:101E000024200040000500200020004080B582B062
:101E100000AF0346FB71FB79022B09D100200121A1
:101E2000012201F007FE1248022101F089FC0BE0BB
:101E3000FB79032B08D105200121012201F0FAFDD5
:101E40000B48092101F07CFC0A48012101F072FADB
:101E50000948012101F06EFA0848022101F070FCE6
:101E60000648012101F066FA0837BD4680BD00BF73
:101E700002001800408104000043020003001A0021
:101E800080B586B000AF0346FB71FB79184600F0C1
:101E900045FD3648012101F04DFA01233B73002333
:101EA0007B730023BB730023FB7300233B7400236D
:101EB0007B740023BB740023FB7400233B75002359
:101EC0007B750023BB752A4B9B6A29481946FFF78F
:101ED000C9FC27480121FFF7D3FCFB79022B18D15D
:101EE000244B244A926E42F400729A66224B4FF4BD
:101EF00048421A60204B1B68C3F57F43FF331E4ADC
:101F000013601D4B1B681A4800211A4602F0C6FFD9
:101F10001CE0FB79032B19D1184B1B6841F66A02B0
:101F200002FB03F2164BA3FB02139A09154B1A602E
:101F3000144B1B68C3F57F43FF33124A1360114BE8
:101F40001B680B4800211A4602F0A8FF07F10C039A
:101F50000748194602F0E4FF1A20FFF78DFB0448FA
:101F6000012102F0C7FF1837BD4680BD6026120070
:101F70000020084000800C40680100207001002013
:101F8000D34D62106C01002080B582B002AF1B48B7
:101F9000012101F0CFF9042002210422002302F0E4
:101FA000E3FA042003210422002302F0DDFA0320D7
:101FB00006210422002302F0D7FA02200621002283
:101FC000002302F0D1FA032000210422002302F0B2
:101FD000CBFA0320002102F029FA0320012101227B
:101FE000002302F0C1FA0123009303200121002203
:101FF0000123FFF7CDFBBD4680BD00BF00D204002A
:1020000080B588B000AF2148012101F093F9204844
:10201000012101F08FF907F1100300221A60043347
:1020200000221A60043300221A60043300221A705E
:1020300001333B4600221A60043300221A60043345
:1020400000221A60043300221A7001330223FB704D
:1020500001233B7307F110030E48194603F0FCF807
:102060003B460D48194603F0F7F80A4B9B690948AF
:102070001946FFF743FC07480121FFF74DFC0220FA
:10208000FFF7FAFA2037BD4680BD00BF00520400BA
:1020900000620400000001400004014090B587B0D8
:1020A00000AF00237B6100233B61012000F036FC80
:1020B000FFF7A6FF00200121012201F0BBFC5F48D1
:1020C000022101F03DFB5E48012101F033F95D483A
:1020D000012101F02FF901233B7100237B710023C3
:1020E000BB710023FB7100233B7200237B72002332
:1020F000BB720023FB7200233B7300237B7300231E
:10210000BB730123BB7301233B7200233B714E4B16
:102110004FF400421A613B1D4B48194602F000FF84
:10212000494B4FF40042DA604748012102F0E2FED9
:1021300046480121FFF7B4FB45480121FFF7B0FBFA
:10214000414BDB687B6102E03F4BDB687B617B6975
:10215000002BF9D13D4B5A6A3D4B5B6A1B0413447B
:102160007B6100200021012201F064FC0520012197
:10217000012201F05FFC3148092101F0E1FA334806
:102180000021FFF78DFB32480021FFF789FB2E4B22
:102190004FF47A721A612C4B4FF47A72DA602B4B3F
:1021A00000225A622A4B00225A622748012102F07B
:1021B000A1FE26480121FFF773FB25480121FFF707
:1021C0006FFB214BDB683B6102E01F4BDB683B612F
:1021D0003B69002BF9D11D4B5A6A1D4B5B6A1B04EE
:1021E00013443B61786903F027FC0446386903F027
:1021F00023FC03462046194603F02AFD03461846F1
:10220000144903F071FC0346184603F033FE0246FE
:10221000114B1A600D480021FFF742FB0C480021CA
:10222000FFF73EFB05200021012201F003FC012005
:1022300000F058FB1C37BD4690BD00BF02001800DF
:102240000043020060261200002008400000014008
:102250000004014000007A447001002080B586B07F
:1022600000AF1048012101F065F80F4A07F1100393
:102270001068186092889A8007F110030B4819467D
:1022800000F016FC0A4A3B1D1068516803C3127A1D
:102290001A703B1D0548194600F04EFC1837BD4624
:1022A00080BD00BF00020500C48500000020004082
:1022B000CC85000080B588B000AF1A48012101F03C
:1022C00039F800233B76184BFB6107F118031846D9
:1022D00001F002FE154B164ADA60144B00221A6117
:1022E000144B7B6101237B7301233B734FF4002369
:1022F0003B6107F10C030120194601F06DFD00233D
:10230000FB7101233B7103237B710123BB7100230C
:102310003B723B1D012001211A4601F0A5FD20372B
:10232000BD4680BD0003020000030020E808002035
:10233000E1190000F408002080B500AFFFF73EFA75
:10234000032000F0EBFA114B1B78184600F004F95B
:10235000FFF7A4FE0220FFF759FDFEF75BFFFFF732
:1023600013FEFFF759F9FFF779FFFFF7A3FFFFF718
:102370001BF9FEF78DFEFEF79BFD0120FEF766FEC2
:102380000220FFF77DFD00F0DFFAFCE7800100206E
:1023900080B483B000AF0346FB71FB79002B03D000
:1023A000054B01221A6602E0034B00221A660C3725
:1023B000BD465DF8047B704700A0084080B483B040
:1023C00000AF786000BF054B5A6E7B681340002B4E
:1023D000F9D10C37BD465DF8047B704700A008407A
:1023E00080B483B000AF7860054B054A916A7A6883
:1023F000D2430A409A620C37BD465DF8047B7047B1
:1024000000A0084080B500AF00202849002202F05B
:10241000B5FB01202549002202F0B0FB0220234930
:10242000002202F0ABFB03202049002202F0A6FBB1
:1024300004201E49002202F0A1FB05201B490022B6
:1024400002F09CFB06201949002202F097FB0720AE
:102450001649002202F092FB0020FF21002202F028
:102460004BFC0120FF21002202F046FC0220FF214C
:10247000002202F041FC0320FF21002202F03CFC7C
:102480000420FF21002202F037FC0520FF2100225A
:1024900002F032FC0620FF21002202F02DFC072072
:1024A000FF21002202F028FC80BD00BF00F00FF0E9
:1024B00080B500AF07202649002202F05FFB06200E
:1024C0002449002202F05AFB05202249002202F092
:1024D00055FB04201F49002202F050FB03201D4938
:1024E000002202F04BFB02201A49002202F046FBB8
:1024F00001201849002202F041FB00204FF020414A
:10250000002202F03BFB07200721002202F0F4FB2F
:1025100006200721002202F0EFFB05200721002200
:1025200002F0EAFB04200721002202F0E5FB032071
:102530000721002202F0E0FB02200721002202F026
:10254000DBFB01200721002202F0D6FB00BF80BD8B
:1025500000E00F5000E00FF080B582B000AF0346FE
:10256000FB712548012100F0E5FE2448032101F01C
:10257000E7F82348402100F0C5FD012001F03CFAB6
:102580002048012100F0D6FE4FF0FF30FFF728FF72
:102590001D4802F087F90820012102F0DDF9102022
:1025A000012102F0D9F98020012102F0D5F94FF480
:1025B0008070012102F0D0F94FF40070012102F087
:1025C000CBF9FB79002B0DD04FF4402002F052FCE8
:1025D0004FF4803002F09EF90C4B0C4AD26F42F05F
:1025E0000802DA67FFF70EFF4FF0FF30FFF7E6FE55
:1025F0000837BD4680BD00BF00430200020018003E
:102600006000240000362600C888000000800C40CE
:1026100080B58AB000AF78607A6842F20E739A4251
:1026200002DD42F20F737B607B6813F57A7F01DC79
:102630003C4B7B607B68002B06DA786803F03AFC41
:1026400078600123BB6101E00023BB614FF0FF30E4
:10265000FFF7B4FE0120FFF79BFE00F06BF80123AB
:10266000FB6100233B6254E07A68FB6992FBF3F163
:102670002D4B83FB01239A10CB17D21A13469B00D4
:1026800013445B00CA1A1346FB82BB69012B04D1B9
:102690003B6A032B01D11023FB82FA8A234B33F8C8
:1026A0001230BB8200237B6227E021493A6A13463D
:1026B000DB009B1A5B00CA187B6A1344C033DB7AC9
:1026C0003B611B493A6A1346DB009B1A5B00CA1840
:1026D0007B6A1344C0331B79FB60BA8A7B6A42FA77
:1026E00003F303F00103002B04D0F86839690122D9
:1026F00002F052F97B6A01337B627B6A062BD4DDE0
:10270000FA6913469B0013445B00FB613B6A01338B
:102710003B623B6A032BA7DD0020FFF739FE283719
:10272000BD4680BD19FCFFFF67666666A488000091
:10273000EC85000080B500AF01207821002202F076
:10274000DBFA02207821002202F0D6FA0320782159
:10275000002202F0D1FA04207821002202F0CCFA03
:1027600005207821002202F0C7FA062078210022F5
:1027700002F0C2FA07207821002202F0BDFA00BF61
:1027800080BD00BF80B58AB000AF7860786803F084
:10279000B9FC0346BB6100233B624FF0FF30FFF7FB
:1027A0000DFE0120FFF7F4FDFFF782FE00233B62E0
:1027B00046E03A6ABB699A4203DA7B681B787B621F
:1027C00001E020237B627B6A203B7B62214B7A6A9B
:1027D00033F81230FB820023FB6128E01E493A6A7D
:1027E0001346DB009B1A9B00CA18FB69134408338D
:1027F0009B793B6118493A6A1346DB009B1A9B00A0
:10280000FA6913440B441B78FB60FA8AFB6942FAAD
:1028100003F303F00103002B06D0FA683B6910466E
:102820001946012202F0B8F8FB690133FB61FB692C
:102830000D2BD3DD7B6801337B603B6A01333B6248
:102840003B6A062BB5DD0020FFF7A2FD2837BD4609
:1028500080BD00BFEC870000EC85000080B400AFB5
:1028600072B6084B1B68B3F1FF3F04D0054B1B68E1
:102870005A1C044B1A60034B1B681846BD465DF892
:10288000047B70479C01002080B483B000AF0C4BE8
:102890001B68002B0DD00A4B1B685A1E084B1A6090
:1028A000074B1B687B607B68002B00D162B67B689E
:1028B00000E0002318460C37BD465DF8047B7047E6
:1028C0009C01002080B400AF054B054A126922F03C
:1028D00004021A6130BFBD465DF8047B704700BF3B
:1028E00000ED00E080B582B000AF0346FB71FFF75A
:1028F000B5FFFA79084B53F82230002B07DDFB793E
:10290000054A52F82320511E034A42F82310FFF7CC
:10291000BBFF0837BD4680BD8801002080B582B06E
:1029200000AF0346FB71FFF799FFFB79054A52F8A8
:102930002320511C034A42F82310FFF7A5FF083754
:10294000BD4680BD8801002080B500AF0F4B1B68DD
:10295000002B00DD18E00D4B5B68002B02DDFFF75C
:10296000B1FF11E0094B9B68002B03DD012001F052
:10297000F9FB09E0054BDB68002B03DD012001F0CA
:102980003FFC01E001F09AFC80BD00BF88010020FF
:1029900080B487B000AF786013460A46FA70BB7007
:1029A000BB78002B04D01023FB603E4B3B6103E05F
:1029B0000023FB603C4B3B617B685A6B3B691340D7
:1029C000BB6000237B61FB78062B5BD801A252F829
:1029D00023F000BFF12900000F2A0000332A000075
:1029E000512A0000852A0000852A0000752A00006F
:1029F0002E4B5B6803F4FE437A6913437B612B4BD8
:102A00005B6803F07F037A6913437B613DE0274BEA
:102A10005B6803F0FE431B0E1B027A6913437B6164
:102A2000224B5B6803F4FE031B0C7A6913437B6142
:102A30002BE01E4B9B6803F4FE437A6913437B61D2
:102A40001A4B9B6803F07F037A6913437B611CE098
:102A5000164B9B6803F0FE431B0E1B027A6913435F
:102A60007B61124B9B6803F4FE031B0C7A691343D2
:102A70007B610AE00D4BDB6803F07F037A69134347
:102A80007B6102E000237B6100BFFB687A699A40AA
:102A9000BB681A437B685A631C37BD465DF8047BEC
:102AA000704700BFFFFF80808080FFFFB081E00F94
:102AB00080B584B000AF786039603B681B79FB72E9
:102AC000FB7A002B06D11B48002100F081F8034659
:102AD000FB7208E01748002100F07AF84FF4FA4042
:102AE000002100F075F87B680A225A603B681B7869
:102AF0001A063B68DB781B0403F4FE031A43FB7AD7
:102B00001B0203F4FE431A433B685B781B011A4324
:102B10003B689B781343FB603B685B79002B03D0D9
:102B2000FB6843F00803FB607B68FA681A601037A3
:102B3000BD4680BD405DC60080B584B000AF786002
:102B400039607B6802225A603B689B787868194636
:102B50000022FFF71DFF3B681B781A073B685B7874
:102B60001B051A433B681B791B0213431A463B683B
:102B7000DB781B011343FB603B689B79002B03D080
:102B8000FB6843F08073FB603B68DB79002B03D06C
:102B9000FB6843F00403FB603B685B79002B03D0C8
:102BA000FB6843F00203FB603B681B7A002B03D0F9
:102BB000FB6843F00103FB603B689B781B04FA68E9
:102BC0001343FB607B68FA68DA601037BD4680BD4E
:102BD00080B584B000AF786039607A68134B9A4250
:102BE00002D9124B7B6006E07B68B3F5FA4F02D244
:102BF0004FF4FA437B603B68002B03D10C4800F094
:102C000005FC38603A687B6813445A1E7B68B2FB47
:102C1000F3F3FB60FB68002B02D0FB68013BFB6019
:102C2000FB68DBB218461037BD4680BD405DC6006C
:102C30004081040080B487B000AFF860B9607A606A
:102C4000FB6803F10473DA00BB6813449B007B61EB
:102C50007B697A681A601C37BD465DF8047B704753
:102C600080B485B000AF786039607B6803F104738D
:102C7000DA003B6813449B00FB60FB681B68184646
:102C80001437BD465DF8047B704700BF80B485B043
:102C900000AF78607B68002B04D07B68B3F5004FF1
:102CA00000D800BF7B68B3FA83F3C3F11F03FB6056
:102CB000FB6818461437BD465DF8047B704700BFBB
:102CC00080B400AF044BDB6C1B0EDBB21846BD4674
:102CD0005DF8047B704700BFB081E00F80B400AFA7
:102CE000054BDB6C03F47F031B0CDBB21846BD46BF
:102CF0005DF8047B704700BFB081E00F80B582B003
:102D000000AFFFF7EBFF03464A2B04D0792B02D02C
:102D1000482B22D023E0144B1B699BB203F03F03E6
:102D20009BB21B02FB80104B9B699BB203F0F0032C
:102D30009AB2FB881343FB800B4BDB6903F0F00373
:102D40001B099AB2FB881343FB80FB88B3F5017F14
:102D500001D3064B04E0064B02E0054B00E00023E4
:102D600018460837BD4680BDD0FF0FE000366E0123
:102D70000048E80180B584B000AF786039607A68B7
:102D80003B689A4294BF00230123DBB2FB600648F4
:102D90001E21FA68FFF74EFF04480821FA68FFF782
:102DA00049FF1037BD4680BD00800C4004800C40B8
:102DB00080B582B000AF07481E21FFF751FF786051
:102DC00005480821FFF74CFF38607B681846083734
:102DD000BD4680BD00800C4004800C4080B582B0B0
:102DE00000AF214B5B6903F4E063B3F5007F1CD0B7
:102DF000B3F5007F05D8002B25D0B3F5807F1FD019
:102E00002AE0B3F5C06F24D0B3F5E06F1ED0B3F560
:102E1000407F21D1FFF754FF0346122B02D9134BF9
:102E20007B601CE0124B7B6019E0FFF749FF034613
:102E3000122B02D90F4B7B6011E00F4B7B600EE031
:102E40000E4B7B600BE00E4B7B6008E00D4B7B6014
:102E500005E00D4B7B6002E000237B6000BF7B68D8
:102E600018460837BD4680BD00800C40804F1200D8
:102E700040420F0040B56400C0CF6A00C0D8A70030
:102E8000809FD500406F4001003FAB0180B582B00C
:102E900000AF0D4800F0A6FB0346FB70FB78072B44
:102EA00005D0082B07D102F0A7FA786006E0FFF7FB
:102EB00095FF786002E000237B6000BF7B681846C6
:102EC0000837BD4680BD00BF06000C0080B485B049
:102ED00000AF7860284BDB6B002B0CBF0023012375
:102EE000BB72254B41F67132DA63234B5B6803F00A
:102EF0000703FB60FB68012B01D9042B02D10023DF
:102F0000FB7202E00123FB7200BF7A681B4B9A42FE
:102F100007D9FB7A002B01D0052300E00423FB60D6
:102F200016E07A68154B9A420BD87A68144B9A428D
:102F300007D9FB7A002B01D0032300E00123FB60BB
:102F400006E0FB7A002B01D0022300E00023FB60A7
:102F5000094B094A526822F00701FA680A435A608D
:102F6000BB7A002B02D0044B0022DA631437BD4633
:102F70005DF8047B704700BF00000C400048E8018A
:102F80000024F40080B500AF02F02CFA0346184686
:102F9000FFF79CFF80BD00BF90B585B000AF7860A3
:102FA0000023BB607B68344A934203D0334A934288
:102FB00000D000E000BF786800F014FB0346FB601F
:102FC0007B682D4A934203D02C4A934206D00CE0F2
:102FD0002B4B9B6A03F00303FB6006E0284B9B6AC4
:102FE00003F00C039B08FB6000BFFB68032B3AD87F
:102FF00001A252F823F000BF2F300000093000007A
:10300000113000001930000002F088FAB8602DE09D
:1030100002F098FAB86029E002F0CAF90446FFF716
:10302000C7FE0346013324FA03F3BB601EE000230E
:10303000BB607A68104B9A4203D07A680F4B9A4271
:1030400010D10F4B9A6A79680B4B994201D110232A
:1030500000E0142322FA03F3002B03D002F068FAF5
:10306000B86003E002E00023BB6000BFBB68184605
:103070001437BD4690BD00BF0200180003001A00BF
:1030800000800C4080B483B000AF7860094B5B6D6A
:1030900003F00103002B00D006E000BF054B1A6DC2
:1030A0007B681340002BF9D10C37BD465DF8047BDB
:1030B000704700BF00800C4080B582B000AF104860
:1030C00000F090FA0346FB70FB78032B07D0082B27
:1030D00009D0022B0BD102F035FA78600AE002F039
:1030E0001DFA786006E002F087F9786002E00023BC
:1030F0007B6000BF7B6818460837BD4680BD00BFB7
:1031000007232000B0B584B000AF786039607B68D9
:103110001B0903F00F03FB60FB68013B062B00F269
:10312000F68001A252F823F0453100000F33000071
:103130000F33000079310000A3310000F7310000A7
:10314000BB3200003B68002B03D03B68082B00D843
:1031500000BFFFF717FF704B6F4A126822F4E0318F
:103160003A68013A92030A431A6002F021F9B86002
:10317000B868FFF7ABFECBE03B68002B04D03B68A0
:10318000B3F5007F00D800BF3868FFF77FFD3860D7
:10319000614B614A926822F00F013A680A439A60D3
:1031A000B6E03B68002B04D03B68B3F5007F00D845
:1031B00000BFFFF7E7FE02F01FF902463B68B2FBD3
:1031C000F3F4FFF79BFD034620461946FFF7D2FDB7
:1031D0003868FFF75BFD38604F4B4F4A526822F06A
:1031E0000F013A680A435A6002F0E2F8B860B86822
:1031F000FFF76CFE8CE07B68484A93421ED0474A3A
:10320000934203D8464A934207D055E0454A934239
:1032100025D0454A93423FD04EE00420FFF732FFCD
:103220003868FFF733FD38603B4B3B4A926E22F023
:10323000F0013A6812010A439A663DE00420FFF764
:1032400021FF3868FFF722FD3860334B324A926E17
:1032500022F470613A6812020A439A662CE03B68D5
:103260000F2B03D93B68802B00D800BF0420FFF749
:1032700009FF3868FFF70AFD3860274C264B9B6E24
:1032800023F440551020FFF701FD03463A68D31A96
:103290001B032B43A3660FE00420FFF7F3FE3868FF
:1032A000FFF7F4FC38601C4B1B4A926E22F00301BE
:1032B0003A680A439A6600BF2AE07B681B4A934239
:1032C00003D01B4A934210D020E04020FFF7DAFEE3
:1032D0003868FFF7DBFC38600F4B0F4A126F22F0A3
:1032E00003013A680A431A6710E04020FFF7CAFE5C
:1032F0003868FFF7CBFC3860074B074A126F22F0A3
:1033000030013A6812010A431A6700BF00E000BFAB
:103310001037BD46B0BD00BF00800C4060261200D3
:10332000601610006000240060062800700714007A
:103330007017160090B587B000AF78600B46FB7031
:1033400000233B617B681B0A03F00F03013B092B41
:1033500049D801A252F823F09D330000A3330000A6
:1033600081330000E7330000E7330000A933000099
:10337000B3330000E7330000E7330000BD33000043
:103380001B4B7B611B4800F041F80446FFF7B6FC7D
:10339000034620461946FFF7EDFC12E0164B7B6111
:1033A0000FE0164B7B610CE0154B7B6101233B6109
:1033B00007E0144B7B6110233B6102E0124B7B6101
:1033C00000BF7B681B0B03F01F03FB603B69002BF6
:1033D00002D03869FFF756FEFB787869F9681A461B
:1033E000FFF728FC00E000BF1C37BD4690BD00BFC2
:1033F00040800C400043020008800C4044800C4098
:1034000058800C4060800C4078800C4090B585B0AE
:1034100000AF78607B6803F47813B3F5A01F00F069
:10342000AB80B3F5A01F1AD8B3F5402F00F0BF80D2
:10343000B3F5402F08D8B3F5003F3CD0B3F5802F4B
:103440002DD0002B27D0BEE0B3F5801F3CD0B3F5C4
:10345000901F47D0B3F5602F00F0AD80B3E0B3F517
:10346000001F00F0AC80B3F5001F0AD8B3F5C01FF1
:1034700025D0B3F5D01F7AD0B3F5B01F00F0898006
:10348000A1E0B3F5181F4ED0B3F5201F62D0B3F5FD
:10349000101F35D097E001F0AFFFF86096E001F023
:1034A000ABFFF8604C4B9B6803F00F03FA6822FAFD
:1034B00003F3FB608AE001F07BFFF86086E0474899
:1034C000FFF76AFDF86081E04448FFF765FDF860AA
:1034D000414B9B6E03F0F0031B09FA6822FA03F3D9
:1034E000FB6073E03D48FFF757FDF8603A4B9B6E79
:1034F00003F470631B0AFA6822FA03F3FB6065E0C9
:103500003648FFF749FDF860334B9B6E03F4405398
:103510001C0B1020FFF7BAFB03462344FA6822FA7B
:1035200003F3FB6052E02D48FFF736FDF8602A4BAD
:103530009B6E03F440531B0BFA6822FA03F3FB6003
:10354000254BDB6F03F007030133FA68B2FBF3F39B
:10355000FB603BE02148FFF71FFDF8601E4B9B6EB0
:1035600003F00303FA6822FA03F3FB602EE01C4821
:10357000FFF712FDF86029E01948FFF70DFDF8602C
:10358000154B1B6F03F00303FA6822FA03F3FB6089
:103590001CE01348FFF700FDF8600F4B1B6F03F0B2
:1035A00030031B09FA6822FA03F3FB600EE0FFF711
:1035B0006DFCF8600AE0FFF711FCF86006E0FFF729
:1035C0007BFDF86002E00023FB6000BFFB6818464B
:1035D0001437BD4690BD00BF00800C4002001800AB
:1035E00003001A0080B485B000AF78600123FB733C
:1035F0007B6803F00F03BB60BB68013B062B00F246
:10360000938001A252F823F0253600005B360000BB
:10361000973600002937000029370000D336000014
:10362000F5360000454BDB6A03F47053B3F5805F59
:1036300009D0B3F5005F03D0B3F5006F06D008E002
:103640000223FB7308E00323FB7305E00423FB73F1
:1036500002E00523FB7300BF69E0384B9B6A03F06F
:103660000303022B06D0032B07D0012B08D1032321
:10367000FB730FE00223FB730CE00623FB7309E0EE
:103680002E4B9B6A03F48033002B02D00923FB737B
:1036900000E000BF4BE0294B9B6A03F00C03082BB2
:1036A00006D00C2B07D0042B08D10323FB730FE0AB
:1036B0000223FB730CE00623FB7309E01F4B9B6A9C
:1036C00003F48013002B02D00923FB7300E000BF3A
:1036D0002DE01A4B1B6803F08053002B03D0B3F18D
:1036E000805F03D023E00723FB7302E00823FB7312
:1036F00000BF1CE0114BDB6A03F46033B3F5803F7D
:1037000008D0B3F5003F08D0B3F5004F08D1082327
:10371000FB7308E00223FB7305E00323FB7302E065
:103720000123FB7300BF02E00023FB7300BFFB7BA0
:1037300018461437BD465DF8047B704700800C4086
:1037400090B589B000AF78600B46FB700323FB6136
:103750000323FB7600233B617B6803F00F03FB60D0
:10376000FB68013B062B00F2348101A252F823F0E2
:103770008D3700007938000079380000D339000017
:10378000D3390000413900006B390000FB78023B5F
:10379000072B00F2228101A252F823F0BD3700006E
:1037A000C7370000D13700001B380000DB390000AC
:1037B000DB390000DB390000DB3900000423FB614A
:1037C0000023FB7639E00323FB610123FB7634E021
:1037D0000223FB610223FB76FFF790FA03465C1C91
:1037E000FFF78CFA034620461946FFF7C3FA01F0AB
:1037F00083FE02467C4B9A4206D97C4B7B4A126878
:1038000042F060021A6018E0784B784A126822F0A1
:10381000600242F020021A600FE00123FB610323E3
:10382000FB76FFF76BFA03465C1CFFF767FA03466B
:1038300020461946FFF79EFA00BFFB7E184601217D
:10384000012200F0F7F8FFF79DFB684BFA695A6216
:103850006748FFF7DBFD0446FFF750FA03462046B2
:103860001946FFF787FA00F051FD01F0A1FDB8609D
:10387000B868FFF72BFBADE0FB78013B082B00F2AB
:10388000AE8001A252F823F0AD380000B33800003A
:10389000C3380000DF390000DF390000D3380000F2
:1038A000DF390000DF390000F738000000237B61BA
:1038B00026E000200121012200F0BCF802237B61F8
:1038C0001EE001200121012200F0B4F801237B61F8
:1038D00016E001F06DFDB860FFF710FA0346B86816
:1038E0001946FFF747FA434804210122FFF7A2F9DE
:1038F00003237B6104E000237B6101233B6100BF64
:10390000FB68022B0DD1394A384B9B6A23F4803374
:1039100023F00303796919433B691B040B4393624A
:1039200058E0324A314B9B6A23F4801323F00C0396
:103930007969890019433B691B050B43936249E090
:10394000FB78072B02D0082B07D049E0274B274AEA
:10395000126822F080521A6006E0244B234A126853
:1039600042F080521A6000BF34E0FB78032B14D081
:10397000082B22D0022B00D032E0002001210122AE
:1039800000F058F8194B40225A6200BF174BDB6A0F
:1039900003F48033002BF9D01AE001200121012229
:1039A00000F048F8114B60225A6200BF0F4BDB6AEF
:1039B00003F40033002BF9D00AE00C4B20225A62AA
:1039C00000BF0A4BDB6A03F40043002BF9D000BFB1
:1039D00000E000BFFFF7ECF902E000BF00E000BF2D
:1039E0002437BD4690BD00BF0048E80100800C4070
:1039F0000043020040800C4080B483B000AF786088
:103A00000B4B9B6D03F00803002B00D00BE07B6891
:103A100003F007037B60064B054AD26F22F00701D3
:103A20007A680A43DA670C37BD465DF8047B704755
:103A300000800C4080B586B000AF13460246FA7194
:103A40000A46BA717B71FB79042B4AD801A252F85D
:103A500023F000BFA13A0000933A0000773A00003B
:103A6000693A0000853A000001233B610223FB60B4
:103A700001237B611DE004233B610823FB600323DA
:103A80007B6116E010233B612023FB6005237B61F3
:103A90000FE040233B618023FB6007237B6108E04C
:103AA0004FF480733B614FF40073FB6009237B612B
:103AB00000BFBB79002B0ED00C4B3A691A627B79A0
:103AC000002B0BD000BF0A487969FFF7C9F80346FD
:103AD000002BF8D002E0054BFA681A6200F016FCE1
:103AE00000E000BF1837BD4680BD00BF00800C401D
:103AF0002C800C4080B483B000AF0346FB71084BB0
:103B000097F907205209F97901F01F01012000FA05
:103B100001F143F822100C37BD465DF8047B704775
:103B200000E100E080B483B000AF0346FB71094BB5
:103B300097F907205209F97901F01F01012000FAD5
:103B400001F1203243F822100C37BD465DF8047BAA
:103B5000704700BF00E100E080B483B000AF0346CF
:103B6000FB71094B97F907205209F97901F01F0100
:103B7000012000FA01F1603243F822100C37BD46F3
:103B80005DF8047B704700BF00E100E080B487B0BF
:103B900000AFF860B9607A60FB6803F10473DA0083
:103BA000BB6813449B007B617B697A681A601C3791
:103BB000BD465DF8047B704780B489B000AF786083
:103BC000F970BA707B707B681A013C4B9B68134498
:103BD000BB61BB78002B02D0BB69FB6105E07B6851
:103BE0001A01364BDB681344FB61BB69DB687B6100
:103BF0007B69002B02D0BA787B691A72FB6A002BB2
:103C000014D0FB699B6803F040639B0E3B613B69EA
:103C1000032B03D1FB69FA6A1A6007E03B693A6B30
:103C20009A40FB6A13441A46FB691A60BB6A002B70
:103C300012D0FB699B689B0F3B613B69032B03D14F
:103C4000FB69BA6A5A6007E03B693A6B9A40BB6A03
:103C500013441A46FB695A607B68012202FA03F397
:103C6000FB607B78002B03D0144BFA689A6102E06A
:103C7000124BFA68DA61BB78002B03D00F4BFA685D
:103C80005A6302E00D4BFA681A63FB699B6823F4E0
:103C90007F5323F03703BB603B6B1B01BA681343B0
:103CA000BB60FB78BA681343BB60FB69BA689A6073
:103CB0002437BD465DF8047B704700BF00200C40F0
:103CC00080B58AB000AF334B03F580531B68BB61EE
:103CD000304B03F580530C331B68BA691340BB614A
:103CE0002C4B9B6B7B61BA697B6913403B62002361
:103CF000FB6149E000237B623BE03B6A03F0010388
:103D0000002B30D0234B9B683B6101227B6A02FA77
:103D100003F3FB601F4B03F580530833FA681A6006
:103D20007B6A1B013A691344DB68BB60BB68002BEC
:103D300019D0BB681B7A7B60BB681B7A83F00103D8
:103D4000DAB2BB681A72BB681B68002B0BD0BB6869
:103D50001B68786A7A68002A0CBF00220122D1B25F
:103D6000BA68526898473B6A5B083B627B6A0133DA
:103D70007B623B6A002BC0D17B69DA43BB6913408D
:103D80003B62FB690133FB61FB69012BB2DD283724
:103D9000BD4680BD00200C4080B588B004AFF860FF
:103DA0007B600B46FB721346BB72FA7ABB7A79686A
:103DB0000091B9690191F9690291F8680121FFF751
:103DC000FBFE044BFA68012101FA02F29A621037F5
:103DD000BD4680BD00200C4080B584B000AF786047
:103DE00039601F4B9B68FB607B681B01FA681344BA
:103DF0003A689268DA603B681B78002B06D0184B53
:103E00007A68012101FA02F29A6305E0144B7A689C
:103E1000012101FA02F2DA63114B3A6851687A68BB
:103E200002F5886243F822103B685B78002B0ED0C5
:103E30000B4B7A68012101FA02F203F58053083333
:103E40001A60084879680122FFF7A0FE04E00548DF
:103E500079680022FFF79AFE1037BD4680BD00BF8B
:103E600000200C400C300C4080B487B000AFF860EC
:103E70000B467A60FB72FB7A002B03D0154B9B68D4
:103E80007B6102E0134BDB687B61FB681B017A6995
:103E900013447B617B681B789A077B689B781B07C0
:103EA0001A437B685B789B061A437B689B781B06EA
:103EB00013431A467B681B799B041A437B68DB78A3
:103EC0009B031A437B699A601C37BD465DF8047BEF
:103ED000704700BF00200C4080B582B000AF786012
:103EE00010480121FFF726FA00F020F80020FFF724
:103EF00033FE0020FFF7FEFD0B4B03F580530C3320
:103F00004FF000421A60084B7A6852689A60064B7C
:103F10007A681278520142F001025A600837BD46B1
:103F200080BD00BF0003020000200C4080B582B0BD
:103F300000AF0020FFF7F6FD1C4B00225A601B4B20
:103F400040F6FF72DA61194B40F6FF725A62174B66
:103F500040F6FF72DA62154B40F6FF725A63134B5C
:103F600040F6FF72DA63114B0122DA640F4B03F55E
:103F700080530C3300221A600C4B03F58053083336
:103F80000B4A1A6000237B6009E0084B7A6802F54F
:103F90008862002143F822107B6801337B607B68D4
:103FA0000B2BF2DD0837BD4680BD00BF00200C4062
:103FB000FF0F008080B500AF01F0FAF980BD00BFAF
:103FC00080B400AF034B4AF6E8529A60BD465DF8F4
:103FD000047B704700600C4080B400AF034B0022AC
:103FE000C3F88420BD465DF8047B704700800C4018
:103FF00080B400AF044B45F60E02C3F88420BD46E2
:104000005DF8047B704700BF00800C4080B582B033
:1040100000AF384BD3F8843003F001037B60FFF727
:10402000E7FF00233B60344B1B6803F001033A6851
:1040300013433B60304B1B6803F010033A68134393
:104040003B602D4B1B6803F040033A6813433B6011
:10405000294B1B6803F004033A6813433B60264B6B
:104060001B6803F480733A6813433B60214B3A6842
:104070001A62214B1B6803F47053B3F5805F06D0BE
:10408000B3F5005F0ED0B3F5006F16D020E000BF8F
:10409000184BDB6A03F08003002BF9D0154B032289
:1040A0005A6215E000BF134BDB6A03F40073002B68
:1040B000F9D0104B04225A620AE000BF0D4BDB6AB4
:1040C00003F00803002BF9D00A4B02225A6200BF0A
:1040D000094B1B6803F00103002B02D1054B0222A0
:1040E0001A627B68002B01D0FFF776FF0837BD46C8
:1040F00080BD00BF00800C409801002080B483B0D8
:1041000000AF174B1B699BB203F03F039BB21B022E
:10411000FB80134B9B699BB203F0F0039AB2FB88C0
:104120001343FB800E4BDB6903F0F0031B099AB2CB
:10413000FB881343FB80FB88B3F5827F03D3FB88A6
:10414000B3F5017F01D1012300E0002303F0010357
:10415000DBB218460C37BD465DF8047B704700BFE4
:10416000D0FF0FE080B586B000AF0346FB711F4B58
:10417000DA6A1F4B1A601F4B1E4A126942F0040292
:104180001A61FFF7BBFF0346FB75FB7D002B11D0C7
:10419000194B1A68194B1340FB60174BFA68C3F8A8
:1041A0008020154B5B6823F046033B61124B3A6954
:1041B000C3F8842030BFFB7D002B05D00E4BFA687E
:1041C0001A600D4B3A695A60FB79002B02D0FFF759
:1041D0001DFF07E0064B1B6803F48063002B01D131
:1041E000FFF7E8FE1837BD4680BD00BF00800C40D9
:1041F0009801002000ED00E000E100E09CF1FD00EE
:1042000080B586B000AF0346FB71274BDA6A274BB7
:104210001A60254BD3F8843003F001037B61FFF76C
:10422000E7FE214B4FF420721A627B69002B01D00C
:10423000FFF7D2FE1E4B1E4A126942F004021A61B9
:10424000FFF75CFF0346FB74FB7C002B11D0194B7E
:104250001A68194B1340BB60164BBA68C3F880202C
:10426000144B5B6823F04603FB60124BFA68C3F8FB
:10427000842030BFFB7C002B05D00E4BBA681A603F
:104280000C4BFA685A60FB79002B02D0FFF7BEFE98
:1042900007E0064B1B6803F48063002B01D1FFF796
:1042A00089FE1837BD4680BD00800C409801002073
:1042B00000ED00E000E100E09CF1FD0080B584B07D
:1042C00000AF114B1B6823F00C0343F00803BB60E5
:1042D0000D4B1B6843F00C037B60FFF771FE00235E
:1042E000FB6008E0084BBA681A60074B7A681A60EE
:1042F000FB680133FB60FB68032BF3DD024BBA68FC
:104300001A601037BD4680BD00600C4080B400AF1D
:10431000034BDA6A034B1A60BD465DF8047B7047B5
:1043200000800C409801002080B487B000AFF86096
:10433000B9607A60FB6803F10473DA00BB68134468
:104340009B007B617B697A681A601C37BD465DF80B
:10435000047B704780B485B000AFF860B9607A60C4
:10436000FB681A68BB68DB431A407B681A43FB682A
:104370001A601437BD465DF8047B704780B483B083
:1043800000AF03463960FB71FB79002B0DD0FB7940
:10439000012B0AD0FB79022B07D0FB79032B04D029
:1043A000FB79042B01D0FB79052B0948FA793B688E
:1043B000012101FA03F319461346DB0013449B0065
:1043C0000344103359600C37BD465DF8047B7047D9
:1043D0000060004080B483B000AF03463960FB71D9
:1043E000FB79002B0DD0FB79012B0AD0FB79022B36
:1043F00007D0FB79032B04D0FB79042B01D0FB7988
:10440000052B0948FA793B68012101FA03F31946A3
:104410001346DB0013449B000344103319600C3730
:10442000BD465DF8047B70470060004090B482B0E8
:1044300000AF02460B46FA71BB71FB79002B0ED020
:10444000FB79012B0BD0FB79022B08D0FB79032BD6
:1044500005D0FB79042B02D0FB79052B03D1BB7966
:10446000032B00D800BF0C48FA790B4CF9790B46A6
:10447000DB000B449B0023441B6823F00301BB7942
:1044800019431346DB0013449B00034419600837AB
:10449000BD4690BC704700BF0060004080B586B04C
:1044A00000AFB9607A600246FA73BB73FB7B002BE6
:1044B0000DD0FB7B012B0AD0FB7B022B07D0FB7BB3
:1044C000032B04D0FB7B042B01D0FB7B052BBB68AB
:1044D000072B0ED8BB689B0007229A40F97BBB686C
:1044E0009B0001FA03F31A4811461A46FFF732FF00
:1044F00010E0BB68083B7B617B699B0007229A4008
:10450000F97B7B699B0001FA03F3124811461A46B6
:10451000FFF720FFBB7B1048B9681A46FFF704FF7E
:1045200097F820300D48B9681A46FFF7FDFE0C4B8E
:10453000BA68012101FA02F2C3F81C2197F824306D
:104540000848B9681A46FFF7EFFE1837BD4680BD28
:104550000061004004610040086100400C610040BF
:10456000006000401061004090B585B000AFB960B8
:104570007B600346FB731346BB73FB7B002B0DD0A4
:10458000FB7B012B0AD0FB7B022B07D0FB7B032B91
:1045900004D0FB7B042B01D0FB7B052BBB7B002BCA
:1045A0000DD07B68002B05D0FB7B1846B968FFF760
:1045B00011FF04E0FB7B1846B968FFF7DFFEBB681C
:1045C000072B1DD82B48FA7B2A4CF97B0B46DB00C6
:1045D0000B449B0023445968BB689B000F2404FADA
:1045E00003F3DB431940BC7BBB689B0004FA03F375
:1045F00019431346DB0013449B000344596024E035
:104600001C48FA7B1B4CF97B0B46DB000B449B00E0
:10461000234408331968BB6803F18043083B9B00BF
:104620000F2404FA03F3DB431940BC7BBB6803F19E
:104630008043083B9B0004FA03F319431346DB0055
:1046400013449B00034408331960BB7B002B0DD13E
:104650007B68002B05D0FB7B1846B968FFF7BAFED4
:1046600004E0FB7B1846B968FFF788FE1437BD46A7
:1046700090BD00BF0060004080B487B000AFF8601C
:10468000B9607A60FB6803F10473DA00BB68134415
:104690009B007B617B697A681A601C37BD465DF8B8
:1046A000047B704780B485B000AFF860B9607A6071
:1046B000FB681A68BB68DB431A407B681A43FB68D7
:1046C0001A601437BD465DF8047B704780B588B02A
:1046D00000AFF860B9607A60FB707B68002B00D196
:1046E0005EE0FB681B6823F44072FB681A60FA689E
:1046F000FB781B0210464FF440711A46FFF7D2FFB9
:10470000BB68002B03D12848FEF780FEB8604FF04D
:10471000FF33BB61FB681B6803F00203002B11D061
:10472000FB78012B07D0022B08D0002B00D019E01A
:104730001E4BBB6105E01E4BBB6102E01D4BBB6124
:1047400000BF0FE0FB78012B06D0022B07D0002B17
:1047500008D1194BBB6105E0184BBB6102E0184B57
:10476000BB6100BFFB78174AD35C7B617B689B0011
:10477000BA68D21A7B69796801FB03F3B2FBF3F3E1
:10478000013BFB61FB681B6803F00203002B04D0B4
:10479000FB69002B01D10123FB61FA69FB681A61F7
:1047A0002037BD4680BD00BF408104004016400058
:1047B000C0D8A7008050740180841E004054890036
:1047C000002D3101DC88000080B582B000AF786038
:1047D00039607A68174B9A4203D07A68164B9A422E
:1047E00000D100BF7B6800225A637B68134A1A63BA
:1047F0007A683B685B78002B01D0002300E001233E
:10480000104601211A46FFF737FF3B6859683B689D
:104810009A683B681B7B7868FFF758FF7A683B68AB
:104820001B78104600211A46FFF726FF0837BD46C1
:1048300080BD00BF00A0004000A40040CFFF0100E9
:1048400080B483B000AF0346FB71FB79002B06D028
:10485000084B084A126842F001021A6005E0054B55
:10486000044A126822F001021A600C37BD465DF856
:10487000047B704700A0084080B487B000AFF860A8
:10488000B9607A60FB6803F10473DA00BB68134413
:104890009B007B617B697A681A601C37BD465DF8B6
:1048A000047B704780B584B000AF7860184B5B68BC
:1048B000FB600020FFF7C4FFFB6823F4830323F0B1
:1048C0001F03FB607B685B68FA681343FB607B68CF
:1048D0001B7AFA681343FB607B685B7AFA681343C0
:1048E000FB607B68DB68FA681343FB607B681B8AAC
:1048F000FA681343FB60064BFA685A607B681B78C2
:10490000002B02D00120FFF79BFF1037BD4680BD72
:1049100000A0084080B485B000AF78600D4B5B68A4
:10492000FB60FB6823F48033FB607B68002B08D0BE
:10493000B3F5803F00D005E0FB6843F48033FB60B3
:1049400000E000BF034BFA685A601437BD465DF8BB
:10495000047B704700A0084080B483B000AF0246DB
:104960000B46FA807B717B79002B06D0094B094AF4
:104970009168FA880A439A6006E0064B054A9168F6
:10498000FA88D2430A409A600C37BD465DF8047B32
:10499000704700BF00A0084080B584B000AFF86049
:1049A000B9601346FB71FB68072B00F2C38001A2BC
:1049B00052F823F0D5490000014A00002D4A0000BA
:1049C000594A0000854A0000B14A0000DD4A000053
:1049D000094B0000BB681F2B07DCBA68FB795748FE
:1049E00011461A46FFF748FFA5E0BB68203BBB60B5
:1049F000BA68FB79524811461A46FFF73DFF9AE024
:104A0000BB681F2B07DCBA68FB794E4811461A4673
:104A1000FFF732FF8FE0BB68203BBB60BA68FB79D1
:104A2000494811461A46FFF727FF84E0BB681F2B51
:104A300007DCBA68FB79454811461A46FFF71CFFA8
:104A400079E0BB68203BBB60BA68FB7940481146FF
:104A50001A46FFF711FF6EE0BB681F2B07DCBA6830
:104A6000FB793C4811461A46FFF706FF63E0BB6836
:104A7000203BBB60BA68FB79374811461A46FFF7FE
:104A8000FBFE58E0BB681F2B07DCBA68FB79334894
:104A900011461A46FFF7F0FE4DE0BB68203BBB60B5
:104AA000BA68FB792E4811461A46FFF7E5FE42E048
:104AB000BB681F2B07DCBA68FB792A4811461A46E7
:104AC000FFF7DAFE37E0BB68203BBB60BA68FB79D2
:104AD000254811461A46FFF7CFFE2CE0BB681F2B76
:104AE00007DCBA68FB79214811461A46FFF7C4FE75
:104AF00021E0BB68203BBB60BA68FB791C481146CB
:104B00001A46FFF7B9FE16E0BB681F2B07DCBA6830
:104B1000FB79184811461A46FFF7AEFE0BE0BB685A
:104B2000203BBB60BA68FB79134811461A46FFF771
:104B3000A3FE00E000BF1037BD4680BD40A0084086
:104B400050A0084044A0084054A0084048A0084095
:104B500058A008404CA008405CA00840CCA00840E9
:104B6000B4A00840D0A00840B8A00840D4A0084095
:104B7000BCA00840D8A00840C0A0084080B487B0BE
:104B800000AFF860B9607A60FB68072B00F2AC8078
:104B900001A252F823F000BFB94B0000DD4B00002A
:104BA000014C0000254C0000494C0000714C0000F5
:104BB000994C0000C14C00004E4B1B6C7B61BB68E4
:104BC000DB437A6913407B61BA687B6813407A697A
:104BD00013437B61474B7A691A6486E0454B5B6CF3
:104BE0007B61BB68DB437A6913407B61BA687B6891
:104BF00013407A6913437B613E4B7A695A6474E0CF
:104C00003C4B9B6C7B61BB68DB437A6913407B61E7
:104C1000BA687B6813407A6913437B61354B7A69C4
:104C20009A6462E0334BDB6C7B61BB68DB437A697F
:104C300013407B61BA687B6813407A6913437B61D8
:104C40002C4B7A69DA6450E02A4BD3F8CC307B6184
:104C5000BB68DB437A6913407B61BA687B681340A9
:104C60007A6913437B61234B7A69C3F8CC203CE01B
:104C7000204BD3F8D0307B61BB68DB437A691340AB
:104C80007B61BA687B6813407A6913437B61194B77
:104C90007A69C3F8D02028E0164BD3F8D4307B6172
:104CA000BB68DB437A6913407B61BA687B68134059
:104CB0007A6913437B610F4B7A69C3F8D42014E0FF
:104CC0000C4BD3F8D8307B61BB68DB437A69134067
:104CD0007B61BA687B6813407A6913437B61054B3B
:104CE0007A69C3F8D82000E000BF1C37BD465DF8E4
:104CF000047B704700A0084080B487B000AFF86024
:104D0000B9607A60FB68072B00F2AC8001A252F810
:104D100023F000BF354D0000594D00007D4D0000CF
:104D2000A14D0000C54D0000ED4D0000154E0000E6
:104D30003D4E00004E4B1B6D7B61BB68DB437A69C7
:104D400013407B61BA687B6813407A6913437B61C7
:104D5000474B7A691A6586E0454B5B6D7B61BB68A2
:104D6000DB437A6913407B61BA687B6813407A69D8
:104D700013437B613E4B7A695A6574E03C4B9B6DF3
:104D80007B61BB68DB437A6913407B61BA687B68EF
:104D900013407A6913437B61354B7A699A6562E007
:104DA000334BDB6D7B61BB68DB437A6913407B610E
:104DB000BA687B6813407A6913437B612C4B7A692C
:104DC000DA6550E02A4BD3F8B4307B61BB68DB4333
:104DD0007A6913407B61BA687B6813407A69134330
:104DE0007B61234B7A69C3F8B4203CE0204BD3F8B5
:104DF000B8307B61BB68DB437A6913407B61BA687A
:104E00007B6813407A6913437B61194B7A69C3F855
:104E1000B82028E0164BD3F8BC307B61BB68DB437D
:104E20007A6913407B61BA687B6813407A691343DF
:104E30007B610F4B7A69C3F8BC2014E00C4BD3F8AC
:104E4000C0307B61BB68DB437A6913407B61BA6821
:104E50007B6813407A6913437B61054B7A69C3F819
:104E6000C02000E000BF1C37BD465DF8047B7047E2
:104E700000A0084080B483B000AF7860064B064ABB
:104E8000526822F4E0117A680A435A600C37BD4632
:104E90005DF8047B704700BF00A0084080B487B075
:104EA00000AFF860B9607A60FA68114B9A4208D195
:104EB000BB68012B05D87B681B0C1B04002B00D1A1
:104EC00000BFBB68002B02D0012B04D00AE0FB68B6
:104ED00010337B6103E0FB6814337B6100BF7B69A7
:104EE0007A681A601C37BD465DF8047B704700BFC6
:104EF0000020084080B483B000AF78600B46FB70A0
:104F0000FB78002B03D07B6801225A6002E07B68AB
:104F100002225A600C37BD465DF8047B704700BF23
:104F200080B485B000AF786039600023FB603B68D7
:104F30001B7883F00103DBB2002B08D07B689B68F1
:104F400003F00103002B02D07B6802225A603B6809
:104F50005B78002B03D0FB6843F48053FB603B6815
:104F60009B78002B03D0FB6843F48063FB603B68B5
:104F7000DB78002B03D0FB6843F40063FB603B68E5
:104F80001B79002B03D0FB6843F40073FB603B6884
:104F90005B79002B03D0FB6843F48073FB603B68B4
:104FA0009B79002B03D0FB6843F04003FB603B6818
:104FB000DB79002B03D0FB6843F08003FB603B6888
:104FC0001B7A9B00FA681343FB603B685B7A1B010A
:104FD000FA681343FB603B689B7AFA681343FB60F3
:104FE0007B68FA681A603B681B78002B08D07B68E6
:104FF0009B6803F00103002B02D17B6801225A60F9
:105000001437BD465DF8047B704700BF80B483B0A1
:1050100000AF786039607B681B6C03F00103002BE4
:1050200000D006E000BF7B685A6C3B681340002B41
:10503000F9D10C37BD465DF8047B704780B586B06A
:1050400000AFF860B9607A60BB68002B12D1FA68D3
:10505000164B9A4202D1164B7B6107E0FA68154B5A
:105060009A4202D1144B7B6100E01BE07869FEF7A5
:10507000CDF9B860BB685A017B68B2FBF3F33B61C2
:105080003B69203B3B613B69DB003B613A6947F68A
:10509000F87313403B61F8680421FFF7B7FFFB6822
:1050A0003A69DA601837BD4680BD00BF004008404D
:1050B00070071400004408407017160080B483B0D5
:1050C00000AF78600B46FB70FB78002B08D000BF68
:1050D0007B685B6C002BFBD17B6801221A6402E0C9
:1050E0007B6800221A640C37BD465DF8047B70476C
:1050F00080B582B000AF786039607A681B4B9A4205
:1051000003D07A681A4B9A4200D100BF7868022116
:10511000FFF77CFF7B680A225A6078680121FFF75D
:10512000CDFF7B681B6823F01C023B681B7B1A4386
:105130003B685B7B1A433B689B7B1A437B681A6026
:105140003B685A683B689B68786811461A46FFF7C7
:1051500075FF3B681B781A467B685A6078680021A7
:10516000FFF7ACFF0837BD4680BD00BF00400840D8
:105170000044084080B582B000AF78607A68174B71
:105180009A4203D07A68164B9A4200D100BF7868E1
:105190000121FFF793FF7B68EA225A607B680022B7
:1051A0001A607B680022DA607B6800221A617B68E3
:1051B00000225A617B6800229A637B6840F2F97290
:1051C0005A637B680022DA637B6800225A6578683C
:1051D0000021FFF773FF0837BD4680BD004008403F
:1051E0000044084080B485B000AF7860194B5B691B
:1051F000DBB203F00F03DBB29B00FB73154B1B69A3
:1052000003F0C0039B09DAB2FB7B1343FB737B689B
:10521000FA7B9A700F4B1B69DBB203F03F03DAB2E3
:105220007B685A700B4B9B69DBB223F00F03FB7357
:10523000084BDB6903F0F0031B09DAB2FB7B134375
:10524000FB737B68FA7B1A701437BD465DF8047BEC
:10525000704700BFD0FF0FE080B483B000AF78602C
:1052600039607A683B4B9A420BD07A683A4B9A4243
:1052700007D07A68394B9A4203D07A68384B9A4201
:1052800000D100BF3B681B7883F00103DBB2002B29
:1052900002D07B6802225A607B6800225A623B6817
:1052A0009B781A063B68DB781B041A433B689B79A2
:1052B0009B021A433B68DB791B021A433B681B7A4B
:1052C0001A433B685B78002B01D0402300E00023A9
:1052D0001A433B685B7A002B01D0802300E0002357
:1052E0001A433B689B7A002B01D0202300E0002367
:1052F0001A433B68DB7A002B01D0102300E0002327
:105300001A433B681B79002B02D04FF4005300E096
:1053100000231A433B685B79002B02D04FF0805387
:1053200000E000231A433B681B7B002B01D00823BD
:1053300000E000231A437B681A603B681B78002B4F
:1053400002D07B6801225A600C37BD465DF8047BB1
:10535000704700BF00000140000401400008014008
:10536000000C0140064880470649074A074B9A420D
:10537000BEBF51F8040B42F8040BF8E7FAF7DAFE67
:1053800011550000548A000000000020F4000020A5
:10539000FEE700BF80B400AF044BDB6C1B0EDBB23A
:1053A0001846BD465DF8047B704700BFB081E00F32
:1053B00080B582B000AF00F01FF87860074B5B68E3
:1053C00003F00F037A6822FA03F37B60044B7A68D8
:1053D0001A607B6818460837BD4680BD00800C40C7
:1053E0000009002080B400AF024B1846BD465DF8AE
:1053F000047B7047006CDC0280B582B000AF334B99
:10540000DB6A03F47053B3F5805F0AD0B3F5005F35
:1054100003D0B3F5006F08D00BE02D4B1B687B6009
:1054200047E04FF400437B6043E02A4B1B687B60FE
:105430003FE0264BDB6803F4E063B3F5007F1BD04D
:10544000B3F5007F05D8002B24D0B3F5807F16D0AC
:105450002BE0B3F5806F09D0B3F5A06F03D0B3F59F
:10546000407F06D021E01C4B7B6021E01B4B7B6022
:105470001EE01B4B7B601BE01A4B7B6018E0FFF7C4
:1054800089FF0346122B02D9174B7B6010E0174BA4
:105490007B600DE0FFF77EFF0346122B02D9144B11
:1054A0007B6005E0134B7B6002E000237B6000BF64
:1054B00000BF064B1B6803F4E0339B0B01337A6893
:1054C000B2FBF3F318460837BD4680BD00800C40A0
:1054D0004800002044000020003FAB01406F400125
:1054E000809FD500C0D8A70040B56400C0CF6A0037
:1054F000804F120040420F0080B400AF034B1B6886
:105500001846BD465DF8047B704700BF440000208C
:1055100080B400AFBD465DF8047B704780B400AF37
:105520004FF400431846BD465DF8047B704700BF4A
:1055300080B400AF4FF47A731846BD465DF8047B23
:10554000704700BF80B400AF034B1B681846BD46D0
:105550005DF8047B704700BF4800002081F00041E7
:1055600002E000BF83F0004330B54FEA41044FEA48
:10557000430594EA050F08BF90EA020F1FBF54EAE3
:10558000000C55EA020C7FEA645C7FEA655C00F07F
:10559000E2804FEA5454D4EB5555B8BF6D420CDD50
:1055A0002C4480EA020281EA030382EA000083EAD3
:1055B000010180EA020281EA0303362D88BF30BD73
:1055C00011F0004F4FEA01314FF4801C4CEA1131C9
:1055D00002D0404261EB410113F0004F4FEA033328
:1055E0004CEA133302D0524263EB430394EA050FB3
:1055F00000F0A780A4F10104D5F1200E0DDB02FA22
:105600000EFC22FA05F2801841F1000103FA0EF2B5
:10561000801843FA05F359410EE0A5F120050EF17B
:10562000200E012A03FA0EFC28BF4CF0020C43FAAC
:1056300005F3C01851EBE37101F0004507D54FF0B9
:10564000000EDCF1000C7EEB00006EEB0101B1F509
:10565000801F1BD3B1F5001F0CD349085FEA30004F
:105660004FEA3C0C04F101044FEA445212F5800F5A
:1056700080F09A80BCF1004F08BF5FEA500C50F1F7
:10568000000041EB045141EA050130BD5FEA4C0CDA
:10569000404141EB010111F4801FA4F10104E9D163
:1056A00091F0000F04BF01460020B1FA81F308BF5A
:1056B0002033A3F10B03B3F120020CDA0C3208DD26
:1056C00002F1140CC2F10C0201FA0CF021FA02F101
:1056D0000CE002F11402D8BFC2F1200C01FA02F171
:1056E00020FA0CFCDCBF41EA0C019040E41AA2BF96
:1056F00001EB0451294330BD6FEA04041F3C1CDA5E
:105700000C340EDC04F11404C4F1200220FA04F07D
:1057100001FA02F340EA030021FA04F345EA030127
:1057200030BDC4F10C04C4F1200220FA02F001FAE9
:1057300004F340EA0300294630BD21FA04F029466B
:1057400030BD94F0000F83F4801306BF81F4801104
:105750000134013D4EE77FEA645C18BF7FEA655C77
:1057600029D094EA050F08BF90EA020F05D054EA49
:10577000000C04BF1946104630BD91EA030F1EBF4E
:105780000021002030BD5FEA545C05D14000494152
:1057900028BF41F0004130BD14F580043CBF01F545
:1057A000801130BD01F0004545F0FE4141F470012B
:1057B0004FF0000030BD7FEA645C1ABF1946104606
:1057C0007FEA655C1CBF0B46024650EA013406BF07
:1057D00052EA033591EA030F41F4002130BD00BFC6
:1057E00090F0000F04BF0021704730B54FF4806483
:1057F00004F132044FF000054FF0000150E700BF04
:1058000090F0000F04BF0021704730B54FF4806462
:1058100004F1320410F0004548BF40424FF000014F
:105820003EE700BF42004FEAE2014FEA31014FEA92
:1058300002701FBF12F07F4393F07F4F81F06051E1
:10584000704792F0000F14BF93F07F4F704730B550
:105850004FF4607401F0004521F0004120E700BFE3
:1058600050EA010208BF704730B54FF000050AE06A
:1058700050EA010208BF704730B511F0004502D56B
:10588000404261EB41014FF4806404F132045FEA6D
:10589000915C3FF4DCAE4FF003025FEADC0C18BF12
:1058A00003325FEADC0C18BF033202EBDC02C2F108
:1058B000200300FA03FC20FA02F001FA03FE40EA9A
:1058C0000E0021FA02F11444C1E600BF80F000404E
:1058D00002E000BF81F0004142001FBF5FEA4103C8
:1058E00092EA030F7FEA226C7FEA236C6AD04FEAC8
:1058F0001262D2EB1363C1BFD2184140484041400D
:10590000B8BF5B42192B88BF704710F0004F40F4BE
:10591000000020F07F4018BF404211F0004F41F4DA
:10592000000121F07F4118BF494292EA030F3FD0A6
:10593000A2F1010241FA03FC10EB0C00C3F12003B9
:1059400001FA03F100F0004302D5494260EB400048
:10595000B0F5000F13D3B0F1807F06D340084FEAB3
:10596000310102F10102FE2A51D2B1F1004F40EBA8
:10597000C25008BF20F0010040EA03007047490010
:1059800040EB000010F4000FA2F10102EDD1B0FADB
:1059900080FCACF1080CB2EB0C0200FA0CF0AABFD0
:1059A00000EBC25052421843BCBFD040184370476E
:1059B00092F0000F81F4000106BF80F40000013274
:1059C000013BB5E74FEA41037FEA226C18BF7FEA4B
:1059D000236C21D092EA030F04D092F0000F08BF8D
:1059E0000846704790EA010F1CBF0020704712F074
:1059F0007F4F04D1400028BF40F00040704712F1B3
:105A000000723CBF00F50000704700F0004343F017
:105A1000FE4040F4000070477FEA226216BF08464D
:105A20007FEA23630146420206BF5FEA412390EA10
:105A3000010F40F4800070474FF0000304E000BF06
:105A400010F0004348BF40425FEA000C08BF7047B7
:105A500043F0964301464FF000001CE050EA01027B
:105A600008BF70474FF000030AE000BF50EA010290
:105A700008BF704711F0004302D5404261EB41017D
:105A80005FEA010C02BF84460146002043F0B643A2
:105A900008BFA3F18053A3F50003BCFA8CF2083AC7
:105AA000A3EBC25310DB01FA02FC634400FA02FCD0
:105AB000C2F12002BCF1004F20FA02F243EB0200D7
:105AC00008BF20F00100704702F1200201FA02FC39
:105AD000C2F1200250EA4C0021FA02F243EB02002C
