:100000000080002089370000B5370000B5370000B8
:10001000B5370000B5370000B5370000B537000030
:10002000B5370000B5370000B5370000B537000020
:10003000B5370000B5370000B5370000B537000010
:100040002D230000B5370000B5370000B53700009C
:10005000B5370000B5370000B5370000B5370000F0
:10006000B5370000B5370000B5370000B5370000E0
:10007000B5370000B5370000B5370000B5370000D0
:10008000B5370000E1050000B5370000B5370000C6
:10009000B5370000B5370000B5370000B5370000B0
:1000A00021090000B5370000B5370000B537000062
:1000B000B5370000B5370000B5370000B537000090
:1000C000B5370000B5370000B5370000B537000080
:1000D000B5370000B5370000B5370000B537000070
:1000E00010B5054C237833B9044B13B10448AFF372
:1000F00000800123237010BDB80000200000000024
:10010000D441000008B5064B1BB106480649AFF3C1
:1001100000800648036813B1054B03B1984708BD3A
:1001200000000000D4410000BC000020B40000200A
:1001300000000000154B002B08BF134B9D46A3F594
:10014000803A00218B460F461348144A121A03F0D6
:1001500055FC0F4B002B00D098470E4B002B00D0C6
:1001600098470020002104000D000D48002802D00F
:100170000C48AFF3008003F01BFC2000290000F0C6
:1001800081FD03F001FC00BF00000800008000209A
:100190000000000000000000B80000205401002012
:1001A000000000000000000080B483B000AF0346F0
:1001B000FB71084B97F907205209F97901F01F01EB
:1001C000012000FA01F143F822100C37BD465DF81A
:1001D000047B704700E100E080B500AF03F0FAFA5D
:1001E00080BD00BF80B400AF72B6084B1B68B3F18E
:1001F000FF3F04D0054B1B685A1C044B1A60034B8D
:100200001B681846BD465DF8047B7047440100201A
:1002100080B483B000AF0C4B1B68002B0DD00A4B91
:100220001B685A1E084B1A60074B1B687B607B6873
:10023000002B00D162B67B6800E0002318460C3723
:10024000BD465DF8047B70474401002080B400AFD8
:10025000034B1B6A1846BD465DF8047B704700BF20
:1002600000C0084080B400AF034B9B6A1846BD46EF
:100270005DF8047B704700BF00C0084080B483B0C5
:1002800000AF7860064B7A6802F00F02A03253F894
:10029000223018460C37BD465DF8047B704700BF1E
:1002A00000C0084080B483B000AF7860034B7A6828
:1002B0005A640C37BD465DF8047B704700C00840A7
:1002C00080B483B000AF7860054B054AD16C7A6882
:1002D0000A43DA640C37BD465DF8047B704700BF03
:1002E00000C0084080B483B000AF7860054B054A79
:1002F000D16C7A68D2430A40DA640C37BD465DF8A7
:10030000047B704700C0084080B483B000AF064B48
:10031000DB6C7B60044B1A6C7B68134018460C370F
:10032000BD465DF8047B704700C0084080B500AF53
:10033000FFF752FF1120042101F01EFE1248022196
:1003400001F01AFE1148012101F016FE10480121AA
:1003500001F00CFC0F48012101F008FC0E480121BE
:1003600001F004FC0D48012101F000FC0C480121C2
:1003700001F0FCFB0B48012101F0F8FB09480121C9
:1003800001F0DCFA80BD00BF0200180003001A0073
:100390004081040000D204000092040000A2040086
:1003A000004302006006280080B500AF0220002153
:1003B00002F03AFA022008210022002302F06CFA2F
:1003C000022009210022002302F066FA02200A21FD
:1003D0000022002302F060FA02200B2100220023F9
:1003E00002F05AFA80BD00BF80B500AF0A48002174
:1003F0000022002301F014F8084800210022002305
:1004000001F00EF80448064900F0A8FF034804492B
:1004100000F0A4FF80BD00BF0010004000140040A9
:10042000743A000090B585B000AF0346FB715B4B9A
:100430001B78002B03D05A48012102F0F9FDFB790B
:10044000002B38D003F0BCF800BFFFF7FFFE0346D7
:1004500003F01003002BF8D103F0CCF800200421A6
:1004600002F09AFEB8600020002102F02BFF4D48F8
:1004700002F058FF4C4B1B88082037211A4603F026
:1004800039F8494B5B88092037211A4603F032F8C6
:10049000454B9B880A2037211A4603F02BF8424B24
:1004A000DB880B2037211A4603F024F84FF4803004
:1004B000FFF718FF1EE003F083F800BFFFF7C6FE4A
:1004C000034603F01003002BF8D14FF48030FFF700
:1004D000E9FE03F08FF80020402102F05DFE0020CD
:1004E000032102F0EFFE314802F01CFF4FF4803090
:1004F000FFF7E6FE1120FFF757FE03F047F8274B02
:100500001B78002B47D0254B00221A7000BF284BC8
:100510001B6A03F00203002BF9D00023FB730023B6
:10052000BB7319E0BB7B234AD35C002B11D0FB7B50
:10053000032B0BD8FC7BBB7B1846FFF79FFE0346C3
:100540009BB2013B9AB2184B23F81420FB7B01337A
:10055000FB73BB7B0133BB73BB7B0F2BE2D9124B0D
:100560001B88082037211A4602F0C4FF0E4B5B8817
:10057000092037211A4602F0BDFF0B4B9B880A2049
:1005800037211A4602F0B6FF074BDB880B203721D4
:100590001A4602F0AFFF1437BD4690BD4000002060
:1005A000883A0000C83A000020010020C83C000042
:1005B00000C00840383A000080B483B000AF7860D3
:1005C0003960054B7A681A60044B3A681A600C3738
:1005D000BD465DF8047B704714010020180100201F
:1005E00080B582B000AFFFF78FFE034603F480337F
:1005F000002B42D04FF48030FFF754FE294B0022ED
:100600001A702EE0274B1B78DBB2274AD35C83F0AD
:100610000103DBB2002B00D01CE0FFF723FE786063
:10062000204B1B78DBB21A46204B796843F8221026
:100630001C4B1B78DBB21A461D4B53F822207B68FB
:100640009A4207D2174B1B78DBB21A46184B7968CF
:1006500043F82210134B1B78DBB20133DAB2114B93
:100660001A70104B1B78DBB20F2BCBD9114B1B68C8
:10067000002B02D00F4B1B689847FFF745FE03463F
:1006800003F47063002B0AD04FF47060FFF70AFE8A
:10069000094B1B68002B02D0074B1B689847083793
:1006A000BD4680BD1C010020383A0000D400002067
:1006B000000000201401002018010020B0B491B007
:1006C00000AF4FF0FF33BB63EC237B634F4B07F16D
:1006D00018041D460FCD0FC495E8030084E80300FD
:1006E0004B4B3C1D1D460FCD0FC42B6823600123CF
:1006F000FB6344E0FB6B9B0007F14000034453F8AD
:100700003C3C5A1E434B53F822301A02FB6B9B00B1
:1007100007F140010B4443F8282CFB6B9B0007F1C9
:100720004002134453F8282CFB6B9B0007F1400058
:10073000034453F83C3C591E374B53F82130B2FB6D
:10074000F3F2FB6B9B0007F140010B4443F8282CAC
:10075000FB6B9B0007F14002134453F8282C7B6B82
:100760009A4209D2FB6B9B0007F14000034453F807
:10077000283C7B63FB6BBB63FB6B0133FB63FB6B55
:10078000042BB7DDBB6BB3F1FF3F02D14FF0FF335A
:1007900036E0BB6B013B1B013B633A6BBB6B013B20
:1007A0009B0007F140010B4453F8283CC3F58073CC
:1007B000D900BB6B9B0007F14000034453F8283C71
:1007C000C3F58073B1FBF3F3D31A3B63BB6B013307
:1007D0009B0007F140010B4453F8283CC3F580739C
:1007E000DA00BB6B9B0007F14000034453F8283C40
:1007F000C3F58073B2FBF3F23B6B13443B633B6B7B
:1008000018464437BD46B0BC704700BF483A0000A8
:10081000603A0000D40000200000002080B582B0C3
:1008200000AF0346FB71FFF7DDFCFFF77FFDFFF72D
:10083000BBFDFFF7D9FDFB791846FFF7F3FDFFF786
:10084000E7FC0837BD4680BD80B400AF0B4B1B7979
:10085000DBB2591C0A4B81FB03230B44DA10CB1784
:10086000D21A1346DB009B1A5B00CA1AD2B2034BA2
:100870001A71BD465DF8047B704700BF4801002037
:100880009324499280B400AF72B6084B1B68B3F151
:10089000FF3F04D0054B1B685A1C044B1A60034BE6
:1008A0001B681846BD465DF8047B70474401002074
:1008B00080B483B000AF0C4B1B68002B0DD00A4BEB
:1008C0001B685A1E084B1A60074B1B687B607B68CD
:1008D000002B00D162B67B6800E0002318460C377D
:1008E000BD465DF8047B70474401002080B483B0AE
:1008F00000AF786039607B683A685A630C37BD4650
:100900005DF8047B704700BF80B483B000AF7860AF
:100910007B68DB6A18460C37BD465DF8047B704780
:1009200080B582B000AFFFF7ADFF4348FFF7ECFFA3
:10093000786041487968FFF7D9FF7B6803F00203CC
:10094000002B32D03D4B1B7883F00103DBB2002B30
:100950002BD03B4B5B79DAB2394B1B79DBB29A4235
:1009600022D9354B364A1168354A1279D2B20A4437
:1009700012789A62324B1A68314B1B79DBB21344FE
:1009800000221A70FFF760FF2B4B2B4A926B22F06C
:1009900002029A63284B284A926B42F001029A6342
:1009A000264B01221A7042E041E07B6803F001030C
:1009B000002B3CD0214B1B78002B38D0204B5B798F
:1009C000DAB21F4B1B79DBB29A4213D01A4B1C4A86
:1009D00011681B4A1279D2B20A4412789A62184BF3
:1009E0001A68174B1B79DBB2134400221A70FFF709
:1009F0002BFF1CE0124B5B79DAB2114B1B79DBB297
:100A00009A4214D10D4B00221A7000230C4A194649
:100A100011710B4A5371084B074A926B22F0010285
:100A20009A63054B044A526B42F001025A63FFF786
:100A30003FFF0837BD4680BD004008402801002028
:100A40004801002080B483B000AF03463960FB71D9
:100A5000FB79002B0DD0FB79012B0AD0FB79022BFF
:100A600007D0FB79032B04D0FB79042B01D0FB7951
:100A7000052B0948FA793B68012101FA03F319466D
:100A80001346DB0013449B000344103359600C37BA
:100A9000BD465DF8047B70470060004080B582B0C1
:100AA00000AF0C4B1B687B603B46184602F032FEE1
:100AB0007B681B0E0F2B0AD93B78032B07D1064B03
:100AC000054A126822F0500242F010021A600837FC
:100AD000BD4680BDFC81E00FC0800C4080B500AFFA
:100AE000184800F081FC184800F07EFC0220082124
:100AF000FFF7A8FF02200921FFF7A4FF02200A2127
:100B0000FFF7A0FF02200B21FFF79CFF00F0CCF9BC
:100B100002F056FD0D48002101F028F80C48002194
:100B200001F024F80B48002101F020F80A480021C8
:100B300001F01CF80948002101F018F8022000F02B
:100B40008DFB80BD00100040001400404081040077
:100B500000D204000092040000A2040060062800F5
:100B600080B400AFBD465DF8047B704780B400AF31
:100B7000034B02221A70BD465DF8047B704700BF2C
:100B80002901002080B582B000AF0023FB71002353
:100B9000BB71022000F07EFB33483449FFF70CFDA7
:100BA000334B1B78DBB2032B55D801A252F823F04C
:100BB000C10B0000D30B0000D90B0000F70B0000A5
:100BC0000120FFF72FFC00F06FF9294B01221A706A
:100BD00041E000F075FB3EE00020FFF723FC254BD1
:100BE0001B78184600F074F9234800F087FA204B70
:100BF00003221A702FE000F063FBFFF75FFD3860FF
:100C0000386800F0C1F93B68B3F1FF3F22D03B6880
:100C1000282B16DDFB7983F00103DBB2002B10D00B
:100C20000123FB71154B1A683B681A44134B1A6079
:100C3000124B1B68BF2B04DD114800F05FFA012343
:100C4000BB713B680E2B05DCFB79002B02D0002327
:100C5000FB71FFE700BFBB79002B00D000E09FE7EE
:100C60000837BD4680BD00BF610B00006D0B000062
:100C7000290100202A010020C83E00002C0100208C
:100C8000D03E000080B500AFFFF708FF032000F062
:100C900001FB0120FFF7C2FDFFF774FFFFF71EFF06
:100CA00000F00EFBFCE700BF80B483B000AF03464A
:100CB000FB71FB79002B06D0084B084A126842F002
:100CC00001021A6005E0054B044A126822F0010295
:100CD0001A600C37BD465DF8047B704700A00840E1
:100CE00080B483B000AF0346FB71FB79002B03D0C7
:100CF000054B01221A6602E0034B00221A660C37EC
:100D0000BD465DF8047B704700A0084080B483B006
:100D100000AF786000BF054B5A6E7B681340002B14
:100D2000F9D10C37BD465DF8047B704700A0084040
:100D300080B483B000AF7860054B054A916A7A6849
:100D4000D2430A409A620C37BD465DF8047B704777
:100D500000A0084080B500AF00202849002201F023
:100D6000C1FF01202549002201F0BCFF02202349D8
:100D7000002201F0B7FF03202049002201F0B2FF5A
:100D800004201E49002201F0ADFF05201B4900226E
:100D900001F0A8FF06201949002201F0A3FF072057
:100DA0001649002201F09EFF0020FF21002202F0E0
:100DB00057F80120FF21002202F052F80220FF2103
:100DC000002202F04DF80320FF21002202F048F833
:100DD0000420FF21002202F043F80520FF21002219
:100DE00002F03EF80620FF21002202F039F8072029
:100DF000FF21002202F034F880BD00BF00F00FF0A8
:100E000080B500AF07202649002201F06BFF0620C5
:100E10002449002201F066FF05202249002201F04A
:100E200061FF04201F49002201F05CFF03201D49DF
:100E3000002201F057FF02201A49002201F052FF60
:100E400001201849002201F04DFF00204FF0204101
:100E5000002201F047FF07200721002202F000F8DE
:100E600006200721002201F0FBFF052007210022B8
:100E700001F0F6FF04200721002201F0F1FF03201A
:100E80000721002201F0ECFF02200721002201F0DF
:100E9000E7FF01200721002201F0E2FF00BF80BD33
:100EA00000E00F5000E00FF080B500AF0020FFF72A
:100EB000FBFE0120FFF72AFF0348002100F056FE49
:100EC000024B0022DA6780BD0036260000800C400D
:100ED00080B582B000AF0346FB712548012100F0C8
:100EE00045FE2448032101F047F82348402100F043
:100EF00025FD012001F09CF92048012100F036FE7B
:100F00004FF0FF30FFF714FF1D4801F07FFD082070
:100F1000012101F0D5FD1020012101F0D1FD80203B
:100F2000012101F0CDFD4FF48070012101F0C8FDD9
:100F30004FF40070012101F0C3FDFB79002B0DD0AF
:100F40004FF4402002F04AF84FF4803001F096FD53
:100F50000C4B0C4AD26F42F00802DA67FFF7FAFE38
:100F60004FF0FF30FFF7D2FE0837BD4680BD00BF0F
:100F70000043020002001800600024000036260032
:100F8000B841000000800C4080B58AB000AF7860A6
:100F90007A6842F20E739A4202DD42F20F737B606E
:100FA0007B6813F57A7F01DC3C4B7B607B68002B10
:100FB00006DA786802F0E4FC78600123BB6101E0A6
:100FC0000023BB614FF0FF30FFF7A0FE0120FFF7C9
:100FD00087FE00F06BF80123FB6100233B6254E0C5
:100FE0007A68FB6992FBF3F12D4B83FB01239A1086
:100FF000CB17D21A13469B0013445B00CA1A134640
:10100000FB82BB69012B04D13B6A032B01D1102366
:10101000FB82FA8A234B33F81230BB8200237B62B7
:1010200027E021493A6A1346DB009B1A5B00CA1885
:101030007B6A1344C033DB7A3B611B493A6A13462F
:10104000DB009B1A5B00CA187B6A1344C0331B7910
:10105000FB60BA8A7B6A42FA03F303F00103002BB8
:1010600004D0F8683969012201F04AFD7B6A013336
:101070007B627B6A062BD4DDFA6913469B0013441E
:101080005B00FB613B6A01333B623B6A032BA7DDDC
:101090000020FFF725FE2837BD4680BD19FCFFFF65
:1010A0006766666694410000DC3E000080B500AFD4
:1010B00001207821002201F0D3FE022078210022B5
:1010C00001F0CEFE03207821002201F0C9FE0420A9
:1010D0007821002201F0C4FE05207821002201F0D1
:1010E000BFFE06207821002201F0BAFE07207821F9
:1010F000002201F0B5FE00BF80BD00BF80B58AB000
:1011000000AF7860786802F081FC0346BB61002381
:101110003B624FF0FF30FFF7F9FD0120FFF7E0FDE4
:10112000FFF76EFE00233B6246E03A6ABB699A42D3
:1011300003DA7B681B787B6201E020237B627B6A99
:10114000203B7B62214B7A6A33F81230FB8200230A
:10115000FB6128E01E493A6A1346DB009B1A9B009C
:10116000CA18FB69134408339B793B6118493A6AF2
:101170001346DB009B1A9B00FA6913440B441B784F
:10118000FB60FA8AFB6942FA03F303F00103002BC8
:1011900006D0FA683B6910461946012201F0B0FCFE
:1011A000FB690133FB61FB690D2BD3DD7B680133E8
:1011B0007B603B6A01333B623B6A062BB5DD002056
:1011C000FFF78EFD2837BD4680BD00BFDC40000024
:1011D000DC3E000080B400AF72B6084B1B68B3F170
:1011E000FF3F04D0054B1B685A1C044B1A60034B8D
:1011F0001B681846BD465DF8047B7047440100201B
:1012000080B483B000AF0C4B1B68002B0DD00A4B91
:101210001B685A1E084B1A60074B1B687B607B6873
:10122000002B00D162B67B6800E0002318460C3723
:10123000BD465DF8047B70474401002080B400AFD8
:10124000054B054A126922F004021A6130BFBD46FF
:101250005DF8047B704700BF00ED00E080B582B010
:1012600000AF0346FB71FFF7B5FFFA79084B53F85F
:101270002230002B07DDFB79054A52F82320511E4E
:10128000034A42F82310FFF7BBFF0837BD4680BD75
:101290003001002080B582B000AF0346FB71FFF73C
:1012A00099FFFB79054A52F82320511C034A42F862
:1012B0002310FFF7A5FF0837BD4680BD3001002091
:1012C00080B500AF0F4B1B68002B00DD18E00D4B05
:1012D0005B68002B02DDFFF7B1FF11E0094B9B6853
:1012E000002B03DD012001F065F909E0054BDB6807
:1012F000002B03DD012001F0ABF901E001F006FA5B
:1013000080BD00BF3001002080B487B000AFF8601E
:10131000B9607A60FB6803F10473DA00BB681344B8
:101320009B007B617B697A681A601C37BD465DF85B
:10133000047B704780B485B000AFF860B9607A6014
:10134000FB681A68BB68DB431A407B681A43FB687A
:101350001A601437BD465DF8047B704780B582B0D3
:1013600000AF786039607A681D4B9A4203D07A6882
:101370001C4B9A4200D100BF3B681B78DA073B68E0
:101380005B789B0713431A463B685B681B061A434E
:101390003B681B7A1B021A433B685B7A1B011A43AA
:1013A0007B681A603B689B7A1B071A463B68DB7AAE
:1013B0001B041A433B68DB681B02134343F0807332
:1013C00043F0B0037A6853607A683B681B7C104630
:1013D00000211A46FFF798FF0837BD4680BD00BFC1
:1013E000001000400014004080B483B000AF78606B
:1013F0007A68094B9A4203D07A68084B9A4200D126
:1014000000BF7B681B6823F001027B681A600C3701
:10141000BD465DF8047B704700100040001400409A
:1014200080B584B000AFF860B960FA71BB71FA683A
:101430000C4B9A4203D0FA680B4B9A4200D100BF82
:10144000FA68BB79DB00104608211A46FFF772FFE5
:10145000BB681A02FB791A43FB68DA611037BD4694
:1014600080BD00BF001000400014004080B487B071
:1014700000AFF860B9607A60FB6803F10473DA00CA
:10148000BB6813449B007B617B697A681A601C37D8
:10149000BD465DF8047B704780B485B000AF7860CE
:1014A00039607B6803F10473DA003B6813449B00E6
:1014B000FB60FB681B6818461437BD465DF8047B6B
:1014C000704700BF80B485B000AF78607B68002BA8
:1014D00004D07B68B3F5004F00D800BF7B68B3FA37
:1014E00083F3C3F11F03FB60FB6818461437BD4646
:1014F0005DF8047B704700BF80B400AF044BDB6C29
:101500001B0EDBB21846BD465DF8047B704700BF7A
:10151000B081E00F80B400AF054BDB6C03F47F03B8
:101520001B0CDBB21846BD465DF8047B704700BF5C
:10153000B081E00F80B582B000AFFFF7EBFF03464C
:101540004A2B04D0792B02D0482B22D023E0144B15
:101550001B699BB203F03F039BB21B02FB80104B45
:101560009B699BB203F0F0039AB2FB881343FB80A4
:101570000B4BDB6903F0F0031B099AB2FB881343A2
:10158000FB80FB88B3F5017F01D3064B04E0064BDB
:1015900002E0054B00E0002318460837BD4680BD39
:1015A000D0FF0FE000366E010048E80180B584B03E
:1015B00000AF786039607A683B689A4294BF002334
:1015C0000123DBB2FB6006481E21FA68FFF74EFFDD
:1015D00004480821FA68FFF749FF1037BD4680BD6F
:1015E00000800C4004800C4080B582B000AF0748FA
:1015F0001E21FFF751FF786005480821FFF74CFFD7
:1016000038607B6818460837BD4680BD00800C40B6
:1016100004800C4080B582B000AF214B5B6903F4BD
:10162000E063B3F5007F1CD0B3F5007F05D8002B35
:1016300025D0B3F5807F1FD02AE0B3F5C06F24D04A
:10164000B3F5E06F1ED0B3F5407F21D1FFF754FF13
:101650000346122B02D9134B7B601CE0124B7B60BC
:1016600019E0FFF749FF0346122B02D90F4B7B60AD
:1016700011E00F4B7B600EE00E4B7B600BE00E4BDE
:101680007B6008E00D4B7B6005E00D4B7B6002E06A
:1016900000237B6000BF7B6818460837BD4680BDCD
:1016A00000800C40804F120040420F0040B56400A3
:1016B000C0CF6A00C0D8A700809FD500406F40010E
:1016C000003FAB0180B582B000AF0D4800F0A6FB33
:1016D0000346FB70FB78072B05D0082B07D102F0DF
:1016E0009DF8786006E0FFF795FF786002E0002340
:1016F0007B6000BF7B6818460837BD4680BD00BFD1
:1017000006000C0080B485B000AF7860284BDB6B1E
:10171000002B0CBF00230123BB72254B41F6713215
:10172000DA63234B5B6803F00703FB60FB68012B64
:1017300001D9042B02D10023FB7202E00123FB72CA
:1017400000BF7A681B4B9A4207D9FB7A002B01D065
:10175000052300E00423FB6016E07A68154B9A42EB
:101760000BD87A68144B9A4207D9FB7A002B01D028
:10177000032300E00123FB6006E0FB7A002B01D08D
:10178000022300E00023FB60094B094A526822F063
:101790000701FA680A435A60BB7A002B02D0044B57
:1017A0000022DA631437BD465DF8047B704700BF42
:1017B00000000C400048E8010024F40080B500AFB0
:1017C00002F022F803461846FFF79CFF80BD00BFD9
:1017D00090B585B000AF78600023BB607B68344A69
:1017E000934203D0334A934200D000E000BF7868B0
:1017F00000F014FB0346FB607B682D4A934203D044
:101800002C4A934206D00CE02B4B9B6A03F0030357
:10181000FB6006E0284B9B6A03F00C039B08FB600F
:1018200000BFFB68032B3AD801A252F823F000BF97
:101830006718000041180000491800005118000006
:1018400002F07EF8B8602DE002F08EF8B86029E072
:1018500001F0C0FF0446FFF7C7FE0346013324FA38
:1018600003F3BB601EE00023BB607A68104B9A4212
:1018700003D07A680F4B9A4210D10F4B9A6A79685D
:101880000B4B994201D1102300E0142322FA03F3F9
:10189000002B03D002F05EF8B86003E002E0002302
:1018A000BB6000BFBB6818461437BD4690BD00BF83
:1018B0000200180003001A0000800C4080B483B0BE
:1018C00000AF7860094B5B6D03F00103002B00D083
:1018D00006E000BF054B1A6D7B681340002BF9D161
:1018E0000C37BD465DF8047B704700BF00800C409C
:1018F00080B582B000AF104800F090FA0346FB704C
:10190000FB78032B07D0082B09D0022B0BD102F058
:101910002BF878600AE002F013F8786006E001F036
:101920007DFF786002E000237B6000BF7B68184683
:101930000837BD4680BD00BF07232000B0B584B086
:1019400000AF786039607B681B0903F00F03FB6010
:10195000FB68013B062B00F2F68001A252F823F04F
:101960007D190000471B0000471B0000B119000053
:10197000DB1900002F1A0000F31A00003B68002B4F
:1019800003D03B68082B00D800BFFFF717FF704B50
:101990006F4A126822F4E0313A68013A92030A432E
:1019A0001A6001F017FFB860B868FFF7ABFECBE034
:1019B0003B68002B04D03B68B3F5007F00D800BF24
:1019C0003868FFF77FFD3860614B614A926822F00A
:1019D0000F013A680A439A60B6E03B68002B04D0D6
:1019E0003B68B3F5007F00D800BFFFF7E7FE01F0CA
:1019F00015FF02463B68B2FBF3F4FFF79BFD03467D
:101A000020461946FFF7D2FD3868FFF75BFD3860C6
:101A10004F4B4F4A526822F00F013A680A435A600E
:101A200001F0D8FEB860B868FFF76CFE8CE07B6808
:101A3000484A93421ED0474A934203D8464A9342AB
:101A400007D055E0454A934225D0454A93423FD0BE
:101A50004EE00420FFF732FF3868FFF733FD3860AF
:101A60003B4B3B4A926E22F0F0013A6812010A4366
:101A70009A663DE00420FFF721FF3868FFF722FD5A
:101A80003860334B324A926E22F470613A68120227
:101A90000A439A662CE03B680F2B03D93B68802BE6
:101AA00000D800BF0420FFF709FF3868FFF70AFDE0
:101AB0003860274C264B9B6E23F440551020FFF7CF
:101AC00001FD03463A68D31A1B032B43A3660FE0BC
:101AD0000420FFF7F3FE3868FFF7F4FC38601C4B76
:101AE0001B4A926E22F003013A680A439A6600BFCD
:101AF0002AE07B681B4A934203D01B4A934210D0D2
:101B000020E04020FFF7DAFE3868FFF7DBFC3860A2
:101B10000F4B0F4A126F22F003013A680A431A670B
:101B200010E04020FFF7CAFE3868FFF7CBFC3860B2
:101B3000074B074A126F22F030013A6812010A433C
:101B40001A6700BF00E000BF1037BD46B0BD00BF40
:101B500000800C4060261200601610006000240017
:101B600060062800700714007017160090B587B043
:101B700000AF78600B46FB7000233B617B681B0A5B
:101B800003F00F03013B092B49D801A252F823F0BF
:101B9000D51B0000DB1B0000B91B00001F1C000050
:101BA0001F1C0000E11B0000EB1B00001F1C0000BD
:101BB0001F1C0000F51B00001B4B7B611B4800F045
:101BC00041F80446FFF7B6FC034620461946FFF7E6
:101BD000EDFC12E0164B7B610FE0164B7B610CE0D5
:101BE000154B7B6101233B6107E0144B7B611023A4
:101BF0003B6102E0124B7B6100BF7B681B0B03F073
:101C00001F03FB603B69002B02D03869FFF756FECB
:101C1000FB787869F9681A46FFF728FC00E000BFF6
:101C20001C37BD4690BD00BF40800C400043020001
:101C300008800C4044800C4058800C4060800C4070
:101C400078800C4090B585B000AF78607B6803F475
:101C50007813B3F5A01F00F0AB80B3F5A01F1AD81E
:101C6000B3F5402F00F0BF80B3F5402F08D8B3F58F
:101C7000003F3CD0B3F5802F2DD0002B27D0BEE005
:101C8000B3F5801F3CD0B3F5901F47D0B3F5602F5C
:101C900000F0AD80B3E0B3F5001F00F0AC80B3F509
:101CA000001F0AD8B3F5C01F25D0B3F5D01F7AD0D6
:101CB000B3F5B01F00F08980A1E0B3F5181F4ED036
:101CC000B3F5201F62D0B3F5101F35D097E001F0B7
:101CD000A5FDF86096E001F0A1FDF8604C4B9B6813
:101CE00003F00F03FA6822FA03F3FB608AE001F0C5
:101CF00071FDF86086E04748FFF76AFDF86081E013
:101D00004448FFF765FDF860414B9B6E03F0F0031C
:101D10001B09FA6822FA03F3FB6073E03D48FFF702
:101D200057FDF8603A4B9B6E03F470631B0AFA6828
:101D300022FA03F3FB6065E03648FFF749FDF860DF
:101D4000334B9B6E03F440531C0B1020FFF7BAFB80
:101D500003462344FA6822FA03F3FB6052E02D485D
:101D6000FFF736FDF8602A4B9B6E03F440531B0BC4
:101D7000FA6822FA03F3FB60254BDB6F03F00703DD
:101D80000133FA68B2FBF3F3FB603BE02148FFF755
:101D90001FFDF8601E4B9B6E03F00303FA6822FAE6
:101DA00003F3FB602EE01C48FFF712FDF86029E00A
:101DB0001948FFF70DFDF860154B1B6F03F0030387
:101DC000FA6822FA03F3FB601CE01348FFF700FDFA
:101DD000F8600F4B1B6F03F030031B09FA6822FAFF
:101DE00003F3FB600EE0FFF76DFCF8600AE0FFF71D
:101DF00011FCF86006E0FFF77BFDF86002E00023CD
:101E0000FB6000BFFB6818461437BD4690BD00BF9D
:101E100000800C400200180003001A0080B485B056
:101E200000AF78600123FB737B6803F00F03BB6096
:101E3000BB68013B062B00F2938001A252F823F00D
:101E40005D1E0000931E0000CF1E0000611F0000F9
:101E5000611F00000B1F00002D1F0000454BDB6AB7
:101E600003F47053B3F5805F09D0B3F5005F03D07E
:101E7000B3F5006F06D008E00223FB7308E00323EC
:101E8000FB7305E00423FB7302E00523FB7300BF33
:101E900069E0384B9B6A03F00303022B06D0032B47
:101EA00007D0012B08D10323FB730FE00223FB7340
:101EB0000CE00623FB7309E02E4B9B6A03F480338E
:101EC000002B02D00923FB7300E000BF4BE0294B3D
:101ED0009B6A03F00C03082B06D00C2B07D0042BB5
:101EE00008D10323FB730FE00223FB730CE00623EE
:101EF000FB7309E01F4B9B6A03F48013002B02D095
:101F00000923FB7300E000BF2DE01A4B1B6803F0B0
:101F10008053002B03D0B3F1805F03D023E007236D
:101F2000FB7302E00823FB7300BF1CE0114BDB6A6C
:101F300003F46033B3F5803F08D0B3F5003F08D019
:101F4000B3F5004F08D10823FB7308E00223FB73AD
:101F500005E00323FB7302E00123FB7300BF02E0F3
:101F60000023FB7300BFFB7B18461437BD465DF8AA
:101F7000047B704700800C4090B589B000AF78605A
:101F80000B46FB700323FB610323FB7600233B61BD
:101F90007B6803F00F03FB60FB68013B062B00F23C
:101FA000348101A252F823F0C51F0000B1200000C7
:101FB000B12000000B2200000B220000792100005C
:101FC000A3210000FB78023B072B00F2228101A233
:101FD00052F823F0F51F0000FF1F00000920000049
:101FE00053200000132200001322000013220000DF
:101FF000132200000423FB610023FB7639E0032356
:10200000FB610123FB7634E00223FB610223FB76B4
:10201000FFF790FA03465C1CFFF78CFA0346204654
:102020001946FFF7C3FA01F079FC02467C4B9A424D
:1020300006D97C4B7B4A126842F060021A6018E0B5
:10204000784B784A126822F0600242F020021A604F
:102050000FE00123FB610323FB76FFF76BFA0346D6
:102060005C1CFFF767FA034620461946FFF79EFA05
:1020700000BFFB7E18460121012200F0F7F8FFF7B0
:102080009DFB684BFA695A626748FFF7DBFD04461F
:10209000FFF750FA034620461946FFF787FA00F08B
:1020A0005DFB01F097FBB860B868FFF72BFBADE074
:1020B000FB78013B082B00F2AE8001A252F823F01E
:1020C000E5200000EB200000FB20000017220000AC
:1020D000172200000B210000172200001722000029
:1020E0002F21000000237B6126E000200121012236
:1020F00000F0BCF802237B611EE0012001210122D7
:1021000000F0B4F801237B6116E001F063FBB860D6
:10211000FFF710FA0346B8681946FFF747FA434835
:1021200004210122FFF7A2F903237B6104E00023CD
:102130007B6101233B6100BFFB68022B0DD1394A53
:10214000384B9B6A23F4803323F0030379691943E6
:102150003B691B040B43936258E0324A314B9B6A44
:1021600023F4801323F00C037969890019433B6938
:102170001B050B43936249E0FB78072B02D0082B29
:1021800007D049E0274B274A126822F080521A6094
:1021900006E0244B234A126842F080521A6000BFC6
:1021A00034E0FB78032B14D0082B22D0022B00D074
:1021B00032E000200121012200F058F8194B4022A2
:1021C0005A6200BF174BDB6A03F48033002BF9D04F
:1021D0001AE001200121012200F048F8114B602291
:1021E0005A6200BF0F4BDB6A03F40033002BF9D0B7
:1021F0000AE00C4B20225A6200BF0A4BDB6A03F450
:102200000043002BF9D000BF00E000BFFFF7ECF95E
:1022100002E000BF00E000BF2437BD4690BD00BF14
:102220000048E80100800C400043020040800C4060
:1022300080B483B000AF78600B4B9B6D03F0080354
:10224000002B00D00BE07B6803F007037B60064B9C
:10225000054AD26F22F007017A680A43DA670C3721
:10226000BD465DF8047B704700800C4080B586B0A9
:1022700000AF13460246FA710A46BA717B71FB79C8
:10228000042B4AD801A252F823F000BFD922000043
:10229000CB220000AF220000A1220000BD220000DE
:1022A00001233B610223FB6001237B611DE00423CA
:1022B0003B610823FB6003237B6116E010233B6135
:1022C0002023FB6005237B610FE040233B618023DB
:1022D000FB6007237B6108E04FF480733B614FF4A0
:1022E0000073FB6009237B6100BFBB79002B0ED01C
:1022F0000C4B3A691A627B79002B0BD000BF0A485D
:102300007969FFF7C9F80346002BF8D002E0054BC6
:10231000FA681A6200F022FA00E000BF1837BD46E2
:1023200080BD00BF00800C402C800C4080B58AB07E
:1023300000AF334B03F580531B68BB61304B03F593
:1023400080530C331B68BA691340BB612C4B9B6BE9
:102350007B61BA697B6913403B620023FB6149E002
:1023600000237B623BE03B6A03F00103002B30D08B
:10237000234B9B683B6101227B6A02FA03F3FB60FB
:102380001F4B03F580530833FA681A607B6A1B0100
:102390003A691344DB68BB60BB68002B19D0BB688B
:1023A0001B7A7B60BB681B7A83F00103DAB2BB68DF
:1023B0001A72BB681B68002B0BD0BB681B68786A5D
:1023C0007A68002A0CBF00220122D1B2BA68526892
:1023D00098473B6A5B083B627B6A01337B623B6ADE
:1023E000002BC0D17B69DA43BB6913403B62FB69B8
:1023F0000133FB61FB69012BB2DD2837BD4680BD8F
:1024000000200C4080B500AF01F0E4F980BD00BFB2
:1024100080B400AF034B4AF6E8529A60BD465DF8BF
:10242000047B704700600C4080B400AF034B002277
:10243000C3F88420BD465DF8047B704700800C40E3
:1024400080B400AF044B45F60E02C3F88420BD46AD
:102450005DF8047B704700BF00800C4080B582B0FF
:1024600000AF384BD3F8843003F001037B60FFF7F3
:10247000E7FF00233B60344B1B6803F001033A681D
:1024800013433B60304B1B6803F010033A6813435F
:102490003B602D4B1B6803F040033A6813433B60DD
:1024A000294B1B6803F004033A6813433B60264B37
:1024B0001B6803F480733A6813433B60214B3A680E
:1024C0001A62214B1B6803F47053B3F5805F06D08A
:1024D000B3F5005F0ED0B3F5006F16D020E000BF5B
:1024E000184BDB6A03F08003002BF9D0154B032255
:1024F0005A6215E000BF134BDB6A03F40073002B34
:10250000F9D0104B04225A620AE000BF0D4BDB6A7F
:1025100003F00803002BF9D00A4B02225A6200BFD5
:10252000094B1B6803F00103002B02D1054B02226B
:102530001A627B68002B01D0FFF776FF0837BD4693
:1025400080BD00BF00800C404001002080B483B0FB
:1025500000AF174B1B699BB203F03F039BB21B02FA
:10256000FB80134B9B699BB203F0F0039AB2FB888C
:102570001343FB800E4BDB6903F0F0031B099AB297
:10258000FB881343FB80FB88B3F5827F03D3FB8872
:10259000B3F5017F01D1012300E0002303F0010323
:1025A000DBB218460C37BD465DF8047B704700BFB0
:1025B000D0FF0FE080B586B000AF0346FB711F4B24
:1025C000DA6A1F4B1A601F4B1E4A126942F004025E
:1025D0001A61FFF7BBFF0346FB75FB7D002B11D093
:1025E000194B1A68194B1340FB60174BFA68C3F874
:1025F0008020154B5B6823F046033B61124B3A6920
:10260000C3F8842030BFFB7D002B05D00E4BFA6849
:102610001A600D4B3A695A60FB79002B02D0FFF724
:102620001DFF07E0064B1B6803F48063002B01D1FC
:10263000FFF7E8FE1837BD4680BD00BF00800C40A4
:102640004001002000ED00E000E100E09CF1FD0011
:1026500080B586B000AF0346FB71274BDA6A274B83
:102660001A60254BD3F8843003F001037B61FFF738
:10267000E7FE214B4FF420721A627B69002B01D0D8
:10268000FFF7D2FE1E4B1E4A126942F004021A6185
:10269000FFF75CFF0346FB74FB7C002B11D0194B4A
:1026A0001A68194B1340BB60164BBA68C3F88020F8
:1026B000144B5B6823F04603FB60124BFA68C3F8C7
:1026C000842030BFFB7C002B05D00E4BBA681A600B
:1026D0000C4BFA685A60FB79002B02D0FFF7BEFE64
:1026E00007E0064B1B6803F48063002B01D1FFF762
:1026F00089FE1837BD4680BD00800C404001002097
:1027000000ED00E000E100E09CF1FD0080B584B048
:1027100000AF114B1B6823F00C0343F00803BB60B0
:102720000D4B1B6843F00C037B60FFF771FE002329
:10273000FB6008E0084BBA681A60074B7A681A60B9
:10274000FB680133FB60FB68032BF3DD024BBA68C7
:102750001A601037BD4680BD00600C4080B400AFE9
:10276000034BDA6A034B1A60BD465DF8047B704781
:1027700000800C404001002080B483B000AF0346CD
:102780003960FB71FB79002B0DD0FB79012B0AD04E
:10279000FB79022B07D0FB79032B04D0FB79042BA8
:1027A00001D0FB79052B0948FA793B68012101FA30
:1027B00003F319461346DB0013449B000344103314
:1027C00059600C37BD465DF8047B704700600040DF
:1027D00080B483B000AF03463960FB71FB79002BF6
:1027E0000DD0FB79012B0AD0FB79022B07D0FB79A6
:1027F000032B04D0FB79042B01D0FB79052B09486E
:10280000FA793B68012101FA03F319461346DB000C
:1028100013449B000344103319600C37BD465DF828
:10282000047B70470060004090B482B000AF024665
:102830000B46FA71BB71FB79002B0ED0FB79012B93
:102840000BD0FB79022B08D0FB79032B05D0FB7949
:10285000042B02D0FB79052B03D1BB79032B00D8C5
:1028600000BF0C48FA790B4CF9790B46DB000B449E
:102870009B0023441B6823F00301BB7919431346D3
:10288000DB0013449B00034419600837BD4690BC2D
:10289000704700BF0060004090B585B000AFB960E0
:1028A0007B600346FB731346BB73FB7B002B0DD091
:1028B000FB7B012B0AD0FB7B022B07D0FB7B032B7E
:1028C00004D0FB7B042B01D0FB7B052BBB7B002BB7
:1028D0000DD07B68002B05D0FB7B1846B968FFF74D
:1028E00077FF04E0FB7B1846B968FFF745FFBB683C
:1028F000072B1DD82B48FA7B2A4CF97B0B46DB00B3
:102900000B449B0023445968BB689B000F2404FAC6
:1029100003F3DB431940BC7BBB689B0004FA03F361
:1029200019431346DB0013449B000344596024E021
:102930001C48FA7B1B4CF97B0B46DB000B449B00CD
:10294000234408331968BB6803F18043083B9B00AC
:102950000F2404FA03F3DB431940BC7BBB6803F18B
:102960008043083B9B0004FA03F319431346DB0042
:1029700013449B00034408331960BB7B002B0DD12B
:102980007B68002B05D0FB7B1846B968FFF720FF5A
:1029900004E0FB7B1846B968FFF7EEFE1437BD462E
:1029A00090BD00BF0060004080B483B000AF03461C
:1029B000FB71FB79002B06D0084B084A126842F0E5
:1029C00001021A6005E0054B044A126822F0010278
:1029D0001A600C37BD465DF8047B704700A00840C4
:1029E00080B487B000AFF860B9607A60FB6803F12B
:1029F0000473DA00BB6813449B007B617B697A68CF
:102A00001A601C37BD465DF8047B704780B584B002
:102A100000AF7860184B5B68FB600020FFF7C4FFD5
:102A2000FB6823F4830323F01F03FB607B685B6870
:102A3000FA681343FB607B681B7AFA681343FB60F8
:102A40007B685B7AFA681343FB607B68DB68FA6833
:102A50001343FB607B681B8AFA681343FB60064BD9
:102A6000FA685A607B681B78002B02D00120FFF7C0
:102A70009BFF1037BD4680BD00A0084080B485B0E4
:102A800000AF78600D4B5B68FB60FB6823F480331C
:102A9000FB607B68002B08D0B3F5803F00D005E0D9
:102AA000FB6843F48033FB6000E000BF034BFA682F
:102AB0005A601437BD465DF8047B704700A008409B
:102AC00080B483B000AF02460B46FA807B717B79FD
:102AD000002B06D0094B094A9168FA880A439A608C
:102AE00006E0064B054A9168FA88D2430A409A608C
:102AF0000C37BD465DF8047B704700BF00A008405E
:102B000080B584B000AFF860B9601346FB71FB6814
:102B1000072B00F2C38001A252F823F03D2B0000E6
:102B2000692B0000952B0000C12B0000ED2B00004D
:102B3000192C0000452C0000712C0000BB681F2BD5
:102B400007DCBA68FB79574811461A46FFF748FF79
:102B5000A5E0BB68203BBB60BA68FB7952481146D0
:102B60001A46FFF73DFF9AE0BB681F2B07DCBA68E7
:102B7000FB794E4811461A46FFF732FF8FE0BB68DB
:102B8000203BBB60BA68FB79494811461A46FFF7FB
:102B900027FF84E0BB681F2B07DCBA68FB79454838
:102BA00011461A46FFF71CFF79E0BB68203BBB606B
:102BB000BA68FB79404811461A46FFF711FF6EE0EC
:102BC000BB681F2B07DCBA68FB793C4811461A46E4
:102BD000FFF706FF63E0BB68203BBB60BA68FB7988
:102BE000374811461A46FFF7FBFE58E0BB681F2B1B
:102BF00007DCBA68FB79334811461A46FFF7F0FE46
:102C00004DE0BB68203BBB60BA68FB792E4811469B
:102C10001A46FFF7E5FE42E0BB681F2B07DCBA68E7
:102C2000FB792A4811461A46FFF7DAFE37E0BB68FF
:102C3000203BBB60BA68FB79254811461A46FFF76E
:102C4000CFFE2CE0BB681F2B07DCBA68FB7921485C
:102C500011461A46FFF7C4FE21E0BB68203BBB606B
:102C6000BA68FB791C4811461A46FFF7B9FE16E010
:102C7000BB681F2B07DCBA68FB79184811461A4657
:102C8000FFF7AEFE0BE0BB68203BBB60BA68FB7988
:102C9000134811461A46FFF7A3FE00E000BF1037A5
:102CA000BD4680BD40A0084050A0084044A0084058
:102CB00054A0084048A0084058A008404CA0084034
:102CC0005CA00840CCA00840B4A00840D0A00840B8
:102CD000B8A00840D4A00840BCA00840D8A0084034
:102CE000C0A0084080B487B000AFF860B9607A60D7
:102CF000FB68072B00F2AC8001A252F823F000BF62
:102D0000212D0000452D0000692D00008D2D0000B3
:102D1000B12D0000D92D0000012E0000292E000049
:102D20004E4B1B6C7B61BB68DB437A6913407B6154
:102D3000BA687B6813407A6913437B61474B7A69B1
:102D40001A6486E0454B5B6C7B61BB68DB437A6948
:102D500013407B61BA687B6813407A6913437B61D7
:102D60003E4B7A695A6474E03C4B9B6C7B61BB6858
:102D7000DB437A6913407B61BA687B6813407A69E8
:102D800013437B61354B7A699A6462E0334BDB6CA9
:102D90007B61BB68DB437A6913407B61BA687B68FF
:102DA00013407A6913437B612C4B7A69DA6450E0F3
:102DB0002A4BD3F8CC307B61BB68DB437A69134084
:102DC0007B61BA687B6813407A6913437B61234B4C
:102DD0007A69C3F8CC203CE0204BD3F8D0307B613B
:102DE000BB68DB437A6913407B61BA687B68134038
:102DF0007A6913437B61194B7A69C3F8D02028E0C4
:102E0000164BD3F8D4307B61BB68DB437A6913403F
:102E10007B61BA687B6813407A6913437B610F4B0F
:102E20007A69C3F8D42014E00C4BD3F8D8307B6116
:102E3000BB68DB437A6913407B61BA687B681340E7
:102E40007A6913437B61054B7A69C3F8D82000E0A7
:102E500000BF1C37BD465DF8047B704700A00840EA
:102E600080B487B000AFF860B9607A60FB68072B68
:102E700000F2AC8001A252F823F000BF9D2E0000AA
:102E8000C12E0000E52E0000092F00002D2F0000AC
:102E9000552F00007D2F0000A52F00004E4B1B6D0D
:102EA0007B61BB68DB437A6913407B61BA687B68EE
:102EB00013407A6913437B61474B7A691A6586E050
:102EC000454B5B6D7B61BB68DB437A6913407B617B
:102ED000BA687B6813407A6913437B613E4B7A6919
:102EE0005A6574E03C4B9B6D7B61BB68DB437A6940
:102EF00013407B61BA687B6813407A6913437B6136
:102F0000354B7A699A6562E0334BDB6D7B61BB6858
:102F1000DB437A6913407B61BA687B6813407A6946
:102F200013437B612C4B7A69DA6550E02A4BD3F866
:102F3000B4307B61BB68DB437A6913407B61BA685C
:102F40007B6813407A6913437B61234B7A69C3F82A
:102F5000B4203CE0204BD3F8B8307B61BB68DB4346
:102F60007A6913407B61BA687B6813407A691343BE
:102F70007B61194B7A69C3F8B82028E0164BD3F867
:102F8000BC307B61BB68DB437A6913407B61BA6804
:102F90007B6813407A6913437B610F4B7A69C3F8EE
:102FA000BC2014E00C4BD3F8C0307B61BB68DB4322
:102FB0007A6913407B61BA687B6813407A6913436E
:102FC0007B61054B7A69C3F8C02000E000BF1C3765
:102FD000BD465DF8047B704700A0084080B483B014
:102FE00000AF7860064B064A526822F4E0117A6816
:102FF0000A435A600C37BD465DF8047B704700BF3A
:1030000000A0084080B487B000AFF860B9607A6073
:10301000FB6803F10473DA00BB6813449B007B6117
:103020007B697A681A601C37BD465DF8047B70477F
:1030300080B582B000AF78600B46FB70FB78002B48
:1030400001D000F0F1FA7B681B7D184600F020F9F2
:10305000504B7A68527891007A68927811437A6876
:10306000926811437A68D26811437A68D278520222
:1030700011437A681279920211437A6852795203A5
:1030800011437A689279520411437A68D279120412
:1030900011437A68527C92050A431A607B681B7858
:1030A0001846002100F0D6F83A4B7A68127E114695
:1030B0007A68527E920011437A68927E920111439F
:1030C0007A68D27E520011437A68127F120111434E
:1030D0007A68527F120211437A68927F92021143FA
:1030E0007A68126A11437A6892F824201205114313
:1030F0007A6892F82520920511437A68926A0A4309
:103100009A60244B7A68928D11467A6892F83B2037
:10311000920211437A6892F83C20920311437A6834
:1031200092F83D20920411437A6892F83E2092056D
:1031300011437A6892F83420520011437A6892F869
:103140003520920011437A6892F83620D20011435C
:103150007A6892F83720120111437A6892F8382081
:10316000520111437A6892F83920920111437A682A
:1031700092F83A20D2010A43DA607B681B6B18464A
:1031800000F0F4F9034B7A68127C1A610837BD46E7
:1031900080BD00BF00C0084080B588B000AF786037
:1031A00039600023FB610123BB613F237B617B68A6
:1031B000002B03D12548FEF745FD78603B68002BC6
:1031C00004D03A687B689A4200D808E007E0FB69BF
:1031D0000133FB61FB69012202FA03F3BB613B6827
:1031E000BA6902FB03F37A68B2FBF3F27B6901333D
:1031F0009A4202D9FB69062BE9D93B68BA6902FBFE
:1032000003F37A68B2FBF3F3013B7B61104B5B681D
:1032100023F47F2323F4E0633B61FB691A027B699B
:103220001B0313433A6913433B61094B3A695A60E4
:103230007B690133BA6902FB03F37A68B2FBF3F3EB
:10324000FB60FB6818462037BD4680BD600628003D
:1032500000C0084080B584B000AF02460B46FA714A
:10326000BB710A4B1B6823F00303FB60FB79FA6810
:103270001343FB60054BFA681A60BB79002B01D041
:1032800000F084F91037BD4680BD00BF00C0084083
:1032900080B485B000AF0346FB71094B5B6823F433
:1032A0004003FB60FB799B05FA681343FB60044B0A
:1032B000FA685A601437BD465DF8047B704700BF5A
:1032C00000C0084080B485B000AF02460B46FA71DA
:1032D000BB71FB79002B0FD0012B00D01AE0104BF3
:1032E0005B6823F00303FB60BB79FA681343FB6060
:1032F0000B4BFA685A600DE0094B5B6823F07003D2
:10330000FB60BB791B01FA681343FB60044BFA684E
:103310005A6000BF1437BD465DF8047B704700BF9C
:1033200000C0084080B584B000AF78600023FB6027
:103330000AE0FB685B017A6813441846F96800F0FC
:1033400009F8FB680133FB60FB680F2BF1D91037DC
:10335000BD4680BD80B584B000AF786039607B68C1
:103360005B68B3F5C03F0BD13B68022B08D03B68CC
:10337000032B05D03B68042B02D03B68052B00D102
:1033800000BF7B681B7A032B0BD13B680C2B08D04A
:103390003B680D2B05D03B680E2B02D03B680F2BF2
:1033A00000D100BF7B681B7A032B0BD13B68002B3D
:1033B00008D03B68012B05D03B68022B02D03B684C
:1033C000032B00D100BF394B9A6B3B685B00032194
:1033D00001FA03F3DB431340FB607B681B7A1A4658
:1033E0003B685B0002FA03F3FA681343FB602F4B60
:1033F000FA689A633B68D8B27B68D97B7B681A7C91
:103400007B685B7C00F05AF828497B685B7B5A0438
:103410007B689B7B9B041A437B689B8A1A437B686F
:10342000DB8A1A437B685B681A437B685B7ADB0440
:103430001A433B682C331B010B445A601B497B68C1
:10344000DA697B689B7A5B041A437B681B7B9B046D
:103450001A437B68DB7ADB041A433B681B010B448D
:1034600003F532731A603B68D9B27B685A8A7B686D
:103470001B8B084611461A4600F03CF87B689B7887
:103480000B4839681A46FFF7BDFD7B685B78094831
:1034900039681A46FFF7B6FD7B681B78064839681D
:1034A0001A46FFF7AFFD1037BD4680BD00C008408B
:1034B0004CC0084054C0084018C0084080B483B0D5
:1034C00000AFF871B9717A713B710949FB79B8792C
:1034D0007A79920110433A79520302432C331B014B
:1034E0000B441A600C37BD465DF8047B704700BF83
:1034F00000C0084080B485B000AF13460246FA71A0
:103500000A46BA807B80184AFB792C331B0113448E
:103510005B6823F47F6323F00F03FB60BB88FA68CA
:103520001343FB60104AFB792C331B011344FA68E8
:103530005A600D4AFB791B01134403F532731B6873
:103540001B0C1B04FB607B88FA681343FB60064A74
:10355000FB791B01134403F53273FA681A601437C0
:10356000BD465DF8047B704700C0084080B483B05E
:1035700000AF7860044B7A6802F00F021A630C37D0
:10358000BD465DF8047B704700C0084080B400AFC2
:1035900000BF0A4B1B6D03F02003002BF9D1074B32
:1035A00001225A6100BF054B1B6D03F02003002B65
:1035B000F9D1BD465DF8047B704700BF00C00840EC
:1035C00080B400AF00BF0A4B1B6D03F02003002B3B
:1035D000F9D1074B02225A6100BF054B1B6D03F066
:1035E0002003002BF9D1BD465DF8047B704700BF76
:1035F00000C0084080B400AF00BF0A4B1B6D03F051
:103600002003002BF9D1074B08225A6100BF054B5C
:103610001B6D03F02003002BF9D1BD465DF8047B40
:10362000704700BF00C0084080B483B000AF374B84
:103630000022DA64354B364A5A64344B334AD26836
:1036400042F00102DA6000BF304B1B6D03F0200333
:10365000002BF9D12D4B0A225A612C4B00221A6003
:103660002A4B00229A60294B0022DA60274B002265
:103670001A61264B00229A61244B00229A63234B45
:103680000022DA63214B00225A6500237B6018E098
:103690001E4A7B682C331B01134400221A601B4A0C
:1036A0007B682C331B01134400225A60174A7B6845
:1036B0001B01134403F5327300221A607B68013347
:1036C0007B607B680F2BE3D900237B600FE00F4BFF
:1036D0007A684032002143F832100C4A7B6840334C
:1036E000DB00134400225A607B6801337B607B68F7
:1036F0000F2BECD900BF054B1B6D03F02003002BF3
:10370000F9D10C37BD465DF8047B704700C0084016
:10371000FFFF7F0080B485B000AF7860194B5B6914
:10372000DBB203F00F03DBB29B00FB73154B1B698D
:1037300003F0C0039B09DAB2FB7B1343FB737B6886
:10374000FA7B9A700F4B1B69DBB203F03F03DAB2CE
:103750007B685A700B4B9B69DBB223F00F03FB7342
:10376000084BDB6903F0F0031B09DAB2FB7B134360
:10377000FB737B68FA7B1A701437BD465DF8047BD7
:10378000704700BFD0FF0FE0064880470649074A50
:10379000074B9A42BEBF51F8040B42F8040BF8E7FE
:1037A000FCF7C8FC35390000E041000000000020B3
:1037B000B8000020FEE700BF80B400AF044BDB6C14
:1037C0001B0EDBB21846BD465DF8047B704700BF98
:1037D000B081E00F80B582B000AF00F01FF87860D4
:1037E000074B5B6803F00F037A6822FA03F37B60F0
:1037F000044B7A681A607B6818460837BD4680BD5E
:1038000000800C405001002080B400AF024B1846ED
:10381000BD465DF8047B7047006CDC0280B582B069
:1038200000AF334BDB6A03F47053B3F5805F0AD00B
:10383000B3F5005F03D0B3F5006F08D00BE02D4B5C
:103840001B687B6047E04FF400437B6043E02A4BFA
:103850001B687B603FE0264BDB6803F4E063B3F555
:10386000007F1BD0B3F5007F05D8002B24D0B3F523
:10387000807F16D02BE0B3F5806F09D0B3F5A06F31
:1038800003D0B3F5407F06D021E01C4B7B6021E0E4
:103890001B4B7B601EE01B4B7B601BE01A4B7B606D
:1038A00018E0FFF789FF0346122B02D9174B7B6004
:1038B00010E0174B7B600DE0FFF77EFF0346122BF5
:1038C00002D9144B7B6005E0134B7B6002E00023C0
:1038D0007B6000BF00BF064B1B6803F4E0339B0B0B
:1038E00001337A68B2FBF3F318460837BD4680BD52
:1038F00000800C404800002044000020003FAB0145
:10390000406F4001809FD500C0D8A70040B564003B
:10391000C0CF6A00804F120040420F0080B400AF59
:10392000034B1B681846BD465DF8047B704700BF1B
:103930004400002080B400AFBD465DF8047B7047B2
:1039400080B400AF4FF400431846BD465DF8047BD9
:10395000704700BF80B400AF4FF47A731846BD467D
:103960005DF8047B704700BF80B400AF034B1B6859
:103970001846BD465DF8047B704700BF4800002034
:103980000028B8BF4042704708B5074B044613B142
:103990000021AFF30080054B1868836A03B1984794
:1039A000204600F03BF800BF00000000D0410000BE
:1039B00070B50E4B0E4D0024ED1AAD101E46AC42F4
:1039C00004D056F8242090470134F8E700F028F896
:1039D000084D094B0024ED1AAD101E46AC4204D030
:1039E00056F8242090470134F8E770BDAC00002061
:1039F000AC000020B0000020AC00002002440346D0
:103A0000934202D003F8011BFAE77047034613F80C
:103A1000012B002AFBD1181A01387047FEE700BFBE
:103A2000F8B500BFF8BC08BC9E467047F8B500BFAB
:103A3000F8BC08BC9E467047000000000000000073
:103A40000101010100000000FF000000FF00000074
:103A5000FF000000FF000000FF000000FF0000006A
:103A600000000000090000000A0000000B00000038
:103A70000C00000000000000070000000707000025
:103A80003D000000000000000000000000000001F8
:103A90000000000000000000000000000000000026
:103AA000000000000000000000000400020200000E
:103AB0000000000000000000000000000001000005
:103AC00000000100010203000000000000000000EF
:103AD00000000000000000000000000000000000E6
:103AE00000000000000000000000000000000000D6
:103AF00000000000000000000000000000000000C6
:103B000000000000000000000000000000000000B5
:103B100000000000000000000000000000000000A5
:103B20000000000000000000000000000000000095
:103B30000000000000000000000000000000000085
:103B40000000000000000000000000000000000075
:103B50000000000000000000000000000000000065
:103B60000000000000000000000000000000000055
:103B70000000000000000000000000000000000045
:103B80000000000000000000000000000000000035
:103B90000000000000000000000000000000000025
:103BA0000000000000000000000000000000000015
:103BB0000000000000000000000000000000000005
:103BC00000000000000000000101010000000000F2
:103BD000000000000100000001003700000000208C
:103BE0000E000000000000000101010000000000C4
:103BF000000000000100000001003700000000206C
:103C00000E000000000000000101010000000000A3
:103C1000000000000100000001003700000000204B
:103C20000E00000000000000010101000000000083
:103C3000000000000100000001003700000000202B
:103C40000E00000000000000000000000000000066
:103C50000000000000000000000000000000000064
:103C60000000000000000000000000000000000054
:103C70000000000000000000000000000000000044
:103C80000000000000000000000000000000000034
:103C90000000000000000000000000000000000024
:103CA0000000000000000000000000000000000014
:103CB0000000000000000000000000000000000004
:103CC00000000000000000000000000000000000F4
:103CD00000000000000000000000000000000000E4
:103CE00000000000000000000000000000000000D4
:103CF00000000000000000000000000000000000C4
:103D000000000000000000000000000000000000B3
:103D100000000000000000000000000000000000A3
:103D20000000000000000000000000000000000093
:103D30000000000000000000000000000000000083
:103D40000000000000000000000000000000000073
:103D50000000000000000000000000000000000063
:103D60000000000000000000000000000000000053
:103D70000000000000000000000000000000000043
:103D80000000000000000000000000000000000033
:103D90000000000000000000000000000000000023
:103DA0000000000000000000000000000000000013
:103DB0000000000000000000000000000000000003
:103DC00000000000000000000101000000000000F1
:103DD00000000000010000000F003700000000207C
:103DE00000000000000000000101000000000000D1
:103DF00000000000010000000F003700000000205C
:103E000000000000000000000101000000000000B0
:103E100000000000010000000F003700000000203B
:103E20000000000000000000010100000000000090
:103E300000000000010000000F003700000000201B
:103E40000000000000000000000000000000000072
:103E50000000000000000000000000000000000062
:103E60000000000000000000000000000000000052
:103E70000000000000000000000000000000000042
:103E80000000000000000000000000000000000032
:103E90000000000000000000000000000000000022
:103EA0000000000000000000000000000000000012
:103EB0000000000000000000000000000000000002
:103EC0000000000000000000504153535744000020
:103ED0005645524946494544000000000101050786
:103EE000070304020302040605060D0E0E0E0D0D57
:103EF0000D0D0E0E0E0E0D0D010105070703040238
:103F00000302040605060F1010100F0F0F0F1010FC
:103F100010100F0F01010507070304020302040636
:103F20000506111212121111111112121212111191
:103F30000101050707030402030204060506131C1A
:103F40001C1C131313131C1C1C1C1313000105074A
:103F5000060203010302040604051D1E1E1E1D1D8C
:103F60001D1D1E1E1E1E1D1D00010507060203014C
:103F70000302040604051F2020201F1F1F1F2020EE
:103F800020201F1F01010507070304020302040686
:103F90000506212222222121212122222222212141
:103FA00007050201030604232323232323230705F4
:103FB00002010306042424242424242407050201E6
:103FC00003060425252525252525070502010306C9
:103FD000042626262626262600010702062727274E
:103FE00027270000000000000000131211100F0E20
:103FF0000D0C000000002125242601010304040209
:1040000003020D0E0D0D0E0D0E0E01010304040230
:1040100003020F100F0F100F101001010304040210
:1040200003021112111112111212010103040402F0
:104030000302131C13131C131C1C000102030401B4
:1040400003021D1E1D1D1E1D1E1E00010203040174
:1040500003021F201F1F201F202001010304040250
:10406000030221222121222122220507070404061E
:1040700005060E0E0D0D0E0E0D0D050707040406A8
:10408000050610100F0F10100F0F05070704040688
:104090000506121211111212111105070704040668
:1040A00005061C1C13131C1C13130507060304062A
:1040B00004051E1E1D1D1E1E1D1D050706030406EC
:1040C000040520201F1F20201F1F050707040406CA
:1040D00005062222212122222121000000000011B8
:1040E00080020000000002060000200039000F00DE
:1040F0000000401500204004001000223F00060090
:104100005B044F0466046D047D0407007F046F04A4
:1041100000000000000A000080200000FFFF77047C
:10412000790A3900B020790071007D047604060018
:104130000E00700A3800B602B6083F0073043F084C
:10414000730C6D0401113E0030223628802A6E0463
:104150000922390080080F000100080000015810F2
:104160007C0458005E04582071040C0C7404040094
:104170000E00700C3800541454045C04730467047B
:104180005004080C78001C0010201428802A0C0809
:10419000482000003F0006005B004F0066006D00F5
:1041A0007D0007007F006F0077007C0039005E0013
:1041B0007900710040000000010000000300400091
:1041C0000C000000000000000000000043000000A0
:0841D0004C000020000000007B
:0841D8005CBFFF7F0100000045
:1041E00001000000010000000100000001000000CB
:1041F00001000000010000000100000001000000BB
:1042000001000000010000000100000001000000AA
:10421000010000000100000001000000010000009A
:1042200001000000006CDC020080000000000000C3
:10423000000000000000000000000000000000007E
:10424000000000000000000000000000CC41000061
:10425000000000000000000000000000000000005E
:10426000000000000000000000000000000000004E
:10427000000000000000000000000000000000003E
:104280000000000000000000000000000501000028
:08429000E10000000000000045
:040000030000378939
:00000001FF
