S0290000424154544552595F494E464F5F53414D4231315F58504C41494E45445F50524F312E737265633C
S3151000800010B5184B184A9A4203D0184B154A9A4283
S3151000801004D3174B174A9A4210D31EE0164B134A35
S315100080200332D21A92080132920000230D480E49EB
S31510008030CC58C45004339342FAD1EAE70F4B0C499B
S315100080400331C91A8908013189000023094C00201F
S315100080501A19106004338B42FAD1094B9847094B11
S31510008060984710BD3C3801103C380110B438011047
S31510008070F0650110B438011040380110B8380110FD
S31510008080311601104DC2001010B5064C2378002B86
S3151000809007D1054B002B02D0044800E000BF012396
S315100080A0237010BDB4380110000000003C380110D8
S315100080B0084B10B5002B03D00749084800E000BF55
S315100080C007480368002B00D110BD064B002BFBD0D0
S315100080D09847F9E700000000B83801103C38011045
S315100080E03C3801100000000010B586B001A80C4BFA
S315100080F098470823029301330493073B0393059390
S31510008100084C01AA08492000084B984722682821E4
S31510008110535CDB07FCD40123137506B010BDC046B3
S3151000812079870010AC530110003000409187001081
S3151000813070B586B005AC014321700023637003A9A6
S3151000814048330B80012048804C6001AD2B806A803B
S315100081500294074E3000074B984729003000064B13
S315100081609847207800026378184306B070BDC04661
S31510008170AC530110D58800107588001010B584B066
S3151000818003AC01432170190A6170A37001A9482339
S315100081900B8001324A804C600248034B984704B06A
S315100081A010BDC046AC530110A588001070B5040070
S315100081B00300012200210120034DA8476404A40FE7
S315100081C0024B1C7070BDC0467D810010D038011066
S315100081D0F8B5022200210020214B98470300012701
S315100081E0020402D54004430C023F1E4A1678012EA3
S315100081F011D0002E04D0022E18D0032E22D02CE03F
S31510008200DB099DB238006843174B98470022174B7D
S31510008210174CA04723E09B099CB238006043124BD1
S3151000822098470022134B124CA04718E05B0999B2ED
S31510008230380048430C4B98470022FF239B050C4CF3
S31510008240A0470CE01B099AB238005043064B9847DA
S315100082500022094B064CA04701E000200021F8BD82
S3151000826031810010D03801107D0F01100000E03F61
S31510008270750301100000D03F0000B03FF0B547462F
S3151000828080B482B080231B013A4AD45C00260F23A7
S315100082901C400194384B98460125019A002100E0B4
S315100082A0190052084B1CDBB2002AF9D1890043464B
S315100082B0C85803781B02314A9C58E1B2304A9A5882
S315100082C08262FF222240154203D0002625228654C0
S315100082D02FE0970704D51026252286542E0028E075
S315100082E0570704D51026252286540E3E21E017077F
S315100082F004D51026252286540D3E1AE0D70604D53D
S315100083001026252286540C3E13E0970604D5102617
S31510008310252286540B3E0CE0520604D51026252243
S3151000832086540A3E05E0220603D5102625228654D9
S31510008330093E00290ED013492A00B2405A50242370
S31510008340C35C33411D4205D0B300C3185B68002BD4
S3151000835000D098472B00B3409C4363B2002B9CD1AE
S31510008360802109028133FF33074AD15002B004BC81
S315100083709046F0BD00200040D4380110AC200040DB
S3151000838050200040A420004000E100E001220270CD
S31510008390427082700023C370037143718371C3717D
S315100083A0037242728272C272037343738373C3730E
S315100083B0037443748374C3747047C04610B5252381
S315100083C0C35CDBB2052B42D0C26A002A07D0032356
S315100083D0D4689C4323000324002B1FD12DE0C162D7
S315100083E003781B021B4A944663440A681A60037892
S315100083F01B02194A944663444A681A608A680378CD
S315100084001B0216498C4663441A6003781B02144AF1
S315100084109446634403221A60002318E0D268D36896
S31510008420A343FBD1D1600323CA689A430023002AD1
S315100084300DD00333CB60002309E003781B020848F4
S315100084408446634403200C0084431C60EAE718004A
S3151000845010BDC04600200040042000400820004007
S315100084600C20004082B002002523C35CD8B2052838
S3151000847027D0D36A9B681720002B22D013781B02B3
S315100084801149595801910198104958502423D35C29
S315100084900193019913781B020D48844663441960B1
S315100084A005212523D15413781B020A498C466344AF
S315100084B00121196013781B02074A94466344196018
S315100084C0002002B07047C046AC200040A4200040F7
S315100084D0A82000404020004044200040F8B5040089
S315100084E00D00624B1B78002B12D14320604B98472E
S315100084F06049CC228858604B0340802040050343D6
S315100085008B505E491F205E4B98470122574B1A70BD
S31510008510564B5A68D30700D5A2E002E011420ED19D
S3151000852000E00023514A50680121994001435160EF
S31510008530117A013911721420FF2B07D194E05208D9
S315100085400133DBB2052BE9D114208DE023701B0219
S315100085504C4A944663442A787F263240A978C90744
S315100085600A4369780904FC20800301400A431A6013
S3151000857023781B02444A944663446A7A3240E97A65
S31510008580C9070A43A97A09040840104318602378DA
S315100085901B023E4A94466344EA7C1207C0218905B1
S315100085A00A40A97C09040A431A6023781B02384A38
S315100085B0944663442F793F02E021C9003A000A40ED
S315100085C02E7B3604F8204003064032431700E87825
S315100085D01F2202403E0016436A7B1206E020C004AA
S315100085E0024032431A60207800022A4B9C466044AF
S315100085F0AB79072633406E790822B2401343EE79E1
S315100086008022B2401343AE7B80221201B240134344
S315100086102E7C80221202B24013431E002A7A1201C7
S3151000862070231A4033001343EA7B120211400B43A6
S31510008630697C0903E022D20111400B430360231D1C
S3151000864021002431002204C38B42FCD100232422B2
S31510008650A354E36223789B000F4A9C50002003E04A
S3151000866052080123012159E7F8BDC0463C380110D4
S315100086704195001000B00040FFFFFFE07D82001022
S31510008680A999001010200040142000401820004026
S315100086902020004038280040D4380110F0B54F464D
S315100086A04646C0B481464D881723002D2FD0026848
S315100086B02824135DDB07FCD4012334241355143C02
S315100086C013550B885B000224FF3423439BB213809F
S315100086D0002401239846137BDBB24046184206D08D
S315100086E0671C10798446486866460655BCB2AC428B
S315100086F0F1D3DB0603D41021137A0B42FCD04B4680
S3151000870059790023002902D12033D15400231800AF
S315100087100CBC90469946F0BDF0B5844602684E886A
S315100087202824135DDB07FCD4012334241355143C91
S3151000873013550B885B00E03423439BB2138000244F
S315100087400125137ADBB21D4204D0671C4868045D0C
S315100087501480BCB2B442F4D3DB0603D41021137ACE
S315100087600B42FCD063465B79002B02D100212033EB
S31510008770D1540020F0BDC046032303700D3343804F
S31510008780083B43600133C360073B83600361704756
S31510008790F8B5040015000160002856D0002A56D0FE
S315100087A028228B5CDB07FCD400230B752368294A2F
S315100087B0934203D10320284B984706E01720274AF7
S315100087C0934245D10230244B984700232374637497
S315100087D06382A38200226277A361214B1C60236807
S315100087E01C4A93420FD11F4F390018201E4EB04716
S315100087F039001920B0471D4B802252001A600132F1
S31510008800FF321A6011E0154A93420ED1154F390006
S315100088101A20154EB04739001B20B047134B802243
S31510008820D2001A60802212011A60246829892879D8
S315100088300F4EB047298A287BB0472B7823746B8854
S31510008840238301232377002002E0172000E017205E
S31510008850F8BDC0460030004041950010003400407D
S31510008860CC53011005890010A999001000E100E011
S315100088700990001010B500280CD000290CD0828A5F
S3151000888092B20523002A08D100234371044B98475E
S31510008890030002E0172300E01723180010BDC0469E
S315100088A09D86001010B500280CD000290CD0828AA5
S315100088B092B20523002A08D100234371044B98472E
S315100088C0030002E0172300E01723180010BDC0466E
S315100088D01987001010B500280CD000290CD0828AF8
S315100088E092B20523002A08D1043B4371044B9847E2
S315100088F0030002E0172300E01723180010BDC0463E
S315100089001987001070B582B0574B1C682668637CB7
S31510008910257C1D40638A9BB2002B07D1A38A9BB28C
S31510008920002B03D0A38A9BB263824EE0638A9BB26C
S31510008930002B19D0A38A9BB2002B15D1637F052B70
S3151000894012D1237F002B0FD12C22B354638263776D
S315100089506379002B02D100222033F254EB0734D571
S31510008960A3682000984730E0638A9BB2002B2CD076
S31510008970A38A9BB2002B28D0237F002B17D1638AA2
S31510008980A28A9B1A9BB26A46D380A38A013B9BB2EA
S31510008990A382D388A269944663441B783380A38A42
S315100089A09BB2002B11D110222C33F2540DE0638AA6
S315100089B0A18AA28A013A92B2A2825B1A9BB2A269DA
S315100089C0944663443279D2B21A70638A9BB2002BF2
S315100089D01CD0A38A9BB2002B18D1637F052B15D10F
S315100089E0237F012B12D100233022B3546382637785
S315100089F06379002B02D100222033F254AB0705D540
S31510008A00237F012B02D1E36820009847237F012B97
S31510008A1014D12368154A934206D180214900C023F8
S31510008A205B00134AD1501DE0124A93421AD180219D
S31510008A30C900C0235B000E4AD15013E023680B4ACD
S31510008A40934206D180218900C0235B00084AD15089
S31510008A5008E0084A934205D180210901C0235B0032
S31510008A60034AD15002B070BDCC5301100030004003
S31510008A7000E100E000340040012303704370FA2344
S31510008A80DB0143607047C046064B00225A601A68E5
S31510008A9003218A431A6019008022D2010B681342FF
S31510008AA0FCD1704700D00040024B18684000C00F40
S31510008AB07047C04600D00040024A116810230B438D
S31510008AC01360704700D0004010B5044B9847044B14
S31510008AD01B68002B00D0984710BDC046B98A0010FD
S31510008AE0E8380110014B18607047C046E83801108D
S31510008AF00022014B1A607047E8380110F0B583B0B8
S31510008B0000222B4B1A730378022B05D1284A117BAE
S31510008B1001330B43137305E0012B03D1244A117B58
S31510008B200B431373234B1A6853001FD0214D002794
S31510008B302C26FF368021C9012F6001970197019BD2
S31510008B40B34206D8C046019B01330193019BB34241
S31510008B50F8D944780B00002C03D180239B0000E049
S31510008B602A681342FCD12A685300E5D14378002BBA
S31510008B7005D1104B42685A6001221A6004E00D4B71
S31510008B8042685A6002221A604378012B09D10949BA
S31510008B90E022D2010B6813409342FBD10022054B11
S31510008BA01A6005492B20054B984703B0F0BDC04607
S31510008BB000E0004000D00040C98A0010A9990010BA
S31510008BC010B50D4B1B7D002B07D001220A4B1A73D3
S31510008BD00A4B1B68002B00D098473423064AD35CF7
S31510008BE0002B07D001212C23D154054B1B68002BD9
S31510008BF000D0984710BDC04600100040EC38011058
S31510008C00F03801100123037003730222427042737D
S31510008C10837083730022C270C273037103748260FF
S31510008C20426102767047C046002807D1002902D15A
S31510008C30064B1A6009E0054B9A6106E0002902D13D
S31510008C40024B1A6201E0014B9A6370470010004014
S31510008C50002805D1064A117A80230B43137205E0CA
S31510008C6003492822885C802303438B547047C046EF
S31510008C7000100040002805D1064A117A7F230B40C8
S31510008C80137205E003492822885C7F2303408B5426
S31510008C907047C0460010004070B504000420394BE0
S31510008CA098472378002B02D1237B002B65D03649B9
S31510008CB0CA6820231343CB60227E8B6903200240AF
S31510008CC012012D30834313438B612378002B26D05A
S31510008CD063780121002B03D0023B5D425D41A9015F
S31510008CE0A278520002252A40E3789B000A352B40D1
S31510008CF01A4315000D432379002B01D020231D4361
S31510008D00224BA2681A601D721F49C4225200885C49
S31510008D10012303438B5400201D4B984700E0002588
S31510008D20237B002B29D0637B002B05D0012B05D08C
S31510008D30022B04D1402502E0012500E00025A37B8B
S31510008D405B0002211940E27B92000C2313400B4377
S31510008D501D43237C002B01D020231D4362690B4B3E
S31510008D601A6228229D5408496132FF32885C022318
S31510008D7003438B540120064B984706491E20064B89
S31510008D80984770BD4195001000B00040001000409B
S31510008D90518C0010C18B0010A9990010002802D127
S31510008DA0024B196001E0024B19607047EC38011054
S31510008DB0F038011000230370012242708370C370D3
S31510008DC07047C04670B51723012800D8C8E0072899
S31510008DD009D8644D6A6C103B03409B0007249C40E5
S31510008DE0A2436A6429E00F2809D85E4DAA6C0723AE
S31510008DF003409B0007249C40A243AA641DE0172849
S31510008E0009D8584DEA6C072303409B0007249C4061
S31510008E10A243EA6411E003002C3B032B0DD8524DFC
S31510008E208224E4002A5D120701269E40120F2B5D54
S31510008E30B2430F26B34313432B5503001D3B022B9E
S31510008E4029D84B78012B08D1474D2B7D1F24241A86
S31510008E500122A24093432B7508E0434C257D1F2227
S31510008E60121A012393402B43DBB22375CA780023D1
S31510008E70002A75D03C490C881F22101A8000013335
S31510008E80834023439BB20B80384A117802230B434D
S31510008E901370002364E00A78002A40D10F2808D8FE
S31510008EA0012383409BB2324A938200231F2857D84E
S31510008EB012E01F2807D80F220240012393409BB2CD
S31510008EC02C4A938208E00F2318400E3B83409BB236
S31510008ED0294A9382002343E04B78012B0CD0002BB8
S31510008EE002D0022B10D03AE01E490A6D01238340AE
S31510008EF013430B65002333E01A490B6D01228240A0
S31510008F0093430B6500232BE0164B596D01228240CB
S31510008F1011435965196D91431965002320E000230B
S31510008F20012A1DD10F2806D8013383409BB2104A5F
S31510008F301382002314E01F2808D80F2318400E3B75
S31510008F4083409BB20B4A1382002309E00F2318407B
S31510008F500E3B83409BB2084A1382002300E017237E
S31510008F60180070BD00B0004000F0004000E0004066
S31510008F7000000140001001400030014010B50F28DC
S31510008F8010D8002907D01D4A9188012383400B432E
S31510008F909BB2938031E019498B880122824093431A
S31510008FA08B802AE01F2814D8002909D014498C88F0
S31510008FB00F2210400123834023439BB28B801CE079
S31510008FC00F498B880F2210400E3A824093438B80B4
S31510008FD013E0002909D00B498C880F221040012379
S31510008FE0834023439BB28B8007E006498B880F2270
S31510008FF010400E3A824093438B8010BD0000014012
S31510009000001001400030014070B50D0AFF231940D1
S31510009010072833D84E4A546CF83B03409B0007266A
S315100090209E40B4435464546C0E009E403300234358
S315100090305364012900D08AE003280FD81100D022EA
S3151000904052008C5803231840C0003C3383409C4385
S315100090508C508B5885401D438D5078E03C49D22268
S3151000906052008C5803231840C0003C3383409C4365
S315100090708C508B5885401D438D5068E00F2832D890
S31510009080334A946C072303409B0007269E40B44343
S315100090909464946C0E009E4033002343936401291C
S315100090A055D10B280FD81100D42252008C58032307
S315100090B01840C0003C3383409C438C508B588540ED
S315100090C01D438D5043E02249D62252008C5803236B
S315100090D01840C0003C3383409C438C508B588540CD
S315100090E01D438D5033E0172831D8194AD46C072305
S315100090F003409B0007269E40B443D464D46C0E00F4
S315100091009E4033002343D364012920D113280FD85E
S315100091101100D82252008C5803231840C0003C334B
S3151000912083409C438C508B5885401D438D500EE0D8
S31510009130074ADA235B00D15803242040C0003C3490
S315100091408440A143D150D15885400D43D55070BDB0
S3151000915000B0004001280DD0002802D002281CD0F3
S315100091602EE0184A90690C2303439361164A174B55
S315100091701A601AE0134B9869082202439A619A6999
S31510009180042082439A61124A5368802000030343E5
S315100091905360104A0D4B1A6007E00A4A93690C2077
S315100091A083439361084A094B1A60064B9A69032058
S315100091B082439A619A69014011439961002000E047
S315100091C01720704700B0004080BA8C01D0530110B0
S315100091D000F0004080841E00014B18687047C0469E
S315100091E0D053011000B5352800D9A2E18000D24B2A
S315100091F01B589F46D14AD16802230B43D3600020E7
S3151000920098E1CE4AD16804230B43D360002091E144
S31510009210CA4AD16808230B43D36000208AE1C74AA3
S31510009220D16810230B43D360002083E1C34AD16871
S3151000923020230B43D36000207CE1C04AD1688023F1
S315100092400B43D360002075E1BC4AD36880214900E6
S315100092500B43D36000206DE1B84AD3688021090121
S315100092600B43D360002065E1B44AD36880214901DD
S315100092700B43D36000205DE1B04AD3688021890199
S315100092800B43D360002055E1AC4AD3688021C90155
S315100092900B43D36000204DE1A84AD3688021090210
S315100092A00B43D360002045E1A44AD36880214902CC
S315100092B00B43D36000203DE1A04AD3688021890288
S315100092C00B43D360002035E19C4AD3688021C90244
S315100092D00B43D36000202DE1984AD36880210903FF
S315100092E00B43D360002025E1944AD36880214903BB
S315100092F00B43D36000201DE1904AD3688021890377
S315100093000B43D360002015E18C4AD3688021C90332
S315100093100B43D36000200DE1884AD36880210904ED
S315100093200B43D360002005E1844AD36880214904A9
S315100093300B43D3600020FDE0804AD3688021890466
S315100093400B43D3600020F5E07C4AD3688021C90422
S315100093500B43D3600020EDE0784AD36880210905DD
S315100093600B43D3600020E5E0744AD3688021490599
S315100093700B43D3600020DDE0704AD3688021890555
S315100093800B43D3600020D5E06C4AD3688021C90511
S315100093900B43D3600020CDE0684A116901230B43CB
S315100093A013610020C6E0654A116902230B4313615D
S315100093B00020BFE0614A116904230B4313610020AA
S315100093C0B8E05E4A116908230B4313610020B1E02F
S315100093D05A4A116910230B4313610020AAE0574A19
S315100093E0116920230B4313610020A3E0534A11692E
S315100093F040230B43136100209CE0504A11698023DF
S315100094000B431361002095E04C4A136980214900F3
S315100094100B43136100208DE0484A136980218900AF
S315100094200B431361002085E0444A13698021C9006B
S315100094300B43136100207DE0404A13698021090126
S315100094400B431361002075E03C4A136980214901E2
S315100094500B43136100206DE0384A1369802189019E
S315100094600B431361002065E0344A13698021C9015A
S315100094700B43136100205DE0304A13698021090215
S315100094800B431361002055E02C4A136980214902D1
S315100094900B43136100204DE0284A1369802189028D
S315100094A00B431361002045E0244A13698021C90249
S315100094B00B43136100203DE0204A13698021090304
S315100094C00B431361002035E01C4A136980214903C0
S315100094D00B43136100202DE0184A1369802189037C
S315100094E00B431361002025E0144A13698021C90338
S315100094F00B43136100201DE0104A136980210904F3
S315100095000B431361002015E00C4A117D01230B4318
S31510009510137500200EE0094A117D02230B431375C3
S31510009520002007E0054A117D04230B431375002024
S3151000953000E0172000BDC046D028011000B0004042
S3151000954000B5432800D923E28000E04B1B589F4604
S31510009550DF4B596802229143596059680A435A6091
S31510009560002016E2DA4B5968042291435960596873
S315100095700A435A6000200CE2D54B596808229143E1
S31510009580596059680A435A60002002E2D04B596864
S3151000959010229143596059680A435A600020F8E135
S315100095A0CB4B596820229143596059680A435A6037
S315100095B00020EEE1C64B5968402291435960596824
S315100095C00A435A600020E4E1C14B59688022914356
S315100095D0596059680A435A600020DAE1BC4B596851
S315100095E0BC4A0A405A605A68802149000A435A60A8
S315100095F00020CEE1B64B5968B74A0A405A605A68FD
S31510009600802189000A435A600020C2E1B04B596894
S31510009610B24A0A405A605A688021C9000A435A6001
S315100096200020B6E1AA4B5968AD4A0A405A605A68FA
S31510009630802109010A435A600020AAE1A44B596807
S31510009640A84A0A405A605A68802149010A435A605A
S3151000965000209EE19E4B5968A34A0A405A605A68F8
S31510009660802189010A435A60002092E1984B59687B
S315100096709E4A0A405A605A688021C9010A435A60B4
S31510009680002086E1924B5968994A0A405A605A68F6
S31510009690802109020A435A6000207AE18C4B5968EE
S315100096A0944A0A405A605A68802149020A435A600D
S315100096B000206EE1864B59688F4A0A405A605A68F4
S315100096C0802189020A435A60002062E1804B596862
S315100096D08A4A0A405A605A688021C9020A435A6067
S315100096E0002056E17A4B5968854A0A405A605A68F2
S315100096F0802109030A435A6000204AE1744B5968D5
S31510009700804A0A405A605A68802149030A435A60BF
S3151000971000203EE16E4B59687B4A0A405A605A68EF
S31510009720802189030A435A60002032E1684B596848
S31510009730764A0A405A605A688021C9030A435A6019
S31510009740002026E1624B5968714A0A405A605A68ED
S31510009750802109040A435A6000201AE15C4B5968BB
S315100097606C4A0A405A605A68802149040A435A6072
S3151000977000200EE1564B5968674A0A405A605A68EB
S31510009780802189040A435A60002002E1504B59682F
S31510009790624A0A405A605A688021C9040A435A60CC
S315100097A00020F6E04A4B59685D4A0A405A605A68EA
S315100097B0802109050A435A600020EAE0444B5968A3
S315100097C0584A0A405A605A68802149050A435A6025
S315100097D00020DEE03E4B5968534A0A405A605A68E8
S315100097E0802189050A435A600020D2E0384B596817
S315100097F04E4A0A405A605A688021C9050A435A607F
S315100098000020C6E0324A53685B005B085360536819
S31510009810802109060B4353600020BAE02C4B1A89AD
S3151000982001218A431A81198901220A431A810020CB
S31510009830AFE0274B1A8902218A431A81198902221D
S315100098400A431A810020A4E0214B1A8904218A4375
S315100098501A81198904220A431A81002099E01C4BA7
S315100098601A8908218A431A81198908220A431A81FA
S3151000987000208EE0164B1A8910218A431A81198905
S3151000988010220A431A81002083E0114B1A892021E5
S315100098908A431A81198920220A431A81002078E006
S315100098A00B4B1A8940218A431A81198940220A438F
S315100098B01A8100206DE0064B1A8980218A431A818D
S315100098C0198980220A431A81002062E0A829011012
S315100098D000B00040FFFEFFFFFFFDFFFFFFFBFFFF95
S315100098E0FFF7FFFFFFEFFFFFFFDFFFFFFFBFFFFFEA
S315100098F0FF7FFFFFFFFFFEFFFFFFFDFFFFFFFBFFE9
S31510009900FFFFF7FFFFFFEFFFFFFFDFFFFFFFBFFFC9
S31510009910FFFF7FFFFFFFFFFEFFFFFFFDFFFFFFFBC8
S31510009920FFFFFFF7FFFFFFEFFFFFFFDFFFFFFFBFA9
S31510009930184B1989184A0A401A811989802252002F
S315100099400A431A81002024E0124B1989134A0A404F
S315100099501A811989802292000A431A81002018E080
S315100099600C4B19890E4A0A401A8119898022D20095
S315100099700A431A8100200CE0064B1989094A0A404D
S315100099801A811989802212010A431A81002000E0E7
S31510009990172000BD00B00040FFFEFFFFFFFDFFFFD8
S315100099A0FFFBFFFFFFF7FFFF8023DB049C466044AD
S315100099B0800001607047C04670B5204B1C68236854
S315100099C01D7DEDB26A0613D51E212222A1541A7EE0
S315100099D023318A431A762123E35C1B0706D52023FD
S315100099E0E35C1B0702D520002369984723681B7C7C
S315100099F0EB0722D523681B7CDBB26269137063699F
S31510009A0001336361A38B013B9BB2A383A38B9BB2F0
S31510009A10002B12D12133E35C5B070ED52023E35CC8
S31510009A205B070AD500222223E2542268137E012105
S31510009A308B431376E3682000984770BDD45301100A
S31510009A4070B5214B1C6823681D79EDB2EA0717D54E
S31510009A50A2691178C9B20132A2611970E38B013B78
S31510009A609BB2E383E38B9BB2002B09D12268137A56
S31510009A7001218B4313722268117A10230B43137240
S31510009A80EB0612D52123E35CDB070ED52023E35C1E
S31510009A90DB070AD500222223E2542268137A10210A
S31510009AA08B431372200063689847AB060AD52123AF
S31510009AB0E35C9B0706D52023E35C9B0702D5A368CE
S31510009AC02000984770BDC046D453011070B5204B86
S31510009AD05C6823681D7DEDB26A0613D51E2122220D
S31510009AE0A1541A7E23318A431A762123E35C1B077D
S31510009AF006D52023E35C1B0702D52000236998476F
S31510009B0023681B7CEB0722D523681B7CDBB26269BA
S31510009B101370636901336361A38B013B9BB2A3830B
S31510009B20A38B9BB2002B12D12133E35C5B070ED5BE
S31510009B302023E35C5B070AD500222223E254226825
S31510009B40137E01218B431376E3682000984770BD7E
S31510009B50D453011070B5214B5C6823681D79EDB2A2
S31510009B60EA0717D5A2691178C9B20132A261197034
S31510009B70E38B013B9BB2E383E38B9BB2002B09D1B2
S31510009B802268137A01218B4313722268117A1023EB
S31510009B900B431372EB0612D52123E35CDB070ED5BC
S31510009BA02023E35CDB070AD500222223E254226835
S31510009BB0137A10218B431372200063689847AB0603
S31510009BC00AD52123E35C9B0706D52023E35C9B077C
S31510009BD002D5A3682000984770BDC046D453011023
S31510009BE0E1235B0203600023037143718371C37128
S31510009BF0023383600322C260013202610132426184
S31510009C008361C361036243627047C046F8B54F462D
S31510009C104646C0B405001700016000234360836008
S31510009C20C36003614361836100228383C38320334E
S31510009C30C2540133C2540133C254554B994218D100
S31510009C400920544CA0470A20A0470920524CA0478F
S31510009C500A20A047514B1D6051491020514CA04776
S31510009C6051491120A047514B01221A6001321A6046
S31510009C701AE04F4B994217D10B20464CA0470C20A7
S31510009C80A0470B20444CA0470C20A047434B5D60D7
S31510009C9048491220434CA04747491320A047434B3D
S31510009CA004221A6004321A60FB7904229046002BB3
S31510009CB052D1023398464FE0318A01CEC0B2C8471E
S31510009CC00134E4B24445F7D32B681A7DD20704D584
S31510009CD001211A7C1A7D0A42FBD1002120229954B7
S31510009CE0FB79591E8B4159013B797A7913430B4302
S31510009CF0BA79022A0DD0D1B2022902D8012A05D08A
S31510009D000FE0032A08D0042A09D00AE002221343DE
S31510009D1007E00622134304E00A22134301E00E2251
S31510009D201343202229688B543E68244B984704001D
S31510009D303100234B984782B20004000C7043201A5E
S31510009D403109884206D900230133DBB2401A884212
S31510009D50FAD807E0002305E03E0008360024194B28
S31510009D609946A9E7002128202C68215401331B07A6
S31510009D705B0FD20013439BB22A6893842B68197623
S31510009D802B68197200200CBC90469946F8BDC04647
S31510009D900040004041950010E5910010D453011089
S31510009DA0B9990010A9990010419A001000E100E03D
S31510009DB000500040CD9A0010559B0010D99100100C
S31510009DC079FC0010099000100268012013790342F3
S31510009DD0FCD011700020704702680120137D0342E9
S31510009DE0FCD0137C0B7000207047C0461723002A46
S31510009DF00DD00B33C35CDBB2052B08D082834161D7
S31510009E0005222223C2540368043A1A760023180046
S31510009E107047C0469300C318596020210123934010
S31510009E20425C13434354704710B5212201238B40E3
S31510009E30845C23438354012904D10268117A2023B8
S31510009E400B43137210BDC04610B501228A4021245F
S31510009E50035D93430355012904D10268137A1F3118
S31510009E608B43137210BDC0460268117A10230B4340
S31510009E7013720368074A934204D102218023064ACB
S31510009E80D15006E0054A934203D108218023024AA5
S31510009E90D15070470040004000E100E00050004003
S31510009EA00268117E01230B4313760368074A934217
S31510009EB004D102218023064AD15006E0054A934276
S31510009EC003D108218023024AD15070470040004038
S31510009ED000E100E000500040F0B5474680B40C00A9
S31510009EE0904600280DD1002A0EDD8F18084E094D18
S31510009EF0306821002B6898470134A742F8D14046B4
S31510009F0003E00120404200E0002004BC9046F0BD72
S31510009F10E4530110DC530110F0B5474680B40E002F
S31510009F2015000138022811D8002A12D000240C4B33
S31510009F3098460C4F43461868315D3B689847002891
S31510009F4009DB0134A542F5D1200006E0012040428C
S31510009F5003E0002001E00120404204BC9046F0BD21
S31510009F60E4530110E05301100300064A1268002A58
S31510009F7002D10549034A1160024A1068C3181360DA
S31510009F807047C046F4380110F06D011001204042B0
S31510009F907047C04680239B014B6000207047C04627
S31510009FA0012070470020704730B5002300224382FD
S31510009FB002700F21417009318170838282751924D4
S31510009FC0C47511340476183C0485114CC4620124FE
S31510009FD00486448622253334055583638387C387D5
S31510009FE0103402550134025501340255023403531C
S31510009FF00234035302340353064B483C1C705A7008
S3151000A000598001221A711022DA80036430BDC046CD
S3151000A01048380110E853011010B582B00100123112
S3151000A0200123019303001433009300230022024CF2
S3151000A030A04702B010BDC046E1DA0010F0B583B0FB
S3151000A04006000F001D006B46D91D0A70B88A012242
S3151000A050124B9847041E08D01148124B98472100FE
S3151000A0601148124B9847200016E0114B1B78002020
S3151000A070002B11D0B98A30000E4B9847041E08D019
S3151000A0800748084B984721000B48084B9847200073
S3151000A09002E000232B70002003B0F0BD01DB00109E
S3151000A0A0B82A0110DD170110BC2A0110BD160110C7
S3151000A0B0F8380110A1DC0010E42A011070B5194C13
S3151000A0C0A54406000C0011001D00174A01A8174BE5
S3151000A0D098474A23E25A01AB5B8800209A421DD169
S3151000A0E001AB1B7A002B15D00122114B1A70A18AD5
S3151000A0F03000104B9847041E08D00F480F4B984756
S3151000A10021000F480F4B9847200007E000232B70C3
S3151000A110002003E00022064B1A70002084239B00C7
S3151000A1209D4470BDF0FDFFFF0A0200009B16011052
S3151000A130F8380110A1DC0010B82A0110DD17011043
S3151000A140E42A0110BD160110002070470020704748
S3151000A150C078002800D0E2207047C0460020704723
S3151000A16010B50078002806D00348044B98470448D9
S3151000A170044B9847E22010BDB82A0110DD170110D4
S3151000A180742C0110BD16011010B50400C0780028FB
S3151000A19008D00548054B9847A27821880448054BF6
S3151000A1A09847E22010BDC046B82A0110DD170110ED
S3151000A1B0882C0110BD160110F8B50400194B9B220E
S3151000A1C092009D180127002618001A00563A118889
S3151000A1D02288914219D11A78052A01D0082A01D16C
S3151000A1E0077012E0072A0FD892000F498A5897462F
S3151000A1F01E700E4A1278002A07D00C4A1278013ABD
S3151000A200D2B20A490A7000E006707C33AB42DBD149
S3151000A2100748084B98472288A1780748074B984764
S3151000A2200020F8BD66540110042B0110745601105D
S3151000A230B82A0110DD170110C02C0110BD1601102F
S3151000A240F8B506000188284B00241A898A4204D1E1
S3151000A2501A005E321278062A2ED00134E4B27C330C
S3151000A260052CF2D139E0204963011A1B92008A1895
S3151000A270157614005E34072323701C481C4B984730
S3151000A2801C481D4B9847E2252BE01848184B984759
S3151000A2901A48194B9847144963011A1B92008A18D9
S3151000A2A010005E3008270770F0781075B2781C1B06
S3151000A2B0A4000C19227614E0B578002DE5D0D2E76B
S3151000A2C00A4E30000A4DA8470C480B4CA0473000E8
S3151000A2D0A8470B48A047E22503E0B578002DC2D168
S3151000A2E0EEE72800F8BDC04608540110B82A011040
S3151000A2F0DD170110F02C0110BD160110042D0110F0
S3151000A300282D011010B50100154B1B78DBB2132B4D
S3151000A31012D8134C2378DBB29800C018C000C318AB
S3151000A320104818182922104B9847237823780133A0
S3151000A330DBB22370002311E00C480D4B98470D48F3
S3151000A3400D4B98470D4B9847E223002806D0074837
S3151000A350074B98470A48084B9847E223180010BD48
S3151000A360E0410110EC5601109B160110B82A01109D
S3151000A370DD170110502D0110BD16011065D3001008
S3151000A380882D0110F8B54F464646C0B405004188E1
S3151000A3903A4B00241A898A4204D11A005E32127886
S3151000A3A0032A62D00134E4B27C33052CF2D12BE0BF
S3151000A3B063011C1BA400314B1C195E342378012B3E
S3151000A3C013D92F482F4B98472F48304B98476888FA
S3151000A3D013212F4B9847061E4BD02948294B9847D7
S3151000A3E02C482A4B9847E22643E0002641E0244EAB
S3151000A3F03000244DA8472848244CA0473000A847D1
S3151000A4002648A047E22634E02B79002BD0D1EEE780
S3151000A4101B481C4B984720481C4B98472A78174BCB
S3151000A420994667013B1B9B004B441A752A791A768D
S3151000A4305E3305221A70381B8000484436302900D6
S3151000A44022310B32164B98469847381B80004844E9
S3151000A4504630290032311722C047381B8000484445
S3151000A4601A30A91D1C22C04703E02E79002ECFD02A
S3151000A4709EE730000CBC90469946F8BD0854011072
S3151000A480B82A0110DD170110A02D0110BD160110FC
S3151000A49085D30010C02D0110DC2D0110082E0110DF
S3151000A4A09B16011010B50088782301220121024C59
S3151000A4B0A047002010BDC046A5D30010F0B55746E2
S3151000A4C04E464546E0B484B004000922002101A896
S3151000A4D06B4B984725886B490A0000231089A842C0
S3151000A4E016D110005E300078022811D165485A0145
S3151000A4F0D61AB60086195E3606223270F932134025
S3151000A5005A01D21A92008218127DD00705D41BE088
S3151000A51001337C32052BE1D11EE0E078002813D000
S3151000A5205901C91A8B005749C9181A312088564B38
S3151000A5309847002800D19DE05448554B98475548F8
S3151000A540554B9847E22095E05A01D31A9B004D4A85
S3151000A550D3185E3302221A702588002200231600B3
S3151000A5600889A8420DD108005E300078022808D16B
S3151000A5705201921B9600434A92195E3203211170C2
S3151000A58005E00133DBB201327C31052BE7D101AA9C
S3151000A59002211172E178917001215170033111700D
S3151000A5A01F005A01D21A92003649525C022A04D16F
S3151000A5B001AA03219171D17103E001AA01219171C0
S3151000A5C0D17101AA1021517111717A01D21B920019
S3151000A5D02C498A18127E402A34D15A01D31A9B006C
S3151000A5E09A461E0060367618554668356D182B4B00
S3151000A5F099460F239846C847434618403070C847B7
S3151000A60043461840B0740136AE42F4D15646703601
S3151000A6101C4AB618214B99460F239846C8474346FD
S3151000A620184028700135B542F8D11C4B98477B016C
S3151000A630DB1B9B00134AD3181A00703210807A3332
S3151000A64010221A707A01D71BBF0060370D4ABA184C
S3151000A6502088002301A9124CA04700280AD001AB7C
S3151000A66000229A705A700948094B98470D480A4BB0
S3151000A6709847E22004B01CBC90469946A246F0BD0D
S3151000A680AD1601100854011069DF0010B82A011028
S3151000A690DD170110382E0110BD160110F11701102B
S3151000A6A07DDD0010502E0110F0B55F4656464D4622
S3151000A6B04446F0B485B083460488494A00210023F5
S3151000A6C01089A0420DD110005E300078022808D102
S3151000A6D04A01521A9500424A52195E3203211170EC
S3151000A6E005E00133DBB201317C32052BE8D101AA3A
S3151000A6F00221117201399170517000211170D170BF
S3151000A7001F005A01D21A92003549525C022A04D10E
S3151000A71001AA03219171D17103E001AA012191715E
S3151000A720D17101AA1021517111717A01D21B9200B7
S3151000A7302B498A18127E402A31D15A01D31A9B000E
S3151000A7409A461D0060356D18544668346418254BBA
S3151000A75099460F26C84730402870C8473040A8741D
S3151000A7600135A542F6D1554670351D4AAD181D4B1B
S3151000A77099460F239846C84743461840207001341F
S3151000A780AC42F8D1174B98477B01DB1B9B00144A50
S3151000A790D3181A00703210807A3310221A707A0188
S3151000A7A0D71BBF0060370E4ABA185B4618880023BD
S3151000A7B001A90D4CA04700280AD001AB00229A70BF
S3151000A7C05A700A480A4B98470A480B4B9847E2209A
S3151000A7D005B03CBC90469946A246AB46F0BDC04675
S3151000A7E008540110F11701107DDD0010B82A011070
S3151000A7F0DD1701107C2E0110BD160110F0B585B0C5
S3151000A800050006223D4902A83D4EB04701AC042280
S3151000A81029002000B047E378002B62D139483A4B23
S3151000A82098473A483A4B984700263A4CFF271E203D
S3151000A830A047C3B2002B1AD1324F3800324EB04760
S3151000A8403548334CA0473800B0473448A0472888CD
S3151000A8501321334B98470300E220002B4CD0294894
S3151000A860294B98472F482A4B9847E22044E01A0074
S3151000A870303A092ADBD802AAB35438402A4B9847F3
S3151000A8800136062E26D0D2E71E481F4B984727487A
S3151000A8901F4B98470024244E02ABE05CB0470134AE
S3151000A8A0062CF9D101AB9978288802AA204B984733
S3151000A8B0002821D01348144B98471E48144B98472C
S3151000A8C0002019E00F48104B98471B48104B98472B
S3151000A8D0002011E00B480C4B984718480C4B984732
S3151000A8E0D8E701AB5A8880235B009A42CCD001ABE3
S3151000A8F09B78012BE6D0002005B0F0BD302C01105E
S3151000A9009B160110B82A0110DD170110A42E011094
S3151000A910BD160110C9B50010CC2E0110D82E01108D
S3151000A92085D30010C02D0110F1160110EC2E011068
S3151000A930ADDE0010242F01103C2F0110582F0110EE
S3151000A940F8B5060005882F4B00220024100019893F
S3151000A950A94216D119005E310978012911D9294960
S3151000A9605201101A800008185E3006230370620127
S3151000A970131B9B00CB1870331A8873889A4213D115
S3151000A98006E00134E4B201327C33052CDED10BE053
S3151000A9906101091B89001B4B59187231301D0822A1
S3151000A9A0194B9847002815D0184F3800184EB04745
S3151000A9B01848194DA8473800B0471848A8476301EA
S3151000A9C01C1BA4000F4B1C1920890521144B9847FA
S3151000A9D0E22016E06201131B9B00603309495B18E5
S3151000A9E0141BA4000C19217D308801220D4CA047A0
S3151000A9F0002806D00548064B98470B48064B984743
S3151000AA000020F8BD085401107D160110B82A011057
S3151000AA10DD1701106C2F0110BD160110A42F0110A7
S3151000AA2085D30010E1DF0010FC2F011030B5002A8D
S3151000AA3047D0062947D88900284B5B589F46284B94
S3151000AA4005240AE0274B012407E0274B052404E0E0
S3151000AA50264B012401E0264B0524002816D119683F
S3151000AA6000290BD106E01D000433181F00680028CA
S3151000AA7006D100E01D002A6001212CE004330021DC
S3151000AA800131C9B2A142EED3002124E000210128F0
S3151000AA9021D119688A420CD106E01D000433181F13
S3151000AAA00068824207D100E01D0000232B600121BF
S3151000AAB011E0043300210131C9B2A142EDD30021C6
S3151000AAC009E0002107E0002105E00A4B0524C4E750
S3151000AAD0094B0124C1E7080030BDC046242B0110E4
S3151000AAE0F4530110F0530110785601102C5C01102C
S3151000AAF08C560110A0560110E8560110F0B55F46AD
S3151000AB0056464D464446F0B491B0050000247E4B9F
S3151000AB101C60072200217D487D4EB047122200217D
S3151000AB207C48B0477C4A00217C48B0477C4B1C705F
S3151000AB30CD22920000217B48B0477B4B1C708322AC
S3151000AB40920000217948B047794B9B468023DB0061
S3151000AB509A461A0000215846B047764B99468023EC
S3151000AB605B0198461A0000214846B047724F1C22D6
S3151000AB7000213800B0475B46BB605346FB604B462E
S3151000AB803B6143467B616D4B1C605C609C60DC6086
S3151000AB901C616B4B1C605C609C60DC601C61694BCB
S3151000ABA01C605C609C60DC601C61674B1C60674BC2
S3151000ABB01C60674B1C605C609C60DC601C61654BB4
S3151000ABC01C60654C9B239B009846A044504F402622
S3151000ABD07C2200212000B84723005E3300221A7021
S3151000ABE026767C34A045F3D15C4B1A70524C4A4BF6
S3151000ABF063604A4B23605A485A4B98475A485B4BF6
S3151000AC00984720005A4B984700280BD0544E3000D6
S3151000AC10544DA8475748554CA0473000A8475648AA
S3151000AC20A047FEE7554A00210020554CA047554A3B
S3151000AC3002210020A04709215348544B9847002869
S3151000AC4005D04748474B98475148484B98470722E5
S3151000AC505049083104A8504B98472622002106A8CF
S3151000AC602B4B9847002D0CD104A84C4B984704AD9C
S3151000AC70002806D03A483B4B984749483B4B9847E3
S3151000AC8004AD3748374B98472B796A79A9792878D4
S3151000AC90039068780290A8780190E878009041486F
S3151000ACA0324CA04706AC0A2323703F4B6380072221
S3151000ACB0290007A8384B98470023E3762377637754
S3151000ACC0A377E3772384638480239B00A3842000E7
S3151000ACD0364B9847002805D02148224B98473448D0
S3151000ACE0224B98472800334B9847002805D01C481C
S3151000ACF01C4B984730481D4B984711B03CBC9046AA
S3151000AD009946A246AB46F0BDDC410110E441011064
S3151000AD10AD160110B4560110E2040000FC3C0110FF
S3151000AD20E0410110EC560110E4560110205A0110B2
S3151000AD30FC380110EC410110C85601108C56011058
S3151000AD40A0560110F4530110E8560110F0530110EB
S3151000AD50785601102C5C011008540110745601101D
S3151000AD60B82A0110DD1701101C300110BD16011094
S3151000AD709DCF001030300110503001108832011074
S3151000AD802DAA00104C2C01108C300110B5CE0010DD
S3151000AD9098300110302C01109B160110E9CE0010CE
S3151000ADA0B0300110C8300110983A00000DCF0010D5
S3151000ADB00031011051D100102431011010B50122BB
S3151000ADC00121064B9847002806D00548054B9847A1
S3151000ADD00548064B9847E22010BDC04629DF0010F3
S3151000ADE0B82A0110DD17011060310110BD160110CF
S3151000ADF0F0B55F464E464546E0B49AB00500867AF1
S3151000AE00002E00D0C6E07548754FB8472B796A7981
S3151000AE10A97968780290A8780190E878009071482E
S3151000AE20714CA0476D48B84729897048A04712222F
S3151000AE3029006F486F4B98470495072229006E48E2
S3151000AE406E4B9847002800D1ADE02B78022B00D02E
S3151000AE50A9E05022002106A8694B9847694F0023A4
S3151000AE600BE0591C147806A8C45401328BB2B342B5
S3151000AE70F7D17C37331E502B04D01E001036B6B2D5
S3151000AE803A00EEE706AA290005205F4B9847061EF2
S3151000AE9000D19CE05148524B98475C48524B98471A
S3151000AEA0E22694E0E7B20594072204994846D8476B
S3151000AEB0002809D1059A53019B1A9A00544B9B18E6
S3151000AEC05E3302221A702BE001347C239C46E14447
S3151000AED0052CE7D172E01C00117800291AD101E087
S3151000AEE00024002763019946181B8000484B98469A
S3151000AEF04044122229003F4B9847464A13780133A3
S3151000AF00DBB213704B461B1B9B0043445E3302227D
S3151000AF101A7005E0791CCFB201337C32052FDAD1D5
S3151000AF20072229003448354B984700280CD17B015D
S3151000AF30DB1B9B00364AD31805229A740232002175
S3151000AF402D482F4B984742E0314B98467C01E31B26
S3151000AF509B0043440A229A74033A00212648284B40
S3151000AF609847E41BA4004444A37C0A2B2FD10DE080
S3151000AF701A481B4B9847274B1978C9B226481A4BC3
S3151000AF80984728891321254B984720E02889244B78
S3151000AF9098471CE01148124B9847A97A2148124B42
S3151000AFA09847002613E01B4B1B78DBB2042BDFD827
S3151000AFB0174B99460024114B9B4673E75E23144AA0
S3151000AFC0D35C002B8CD0184A0123012783E730006D
S3151000AFD01AB01CBC90469946A346F0BDB82A01107B
S3151000AFE0DD17011080310110BD160110C43101109A
S3151000AFF0B45601109B160110E44101107D16011084
S3151000B000AD1601104E540110B1D30010DC310110F1
S3151000B01008540110745601100032011085D3001027
S3151000B020BDAD00103C320110E2540110F0B5474698
S3151000B03080B40378002B41D12F4D0024461C2F4F8E
S3151000B040102229003000B84700283FD00134E4B25E
S3151000B0507C35052CF4D131E0DDB21C0011780029C5
S3151000B06022D101E000240025254B98466601371BA6
S3151000B070BF004744122223493800234B9847234ADE
S3151000B08013780133DBB213705E3702233B70341B27
S3151000B090A40044440833A3746B015D1BAD00454402
S3151000B0A0AB7C0A2B23D104E001337C32052BD3D1A0
S3151000B0B01DE0144B1889164B984718E05E23104A6A
S3151000B0C0D35C002BCED0134A0123C5E70C4863018D
S3151000B0D01A1B9200821811005E3102250D700A218A
S3151000B0E09174100012220749074B9847E1E7002098
S3151000B0F004BC9046F0BDC0464E5401107D1601109A
S3151000B10008540110B45601109B1601107456011004
S3151000B110BDAD0010E2540110F8B50D003B2872D8F1
S3151000B12083003C4AD3589F46840000263A4FBB59A9
S3151000B130002B04D01B59002B01D028009847043649
S3151000B140142EF4D165E01338C4B2A4000026334F90
S3151000B150BB59002B04D01B59002B01D0280098474F
S3151000B1600436142EF4D154E01D38C4B2A4000026BF
S3151000B1702B4FBB59002B04D01B59002B01D0280094
S3151000B18098470436142EF4D143E02738C0B2254B25
S3151000B1901B68002B3DD08000C358002B39D0080007
S3151000B1A0984736E02D38C0B21F4B1B68002B30D0A5
S3151000B1B08000C358002B2CD00800984729E0363859
S3151000B1C0C4B2A4000026194FBB59002B04D01B593A
S3151000B1D0002B01D0280098470436142EF4D118E01D
S3151000B1E03838C0B2124B1B68002B12D08000C358DF
S3151000B1F0002B0ED0080098470BE00E4B1B68002B57
S3151000B20007D0984705E00C4D28000C4CA0472800A5
S3151000B210A047F8BD402B01108C560110A056011006
S3151000B220F4530110E8560110F0530110785601102E
S3151000B2302C5C0110DC410110B82A0110DD17011039
S3151000B24010B5020006490748074B9847041E04D15B
S3151000B250044B18780249054B9847200010BDC0468C
S3151000B260205A0110E456011045C7001019B10010FC
S3151000B27070B590B008AC032363700F22A270093228
S3151000B280E270237007332371092666710F3A12494B
S3151000B29026206844114DA84700236A4613701533BB
S3151000B2A05370E673EA33237408220D4910313120A6
S3151000B2B06844A84700236A4619212000094CA04774
S3151000B2C0002805D00848094B98470948094B984764
S3151000B2D0002010B070BDC0468C3001109B160110B6
S3151000B2E0302C0110A5D10010B82A0110DD1701105D
S3151000B2F064320110BD16011010B582B0041E00D1C3
S3151000B30001346846074B984702236A461370002398
S3151000B3105370E40301946846034B9847012002B02A
S3151000B32010BDC046798A0010FD8A001070B5084B12
S3151000B330984780221205074B1A60074C074E0125C5
S3151000B34000E03570A0470028FBD0012070BDC04634
S3151000B350E58A001000E100E0A98A0010EC51011006
S3151000B36010B5084B1B78012B0BD10022054B1A7018
S3151000B370054B9847054B9847802109058023044AB9
S3151000B380D15010BDEC510110898A0010F18A0010BD
S3151000B39000E100E07047C04600B589B001A8054B32
S3151000B3A09847054B0393054B069301A8044B984702
S3151000B3B009B000BD058C001080BA8C010075190308
S3151000B3C0998C001010B501000020074CA0470749C2
S3151000B3D00120A0470020064CA0470120A04780224C
S3151000B3E0D201044B1A6010BD9D8D001095B300104C
S3151000B3F0758C001000E100E010B5002800D1013076
S3151000B400054B43431A0000210020044B98470020A7
S3151000B410034B984710BDC04680BA8C01298C00108A
S3151000B420518C001010B50020014B984710BDC04636
S3151000B430758C001010B50E4B1B78012B0BD1022208
S3151000B4400B4B1A700B4B1B68002B10D102210A48AC
S3151000B4500A4B98470BE0074B1B68002B07D0084C8C
S3151000B46020789847012221000348064B984710BDC3
S3151000B470F4510110FC510110305C0110499E00106E
S3151000B480F8510110ED9D001070B506000D00034C2B
S3151000B49029003000A0470028FAD170BDD99D0010B0
S3151000B4A070B506000D00034C29003000A047002897
S3151000B4B0FAD170BDC99D001070B500210020194B3E
S3151000B4C09847194C2000194B9847E1235B022360DB
S3151000B4D00223A3600322E26001322261013262611B
S3151000B4E0A361E36123626362114D124B1D60124A20
S3151000B4F0124B1A60124A134B1A6022001249280086
S3151000B500124B9847124E336898680021114CA04789
S3151000B510336858680021A04702220F4928000F4BB4
S3151000B520984770BD55910010545C0110E19B0010B6
S3151000B530305C0110E4530110A1B40010E053011067
S3151000B54089B40010DC530110004000400D9C00101F
S3151000B550B03801106918011035B40010159E00108E
S3151000B560F0B583B005000D4CA047A0470C4FB84767
S3151000B5700C4E0D4A0D4BB04700900191FA208000F9
S3151000B5806843B84702000B0000980199B047084B72
S3151000B5909847084B186003B0F0BDC046D99100100B
S3151000B5A00110011075030110C7AEFE19EFD8093F3F
S3151000B5B0C1FD0010F0510110024B1A68501E1860A0
S3151000B5C07047C046F051011070B504000122114BAE
S3151000B5D01A70114B1B68002B03D102210F48104B18
S3151000B5E0984720000F4B98470F4900230B700122F4
S3151000B5F00A480E4B9847074C0D4D2378022B02D064
S3151000B600A8470028F9D10022024B1A70064B187869
S3151000B61070BDC046F4510110FC510110305C011090
S3151000B620299E001061B50010F8510110ED9D001013
S3151000B630B9B50010024B1A68026018607047C04610
S3151000B6400452011030B50B4B1C68002C11D0256824
S3151000B6501D6000232360A160E280A080064B1A685B
S3151000B660002A02D11C6004E01A001368002BFBD1DB
S3151000B670146030BD045201100052011070B5002341
S3151000B680064A1360064A1360064C26007836064DA5
S3151000B6902000A8470C34B442FAD170BD04520110F0
S3151000B6A0005201100852011035B6001070B5040092
S3151000B6B0134B1D68134B1B6898470C2C1FD00C3C62
S3151000B6C0E388052B1BD0EB0714D40F4B1B68022005
S3151000B6D098470E4B1B6898470D4C032023689847D4
S3151000B6E00028FAD10B4B1B680230984701220A4BEF
S3151000B6F01A6004E0094B1868094B1B68984770BD1F
S3151000B700ECB10040B0520110A8520110BC52011009
S3151000B710945201109C52011020B00040A05201100A
S3151000B7209052011010B5064B064A196811605A68F6
S3151000B730054B1A60054B1B68002B00D0984710BDAF
S3151000B7407C5C01100CB0004010B00040585F011036
S3151000B75070B5322200210D480D4B984700210B4839
S3151000B760012502244A001154821853782B43DBB268
S3151000B770A343537001311929F4D1044B5A7818395F
S3151000B7808A435A70DA788A43DA7070BD985C011071
S3151000B790AD160110064A1168064B0B401360064A97
S3151000B7A0136006490868064B03400B6053607047E8
S3151000B7B00CB00040D30FFEFF7C5C011010B00040AF
S3151000B7C0C0E7FFFFF0B557464E464546E0B44F4B2F
S3151000B7D01B78002B04D04D4B1B78012B00D18CE02D
S3151000B7E04B4B98474B4B9847002398464A4B42463B
S3151000B7F01A604A4C8023802212049246E25080221C
S3151000B80052049146E250464D464B2B60464B474AF2
S3151000B81013604749474A1160474A1168474A116001
S3151000B820474A1168474A11604749484A11604849D2
S3151000B830484A1160484F494A3A604949494A116095
S3151000B84049494A4A11604A4E4A4A32604A494B4A65
S3151000B85011604B494B4A11604B494C4A11604C4997
S3151000B8604C4A11604C494D4A1160282098474C4962
S3151000B87028202B6898472B684A49272098474A4B17
S3151000B8801A684A4B1A604A4A4A4B1A604A4A4B4B44
S3151000B8901A604B4A4B4B1A604B4A4C4B1A604C4A37
S3151000B8A04C4B1A604C4A4D4B1A604D4A4D4B1A6020
S3151000B8B0A022920000214C484C4B984780229200BF
S3151000B8C04B4B1A804B4B9847534623604B4623608D
S3151000B8D0494B42461A603B68484A1A603368484AE0
S3151000B8E01A600020474CA0470120A0470220A0471D
S3151000B8F00122064B1A70002003E00122034B1A7036
S3151000B90001201CBC90469946A246F0BD98520110E3
S3151000B91051B7001095B70010B852011000E100E0C1
S3151000B9204C5F0110D7070000BD070000885C0110AE
S3151000B93051BC0100505F0110BC0004108852011068
S3151000B940B8000410845201109FB90100845C0110E4
S3151000B950DBB90100905C0110605F01103C0004101F
S3151000B960C01F0410945C0110C41F04105C5F01100A
S3151000B970545F0110D41F0410D81F04108C5C0110E2
S3151000B980E9CB0100A85201108FCD01009C52011085
S3151000B990A3CE0100BC520110CFCB0100945201106E
S3151000B9A031BE0010C5BD0010E4000410B0520110E5
S3151000B9B0E99F0100C0520110DDDB01009052011019
S3151000B9C05BDC0100A4520110EC050410A05201101A
S3151000B9D0E3D50100AC520110200C0410C452011022
S3151000B9E0099F010080520110CC5C0110AD160110A8
S3151000B9F0645F01107DB60010585F011025B7001066
S3151000BA008DBE001075BE0010044B1A780523012A4E
S3151000BA1002D1034B1860002318007047985201108A
S3151000BA20B852011070B504000E4B1B68002B02D0E3
S3151000BA30408898476080E388A288618820880A4DEC
S3151000BA402D68A8470500E288002A02D1074B9847BF
S3151000BA5006E021000831064B98472800034B98470B
S3151000BA6070BDC04688520110C0520110ADB600100C
S3151000BA709B16011070B515001C000A0202430A4BF2
S3151000BA801E6823000521A020C000B047061E0AD05C
S3151000BA90002C05D0002D03D022002900034B984717
S3151000BAA03000034B984770BDC05201109B16011011
S3151000BAB0ADB60010F0B55F4656464D464446F0B456
S3151000BAC087B0441E00239946E31C1CD80D22002182
S3151000BAD002A8824B9847332302AA1370303B537047
S3151000BAE093700233137193711472230A5372230CD9
S3151000BAF09372240ED472012313730D211000784B08
S3151000BB0098470123994600240025764F764E7749AB
S3151000BB10386833689847002800D088E0734B1C6853
S3151000BB20A3889A46CD239B009A4500D1C7E0238966
S3151000BB309B46638998464B46002B11D00D22002157
S3151000BB4002A8664B9847332302AA1370303B5370F2
S3151000BB5093700233137193710D211000604B984747
S3151000BB60A023DB009A4521D1614B1B884344A022B8
S3151000BB709200934202DD803A5D4B1A805C4B9A46E6
S3151000BB801D885C4BED1821000C31424628005A4B9B
S3151000BB909847424629005846584B984753461B88A3
S3151000BBA0434452461380002402253AE0544B1B6846
S3151000BBB0002B32D04D4B1A689388CD2189008B42C9
S3151000BBC004D14B460124002B2BD028E04D4C494D77
S3151000BBD025602B701B0A6B7010894B4B1B6898479E
S3151000BBE02871000A68712068404B1A68D288428012
S3151000BBF01D686B89C380083020606A89002A03D0CB
S3151000BC0029000C313C4B9847698908313C4B1B681D
S3151000BC10384898470024032503E0002401E0002457
S3151000BC20D025324B1868394B1B68984700E007251A
S3151000BC30002C00D06BE74B46002B46D0294B1E68D4
S3151000BC40002E04D100231C6A002C31D13DE0346A49
S3151000BC5014239C46B4446346604600932C4B1B68E1
S3151000BC609847002C1FD00027CD239B009846274BC2
S3151000BC709A46200003689B88434510D1002F06D0B2
S3151000BC808368BB6053461B689847B86809E08368A9
S3151000BC9033621E4B1B6801939847306A01E0070018
S3151000BCA080680028E6D11B4B1B68009898470CE06B
S3151000BCB014230093164B1B6814209847D3E7104B98
S3151000BCC01B680024002BACD07BE7280007B03CBCD7
S3151000BCD090469946A246AB46F0BDC046AD16011039
S3151000BCE025BA0010C4520110AC5201108C5201102A
S3151000BCF0645F0110CC5C01109B16011045B6001054
S3151000BD00B8520110B4520110845201108052011021
S3151000BD10A45201109052011010B5034B1B688020DD
S3151000BD2000029847082010BD845C011010B5034B23
S3151000BD301B688020C0019847002010BD905C011040
S3151000BD40002803D0024B1860002000E0092070473D
S3151000BD50585F011030B5184A138F9BB2108D802191
S3151000BD600902014311851000144D01240022DB0540
S3151000BD70DB0D11D0DBB259420B40012B06D011005E
S3151000BD805B080131C9B2012BFAD100E01100230082
S3151000BD908B409BB2038703E0038F2B439BB2038731
S3151000BDA0038FDB05DB0DE2D1802149008133FF33A0
S3151000BDB0034AD15030BDC046001001400080FFFF3D
S3151000BDC000E100E030B5174A138F9BB2108D802129
S3151000BDD00902014311851000134D01240022DB05D1
S3151000BDE0DB0D11D0DBB259420B40012B06D01100EE
S3151000BDF05B080131C9B2012BFAD100E01100230012
S3151000BE008B409BB2038703E0038F2B439BB20387C0
S3151000BE10038FDB05DB0DE2D180218133FF33034A2B
S3151000BE20D15030BD000001400080FFFF00E100E06E
S3151000BE3010B50C4B1B8F5B0B10D00B4B1B68984728
S3151000BE40084A138F118F5B0B5B030B4313878021FB
S3151000BE504900C0235B00054AD15001E0044B9847C6
S3151000BE6010BDC04600100140505F011000E100E017
S3151000BE7055BD00100323022804D880000022024B6F
S3151000BE80C250002318007047685F011010B50400F7
S3151000BE900378012B08D1114B1B68002B00D0984753
S3151000BEA0FF2322689A4322606378012B08D10B4B3B
S3151000BEB05B68002B00D09847094B2268134023601B
S3151000BEC0A378012B08D1054B9B68002B00D098470F
S3151000BED0044B22681340236010BDC046685F0110F2
S3151000BEE0FF00FFFFFFFF00FF0022024B1A70002029
S3151000BEF07047C046D05201100289024B1A800020AA
S3151000BF007047C046745F0110C378002B02D101221E
S3151000BF10014B1A70002070474938011010B5024BBA
S3151000BF209847024B984710BD51B70010B9B400108E
S3151000BF3010B54378012B06D10748084B98470122C4
S3151000BF40074B1A7005E00748044B98470022044B2C
S3151000BF501A70002010BDC04690330110BD16011096
S3151000BF60CF520110B833011010B50248024B984752
S3151000BF7010BDC046885F01106584001010B504001E
S3151000BF804A230D4AD25A43889A420DD1437A1B024C
S3151000BF90027A134302D1094B984705E00120084B5A
S3151000BFA098470848084B98472078084B22000249C2
S3151000BFB0074CA04710BDC0461C60011061B30010AD
S3151000BFC0F9B20010D5BF00102DB30010493801107A
S3151000BFD0BDA0001010B50122044B1A7000230022D8
S3151000BFE001214120024CA04710BDC046D05201107D
S3151000BFF075BA001010B5044B98470122034B1A70FE
S3151000C0000A20034B984710BD25B40010DB520110CF
S3151000C010F9B3001010B584B0164B9847041E08D01B
S3151000C0201548164B984721001548164B984720007F
S3151000C0301EE000230293144B0193C823DB000093E8
S3151000C0400023002201210020104CA047041E07D116
S3151000C05009480A4B98470E480A4B9847002007E0B4
S3151000C0600548064B984721000A48064B984720007A
S3151000C07004B010BD71B20010B82A0110DD170110FE
S3151000C080E0330110BD1601108F02000029D20010F6
S3151000C0900C3401101C34011010B50022054B1A7017
S3151000C0A00132054B1A70054B9847054B98470020EF
S3151000C0B010BDC046D05201104938011061B30010AE
S3151000C0C015C0001010B584B01748184CA047184872
S3151000C0D0A047184B9847184B18701B78002B06D0A2
S3151000C0E0154B1978C9B21548104B9847FEE700232F
S3151000C0F00293134B01935A33FF330093002300220C
S3151000C100012100200F4CA0470B4B18701B78002BF9
S3151000C11006D0094B1978C9B20848044B9847FEE770
S3151000C120002004B010BDC0463C340110BD160110ED
S3151000C1306834011071B200106C6001108C3401105B
S3151000C1408F02000029D2001070B5050009480A4C6C
S3151000C150A0470A48A04768880121094B9847094B10
S3151000C16018701B78002B03D00748034B9847FEE73F
S3151000C170002070BDBC340110BD160110E43401104E
S3151000C18035E000106C6001101835011030B583B021
S3151000C1901A481B4B98471B4C210068461A4B984768
S3151000C1A0072200212000194B98470A20184B984760
S3151000C1B00024174D6B46E05CA8470134062CF9D1D4
S3151000C1C000236A46937113784C2B0ED153784E2B5D
S3151000C1D004D1002116200F4B98470CE0462B0AD1AC
S3151000C1E0012116200B4B984705E0542B03D1511C07
S3151000C1F00948054B984703B030BDC046B85F0110DB
S3151000C20065840010C8520110DD190110AD16011019
S3151000C210F11601107D8F0010D452011010B582B0A6
S3151000C22001AC2000064B98470123237021001620ED
S3151000C230044B984701211620034B984702B010BDB6
S3151000C240B58D0010C58D00107D8F0010F0B55746C6
S3151000C2504E464546E0B490B03F256D4400232B7002
S3151000C260AD4B9847AD4B9847AD4B9847AD4B98475C
S3151000C270AD4B9847AD48AE4B98470120AD4B98470C
S3151000C280AD48AE4B9847AE48AE4CA0470020AE4BDB
S3151000C2909847AE4B9847C020C001AD4B9847AD4B61
S3151000C2A09847AD4B9847AD4B984781B2AC48A047DD
S3151000C2B02900AC48AC4B9847AC48A047AC4B02930E
S3151000C2C00C2301930B3B00931D3301220121012006
S3151000C2D0A84CA047A84B18701B78002B03D0A74872
S3151000C2E0984B9847FEE79F48A54B9847041E06D0E3
S3151000C2F09148924B98472100A248924B9847A24BDF
S3151000C3009847A2488F4B9847A14A00210020A14B7D
S3151000C3109847994B18701B78012B02D09E48894B71
S3151000C32098479E4A042100209A4B9847924B1870C2
S3151000C3301B78012B02D09A48824B9847994A0021C4
S3151000C3400020944CA047984A02210020A047974805
S3151000C350974B984705A8974B984796239B010593AB
S3151000C36006230793013308930733099301330A937E
S3151000C3700D3B0B930C930D930E938F4D8F4C05AA7B
S3151000C3808F492800A0470028F9D18B4B99461800F1
S3151000C3908C4B984748468C4B984705AC20008B4EE3
S3151000C3A0B047042323730025E572E370884F2100FC
S3151000C3B03800884B9A4698472000B0470323984682
S3151000C3C0E370A570012601232371834D21002800F7
S3151000C3D0D04782490B7B3343022003430B73CB6850
S3151000C3E042461340CB6006239C468B607C4B9A4694
S3151000C3F00B604B461B684B607A4C227B32430243E0
S3151000C40022734246E0680240E2606246A260103340
S3151000C4102360534663603800734B98469847210053
S3151000C4202800C047714B7B60714B6B602423FA5C0C
S3151000C4303243FA54EA5C1643EE54802212026D4BD4
S3151000C4401A6028006C4B98476C4D6D4F6D4E01204D
S3151000C4504042A8473A783378DBB2002A21D0002B25
S3151000C4601FD03C4B984705AC01239946E37009232E
S3151000C4702371073B63710633A3701C33A371153BFD
S3151000C4802380354B98476049604B9847334B984704
S3151000C490FF231B0618434B460093042221005C4CD5
S3151000C4A0A0475C4B1B78002BD1D00022594B1A7039
S3151000C4B0594B1B78002BCAD03F236B441A78574B25
S3151000C4C01888554B2749564CA047002808D11A48BA
S3151000C4D01A4B98473F236B4419785248194B984783
S3151000C4E03F236B441B78642B03D100214E4A1170F5
S3151000C4F004E0002B02D101214B4A11704A4A1278EE
S3151000C500002A04D001333F226A4413709FE7013B8F
S3151000C5103F226A4413709AE7C5B7001019BD001080
S3151000C520B9B400101DC2001099B30010F5BF001069
S3151000C530C5B30010F9B30010B82A0110DD170110A9
S3151000C5403C350110BD160110FDAA0010E98000103F
S3151000C550AD810010D18100107110011091FD0010F5
S3151000C560683501101C600110A99F00108435011058
S3151000C570765F011015E000106C600110B8350110DF
S3151000C58019A00010D835011015C00010FC35011087
S3151000C590443301102DAA0010343601102033011037
S3151000C5A064360110D4320110AC3601101DBF0010D4
S3151000C5B041BD0010E19B0010F85F01100D9C0010AA
S3151000C5C000500040699E0010A19E00108D8300103F
S3151000C5D0885F0110DD840010B85F0110E85F01105C
S3151000C5E0C8520110785F0110BD83001069BF00109A
S3151000C5F08DC1001000E100E06584001041B200100A
S3151000C600DB520110CF52011000002041FDFD001039
S3151000C61041E00010D052011049380110745F01102A
S3151000C6203DA00010983601104A38011070B5124D11
S3151000C6302C68002C14D02668E2602E6000250F4A64
S3151000C640238113682560A080E180AB4201D114607C
S3151000C65011E01A68002A01D0131CFAE71C600AE0E0
S3151000C660C4B2002C07D1064CE26001222381054B8F
S3151000C670A080E1801A7070BDF4520110F0520110C2
S3151000C680DC520110EC52011010B5084B00090001E4
S3151000C6901A680818814203D00A600A1C1031F9E79B
S3151000C6A01A600022024B1A6010BDC046F4520110E7
S3151000C6B0F052011038B51B4C031C2588081C211C90
S3151000C6C09D4207D1A588854204D101235B42238070
S3151000C6D0A26009E04C889C420AD18C88844207D11A
S3151000C6E001235B424B808A600F4B9847012017E06D
S3151000C6F00E498B420ED00E498B4207D00D490020B1
S3151000C7008B420DD1101C0C4B9847EFE7111C0B4BAD
S3151000C710002202E0111C0022094B9847434258415F
S3151000C72038BDC046706001104DE10010130E0000B8
S3151000C730150E0000010E0000BDE400107DE600108D
S3151000C74055E700100023F0B587B004920370049BE0
S3151000C7500390013B0D1C0593033302D80498AE4B8E
S3151000C7609847059BAD4C033302D90023029315E07D
S3151000C770002302932368002B13D1029BD02B00D1E8
S3151000C780DAE20498A64B984702900228F2D13FE0CD
S3151000C7900498A34B98470290022839D02368002B9F
S3151000C7A0F6D0029BD02B00D1C6E2029B033B5A1E49
S3151000C7B09341029A5B421A4023680292002B00D1E1
S3151000C7C0C2E21A68DE682260DA880192954A9C886D
S3151000C7D0116813601960944B1B78012B0FD1934B82
S3151000C7E0924A9888D988D2681B89914FB8471022E7
S3151000C7F0904B8E480021984700238B4A1370029B5A
S3151000C800002B14D18C4B9C4209D08C4B9C4227D1C7
S3151000C8103A23039A1370002302931D1C07E0019B11
S3151000C820A34200D08AE23823039A13702E60039B2A
S3151000C8301B783B2B01D1824B9847039B1B783B2BD4
S3151000C84003D0059B033304D983E2029B002B88D0C7
S3151000C850F7E7029BD02B00D17BE27A4B984778E220
S3151000C860019BBB2B25D1BB2C23D16B461B89AB80DF
S3151000C870B3787278F0781B02134371793279A87005
S3151000C88071482B80834206D8704A93420BD2704A65
S3151000C890934208D009E06F48834206D10B02134336
S3151000C8A0AB80372302E0362300E00023039A13708F
S3151000C8B0BDE7694B9C4200D144E165D8674B9C4269
S3151000C8C000D1D5E12FD8664B9C4200D1E0E113D8B8
S3151000C8D0644B9C4200D1A3E104D83826B44200D15F
S3151000C8E025E217E1604B9C4200D19FE1FE33FF33F6
S3151000C8F09C4200D1D3E10DE15C4B9C4200D1A9E1F1
S3151000C90008D85B4B9C4200D196E15A4B9C4200D111
S3151000C91099E1FFE0584B9C4200D1A2E1574B9C4253
S3151000C92000D1D4E1F6E0564B9C4200D1C8E112D8B2
S3151000C930544B9C4200D1D1E104D8534B9C4200D1B8
S3151000C9409BE1E7E0514B9C4200D1ADE1504B9C423C
S3151000C95000D1B0E1DEE04F4B9C4200D1E0E009D8B7
S3151000C960083B9C4200D1D7E04B4B39269C4200D164
S3151000C970DDE1CFE0D1231B019C4200D1D6E0474B2D
S3151000C9809C4200D1D8E0C5E0454B9C4200D117E14E
S3151000C9902ED8444B9C4200D13DE112D8424B9C42CA
S3151000C9A000D1E8E004D8033B9C4200D1D0E0B1E0CE
S3151000C9B03E4B9C4200D1D0E03D4B9C4200D1F9E069
S3151000C9C0A8E03C4B9C4200D1DBE008D83A4B9C4295
S3151000C9D000D11BE1394B9C4200D1D8E09AE0384B8C
S3151000C9E09C4200D1D8E0374B9C4200D1DBE091E06D
S3151000C9F0354B9C4200D1F7E076D8344B9C4200D19F
S3151000CA00F8E069D8324B9C4200D1E0E0314B9C42B1
S3151000CA1000D1A9E07EE0C04685E10010F052011079
S3151000CA20B5BA0010F4520110EC520110DC5201108C
S3151000CA302DC60010AD160110FFFF0000FEFF00000E
S3151000CA402DBD001087E100101E2000001D200000E3
S3151000CA50030C00001F2000001C0D00000C0C000031
S3151000CA60020C0000020A0000030A0000060C000077
S3151000CA70040C0000050C0000070C0000090C000057
S3151000CA80170C0000120C00000D0C0000130C000017
S3151000CA90150C0000080D0000010D0000150D00001A
S3151000CAA01B0E00000F0E0000030E0000060E000005
S3151000CAB00A0E0000150E0000110E0000130E0000E5
S3151000CAC0170E0000190E0000270E0000210E0000A0
S3151000CAD01C0E00001D0E00009F4B9C427ED09F4BEB
S3151000CAE09C4200D18CE015E09D4B9C4200D10AE19E
S3151000CAF008D89C4B9C4200D1F7E09B4B9C4200D13E
S3151000CB00FAE007E0994B9C4200D103E1984B9C4216
S3151000CB1000D106E100260AE1301C291C954B14E0D1
S3151000CB20301C291C944B9847042600E1301C291C04
S3151000CB30924B98470126FAE0301C291C904B9847D7
S3151000CB400F26F4E0301C291C8E4B9847061CEEE08D
S3151000CB500198311C2A1C8C4B17E0311C01982A1C99
S3151000CB608A4B98471126E2E0311C01982A1C884B03
S3151000CB7098471226DBE0301C291C864B9847062660
S3151000CB80D5E0311C2A1C0198834B9847DEE70198A3
S3151000CB90311C2A1C814BF8E7311C01982A1C804B4A
S3151000CBA098470D26C3E0311C01982A1C7D4B9847E7
S3151000CBB00E26BCE00198311C2A1C7B4B984784E05A
S3151000CBC0311C01982A1C794B98470B26AFE0311C73
S3151000CBD001982A1C764B98471026A8E0301C291C71
S3151000CBE0744B98472826A2E0301C291C724B984794
S3151000CBF029269CE0301C291C704B9847272696E066
S3151000CC00301C291C6E4B98472A2690E00198311C3F
S3151000CC102A1C6C4BB9E70198311C2A1C6A4BB4E7E5
S3151000CC20301C291C694B98472B2680E0301C291C88
S3151000CC30674B98472C267AE0311C01982A1C654BC5
S3151000CC409847132673E0311C01982A1C624B9847AB
S3151000CC5014266CE0311C01982A1C604B9847152647
S3151000CC6065E0311C01982A1C5D4B984716265EE03C
S3151000CC700198311C2A1C5B4B87E7311C01982A1C32
S3151000CC80584B9847A988061C574B288898474EE05A
S3151000CC90311C01982A1C554B9847232647E00198CA
S3151000CCA0311C2A1C524B70E7019B301C1F0A2F8027
S3151000CCB0291C504B49E70198311C2A1C4E4B64E73E
S3151000CCC0301C291C019A4D4B98473B262FE0311CEE
S3151000CCD001982A1C4A4B9847182628E0311C0198BF
S3151000CCE02A1C484B9847202621E0311C01982A1C03
S3151000CCF0454B984733261AE0311C01982A1C434BA2
S3151000CD009847302613E0311C01982A1C404B98474F
S3151000CD1034260CE0311C01982A1C3E4B98473526C8
S3151000CD2005E0311C01982A1C3B4B98473226039B81
S3151000CD301E70002302937AE5D023FBE7019B029E27
S3151000CD40BB2B00D0E6E6F2E7029B002B00D06EE587
S3151000CD50E0E6029807B0F0BD220E0000250E000096
S3151000CD60051B0000011B0000031B0000061B000032
S3151000CD70081B0000B1EF001095EF001031F2001003
S3151000CD8021F300102DF4001029E30010A9EB001078
S3151000CD9025EC0010E1E500107DE6001055E70010C7
S3151000CDA0DDE900107DEA001035EB00105DEB001098
S3151000CDB073EB00103DEC00106BEC001081EC0010D2
S3151000CDC0ABEC0010D9EA001003EB001021DD0010C7
S3151000CDD04DDD00104DF6001089F60010D1F600104A
S3151000CDE015F7001049F700100DF6001015F8001091
S3151000CDF09DF7001005DC001071DC001035DC00100A
S3151000CE0025F8001065F8001025FC00102FFC001006
S3151000CE1035FC00103BFC001047FC0010F7B50E491E
S3151000CE2000240B680F1C1E1C0C4A15680192002B5F
S3151000CE300ED09A881968824207D1002C01D0216041
S3151000CE4000E00E1C1D601D1C231C1C1C0B1CEEE799
S3151000CE50019B3E601D60F7BDF0520110F4520110A7
S3151000CE60F7B5124A0090136811481F1C002184461A
S3151000CE7004680192002B14D0D888009A1D68060AFF
S3151000CE8096420BD1FD2606400C2E07D1002901D063
S3151000CE900D6000E02F1C1C601C1C0B1C191C2B1C8D
S3151000CEA0E8E7019B1F6063461C60F7BDF052011056
S3151000CEB0F452011030B5CF23002810D04A1E1F2A75
S3151000CEC00DD8084A131CAA33198000231C1CC55CF4
S3151000CED0AC3401331555DCB28C42F7D30023181C41
S3151000CEE030BDC0460E61011010B5041CCF20002CB9
S3151000CEF006D0044BCE38211C9847034B1B79237060
S3151000CF0010BDC04645EE00100E610110F0B5067951
S3151000CF1089B0CF25032E38D8037811350F2B34D886
S3151000CF208023878C113D9B009F422ED8C57F837F1F
S3151000CF30AD015B011D43C37E1D43437F1B011D4392
S3151000CF40037F9B001D43124BEDB21E710379023B0A
S3151000CF50012B01D802230371041C231C0B33618897
S3151000CF6007932379007800930195258C621D02950D
S3151000CF70658C079B03950497064DA8472671051CDB
S3151000CF80211C03482622044B9847281C09B0F0BDE3
S3151000CF900E6101103DED00109B160110F0B587B023
S3151000CFA003AF54490B22544B041C381C98470522D6
S3151000CFB0524B40261A800023514A1360514A13706F
S3151000CFC0514A1370514B9847514B9847514B9847BC
S3151000CFD0514B9847002C00D189E0A368002B00D153
S3151000CFE085E02369002B00D181E02068002802D15A
S3151000CFF06368002B7BD1494B61689847484B98472B
S3151000D000012801D9E22672E04648474B9847002886
S3151000D010F8D1201C454B9847E068A168444B9847C7
S3151000D0206B460122DC1C201C01A95242414B984739
S3151000D030002802D12378392BF2D13F4B9847061E90
S3151000D04055D1031C01213D4A49429A181233518188
S3151000D050902BF7D13A4C813B23703A4B3A4A638076
S3151000D060002323710133581E190101430233117035
S3151000D0700132212BF7D1E033FF33A384231C002583
S3151000D08073331D70231C72331D70231C76331D7071
S3151000D090231CCC331D80221CA023D0325B001380AE
S3151000D0A0221CCE321380231CD2331D80FA22231C5D
S3151000D0B05200D4331A80231CD6331D70201C234BE8
S3151000D0C0E57625776577A577E5772584658498478E
S3151000D0D0231C072274331A70231C0432AA331A80B5
S3151000D0E02B1C7A5DAC330135E2540B2DF8D1301C74
S3151000D0F007B0F0BDD43601109B1601107C600110EC
S3151000D100A0530110005301104B38011075F8001090
S3151000D11001D4001061DA001015DD00109DDA001040
S3151000D120C5B700105DE0001009BA001005E1001047
S3151000D13089C6001045C70010CDEC00107E600110A6
S3151000D1400E610110983A0000196101100DCF001000
S3151000D15038B5451C031CCF20002D18D01A78032A89
S3151000D16015D8012A02D15A78002A10D01C1C291C65
S3151000D1700622074B07489847237807480371074B41
S3151000D18098472378002B02D1281C054B984738BDA9
S3151000D1909B160110136101100E6101100DCF0010C6
S3151000D1A089E10010F8B584460F1C161C1C1C0028BB
S3151000D1B002D1E220002A2BD0CF201F2F28D81F2CD7
S3151000D1C026D86346002B0ED01248134D002F04D1DB
S3151000D1D0391C1F22114B984703E061463A1C104B2D
S3151000D1E0984772352F70301E12D00B4D0D48002CFB
S3151000D1F007D1211C1F22094B733598472C70201C10
S3151000D20006E0311C221C064B9847002073352C7003
S3151000D210F8BDC046426101100E610110AD16011035
S3151000D2209B16011061610110F0B591B01F1C16AB71
S3151000D2301D8817AB1B880D910E9318AB1B78041C19
S3151000D2400F93424B161C73331B78CF200C93012C73
S3151000D25003D10E9B002B76D124E0042C73D88023A7
S3151000D260DB019D426FD8002C02D11F2D6BD903E034
S3151000D2709F2D01D8012C66D1002F09D00D9BCF20F0
S3151000D280013B012B5FD9012C02D1002D00D1203595
S3151000D2902F4B9847011C002E43D03378601E002B6D
S3151000D2A009D13BE08023DB019D424CD8002E4AD0A9
S3151000D2B0002FE3D12BE0012303283AD90D20721C4D
S3151000D2C002E00E20321EFAD1204C74342678072440
S3151000D2D0002E00D0341C00920D9A039404921B4A1F
S3151000D2E0019502950597723212780E9C0692194A8C
S3151000D2F007920C9A0892184A09926422624392B2D3
S3151000D3000A920F9A154C0B92154AA0471BE0002D56
S3151000D310BED10F4B98472025011CBEE70328CDD858
S3151000D32006E0601E032803D9331C0D20321CCBE700
S3151000D330002302F08DFCC60604020F20C2E700226D
S3151000D3400C920C20BEE711B0F0BDC0460E61011064
S3151000D35019F200104261011061610110F9F000101C
S3151000D360983A000010B5054B9847041E03D1D120FA
S3151000D370034B00019847201C10BDC04625EF001036
S3151000D3801DCE001038B5041C044B081C211C9847F0
S3151000D390051C034B201C9847281C38BD9DE5001022
S3151000D3A061CE001010B5014CA04710BD8DEA0010DB
S3151000D3B010B5CF2300280AD0002908D0002A06D09D
S3151000D3C00C78022C03D1034B013198470023181C0B
S3151000D3D010BDC046B9F20010CF23022801D8024B67
S3151000D3E01B5C181C7047C046DF360110831EDBB26B
S3151000D3F003200E2B01D8014AD05C7047E23601108B
S3151000D4000022014B1A807047F852011070B5051CA6
S3151000D41000240C4B19680C4B1E688C4210DC0C2037
S3151000D4206318DA0FD318021C5B105A43B01802881F
S3151000D430AA4201D2591EF0E7AA4202D95C1CECE7B7
S3151000D440002070BD0C5301100453011030B5032495
S3151000D450051C01232540A54209D0231C241920426E
S3151000D46005D1023B184202D14B1E99418BB2302195
S3151000D4700140302907D0410601D4810601D507485D
S3151000D48009E0C10601D5064805E0002A01D00422AC
S3151000D490134380208001184330BDC0460C20000085
S3151000D4A00420000030B50023840703D50133194248
S3151000D4B000D10233040708D5CC0601D5042400E0B8
S3151000D4C00C2423438024A4012343840606D5062472
S3151000D4D0214201D10A3400E030242343C40606D584
S3151000D4E00624214201D13A3400E0C024234380248B
