:020000041000EA
:1080000010B5184B184A9A4203D0184B154A9A4299
:1080100004D3174B174A9A4210D31EE0164B134A4B
:108020000332D21A92080132920000230D480E4901
:10803000CC58C45004339342FAD1EAE70F4B0C49B1
:108040000331C91A8908013189000023094C002035
:108050001A19106004338B42FAD1094B9847094B27
:10806000984710BD1C2501101C25011094250110F6
:10807000605201109425011020250110982501104F
:10808000AD04011029BA001010B5064C2378002B5E
:1080900007D1054B002B02D0044800E000BF0123AC
:1080A000237010BD94250110000000001C25011054
:1080B000084B10B5002B03D00749084800E000BF6B
:1080C00007480368002B00D110BD064B002BFBD0E6
:1080D0009847F9E700000000982501101C250110C1
:1080E0001C2501100000000010B586B001A80C4B43
:1080F00098470823029301330493073B03930593A6
:10810000084C01AA08492000084B984722682821FA
:10811000535CDB07FCD40123137506B010BDC046C9
:1081200079870010744001100030004091870010E2
:1081300070B586B005AC014321700023637003A9BC
:1081400048330B80012048804C6001AD2B806A8051
:108150000294074E3000074B984729003000064B29
:108160009847207800026378184306B070BDC04677
:1081700074400110D58800107588001010B584B0C7
:1081800003AC01432170190A6170A37001A948234F
:108190000B8001324A804C600248034B984704B080
:1081A00010BDC04674400110A588001070B50400D1
:1081B0000300012200210120034DA8476404A40FFD
:1081C000024B1C7070BDC0467D810010B0250110AF
:1081D000F8B5022200210020214B98470300012717
:1081E000020402D54004430C023F1E4A1678012EB9
:1081F00011D0002E04D0022E18D0032E22D02CE055
:10820000DB099DB238006843174B98470022174B93
:10821000174CA04723E09B099CB238006043124BE7
:1082200098470022134B124CA04718E05B0999B203
:10823000380048430C4B98470022FF239B050C4C09
:10824000A0470CE01B099AB238005043064B9847F0
:108250000022094B064CA04701E000200021F8BD98
:1082600031810010B0250110F9FD00100000E03F41
:10827000F1F100100000D03F0000B03FF0B54746DC
:1082800080B482B080231B013A4AD45C00260F23BD
:108290001C400194384B98460125019A002100E0CA
:1082A000190052084B1CDBB2002AF9D18900434661
:1082B000C85803781B02314A9C58E1B2304A9A5898
:1082C0008262FF222240154203D0002625228654D6
:1082D0002FE0970704D51026252286542E0028E08B
:1082E000570704D51026252286540E3E21E0170795
:1082F00004D51026252286540D3E1AE0D70604D553
:108300001026252286540C3E13E0970604D510262D
:10831000252286540B3E0CE0520604D51026252259
:1083200086540A3E05E0220603D5102625228654EF
:10833000093E00290ED013492A00B2405A50242386
:10834000C35C33411D4205D0B300C3185B68002BEA
:1083500000D098472B00B3409C4363B2002B9CD1C4
:10836000802109028133FF33074AD15002B004BC97
:108370009046F0BD00200040B4250110AC20004024
:1083800050200040A420004000E100E001220270E3
:10839000427082700023C370037143718371C37193
:1083A000037242728272C272037343738373C37324
:1083B000037443748374C3747047C04610B5252397
:1083C000C35CDBB2052B42D0C26A002A07D003236C
:1083D000D4689C4323000324002B1FD12DE0C162ED
:1083E00003781B021B4A944663440A681A600378A8
:1083F0001B02194A944663444A681A608A680378E3
:108400001B0216498C4663441A6003781B02144A07
:108410009446634403221A60002318E0D268D368AC
:10842000A343FBD1D1600323CA689A430023002AE7
:108430000DD00333CB60002309E003781B0208480A
:108440008446634403200C0084431C60EAE7180060
:1084500010BDC0460020004004200040082000401D
:108460000C20004082B002002523C35CD8B205284E
:1084700027D0D36A9B681720002B22D013781B02C9
:108480001149595801910198104958502423D35C3F
:108490000193019913781B020D48844663441960C7
:1084A00005212523D15413781B020A498C466344C5
:1084B0000121196013781B02074A9446634419602E
:1084C000002002B07047C046AC200040A42000400D
:1084D000A82000404020004044200040F8B504009F
:1084E0000D00624B1B78002B12D14320604B984744
:1084F0006049CC228858604B0340802040050343EC
:108500008B505E491F205E4B98470122574B1A70D3
:10851000564B5A68D30700D5A2E002E011420ED1B3
:1085200000E00023514A5068012199400143516005
:10853000117A013911721420FF2B07D194E05208EF
:108540000133DBB2052BE9D114208DE023701B022F
:108550004C4A944663442A787F263240A978C9075A
:108560000A4369780904FC20800301400A431A6029
:1085700023781B02444A944663446A7A3240E97A7B
:10858000C9070A43A97A09040840104318602378F0
:108590001B023E4A94466344EA7C1207C0218905C7
:1085A0000A40A97C09040A431A6023781B02384A4E
:1085B000944663442F793F02E021C9003A000A4003
:1085C0002E7B3604F8204003064032431700E8783B
:1085D0001F2202403E0016436A7B1206E020C004C0
:1085E000024032431A60207800022A4B9C466044C5
:1085F000AB79072633406E790822B2401343EE79F7
:108600008022B2401343AE7B80221201B24013435A
:108610002E7C80221202B24013431E002A7A1201DD
:1086200070231A4033001343EA7B120211400B43BC
:10863000697C0903E022D20111400B430360231D32
:1086400021002431002204C38B42FCD100232422C8
:10865000A354E36223789B000F4A9C50002003E060
:1086600052080123012159E7F8BDC0461C2501101D
:10867000A591001000B00040FFFFFFE07D820010D8
:108680000D960010102000401420004018200040DB
:108690002020004038280040B4250110F0B54F4696
:1086A0004646C0B481464D881723002D2FD002685E
:1086B0002824135DDB07FCD4012334241355143C18
:1086C00013550B885B000224FF3423439BB21380B5
:1086D000002401239846137BDBB24046184206D0A3
:1086E000671C10798446486866460655BCB2AC42A1
:1086F000F1D3DB0603D41021137A0B42FCD04B4696
:1087000059790023002902D12033D15400231800C5
:108710000CBC90469946F0BDF0B5844602684E8880
:108720002824135DDB07FCD4012334241355143CA7
:1087300013550B885B00E03423439BB21380002465
:108740000125137ADBB21D4204D0671C4868045D22
:108750001480BCB2B442F4D3DB0603D41021137AE4
:108760000B42FCD063465B79002B02D10021203301
:10877000D1540020F0BDC046032303700D33438065
:10878000083B43600133C360073B8360036170476C
:10879000F8B5040015000160002856D0002A56D014
:1087A00028228B5CDB07FCD400230B752368294A45
:1087B000934203D10320284B984706E01720274A0D
:1087C000934245D10230244B9847002323746374AD
:1087D0006382A38200226277A361214B1C6023681D
:1087E0001C4A93420FD11F4F390018201E4EB0472C
:1087F00039001920B0471D4B802252001A60013207
:10880000FF321A6011E0154A93420ED1154F39001C
:108810001A20154EB04739001B20B047134B802259
:10882000D2001A60802212011A60246829892879EE
:108830000F4EB047298A287BB0472B7823746B886A
:10884000238301232377002002E0172000E0172074
:10885000F8BDC04600300040A59100100034004033
:1088600094400110058900100D96001000E100E011
:108870006D8C001010B500280CD000290CD0828A15
:1088800092B20523002A08D100234371044B984774
:10889000030002E0172300E01723180010BDC046B4
:1088A0009D86001010B500280CD000290CD0828ABB
:1088B00092B20523002A08D100234371044B984744
:1088C000030002E0172300E01723180010BDC04684
:1088D0001987001010B500280CD000290CD0828A0E
:1088E00092B20523002A08D1043B4371044B9847F8
:1088F000030002E0172300E01723180010BDC04654
:108900001987001070B582B0574B1C682668637CCD
:10891000257C1D40638A9BB2002B07D1A38A9BB2A2
:10892000002B03D0A38A9BB263824EE0638A9BB282
:10893000002B19D0A38A9BB2002B15D1637F052B86
:1089400012D1237F002B0FD12C22B3546382637783
:108950006379002B02D100222033F254EB0734D587
:10896000A3682000984730E0638A9BB2002B2CD08C
:10897000A38A9BB2002B28D0237F002B17D1638AB8
:10898000A28A9B1A9BB26A46D380A38A013B9BB200
:10899000A382D388A269944663441B783380A38A58
:1089A0009BB2002B11D110222C33F2540DE0638ABC
:1089B000A18AA28A013A92B2A2825B1A9BB2A269F0
:1089C000944663443279D2B21A70638A9BB2002B08
:1089D0001CD0A38A9BB2002B18D1637F052B15D125
:1089E000237F012B12D100233022B354638263779B
:1089F0006379002B02D100222033F254AB0705D556
:108A0000237F012B02D1E36820009847237F012BAD
:108A100014D12368154A934206D180214900C0230E
:108A20005B00134AD1501DE0124A93421AD18021B3
:108A3000C900C0235B000E4AD15013E023680B4AE3
:108A4000934206D180218900C0235B00084AD1509F
:108A500008E0084A934205D180210901C0235B0048
:108A6000034AD15002B070BD944001100030004064
:108A700000E100E00034004010B50D4B1B7D002BE1
:108A800007D001220A4B1A730A4B1B68002B00D037
:108A900098473423064AD35C002B07D001212C23AE
:108AA000D154054B1B68002B00D0984710BDC04621
:108AB00000100040C8250110CC25011001230370CF
:108AC0000373022242704273837083730022C27068
:108AD000C273037103748260426102767047C046BC
:108AE000002807D1002902D1064B1A6009E0054B86
:108AF0009A6106E0002902D1024B1A6201E0014BA3
:108B00009A63704700100040002805D1064A117A88
:108B100080230B43137205E003492822885C8023DD
:108B200003438B547047C04600100040002805D115
:108B3000064A117A7F230B40137205E0034928226D
:108B4000885C7F2303408B547047C0460010004070
:108B500070B504000420394B98472378002B02D1CC
:108B6000237B002B65D03649CA6820231343CB6092
:108B7000227E8B690320024012012D308343134370
:108B80008B612378002B26D063780121002B03D042
:108B9000023B5D425D41A901A278520002252A40B4
:108BA000E3789B000A352B401A4315000D432379C7
:108BB000002B01D020231D43224BA2681A601D7296
:108BC0001F49C4225200885C012303438B540020B8
:108BD0001D4B984700E00025237B002B29D0637BA9
:108BE000002B05D0012B05D0022B04D1402502E03B
:108BF000012500E00025A37B5B0002211940E27BF8
:108C000092000C2313400B431D43237C002B01D007
:108C100020231D4362690B4B1A6228229D54084988
:108C20006132FF32885C022303438B540120064BE0
:108C3000984706491E20064B984770BDA591001025
:108C400000B0004000100040098B0010798A00102D
:108C50000D960010002802D1024B196001E0024B72
:108C600019607047C8250110CC25011070B50D0A98
:108C7000FF231940072833D84E4A546CF83B034071
:108C80009B0007269E40B4435464546C0E009E40E3
:108C9000330023435364012900D08AE003280FD80E
:108CA0001100D02252008C5803231840C0003C33DE
:108CB00083409C438C508B5885401D438D5078E0F9
:108CC0003C49D22252008C5803231840C0003C3348
:108CD00083409C438C508B5885401D438D5068E0E9
:108CE0000F2832D8334A946C072303409B00072691
:108CF0009E40B4439464946C0E009E403300234322
:108D00009364012955D10B280FD81100D4225200A9
:108D10008C5803231840C0003C3383409C438C5044
:108D20008B5885401D438D5043E02249D622520086
:108D30008C5803231840C0003C3383409C438C5024
:108D40008B5885401D438D5033E0172831D8194A80
:108D5000D46C072303409B0007269E40B443D46491
:108D6000D46C0E009E4033002343D364012920D1EC
:108D700013280FD81100D82252008C580323184012
:108D8000C0003C3383409C438C508B5885401D432E
:108D90008D500EE0074ADA235B00D15803242040AF
:108DA000C0003C348440A143D150D15885400D438C
:108DB000D55070BD00B0004001280DD0002802D071
:108DC00002281CD02EE0184A90690C2303439361BB
:108DD000164A174B1A601AE0134B9869082202438F
:108DE0009A619A69042082439A61124A53688020EA
:108DF000000303435360104A0D4B1A6007E00A4A10
:108E000093690C2083439361084A094B1A60064B0F
:108E10009A69032082439A619A69014011439961DA
:108E2000002000E01720704700B0004080BA8C019D
:108E30009840011000F0004080841E00014B18682B
:108E40007047C0469840011000B5352800D9A2E10E
:108E50008000D24B1B589F46D14AD16802230B4356
:108E6000D360002098E1CE4AD16804230B43D3603D
:108E7000002091E1CA4AD16808230B43D360002047
:108E80008AE1C74AD16810230B43D360002083E1F5
:108E9000C34AD16820230B43D36000207CE1C04A41
:108EA000D16880230B43D360002075E1BC4AD368AE
:108EB000802149000B43D36000206DE1B84AD3689C
:108EC000802109010B43D360002065E1B44AD368D7
:108ED000802149010B43D36000205DE1B04AD36893
:108EE000802189010B43D360002055E1AC4AD3684F
:108EF0008021C9010B43D36000204DE1A84AD3680B
:108F0000802109020B43D360002045E1A44AD368C5
:108F1000802149020B43D36000203DE1A04AD36881
:108F2000802189020B43D360002035E19C4AD3683D
:108F30008021C9020B43D36000202DE1984AD368F9
:108F4000802109030B43D360002025E1944AD368B4
:108F5000802149030B43D36000201DE1904AD36870
:108F6000802189030B43D360002015E18C4AD3682C
:108F70008021C9030B43D36000200DE1884AD368E8
:108F8000802109040B43D360002005E1844AD368A3
:108F9000802149040B43D3600020FDE0804AD36860
:108FA000802189040B43D3600020F5E07C4AD3681C
:108FB0008021C9040B43D3600020EDE0784AD368D8
:108FC000802109050B43D3600020E5E0744AD36893
:108FD000802149050B43D3600020DDE0704AD3684F
:108FE000802189050B43D3600020D5E06C4AD3680B
:108FF0008021C9050B43D3600020CDE0684A116988
:1090000001230B4313610020C6E0654A1169022366
:109010000B4313610020BFE0614A116904230B4335
:1090200013610020B8E05E4A116908230B43136105
:109030000020B1E05A4A116910230B43136100204C
:10904000AAE0574A116920230B4313610020A3E0D3
:10905000534A116940230B43136100209CE0504A9E
:10906000116980230B431361002095E04C4A13697A
:10907000802149000B43136100208DE0484A1369A9
:10908000802189000B431361002085E0444A136965
:109090008021C9000B43136100207DE0404A136921
:1090A000802109010B431361002075E03C4A1369DC
:1090B000802149010B43136100206DE0384A136998
:1090C000802189010B431361002065E0344A136954
:1090D0008021C9010B43136100205DE0304A136910
:1090E000802109020B431361002055E02C4A1369CB
:1090F000802149020B43136100204DE0284A136987
:10910000802189020B431361002045E0244A136942
:109110008021C9020B43136100203DE0204A1369FE
:10912000802109030B431361002035E01C4A1369B9
:10913000802149030B43136100202DE0184A136975
:10914000802189030B431361002025E0144A136931
:109150008021C9030B43136100201DE0104A1369ED
:10916000802109040B431361002015E00C4A117D96
:1091700001230B43137500200EE0094A117D0223E1
:109180000B431375002007E0054A117D04230B43B0
:109190001375002000E0172000BDC0463C170110E9
:1091A00000B0004000B5432800D923E28000E04B26
:1091B0001B589F46DF4B59680222914359605968FA
:1091C0000A435A60002016E2DA4B596804229143A0
:1091D000596059680A435A6000200CE2D54B59681F
:1091E00008229143596059680A435A60002002E2FC
:1091F000D04B596810229143596059680A435A600C
:109200000020F8E1CB4B59682022914359605968FE
:109210000A435A600020EEE1C64B59684022914350
:10922000596059680A435A600020E4E1C14B59680B
:1092300080229143596059680A435A600020DAE15C
:10924000BC4B5968BC4A0A405A605A6880214900A0
:109250000A435A600020CEE1B64B5968B74A0A402B
:109260005A605A68802189000A435A600020C2E18E
:10927000B04B5968B24A0A405A605A688021C90006
:109280000A435A600020B6E1AA4B5968AD4A0A4029
:109290005A605A68802109010A435A600020AAE1F5
:1092A000A44B5968A84A0A405A605A68802149016B
:1092B0000A435A6000209EE19E4B5968A34A0A4027
:1092C0005A605A68802189010A435A60002092E15D
:1092D000984B59689E4A0A405A605A688021C901D1
:1092E0000A435A60002086E1924B5968994A0A4025
:1092F0005A605A68802109020A435A6000207AE1C4
:109300008C4B5968944A0A405A605A688021490235
:109310000A435A6000206EE1864B59688F4A0A4022
:109320005A605A68802189020A435A60002062E12B
:10933000804B59688A4A0A405A605A688021C9029B
:109340000A435A60002056E17A4B5968854A0A4020
:109350005A605A68802109030A435A6000204AE192
:10936000744B5968804A0A405A605A688021490300
:109370000A435A6000203EE16E4B59687B4A0A401E
:109380005A605A68802189030A435A60002032E1FA
:10939000684B5968764A0A405A605A688021C90366
:1093A0000A435A60002026E1624B5968714A0A401C
:1093B0005A605A68802109040A435A6000201AE161
:1093C0005C4B59686C4A0A405A605A6880214904CB
:1093D0000A435A6000200EE1564B5968674A0A401A
:1093E0005A605A68802189040A435A60002002E1C9
:1093F000504B5968624A0A405A605A688021C90431
:109400000A435A600020F6E04A4B59685D4A0A4018
:109410005A605A68802109050A435A600020EAE030
:10942000444B5968584A0A405A605A688021490595
:109430000A435A600020DEE03E4B5968534A0A4016
:109440005A605A68802189050A435A600020D2E098
:10945000384B59684E4A0A405A605A688021C905FB
:109460000A435A600020C6E0324A53685B005B083A
:1094700053605368802109060B4353600020BAE013
:109480002C4B1A8901218A431A81198901220A4326
:109490001A810020AFE0274B1A8902218A431A81E2
:1094A000198902220A431A810020A4E0214B1A895B
:1094B00004218A431A81198904220A431A8100204F
:1094C00099E01C4B1A8908218A431A8119890822BC
:1094D0000A431A8100208EE0164B1A8910218A4314
:1094E0001A81198910220A431A81002083E0114B46
:1094F0001A8920218A431A81198920220A431A8154
:10950000002078E00B4B1A8940218A431A8119897F
:1095100040220A431A8100206DE0064B1A898021FF
:109520008A431A81198980220A431A81002062E045
:109530001418011000B00040FFFEFFFFFFFDFFFF09
:10954000FFFBFFFFFFF7FFFFFFEFFFFFFFDFFFFF67
:10955000FFBFFFFFFF7FFFFFFFFFFEFFFFFFFDFFDE
:10956000FFFFFBFFFFFFF7FFFFFFEFFFFFFFDFFF47
:10957000FFFFBFFFFFFF7FFFFFFFFFFEFFFFFFFDBE
:10958000FFFFFFFBFFFFFFF7FFFFFFEFFFFFFFDF27
:10959000FFFFFFBF184B1989184A0A401A81198921
:1095A000802252000A431A81002024E0124B1989BC
:1095B000134A0A401A811989802292000A431A81AB
:1095C000002018E00C4B19890E4A0A401A811989AB
:1095D0008022D2000A431A8100200CE0064B198930
:1095E000094A0A401A811989802212010A431A8104
:1095F000002000E0172000BD00B00040FFFEFFFF8C
:10960000FFFDFFFFFFFBFFFFFFF7FFFF8023DB04F2
:109610009C466044800001607047C04670B5204B96
:109620001C6823681D7DEDB26A0613D51E21222217
:10963000A1541A7E23318A431A762123E35C1B0747
:1096400006D52023E35C1B0702D520002369984739
:1096500023681B7CEB0722D523681B7CDBB2626985
:109660001370636901336361A38B013B9BB2A383D6
:10967000A38B9BB2002B12D12133E35C5B070ED589
:109680002023E35C5B070AD500222223E2542268F0
:10969000137E01218B431376E3682000984770BD49
:1096A0009C40011070B5214B1C6823681D79EDB2F8
:1096B000EA0717D5A2691178C9B20132A2611970FF
:1096C000E38B013B9BB2E383E38B9BB2002B09D17D
:1096D0002268137A01218B4313722268117A1023B6
:1096E0000B431372EB0612D52123E35CDB070ED587
:1096F0002023E35CDB070AD500222223E254226800
:10970000137A10218B431372200063689847AB06CD
:109710000AD52123E35C9B0706D52023E35C9B0746
:1097200002D5A3682000984770BDC0469C40011038
:1097300070B5204B5C6823681D7DEDB26A0613D5B9
:109740001E212222A1541A7E23318A431A76212314
:10975000E35C1B0706D52023E35C1B0702D5200032
:109760002369984723681B7CEB0722D523681B7C61
:10977000DBB262691370636901336361A38B013BE0
:109780009BB2A383A38B9BB2002B12D12133E35C4A
:109790005B070ED52023E35C5B070AD5002222235A
:1097A000E2542268137E01218B431376E368200084
:1097B000984770BD9C40011070B5214B5C682368D0
:1097C0001D79EDB2EA0717D5A2691178C9B2013245
:1097D000A2611970E38B013B9BB2E383E38B9BB2E5
:1097E000002B09D12268137A01218B43137222685E
:1097F000117A10230B431372EB0612D52123E35C7D
:10980000DB070ED52023E35CDB070AD500222223E9
:10981000E2542268137A10218B431372200063688C
:109820009847AB060AD52123E35C9B0706D5202386
:10983000E35C9B0702D5A3682000984770BDC04633
:109840009C400110E1235B0203600023037143711C
:109850008371C371023383600322C26001320261EB
:10986000013242618361C361036243627047C04653
:10987000F8B54F464646C0B4050017000160002306
:1098800043608360C360036143618361002283831B
:10989000C3832033C2540133C2540133C254554BE5
:1098A000994218D10920544CA0470A20A04709200A
:1098B000524CA0470A20A047514B1D60514910202F
:1098C000514CA04751491120A047514B01221A6029
:1098D00001321A601AE04F4B994217D10B20464CC7
:1098E000A0470C20A0470B20444CA0470C20A047C9
:1098F000434B5D6048491220434CA0474749132021
:10990000A047434B04221A6004321A60FB790422F8
:109910009046002B52D1023398464FE0318A01CE57
:10992000C0B2C8470134E4B24445F7D32B681A7D6E
:10993000D20704D501211A7C1A7D0A42FBD10021ED
:1099400020229954FB79591E8B4159013B797A7930
:1099500013430B43BA79022A0DD0D1B2022902D89F
:10996000012A05D00FE0032A08D0042A09D00AE012
:109970000222134307E00622134304E00A221343A2
:1099800001E00E221343202229688B543E68244BA9
:10999000984704003100234B984782B20004000C22
:1099A0007043201A3109884206D900230133DBB203
:1099B000401A8842FAD807E0002305E03E00083646
:1099C0000024194B9946A9E7002128202C6821542E
:1099D00001331B075B0FD20013439BB22A689384A9
:1099E0002B6819762B68197200200CBC904699469A
:1099F000F8BDC04600400040A5910010498E0010FF
:109A00009C4001101D9600100D960010A5960010A8
:109A100000E100E00050004031970010B9970010BD
:109A20003D8E0010F5EA00106D8C001002680120D8
:109A300013790342FCD011700020704702680120A6
:109A4000137D0342FCD0137C0B7000207047C0468E
:109A50001723002A0DD00B33C35CDBB2052B08D0D3
:109A60008283416105222223C2540368043A1A7694
:109A7000002318007047C0469300C3185960202186
:109A800001239340425C13434354704710B5212295
:109A900001238B40845C23438354012904D1026851
:109AA000117A20230B43137210BDC04610B501225A
:109AB0008A402124035D93430355012904D10268A0
:109AC000137A1F318B43137210BDC0460268117A9E
:109AD00010230B4313720368074A934204D10221F7
:109AE0008023064AD15006E0054A934203D108215B
:109AF0008023024AD15070470040004000E100E05E
:109B0000005000400268117E01230B431376036866
:109B1000074A934204D102218023064AD15006E02D
:109B2000054A934203D108218023024AD15070474D
:109B30000040004000E100E000500040F0B5474622
:109B400080B40C00904600280DD1002A0EDD8F183D
:109B5000084E094D306821002B6898470134A74210
:109B6000F8D1404603E00120404200E0002004BC60
:109B70009046F0BDAC400110A4400110F0B547463E
:109B800080B40E0015000138022811D8002A12D026
:109B900000240C4B98460C4F43461868315D3B68D7
:109BA0009847002809DB0134A542F5D1200006E0E2
:109BB0000120404203E0002001E00120404204BCBB
:109BC0009046F0BDAC400110A84001100300064AC9
:109BD0001268002A02D10549034A1160024A10683E
:109BE000C31813607047C046D0250110605A011099
:109BF000012040427047C04680239B014B600020FB
:109C00007047C04601207047002070470020704711
:109C100000207047C078002800D0E2207047C0467E
:109C20000020704710B50078002806D00348044B88
:109C300098470448044B9847E22010BD941A01103D
:109C400059060110981A01103905011010B50400C9
:109C5000C078002808D00548054B9847A27821888D
:109C60000448054B9847E22010BDC046941A0110E5
:109C700059060110AC1A011039050110F8B504009D
:109C8000194B9B2292009D180127002618001A00EC
:109C9000563A11882288914219D11A78052A01D0A2
:109CA000082A01D1077012E0072A0FD892000F4945
:109CB0008A5897461E700E4A1278002A07D00C4A1E
:109CC0001278013AD2B20A490A7000E006707C3379
:109CD000AB42DBD10748084B98472288A178074858
:109CE000074B98470020F8BD2641011024190110A8
:109CF00034430110941A011059060110E41A01109E
:109D000039050110F8B506000188284B00241A898E
:109D10008A4204D11A005E321278062A2ED001340B
:109D2000E4B27C33052CF2D139E0204963011A1BDF
:109D300092008A18157614005E34072323701C489D
:109D40001C4B98471C481D4B9847E2252BE01848B0
:109D5000184B98471A48194B9847144963011A1B26
:109D600092008A1810005E3008270770F07810758E
:109D7000B2781C1BA4000C19227614E0B578002DD3
:109D8000E5D0D2E70A4E30000A4DA8470C480B4CEC
:109D9000A0473000A8470B48A047E22503E0B5786C
:109DA000002DC2D1EEE72800F8BDC046C840011022
:109DB000941A011059060110141B011039050110E5
:109DC000281B01104C1B011010B50100154B1B780E
:109DD000DBB2132B12D8134C2378DBB29800C018D7
:109DE000C000C318104818182922104B9847237830
:109DF00023780133DBB22370002311E00C480D4BB4
:109E000098470D480D4B98470D4B9847E223002883
:109E100006D00748074B98470A48084B9847E22363
:109E2000180010BDB82E0110AC4301101705011029
:109E3000941A011059060110741B01103905011004
:109E400061CA0010AC1B0110F8B54F464646C0B4BD
:109E5000050041883A4B00241A898A4204D11A002D
:109E60005E321278032A62D00134E4B27C33052CCE
:109E7000F2D12BE063011C1BA400314B1C195E3492
:109E80002378012B13D92F482F4B98472F48304B5D
:109E90009847688813212F4B9847061E4BD02948B6
:109EA000294B98472C482A4B9847E22643E0002646
:109EB00041E0244E3000244DA8472848244CA047B8
:109EC0003000A8472648A047E22634E02B79002B33
:109ED000D0D1EEE71B481C4B984720481C4B9847B5
:109EE0002A78174B994667013B1B9B004B441A7518
:109EF0002A791A765E3305221A70381B800048448E
:109F00003630290022310B32164B98469847381BC1
:109F1000800048444630290032311722C047381BA0
:109F2000800048441A30A91D1C22C04703E02E7946
:109F3000002ECFD09EE730000CBC90469946F8BD6D
:109F4000C8400110941A011059060110C41B0110D9
:109F50003905011081CA0010E41B0110001C01101A
:109F60002C1C01101705011010B500887823012260
:109F70000121024CA047002010BDC046A1CA00101C
:109F8000F0B557464E464546E0B484B00400092279
:109F9000002101A86B4B984725886B490A000023D4
:109FA0001089A84216D110005E300078022811D125
:109FB00065485A01D61AB60086195E3606223270F6
:109FC000F93213405A01D21A92008218127DD0073A
:109FD00005D41BE001337C32052BE1D11EE0E07893
:109FE000002813D05901C91A8B005749C9181A31D2
:109FF0002088564B9847002800D19DE05448554B87
:10A0000098475548554B9847E22095E05A01D31A96
:10A010009B004D4AD3185E3302221A702588002215
:10A02000002316000889A8420DD108005E30007890
:10A03000022808D15201921B9600434A92195E32BF
:10A040000321117005E00133DBB201327C31052BB5
:10A05000E7D101AA02211172E178917001215170BA
:10A06000033111701F005A01D21A92003649525C16
:10A07000022A04D101AA03219171D17103E001AA3E
:10A0800001219171D17101AA1021517111717A01CF
:10A09000D21B92002C498A18127E402A34D15A01D0
:10A0A000D31A9B009A461E006036761855466835CE
:10A0B0006D182B4B99460F239846C84743461840C6
:10A0C0003070C84743461840B0740136AE42F4D1F0
:10A0D000564670361C4AB618214B99460F239846AF
:10A0E000C8474346184028700135B542F8D11C4B8B
:10A0F00098477B01DB1B9B00134AD3181A00703270
:10A1000010807A3310221A707A01D71BBF00603793
:10A110000D4ABA182088002301A9124CA047002834
:10A120000AD001AB00229A705A700948094B98472F
:10A130000D480A4B9847E22004B01CBC9046994653
:10A14000A246F0BD29050110C8400110D9CF00106A
:10A15000941A0110590601105C1C011039050110F8
:10A160006D060110EDCD0010741C0110F0B55F46B6
:10A1700056464D464446F0B485B083460488494A65
:10A18000002100231089A0420DD110005E3000781C
:10A19000022808D14A01521A9500424A52195E32E9
:10A1A0000321117005E00133DBB201317C32052B54
:10A1B000E8D101AA02211172013991705170002178
:10A1C0001170D1701F005A01D21A92003549525CA9
:10A1D000022A04D101AA03219171D17103E001AADD
:10A1E00001219171D17101AA1021517111717A016E
:10A1F000D21B92002B498A18127E402A31D15A0173
:10A20000D31A9B009A461D0060356D185446683479
:10A210006418254B99460F26C84730402870C84718
:10A220003040A8740135A542F6D1554670351D4A17
:10A23000AD181D4B99460F239846C8474346184012
:10A2400020700134AC42F8D1174B98477B01DB1BDF
:10A250009B00144AD3181A00703210807A331022EF
:10A260001A707A01D71BBF0060370E4ABA185B46D6
:10A270001888002301A90D4CA04700280AD001AB83
:10A2800000229A705A700A480A4B98470A480B4BAA
:10A290009847E22005B03CBC90469946A246AB46A2
:10A2A000F0BDC046C84001106D060110EDCD001094
:10A2B000941A011059060110A01C01103905011053
:10A2C000F0B585B0050006223D4902A83D4EB047D5
:10A2D00001AC042229002000B047E378002B62D1B2
:10A2E00039483A4B98473A483A4B984700263A4CF7
:10A2F000FF271E20A047C3B2002B1AD1324F3800CF
:10A30000324EB0473548334CA0473800B047344848
:10A31000A04728881321334B98470300E220002BE5
:10A320004CD02948294B98472F482A4B9847E22080
:10A3300044E01A00303A092ADBD802AAB354384064
:10A340002A4B98470136062E26D0D2E71E481F4BCF
:10A35000984727481F4B98470024244E02ABE05CE7
:10A36000B0470134062CF9D101AB9978288802AAAC
:10A37000204B9847002821D01348144B98471E487B
:10A38000144B9847002019E00F48104B98471B4882
:10A39000104B9847002011E00B480C4B9847184889
:10A3A0000C4B9847D8E701AB5A8880235B009A4250
:10A3B000CCD001AB9B78012BE6D0002005B0F0BDDE
:10A3C000501A011017050110941A011059060110B6
:10A3D000C81C011039050110E1AF0010F01C01107C
:10A3E000FC1C011081CA0010E41B01106D05011056
:10A3F000101D01101DCF0010481D0110601D01101F
:10A400007C1D0110F8B5060005882F4B00220024A2
:10A4100010001989A94216D119005E310978012965
:10A4200011D929495201101A800008185E300623FC
:10A4300003706201131B9B00CB1870331A8873885A
:10A440009A4213D106E00134E4B201327C33052C88
:10A45000DED10BE06101091B89001B4B59187231D9
:10A46000301D0822194B9847002815D0184F380086
:10A47000184EB0471848194DA8473800B04718483B
:10A48000A84763011C1BA4000F4B1C192089052140
:10A49000144B9847E22016E06201131B9B006033C7
:10A4A00009495B18141BA4000C19217D3088012276
:10A4B0000D4CA047002806D00548064B98470B488E
:10A4C000064B98470020F8BDC8400110F904011060
:10A4D000941A011059060110901D01103905011040
:10A4E000C81D011081CA001051D00010201E01109B
:10A4F00030B5002A47D0062947D88900284B5B5839
:10A500009F46284B05240AE0274B012407E0274BF0
:10A51000052404E0264B012401E0264B05240028F5
:10A5200016D1196800290BD106E01D000433181F4D
:10A530000068002806D100E01D002A6001212CE0FF
:10A54000043300210131C9B2A142EED3002124E03D
:10A550000021012821D119688A420CD106E01D0092
:10A560000433181F0068824207D100E01D00002359
:10A570002B60012111E0043300210131C9B2A14255
:10A58000EDD3002109E0002107E0002105E00A4B9E
:10A590000524C4E7094B0124C1E7080030BDC046CB
:10A5A00044190110B4400110B040011038430110AB
:10A5B000EC4801104C43011060430110A843011006
:10A5C000F0B55F4656464D464446F0B491B005009E
:10A5D00000247E4B1C60072200217D487D4EB04741
:10A5E000122200217C48B0477C4A00217C48B047B9
:10A5F0007C4B1C70CD22920000217B48B0477B4BE6
:10A600001C708322920000217948B047794B9B4609
:10A610008023DB009A461A0000215846B047764B4B
:10A62000994680235B0198461A0000214846B047AE
:10A63000724F1C2200213800B0475B46BB60534676
:10A64000FB604B463B6143467B616D4B1C605C602D
:10A650009C60DC601C616B4B1C605C609C60DC601F
:10A660001C61694B1C605C609C60DC601C61674B1A
:10A670001C60674B1C60674B1C605C609C60DC600E
:10A680001C61654B1C60654C9B239B009846A04455
:10A69000504F40267C2200212000B84723005E3323
:10A6A00000221A7026767C34A045F3D15C4B1A70D8
:10A6B000524C4A4B63604A4B23605A485A4B984766
:10A6C0005A485B4B984720005A4B984700280BD0BC
:10A6D000544E3000544DA8475748554CA0473000C1
:10A6E000A8475648A047FEE7554A00210020554C90
:10A6F000A047554A02210020A04709215348544B46
:10A700009847002805D04748474B98475148484B41
:10A71000984707225049083104A8504B98472622F1
:10A72000002106A82B4B9847002D0CD104A84C4BB8
:10A73000984704AD002806D03A483B4B9847494813
:10A740003B4B984704AD3748374B98472B796A798C
:10A75000A9792878039068780290A8780190E87821
:10A7600000904148324CA04706AC0F2323703F4B6A
:10A7700063800722290007A8384B98470023E37617
:10A7800023776377A377E3772384638480239B0015
:10A79000A3842000364B9847002805D02148224B3F
:10A7A00098473448224B98472800334B9847002855
:10A7B00005D01C481C4B984730481D4B984711B09A
:10A7C0003CBC90469946A246AB46F0BDB42E011063
:10A7D000BC2E01102905011074430110E204000091
:10A7E000D4290110B82E0110AC430110A44301106C
:10A7F000E0460110D4250110C42E01108843011039
:10A800004C43011060430110B4400110A8430110F3
:10A81000B040011038430110EC480110C84001104D
:10A8200034430110941A011059060110401E011002
:10A830003905011099C60010541E0110741E011034
:10A84000AC200110F1A400106C1A0110B01E011010
:10A85000B1C50010BC1E0110501A011017050110DF
:10A86000E5C50010D41E0110EC1E0110983A00003E
:10A8700009C60010241F01104DC80010481F011008
:10A8800010B501220121064B9847002806D0054843
:10A89000054B98470548064B9847E22010BDC04637
:10A8A00099CF0010941A011059060110841F01104D
:10A8B00039050110F0B55F464E464546E0B49AB002
:10A8C0000500867A002E00D0C6E07548754FB8475F
:10A8D0002B796A79A97968780290A8780190E8784C
:10A8E00000907148714CA0476D48B847298970485D
:10A8F000A047122229006F486F4B98470495072202
:10A9000029006E486E4B9847002800D1ADE02B78A7
:10A91000022B00D0A9E05022002106A8694B9847DD
:10A92000694F00230BE0591C147806A8C454013267
:10A930008BB2B342F7D17C37331E502B04D01E00AC
:10A940001036B6B23A00EEE706AA290005205F4BA2
:10A950009847061E00D19CE05148524B98475C48EE
:10A96000524B9847E22694E0E7B2059407220499F7
:10A970004846D847002809D1059A53019B1A9A00E6
:10A98000544B9B185E3302221A702BE001347C2357
:10A990009C46E144052CE7D172E01C0011780029A7
:10A9A0001AD101E00024002763019946181B80009A
:10A9B000484B98464044122229003F4B9847464A4C
:10A9C00013780133DBB213704B461B1B9B004344CF
:10A9D0005E3302221A7005E0791CCFB201337C325B
:10A9E000052FDAD1072229003448354B9847002833
:10A9F0000CD17B01DB1B9B00364AD31805229A74CD
:10AA0000023200212D482F4B984742E0314B9846A7
:10AA10007C01E31B9B0043440A229A74033A002101
:10AA20002648284B9847E41BA4004444A37C0A2BE7
:10AA30002FD10DE01A481B4B9847274B1978C9B204
:10AA400026481A4B984728891321254B984720E020
:10AA50002889244B98471CE01148124B9847A97A43
:10AA60002148124B9847002613E01B4B1B78DBB2A2
:10AA7000042BDFD8174B99460024114B9B4673E7F4
:10AA80005E23144AD35C002B8CD0184A0123012783
:10AA900083E730001AB01CBC90469946A346F0BD2F
:10AAA000941A011059060110A41F01103905011054
:10AAB000E81F01107443011017050110BC2E01108E
:10AAC000F9040110290501100E410110ADCA001052
:10AAD00000200110C840011034430110242001104F
:10AAE00081CA001081A8001060200110A24101104D
:10AAF000F0B5474680B40378002B41D12F4D002498
:10AB0000461C2F4F102229003000B84700283FD0A4
:10AB10000134E4B27C35052CF4D131E0DDB21C0007
:10AB20001178002922D101E000240025254B984608
:10AB30006601371BBF004744122223493800234BCC
:10AB40009847234A13780133DBB213705E37022330
:10AB50003B70341BA40044440833A3746B015D1B99
:10AB6000AD004544AB7C0A2B23D104E001337C3299
:10AB7000052BD3D11DE0144B1889164B984718E0CC
:10AB80005E23104AD35C002BCED0134A0123C5E7C5
:10AB90000C4863011A1B9200821811005E310225D5
:10ABA0000D700A219174100012220749074B984733
:10ABB000E1E7002004BC9046F0BDC0460E41011004
:10ABC000F9040110C8400110744301101705011069
:10ABD0003443011081A80010A2410110F8B50D0006
:10ABE0003B2872D883003C4AD3589F4684000026F5
:10ABF0003A4FBB59002B04D01B59002B01D0280021
:10AC000098470436142EF4D165E01338C4B2A4007A
:10AC10000026334FBB59002B04D01B59002B01D009
:10AC2000280098470436142EF4D154E01D38C4B2DD
:10AC3000A40000262B4FBB59002B04D01B59002B1E
:10AC400001D0280098470436142EF4D143E0273869
:10AC5000C0B2254B1B68002B3DD08000C358002B91
:10AC600039D00800984736E02D38C0B21F4B1B681A
:10AC7000002B30D08000C358002B2CD00800984700
:10AC800029E03638C4B2A4000026194FBB59002B66
:10AC900004D01B59002B01D0280098470436142EED
:10ACA000F4D118E03838C0B2124B1B68002B12D018
:10ACB0008000C358002B0ED0080098470BE00E4BC5
:10ACC0001B68002B07D0984705E00C4D28000C4C62
:10ACD000A0472800A047F8BD601901104C4301109F
:10ACE00060430110B4400110A8430110B0400110AE
:10ACF00038430110EC480110B42E0110941A0110D1
:10AD00005906011010B5020006490748074B98473D
:10AD1000041E04D1044B18780249054B98472000C3
:10AD200010BDC046E0460110A443011041BE001012
:10AD3000DDAB001070B590B008AC0A232370092673
:10AD400066700922114922206844114DA84700234A
:10AD50006A46137015335370E672EA332373082280
:10AD60000C4910312D206844A84700236A4615215C
:10AD70002000094CA047002805D00848084B9847F8
:10AD80000848094B9847002010B070BDB01E011054
:10AD900017050110501A0110A1C80010941A0110D3
:10ADA0005906011088200110390501107047C0466E
:10ADB00000B589B001A8054B9847054B0393054B97
:10ADC000069301A8044B984709B000BDBD8A001046
:10ADD00080BA8C0100751903518B001010B5010069
:10ADE0000020074CA04707490120A0470020064C3F
:10ADF000A0470120A0478022D201044B1A6010BD59
:10AE0000558C0010ADAD00102D8B001000E100E05E
:10AE100010B5002800D10130054B43431A00002132
:10AE20000020044B98470020034B984710BDC046B4
:10AE300080BA8C01E18A0010098B001010B5002047
:10AE4000014B984710BDC0462D8B001010B50E4B1E
:10AE50001B78012B0BD102220B4B1A700B4B1B687A
:10AE6000002B10D102210A480A4B98470BE0074BF0
:10AE70001B68002B07D0084C20789847012221003E
:10AE80000348064B984710BDC83E0110D03E011044
:10AE9000F0480110AD9A0010CC3E0110519A0010FC
:10AEA00070B506000D00034C29003000A0470028B3
:10AEB000FAD170BD3D9A001070B506000D00034C2C
:10AEC00029003000A0470028FAD170BD2D9A00104B
:10AED00070B500210020194B9847194C2000194BE0
:10AEE0009847E1235B0223600223A3600322E26010
:10AEF0000132226101326261A361E3612362636214
:10AF0000114D124B1D60124A124B1A60124A134B1C
:10AF10001A60220012492800124B9847124E3368DB
:10AF200098680021114CA047336858680021A04759
:10AF300002220F4928000F4B984770BDB98D0010B1
:10AF40001449011045980010F0480110AC40011060
:10AF5000B9AE0010A8400110A1AE0010A44001102D
:10AF6000004000407198001090250110E506011086
:10AF70004DAE0010799A0010F0B583B005000D4C6D
:10AF8000A047A0470C4FB8470C4E0D4A0D4BB04799
:10AF900000900191FA2080006843B84702000B003E
:10AFA00000980199B047084B9847084B186003B0C8
:10AFB000F0BDC0463D8E00107DFE0010F1F1001086
:10AFC000C7AEFE19EFD8093F3DEC0010C43E01109A
:10AFD000024B1A68501E18607047C046C43E0110EC
:10AFE00070B504000122114B1A70114B1B68002B25
:10AFF00003D102210F48104B984720000F4B984770
:10B000000F4900230B7001220A480E4B9847074C4A
:10B010000D4D2378022B02D0A8470028F9D1002239
:10B02000024B1A70064B187870BDC046C83E01101E
:10B03000D03E0110F04801108D9A001079AF001039
:10B04000CC3E0110519A0010D1AF0010024B1A688B
:10B05000026018607047C046D83E011030B50B4BF7
:10B060001C68002C11D025681D6000232360A1609E
:10B07000E280A080064B1A68002A02D11C6004E01E
:10B080001A001368002BFBD1146030BDD83E0110AC
:10B09000D43E011070B50023064A1360064A1360BF
:10B0A000064C26007836064D2000A8470C34B442E2
:10B0B000FAD170BDD83E0110D43E0110DC3E011023
:10B0C0004DB0001070B50400134B1D68134B1B6886
:10B0D00098470C2C1FD00C3CE388052B1BD0EB07AA
:10B0E00014D40F4B1B68022098470E4B1B689847DF
:10B0F0000D4C0320236898470028FAD10B4B1B689E
:10B100000230984701220A4B1A6004E0094B186884
:10B11000094B1B68984770BDECB10040843F01109B
:10B120007C3F0110903F0110683F0110703F0110FB
:10B1300020B00040743F0110643F011010B5064B71
:10B14000064A196811605A68054B1A60054B1B685E
:10B15000002B00D0984710BD3C4901100CB00040B6
:10B1600010B00040184C011070B5322200210D487B
:10B170000D4B984700210B48012502244A00115429
:10B18000821853782B43DBB2A34353700131192942
:10B19000F4D1044B5A7818398A435A70DA788A43C2
:10B1A000DA7070BD5849011029050110064A11686E
:10B1B000064B0B401360064A136006490868064BAD
:10B1C00003400B60536070470CB00040D30FFEFF8C
:10B1D0003C49011010B00040C0E7FFFFF0B55746F2
:10B1E0004E464546E0B44F4B1B78002B04D04D4BE8
:10B1F0001B78012B00D18CE04B4B98474B4B984769
:10B20000002398464A4B42461A604A4C80238022CB
:10B2100012049246E250802252049146E250464D7A
:10B22000464B2B60464B474A13604749474A1160DB
:10B23000474A1168474A1160474A1168474A1160F6
:10B240004749484A11604849484A1160484F494AAD
:10B250003A604949494A116049494A4A11604A4E8F
:10B260004A4A32604A494B4A11604B494B4A116085
:10B270004B494C4A11604C494C4A11604C494D4A6B
:10B280001160282098474C4928202B6898472B6844
:10B290004A49272098474A4B1A684A4B1A604A4A3B
:10B2A0004A4B1A604A4A4B4B1A604B4A4B4B1A6046
:10B2B0004B4A4C4B1A604C4A4C4B1A604C4A4D4B13
:10B2C0001A604D4A4D4B1A60A022920000214C4852
:10B2D0004C4B9847802292004B4B1A804B4B98471F
:10B2E000534623604B462360494B42461A603B68F5
:10B2F000484A1A603368484A1A600020474CA04701
:10B300000120A0470220A0470122064B1A7000200E
:10B3100003E00122034B1A7001201CBC90469946A1
:10B32000A246F0BD6C3F011069B10010ADB1001034
:10B330008C3F011000E100E00C4C0110D707000029
:10B34000BD0700004849011051BC0100104C01101C
:10B35000BC0004105C3F0110B8000410583F0110FD
:10B360009FB9010044490110DBB9010050490110A7
:10B37000204C01103C000410C01F0410544901105F
:10B38000C41F04101C4C0110144C0110D41F0410D5
:10B39000D81F04104C490110E9CB01007C3F01107B
:10B3A0008FCD0100703F0110A3CE0100903F01102E
:10B3B000CFCB0100683F0110F5B7001089B700102E
:10B3C000E4000410843F0110E99F0100943F011044
:10B3D000DDDB0100643F01105BDC0100783F011000
:10B3E000EC050410743F0110E3D50100803F01100B
:10B3F000200C0410983F0110099F0100543F0110D8
:10B400008C49011029050110244C011095B0001041
:10B41000184C01103DB1001051B8001039B800109F
:10B42000044B1A780523012A02D1034B186000232C
:10B43000180070476C3F01108C3F011070B504007C
:10B440000E4B1B68002B02D0408898476080E38831
:10B45000A288618820880A4D2D68A8470500E288E7
:10B46000002A02D1074B984706E021000831064B1D
:10B4700098472800034B984770BDC0465C3F0110B9
:10B48000943F0110C5B0001017050110F0B55F46DC
:10B4900056464D464446F0B487B0441E00239946B4
:10B4A000E31C1CD80D22002102A8824B98473323AD
:10B4B00002AA1370303B537093700233137193716F
:10B4C0001472230A5372230C9372240ED472012334
:10B4D00013730D211000784B9847012399460024DF
:10B4E0000025764F764E77493868336898470028AC
:10B4F00000D088E0734B1C68A3889A46CD239B003C
:10B500009A4500D1C7E023899B46638998464B46FC
:10B51000002B11D00D22002102A8664B984733233F
:10B5200002AA1370303B53709370023313719371FE
:10B530000D211000604B9847A023DB009A4521D1D4
:10B54000614B1B884344A0229200934202DD803A63
:10B550005D4B1A805C4B9A461D885C4BED182100B0
:10B560000C31424628005A4B98474246290058461B
:10B57000584B984753461B88434452461380002437
:10B5800002253AE0544B1B68002B32D04D4B1A6811
:10B590009388CD2189008B4204D14B460124002B96
:10B5A0002BD028E04D4C494D25602B701B0A6B7049
:10B5B00010894B4B1B6898472871000A68712068F6
:10B5C000404B1A68D28842801D686B89C38008305E
:10B5D00020606A89002A03D029000C313C4B98472F
:10B5E000698908313C4B1B6838489847002403257B
:10B5F00003E0002401E00024D025324B1868394BC9
:10B600001B68984700E00725002C00D06BE74B46ED
:10B61000002B46D0294B1E68002E04D100231C6A43
:10B62000002C31D13DE0346A14239C46B444634677
:10B63000604600932C4B1B689847002C1FD00027B6
:10B64000CD239B009846274B9A46200003689B8891
:10B65000434510D1002F06D08368BB6053461B685A
:10B660009847B86809E0836833621E4B1B680193F2
:10B670009847306A01E0070080680028E6D11B4B3C
:10B680001B68009898470CE014230093164B1B6826
:10B6900014209847D3E7104B1B680024002BACD034
:10B6A0007BE7280007B03CBC90469946A246AB46D3
:10B6B000F0BDC046290501103DB40010983F0110AF
:10B6C000803F0110603F0110244C01108C49011093
:10B6D000170501105DB000108C3F0110883F01106C
:10B6E000583F0110543F0110783F0110643F011092
:10B6F00010B5034B1B68802000029847082010BD3E
:10B700004449011010B5034B1B688020C0019847C5
:10B71000002010BD5049011030B5184A138F9BB25C
:10B72000108D80210902014311851000144D012460
:10B730000022DB05DB0D11D0DBB259420B40012B9F
:10B7400006D011005B080131C9B2012BFAD100E02B
:10B75000110023008B409BB2038703E0038F2B4330
:10B760009BB20387038FDB05DB0DE2D1802149000B
:10B770008133FF33034AD15030BDC0460010014031
:10B780000080FFFF00E100E030B5174A138F9BB245
:10B79000108D80210902014311851000134D0124F1
:10B7A0000022DB05DB0D11D0DBB259420B40012B2F
:10B7B00006D011005B080131C9B2012BFAD100E0BB
:10B7C000110023008B409BB2038703E0038F2B43C0
:10B7D0009BB20387038FDB05DB0DE2D18021813330
:10B7E000FF33034AD15030BD000001400080FFFF0D
:10B7F00000E100E010B50C4B1B8F5B0B10D00B4B26
:10B800001B689847084A138F118F5B0B5B030B4330
:10B81000138780214900C0235B00054AD15001E015
:10B82000044B984710BDC04600100140104C011059
:10B8300000E100E019B700100323022804D88000BB
:10B840000022024BC250002318007047284C011000
:10B8500010B504000378012B08D1114B1B68002B95
:10B8600000D09847FF2322689A4322606378012B17
:10B8700008D10B4B5B68002B00D09847094B22681E
:10B8800013402360A378012B08D1054B9B68002B44
:10B8900000D09847044B22681340236010BDC04677
:10B8A000284C0110FF00FFFFFFFF00FF10B502480A
:10B8B000024B984710BDC046484C011065840010EB
:10B8C00010B5044B98470122034B1A700A20034B12
:10B8D000984710BD3DAE0010A23F011011AE001000
:10B8E00010B54378012B06D10748084B9847012231
:10B8F000074B1A7005E00748044B98470022044B99
:10B900001A70002010BDC0464421011039050110F5
:10B91000A33F01106C21011070B5050009480A4CC5
:10B92000A0470A48A04768880121094B9847094B5E
:10B9300018701B78002B03D00748034B9847FEE78D
:10B94000002070BD9421011039050110BC210110A7
:10B95000A5D00010DC4C0110F021011010B584B00E
:10B960001548164B9847164B9847164B18701B787E
:10B97000002B06D0134B1978C9B213480F4B9847C8
:10B98000FEE700230293114B01935A33FF330093D8
:10B9900000230022012100200D4CA047094B187004
:10B9A0001B78002B06D0074B1978C9B20648034B09
:10B9B0009847FEE704B010BD1422011039050110AC
:10B9C00035AD0010DC4C0110382201108F02000050
:10B9D00025C9001010B50348034B9847034B9847FF
:10B9E000002010BD68220110390501105DB900105A
:10B9F00070B50A20084B98470024084E064DA05DFC
:10BA0000A8470134082CFAD10548064B98470A206C
:10BA1000014B984770BDC0466D0501109C3F011059
:10BA2000784C011065840010F0B55F4656464D46CF
:10BA30004446F0B491B0884B9847884B9847884B60
:10BA40009847884B98478848884B98470120884BEF
:10BA500098470020874B9847874B9847C020C001E4
:10BA6000864B9847864B9847864B9847864B984716
:10BA700081B28648864CA0478648A047864B0293F1
:10BA80000C2301930B3B00931D3301220121012064
:10BA9000824CA047824B18701B78002B03D0814842
:10BAA0007B4B9847FEE78048794B98477F4A0021B7
:10BAB00000207F4B98477A4B18701B78012B02D0DF
:10BAC0007C48734B98477C4A04210020784B984768
:10BAD000734B18701B78012B02D078486C4B984739
:10BAE000774B984706A8774B984796239B01069378
:10BAF000062308930133099307330A9301330B9309
:10BB00000D3B0C930D930E930F936F4D6F4C06AA44
:10BB10006F492800A0470028F9D16B4B9A461800BE
:10BB20006C4B984750466C4B98476C4C882323705D
:10BB30006370A370E37023716371A371E37106AD49
:10BB40002800674FB84704232B730026EE72EB7072
:10BB5000644B984629001800634B9B469847280081
:10BB6000B84703239946EB70AE70012701232B7170
:10BB70005E4E29003000D8475D490B7B3B430220D5
:10BB800003430B73CB684A461340CB6006239B46A6
:10BB90008B600C6053461B684B60564D2A7B3A43C2
:10BBA00002432A734A46E8680240EA605A46AA609D
:10BBB00010332B606C6040464F4CA047290030008A
:10BBC000A0474E4B424653604D4B73602423D25CDA
:10BBD0003A434146CA54F25C1743F754802212029A
:10BBE000484B1A603000484B9847484C484D494EE6
:10BBF0004948A0472A783378DBB2002AF8D0002BD6
:10BC0000F6D01F4B98471F4B9847059006AE01276B
:10BC1000F77009233371073B73710633B3701C331C
:10BC2000B371153B33803D493D4B9847164B9847C0
:10BC3000FF231B0618430097012304223100394ECD
:10BC4000B0470028D3D105980F4B984781B20F48D1
:10BC50000F4B9847CBE7C046DDB10010F1B600109E
:10BC6000D1AE0010B1AD0010C1B80010DDAD0010B4
:10BC700011AE0010C1A50010E9800010AD810010C8
:10BC8000D1810010EDFE00100DEC00109422011087
:10BC900039050110B0220110344C011085D000107C
:10BCA000DC4C0110E422011004230110F8200110E3
:10BCB000F1A400103C230110A02301106C230110FB
:10BCC0005DB9001045980010B84C01107198001033
:10BCD00000500040CD9A0010059B00109C3F0110C1
:10BCE0008D830010484C0110DD840010784C011049
:10BCF000A84C0110384C0110BD830010ADB80010E5
:10BD0000F1B9001000E100E06584001005AD0010FD
:10BD1000A23F0110A33F01108F020000000020414C
:10BD200079EC0010B1D0001070B5124D2C68002CC9
:10BD300014D02668E2602E6000250F4A2381136824
:10BD40002560A080E180AB4201D1146011E01A6847
:10BD5000002A01D0131CFAE71C600AE0C4B2002CD0
:10BD600007D1064CE26001222381054BA080E180CF
:10BD70001A7070BDBC3F0110B83F0110A43F011004
:10BD8000B43F011010B5084B000900011A680818EB
:10BD9000814203D00A600A1C1031F9E71A600022C0
:10BDA000024B1A6010BDC046BC3F0110B83F0110E5
:10BDB00038B51B4C031C2588081C211C9D4207D14B
:10BDC000A588854204D101235B422380A26009E05B
:10BDD0004C889C420AD18C88844207D101235B4263
:10BDE0004B808A600F4B9847012017E00E498B4229
:10BDF0000ED00E498B4207D00D4900208B420DD149
:10BE0000101C0C4B9847EFE7111C0B4B002202E073
:10BE1000111C0022094B98474342584138BDC04687
:10BE2000E04C0110BDD10010130E0000150E0000F3
:10BE3000010E00002DD50010EDD60010C5D7001062
:10BE40000023F0B587B004920370049B0390013B7C
:10BE50000D1C0593033302D80498AE4B9847059BFD
:10BE6000AD4C033302D90023029315E00023029363
:10BE70002368002B13D1029BD02B00D1DAE2049867
:10BE8000A64B984702900228F2D13FE00498A34BBA
:10BE900098470290022839D02368002BF6D0029BE5
:10BEA000D02B00D1C6E2029B033B5A1E9341029A5B
:10BEB0005B421A4023680292002B00D1C2E21A684A
:10BEC000DE682260DA880192954A9C8811681360C6
:10BED0001960944B1B78012B0FD1934B924A988891
:10BEE000D988D2681B89914FB8471022904B8E4851
:10BEF0000021984700238B4A1370029B002B14D11A
:10BF00008C4B9C4209D08C4B9C4227D13A23039AFC
:10BF10001370002302931D1C07E0019BA34200D075
:10BF20008AE23823039A13702E60039B1B783B2B05
:10BF300001D1824B9847039B1B783B2B03D0059B79
:10BF4000033304D983E2029B002B88D0F7E7029BDE
:10BF5000D02B00D17BE27A4B984778E2019BBB2B38
:10BF600025D1BB2C23D16B461B89AB80B37872786B
:10BF7000F0781B02134371793279A87071482B80D5
:10BF8000834206D8704A93420BD2704A934208D03B
:10BF900009E06F48834206D10B021343AB8037237D
:10BFA00002E0362300E00023039A1370BDE7694BDB
:10BFB0009C4200D144E165D8674B9C4200D1D5E159
:10BFC0002FD8664B9C4200D1E0E113D8644B9C42D1
:10BFD00000D1A3E104D83826B44200D125E217E10C
:10BFE000604B9C4200D19FE1FE33FF339C4200D165
:10BFF000D3E10DE15C4B9C4200D1A9E108D85B4B39
:10C000009C4200D196E15A4B9C4200D199E1FFE05D
:10C01000584B9C4200D1A2E1574B9C4200D1D4E145
:10C02000F6E0564B9C4200D1C8E112D8544B9C42DA
:10C0300000D1D1E104D8534B9C4200D19BE1E7E011
:10C04000514B9C4200D1ADE1504B9C4200D1B0E13C
:10C05000DEE04F4B9C4200D1E0E009D8083B9C4217
:10C0600000D1D7E04B4B39269C4200D1DDE1CFE037
:10C07000D1231B019C4200D1D6E0474B9C4200D10A
:10C08000D8E0C5E0454B9C4200D117E12ED8444B87
:10C090009C4200D13DE112D8424B9C4200D1E8E0E5
:10C0A00004D8033B9C4200D1D0E0B1E03E4B9C421F
:10C0B00000D1D0E03D4B9C4200D1F9E0A8E03C4BE0
:10C0C0009C4200D1DBE008D83A4B9C4200D11BE1F6
:10C0D000394B9C4200D1D8E09AE0384B9C4200D1C9
:10C0E000D8E0374B9C4200D1DBE091E0354B9C42DD
:10C0F00000D1F7E076D8344B9C4200D1F8E069D803
:10C10000324B9C4200D1E0E0314B9C4200D1A9E08F
:10C110007EE0C046F5D10010B83F01108DB400108C
:10C12000BC3F0110B43F0110A43F011029BD001015
:10C1300029050110FFFF0000FEFF000005B70010F9
:10C14000F7D100101E2000001D200000030C00008D
:10C150001F2000001C0D00000C0C0000020C000051
:10C16000020A0000030A0000060C0000040C000094
:10C17000050C0000070C0000090C0000170C000063
:10C18000120C00000D0C0000130C0000150C000038
:10C19000080D0000010D0000150D00001B0E000031
:10C1A0000F0E0000030E0000060E00000A0E000035
:10C1B000150E0000110E0000130E0000170E0000F7
:10C1C000190E0000270E0000210E00001C0E0000BA
:10C1D0001D0E00009F4B9C427ED09F4B9C4200D185
:10C1E0008CE015E09D4B9C4200D10AE108D89C4BA5
:10C1F0009C4200D1F7E09B4B9C4200D1FAE007E063
:10C20000994B9C4200D103E1984B9C4200D106E13E
:10C2100000260AE1301C291C954B14E0301C291C17
:10C22000944B9847042600E1301C291C924B9847F8
:10C230000126FAE0301C291C904B98470F26F4E0A9
:10C24000301C291C8E4B9847061CEEE00198311CCF
:10C250002A1C8C4B17E0311C01982A1C8A4B9847EA
:10C260001126E2E0311C01982A1C884B98471226BF
:10C27000DBE0301C291C864B98470626D5E0311C94
:10C280002A1C0198834B9847DEE70198311C2A1C31
:10C29000814BF8E7311C01982A1C804B98470D26EA
:10C2A000C3E0311C01982A1C7D4B98470E26BCE048
:10C2B0000198311C2A1C7B4B984784E0311C019863
:10C2C0002A1C794B98470B26AFE0311C01982A1C99
:10C2D000764B98471026A8E0301C291C744B9847D1
:10C2E0002826A2E0301C291C724B984729269CE086
:10C2F000301C291C704B9847272696E0301C291CBF
:10C300006E4B98472A2690E00198311C2A1C6C4BF2
:10C31000B9E70198311C2A1C6A4BB4E7301C291C70
:10C32000694B98472B2680E0301C291C674B9847A7
:10C330002C267AE0311C01982A1C654B984713265D
:10C3400073E0311C01982A1C624B984714266CE05C
:10C35000311C01982A1C604B9847152665E0311C5A
:10C3600001982A1C5D4B984716265EE00198311C07
:10C370002A1C5B4B87E7311C01982A1C584B9847B5
:10C38000A988061C574B288898474EE0311C019815
:10C390002A1C554B9847232647E00198311C2A1C3C
:10C3A000524B70E7019B301C1F0A2F80291C504BF9
:10C3B00049E70198311C2A1C4E4B64E7301C291CAC
:10C3C000019A4D4B98473B262FE0311C01982A1CBF
:10C3D0004A4B9847182628E0311C01982A1C484BE4
:10C3E0009847202621E0311C01982A1C454B98478C
:10C3F00033261AE0311C01982A1C434B98473026FB
:10C4000013E0311C01982A1C404B984734260CE05D
:10C41000311C01982A1C3E4B9847352605E0311CFB
:10C4200001982A1C3B4B98473226039B1E70002321
:10C4300002937AE5D023FBE7019B029EBB2B00D041
:10C44000E6E6F2E7029B002B00D06EE5E0E60298FC
:10C4500007B0F0BD220E0000250E0000051B0000F5
:10C46000011B0000031B0000061B0000081B00004E
:10C4700021E0001005E00010A1E2001091E300109F
:10C480009DE4001099D3001019DC001095DC001019
:10C4900051D60010EDD60010C5D700104DDA0010AF
:10C4A000EDDA0010A5DB0010CDDB0010E3DB00109F
:10C4B000ADDC0010DBDC0010F1DC00101BDD001037
:10C4C00049DB001073DB001091CD0010BDCD0010D2
:10C4D00045E6001081E60010C9E600100DE70010E7
:10C4E00041E7001005E600100DE8001095E7001088
:10C4F000E9CC001055CD001019CD00101DE800103A
:10C500005DE80010A1EA0010ABEA0010B1EA0010EB
:10C51000B7EA0010C3EA0010F7B50E4900240B6813
:10C520000F1C1E1C0C4A15680192002B0ED09A8815
:10C530001968824207D1002C01D0216000E00E1C56
:10C540001D601D1C231C1C1C0B1CEEE7019B3E6088
:10C550001D60F7BDB83F0110BC3F0110F7B5124A8E
:10C560000090136811481F1C002184460468019242
:10C57000002B14D0D888009A1D68060A96420BD169
:10C58000FD2606400C2E07D1002901D00D6000E0E9
:10C590002F1C1C601C1C0B1C191C2B1CE8E7019B8E
:10C5A0001F6063461C60F7BDB83F0110BC3F01101F
:10C5B00030B5CF23002810D04A1E1F2A0DD8084AB4
:10C5C000131CAA33198000231C1CC55CAC34013336
:10C5D0001555DCB28C42F7D30023181C30BDC04681
:10C5E0007E4D011010B5041CCF20002C06D0044B4A
:10C5F000CE38211C9847034B1B79237010BDC046D1
:10C60000B5DE00107E4D0110F0B5067989B0CF255A
:10C61000032E38D8037811350F2B34D88023878C1C
:10C62000113D9B009F422ED8C57F837FAD015B01EA
:10C630001D43C37E1D43437F1B011D43037F9B009E
:10C640001D43124BEDB21E710379023B012B01D841
:10C6500002230371041C231C0B3361880793237985
:10C66000007800930195258C621D0295658C079BCF
:10C6700003950497064DA8472671051C211C034805
:10C680002622044B9847281C09B0F0BD7E4D0110AE
:10C69000ADDD001017050110F0B587B003AF5449A8
:10C6A0000B22544B041C381C98470522524B402641
:10C6B0001A800023514A1360514A1370514A137073
:10C6C000514B9847514B9847514B9847514B98477E
:10C6D000002C00D189E0A368002B00D185E02369FC
:10C6E000002B00D181E02068002802D16368002B74
:10C6F0007BD1494B61689847484B9847012801D93D
:10C70000E22672E04648474B98470028F8D1201CA3
:10C71000454B9847E068A168444B98476B46012217
:10C72000DC1C201C01A95242414B9847002802D131
:10C730002378392BF2D13F4B9847061E55D1031C65
:10C7400001213D4A49429A1812335181902BF7D169
:10C750003A4C813B23703A4B3A4A63800023237161
:10C760000133581E19010143023311700132212B8C
:10C77000F7D1E033FF33A384231C002573331D70EE
:10C78000231C72331D70231C76331D70231CCC3385
:10C790001D80221CA023D0325B001380221CCE32CD
:10C7A0001380231CD2331D80FA22231C5200D43361
:10C7B0001A80231CD6331D70201C234BE576257769
:10C7C0006577A577E577258465849847231C07223C
:10C7D00074331A70231C0432AA331A802B1C7A5D1E
:10C7E000AC330135E2540B2DF8D1301C07B0F0BD4D
:10C7F000C423011017050110EC4C01106840011012
:10C80000C83F0110282501106DE80010E9CA00108A
:10C8100065CB001085CD0010A1CB0010DDB100105C
:10C82000CDD0001021B4001075D1001085BD0010CE
:10C8300041BE00103DDD0010EE4C01107E4D011098
:10C84000983A0000894D011009C6001038B5451C02
:10C85000031CCF20002D18D01A78032A15D8012ADE
:10C8600002D15A78002A10D01C1C291C0622074B22
:10C8700007489847237807480371074B9847237860
:10C88000002B02D1281C054B984738BD1705011015
:10C89000834D01107E4D011009C60010F9D1001022
:10C8A000F8B584460F1C161C1C1C002802D1E2207F
:10C8B000002A2BD0CF201F2F28D81F2C26D8634624
:10C8C000002B0ED01248134D002F04D1391C1F220B
:10C8D000114B984703E061463A1C104B984772355C
:10C8E0002F70301E12D00B4D0D48002C07D1211C8B
:10C8F0001F22094B733598472C70201C06E0311C11
:10C90000221C064B9847002073352C70F8BDC0469A
:10C91000B24D01107E4D01102905011017050110BF
:10C92000D14D0110F0B591B01F1C16AB1D8817AB8F
:10C930001B880D910E9318AB1B78041C0F93424B70
:10C94000161C73331B78CF200C93012C03D10E9B44
:10C95000002B76D124E0042C73D88023DB019D4288
:10C960006FD8002C02D11F2D6BD903E09F2D01D869
:10C97000012C66D1002F09D00D9BCF20013B012B4C
:10C980005FD9012C02D1002D00D120352F4B9847C3
:10C99000011C002E43D03378601E002B09D13BE0F0
:10C9A0008023DB019D424CD8002E4AD0002FE3D1DA
:10C9B0002BE0012303283AD90D20721C02E00E203F
:10C9C000321EFAD1204C743426780724002E00D071
:10C9D000341C00920D9A039404921B4A019502950F
:10C9E0000597723212780E9C0692194A07920C9A99
:10C9F0000892184A09926422624392B20A920F9AEC
:10CA0000154C0B92154AA0471BE0002DBED10F4BD1
:10CA100098472025011CBEE70328CDD806E0601EFC
:10CA2000032803D9331C0D20321CCBE7002302F06E
:10CA30004DF8C60604020F20C2E700220C920C201B
:10CA4000BEE711B0F0BDC0467E4D011089E2001076
:10CA5000B24D0110D14D011069E10010983A00006B
:10CA600010B5054B9847041E03D1D120034B00019C
:10CA70009847201C10BDC04695DF001019C5001056
:10CA800038B5041C044B081C211C9847051C034B9B
:10CA9000201C9847281C38BD0DD600105DC500101D
:10CAA00010B5014CA04710BDFDDA001010B5CF2322
:10CAB00000280AD0002908D0002A06D00C78022CC1
:10CAC00003D1034B013198470023181C10BDC04609
:10CAD00029E30010831EDBB203200E2B01D8014A8C
:10CAE000D05C7047CF2301100022014B1A807047A1
:10CAF000C03F011070B5051C00240C4B19680C4B8D
:10CB00001E688C4210DC0C206318DA0FD318021C4C
:10CB10005B105A43B0180288AA4201D2591EF0E7AE
:10CB2000AA4202D95C1CECE7002070BDD43F011082
:10CB3000CC3F011037B5094B051C081C0C1C98474D
:10CB4000002809D08268002A06D08388291C009218
:10CB5000201C0022024CA0473EBDC046F5CA001072
:10CB60000DE500100023074A1370074A1360074AB7
:10CB70001360074A1360074A1360074A1360074AA5
:10CB800013607047C83F0110D83F0110D43F011017
:10CB9000C43F0110D03F0110CC3F0110DC3F011019
:10CBA0000A4B0B4A18604B0813600A4AC3181360FB
:10CBB000094A411813600323002203319943074BAC
:10CBC00004391960064B1A607047C046DC3F0110FB
:10CBD000D83F0110C43F0110D03F0110CC3F0110DD
:10CBE000D43F011070B50B4B061C0C1C151C98474C
:10CBF000002808D08068002805D0211C2A1C064B7C
:10CC00009847002004E0301C291C221C034B984745
:10CC100070BDC046F5CA00101705011081E800106C
:10CC200070B50C4B061C0C1C151C984700280BD02B
:10CC30008368002B08D083882B8082888168064B0C
:10CC4000201C9847002004E0301C291C221C034BA8
:10CC5000984770BDF5CA0010170501100DE90010C6
:10CC6000F0B585B0041C0191002928D14388271C08
:10CC70000093181C164B98470837002809D0806885
:10CC8000002806D0A388E288C018391C114B9847A9
:10CC900015E002AB9E1D00230F4D33802968321C26
:10CCA0000E4B009898472B68A088E2881818391C0A
:10CCB000084B9847608832882968094B98476088F4
:10CCC0002188019A074B9847002005B0F0BDC04667
:10CCD000F5CA0010170501102C25011021CC0010F9
:10CCE000E5CB001079E5001038B50C1C074B9847D0
:10CCF0006588074B281C984783782620DB0704D4D7
:10CD00002088291C034B98473B2038BDBDE4001008
:10CD1000F5CA001035CB001038B50D1C0A4B141C99
:10CD200098472D88094B281C9847220A031C084C59
:10CD300091B2002803D082880023281C01E0281C1F
:10CD40000122A0473B2038BD01E50010F5CA0010C4
:10CD5000BDE5001010B5141C074B9847074B6088C1
:10CD60009847022381782220194003D1201C044BCC
:10CD700098471F2010BDC046C9E40010F5CA001036
:10CD800061CC00100A22014B1A707047282501104F
:10CD900010B502780A70837844781B0223434B80D5
:10CDA0000379C0781B0203438B80002A03D1024A17
:10CDB00013780133137010BD2825011008B5031C2A
:10CDC00042780078120202430A80DA7898781202D8
:10CDD00002434A805A791879120202438A80881DD8
:10CDE000991D014B984708BD17050110F0B50C1CA3
:10CDF0001F218BB0079302ABC9180F230B70404B58
:10CE0000051C161C9847071C0120072F75D8002CFD
:10CE100013D112235F433B4BFB5C834201D0CF20F5
:10CE20006BE004950094019402940394201C211C4F
:10CE3000221C231C344DA8475EE02279062AEED935
:10CE40006379102BEBD89A42E9D8237A042BE6D8E1
:10CE5000A379072BE3D8E379072BE0D8A378002B3D
:10CE600006D0002EDBD02948311C1C22284B9847C5
:10CE7000079B002B05D02748191C9A301022244B01
:10CE800098476378A2789B001343122257431D4AA8
:10CE9000DBB2BA5C002A16D1A079420702D5079A04
:10CEA000002ABCD0C20701D5002EB8D066792178FF
:10CEB000E27800960190E0790290207A164C039077
:10CEC000281CA04718E0012AA9D1E079420702D521
:10CED000079A002AA3D0C20701D5002E9FD06679F9
:10CEE0002178E2780096A67902900196207A04953E
:10CEF0000390054C0120A04700200BB0F0BDC046B8
:10CF000035D30010EE4C0110A5D80010FC4D0110D7
:10CF1000170501107E4D011085D60010F0B585B0C3
:10CF2000051C0C1C161C002168461022184B984743
:10CF30000121002E01D1311C6E46002C16D1012793
:10CF4000231C701D013E02780138303A7A439B1849
:10CF50000A225743B042F6D16A46684613701A0A4D
:10CF600042701A0C1B0E8270C37009E0CF20012C96
:10CF70000CD100236846F25CC2540133102BF9D166
:10CF800004206A462B1C034CA047002005B0F0BDCE
:10CF90002905011021D9001070B50C4B0E1C002181
:10CFA000051C141C9847012307280DD8113358433A
:10CFB000074BC25CE023012A06D1B1000C43054BAC
:10CFC000E1B2281C98470023181C70BD35D300100F
:10CFD000EE4C011071D90010F7B5CF2300292BD0EA
:10CFE000052A29D801273D1C33249540254223D00A
:10CFF0008C7E073C092C1FD8104B0C1C0021151CE3
:10D00000061C98473B1C072816D8122358430C4B84
:10D01000C75CE023002F0FD1211C1C22094B0A48BA
:10D020009847231CA17E228A123300910195211C6E
:10D03000301C064CA0473B1C181CFEBD35D300100D
:10D04000EE4C011017050110FC4D0110B1D9001074
:10D0500073B5CF24002B11D0002A0AD005290DD892
:10D06000012533268D40354208D09D7E073D092D90
:10D0700004D89C7E0094024CA0470024201C76BD5E
:10D080006DDA001030B585B008AC258809AC24787D
:10D09000009501940A9C0294014CA04705B030BD54
:10D0A000A9E9001008B5014B984708BDE9E900104F
:10D0B00037B5041C06A80578CF20002903D0201C12
:10D0C0000095014CA0473EBD29EA0010F7B58388C2
:10D0D000011C0193C5880688002D0FD1191C301C36
:10D0E000194B2A1C9847031E05D1301C01991A1CA4
:10D0F000164CA04727E0164B984724E0154C164ADB
:10D1000023681268EB18934201D900232360134F60
:10D1100022683B68083198182A1C114B98473B68D5
:10D120002268301C9A180199074B98470028E2D1D1
:10D1300023683A68301CD21801992B1C034EB04763
:10D140002368ED182560F7BDB1BD001029BD0010A2
:10D1500005B70010584E0110E43F0110E03F0110E8
:10D160001705011008B5024B9847002008BDC046BE
:10D170003DB40010802210B50021041C9200084B21
:10D18000084898470022084B1A60084A084B1A6062
:10D19000084B22691A606269074B1A6010BDC046CD
:10D1A000290501105C500110584E01105C4E011011
:10D1B0002C250110E03F0110E43F01100122014B3A
:10D1C0001A607047E83F011010B5041C074B1A683D
:10D1D000012A03D0064B00209847F7E71968012978
:10D1E00002D100221A6000E0227010BDE83F011059
:10D1F0008DB4001070477047F7B56B46DE1D0023F5
:10D2000033700F23134C032723700023E370124B5A
:10D21000011C1A881B8822711B0A062263710F48A1
:10D220000F4B6770A77098470E4D0F4B0E212B8048
:10D230000623A3710023201CE3710C4BAF80984799
:10D24000301C0B4B98473378E220002B01D1AB68A0
:10D250001878FEBD5C500110EC4C011064500110B8
:10D2600017050110E04C01102903000065D10010E2
:10D27000C9D1001038B50B23274C237003336370DA
:10D280002933A370254BE1701A881B8822711B0A71
:10D29000637100232072637201282BD098421BD047
:10D2A00002282FD11E4B12211A1CCE321288A272D4
:10D2B000120AE2721A1CD03212882273120A6273A6
:10D2C0001A1CD2321288D433A273120AE2731B885A
:10D2D00023741B0A637416E0114B1249AA331D888C
:10D2E00011482B0AA572E3722A1C104B0C35984783
:10D2F000A9B208E00A4B0C21CC331B88A3721B0A8D
:10D30000E37200E00A210B1C083BA3711B12E371BE
:10D31000201C074B984738BD5C500110EC4C0110A5
:10D320007E4D01102A4E01106850011017050110A2
:10D3300065D100100C4B70B5041C08209C4211D024
:10D34000002312225A43094DD8B256197689A642B3
:10D3500004D1002906D0535D0B7003E00133082B84
:10D36000EFD1181C70BDC046FFFF0000EE4C01104D
:10D37000002312225A430649D8B252185189054A4D
:10D38000914203D00133082BF3D1181C7047C046DB
:10D39000EE4C0110FFFF0000F7B50B78051C581E7E
:10D3A0004E780F285AD8141C01F09AFB0A4458589A
:10D3B0004444584B2D1225085858393E3B204EE026
:10D3C0003B20002E4BD02D0A15809670353846E054
:10D3D0006B46DF1D01232D0A3B70281C391C204B96
:10D3E0009847072803D83B783B20002B37D065802F
:10D3F0002671092033E03B20002E30D02D0A158005
:10D4000096702D382BE03B20002E28D000232D0ACB
:10D41000158096709380D380138134381FE03B20B1
:10D42000002E1CD0167203E03B20002E17D0167180
:10D43000123814E03B20002E11D09370D6702A3899
:10D440000DE03B20002E0AD02D0A16705580101DCD
:10D4500000210522034B9847122000E00020FEBD6A
:10D4600035D3001029050110F0B585B01D1C0AAB9D
:10D470001B78019202930BAB1B78071C03930CAB38
:10D480001A8802230E1C234C391C23700C33637042
:10D49000A370214BE2701A881B8822711B0A1F4F50
:10D4A00010221F486371B847330A267663760199C4
:10D4B000330C1022360E1B48A376E676B847231CA1
:10D4C0002C331D70231C2A0A2D331A70231C2A0C9E
:10D4D0002E331A70231C2D0E2F336A461D70231C09
:10D4E000127A30331A70231C002531336A461D70BE
:10D4F000231C127B32331A70231C33331D702C23F0
:10D50000201CA3713421084BE5719847281C05B0F5
:10D51000F0BDC0465C500110EC4C01101705011025
:10D52000645001107850011065D10010F0B54578B5
:10D530000378304C2D021D43A585C37882788BB0CB
:10D540001B021A436B4605929B8A2021E38543798F
:10D5500002791B021A436B4606921B8B061C23861C
:10D56000C37982791B021A436B4607926A469B8BEA
:10D5700052186386437A011C0893231C1278773370
:10D5800078341A700A3106221B4B201C9847337CD2
:10D5900009931A4B98471A4E071E072F1BD81223C0
:10D5A0004343F01845816946242549190978062224
:10D5B000F15420216B465B181B78211C43706B468D
:10D5C0009B8A023043816B461B8B83816B469B8B0E
:10D5D000C381094B9847122100234F4300930193C5
:10D5E000F6197189074A0291101C191C064CA047B4
:10D5F0000BB0F0BD7E4D01101705011071D3001066
:10D60000EE4C0110EC3F011069D40010042210B55B
:10D610000C4B00241A700A325A709A700A4AD97058
:10D62000118812881971120A5A7101221A729218FD
:10D6300058729A71DC71181C0A21044B9847201CFF
:10D6400010BDC0465C500110EC4C011065D10010BB
:10D65000021C08B5437800781B02184308809378B1
:10D660008B700021054B9847072806D81223584392
:10D67000034B181801235B42438108BD35D30010CA
:10D68000EE4C0110F7B500931223041C08A807788C
:10D6900009A806780AA805780BA800780190104818
:10D6A00003700E23C4700F4C43708370238824884A
:10D6B00003716B461B78240AC3726B461B79447155
:10D6C000C3730823837100230A244172C37110219C
:10D6D000054B077346738573047282729847F7BDD2
:10D6E0005C500110EC4C011065D10010F8B50E78BB
:10D6F000031CB01E05285DD8151C0C1C01F0F0F9A8
:10D700000D035A2F40470920002A54D01B0A53808A
:10D710008B782948137100211CE00920002A4AD087
:10D72000254C1B0A53808B780027101C211C13707A
:10D73000224E17712E3117223230B047281C211C7F
:10D7400010221E312230B047A11CA81D1C22B04758
:10D75000201C391C46221A4B984709202BE0164DF5
:10D760000231281C1022154E2E30B047281C211CD7
:10D770003F3012310622B047237E3E352B7019E030
:10D780000D48023110220D4B1E30984712E00A4D11
:10D7900002311022094EA81CB047281C211CE37C32
:10D7A000A27C1B0213431430143108226B82B04751
:10D7B000237F2B770020F8BD1C40011017050110B6
:10D7C0002905011070B50C78031C4978072C5CD82A
:10D7D000201C01F085F9045A5A5A0B5A1F1F0A20BF
:10D7E000002A53D01B0A138091704FE0002A0BD0FF
:10D7F0001B0A1380002902D10123937004E0002347
:10D800009370022902D1D3700C203FE00129FBD193
:10D81000D170F9E714221E481B0AC3701D4B027019
:10D82000063A427082701A881B881B4E1B0A43718D
:10D830000123027104724372051C311C0A30072C4B
:10D8400016D17E311022154CA047331C311C281CE8
:10D850008E331B889031AB7608221B0A1C30EB7686
:10D86000A047311C98310A786B1DDA77252104E036
:10D870009A311022094B98471A210B1C0024083BAF
:10D88000AB71281C064BEC719847002070BDC04658
:10D890005C500110EC4C01107E4D01101705011079
:10D8A00065D10010F0B585B0071C0AA806780BA852
:10D8B00005780CA80078142402900DA80078019334
:10D8C00003900EA80088844612480470063C4470F9
:10D8D00084706446C470104C477223882488037196
:10D8E0006B461B79240A03736B461B7A4471C3731E
:10D8F0006B461B7B0124037409238371002304728C
:10D900008172C27246738573C3711121034B9847AC
:10D9100005B0F0BD5C500110EC4C011065D1001059
:10D9200038B514250D4CE3700D4B2570063D657020
:10D93000A5701D881B8820721B0A63716172094BD8
:10D94000111C09481022257198471223A371002346
:10D95000201CE3711A21054B984738BD5C5001101B
:10D96000EC4C0110170501106650011065D1001034
:10D970001A2208B50B4B1A700C3A5A709A700A4A60
:10D98000D870108812881871120A5A710C221A72F3
:10D990000A3A9A7100225972DA71181C0A21034B53
:10D9A000984708BD5C500110EC4C011065D1001087
:10D9B000F0B5002589B006930EAB1B78171C0793B2
:10D9C0000FAB1B78194A061C059100930290291C85
:10D9D0002B1C0195101C164CA0471623154C0599BD
:10D9E0002370083B6370A370134BE6701A881B8882
:10D9F00022711B0A63710B23104E102210482372F0
:10DA00006572B0473B0A069908220E48E376A7766E
:10DA1000B0476A46127F631DDA771D23201CA3716D
:10DA20002521094BE571984709B0F0BDFC3F011075
:10DA300069D400105C500110EC4C01101705011066
:10DA4000665001107850011065D1001008B5000A29
:10DA500010804B7808781B0203435380101D02315D
:10DA60000822014B984708BD17050110F0B50025A5
:10DA700087B004930CAB1B78171C154A061C059342
:10DA800000910290291C2B1C0195101C114CA047E1
:10DA90001823114C049923700A3B6370A3700F4B39
:10DAA0000F481A881B8822711B0A637110220D4BC4
:10DAB000E670277298476B461B7D201C6376122305
:10DAC0001A21A371084BE571984707B0F0BDC04615
:10DAD0000C40011069D400105C500110EC4C011096
