:100000000080002019370000453700004537000008
:1000100045370000453700004537000045370000F0
:1000200045370000453700004537000045370000E0
:1000300045370000453700004537000045370000D0
:10004000D126000045370000450D0000453700006F
:100050004537000045370000590D0000710D0000C4
:10006000453700004537000045370000710C00009F
:100070004537000045370000453700004537000090
:100080004537000045370000453700004537000080
:100090004537000045370000453700004537000070
:1000A000F505000045370000510E000045370000FF
:1000B0004537000045370000453700004537000050
:1000C0004537000045370000453700004537000040
:1000D0004537000045370000453700004537000030
:1000E00010B5054C237833B9044B13B10448AFF372
:1000F00000800123237010BD0001002000000000DB
:10010000B06A000008B5064B1BB106480649AFF3BC
:1001100000800648036813B1054B03B1984708BD3A
:1001200000000000B06A000004010020B0000020C0
:1001300000000000154B002B08BF134B9D46A3F594
:10014000803A00218B460F461348144A121A04F0D5
:10015000CDF80F4B002B00D098470E4B002B00D052
:1001600098470020002104000D000D48002802D00F
:100170000C48AFF3008004F08BF82000290001F058
:100180008DF904F071F800BF000008000080002025
:10019000000000000000000000010020080800200E
:1001A000000000000000000080B500AF0E2004F049
:1001B00095F80246044B1A60034B00225A71024B19
:1001C00000221A7180BD00BF6001002080B483B09E
:1001D00000AF78607B685B79DBB2591C0C4B81FB0C
:1001E00003230B44DA10CB17D21A1346DB009B1AF9
:1001F0005B00CA1A7B681B79DBB29A4201D10123EA
:1002000000E0002318460C37BD465DF8047B7047BC
:100210009324499280B586B000AFF860B960134668
:10022000FB7100237B61F868FFF7D0FF0346002BCA
:1002300001D0002328E000237B6120E0FB681A68DE
:10024000FB685B79DBB213447A69B9680A441278B7
:100250001A70FB685B79DBB2591C0D4B81FB0323E1
:100260000B44DA10CB17D21A1346DB009B1A5B0043
:10027000CA1AD2B2FB685A717B6901337B61FA7981
:100280007B699A42DADC012318461837BD4680BDE7
:100290009324499280B400AF0B4B1B79DBB2591CFD
:1002A0000A4B81FB03230B44DA10CB17D21A1346F7
:1002B000DB009B1A5B00CA1AD2B2034B1A71BD460F
:1002C0005DF8047B704700BF6001002093244992D1
:1002D00080B400AF0B4B72225A620A4B01225A6063
:1002E00000BF084B9B6A03F04003002BF9D0054B7D
:1002F00040221A63034B80221A63BD465DF8047BDB
:10030000704700BF00A4004080B582B000AF024635
:100310000B46FA71BB71FFF7DBFF184BFA795A6293
:1003200000BF164B9B6A03F04003002BF9D0134B20
:1003300040221A63114B80221A63104BBA795A6219
:1003400000BF0E4B9B6A03F04003002BF9D00B4B10
:1003500040221A63094B80221A63084B02225A601A
:1003600000BF064B9B6A03F48073002BF9D0034B4C
:1003700080221A630837BD4680BD00BF00A400403C
:1003800080B584B000AF0346FB710023FB73FFF719
:100390009FFF1D4BFA795A6200BF1B4B9B6A03F00B
:1003A0004003002BF9D0184B40221A63164B8022D1
:1003B0001A63154B01225A60134B73225A6200BF15
:1003C000114B9B6A03F04003002BF9D00E4B4022E7
:1003D0001A630D4B80221A6300BF0B4B9B6A03F01C
:1003E0002003002BF9D0084B80221A63064BDB69EF
:1003F000FB73054B08225A60034B02225A60FB7BB9
:1004000018461037BD4680BD00A4004080B500AF3F
:1004100080200321FFF778FF81200121FFF774FF7F
:1004200082200F21FFF770FF83200021FFF76CFF70
:1004300084200021FFF768FF85200821FFF764FF73
:1004400086201421FFF760FF80BD00BF80B582B019
:1004500000AF0346FB71FFF73BFF094BFA795A6285
:1004600000BF074B9B6A03F04003002BF9D0044BFD
:1004700040221A63024B02225A600837BD4680BDF3
:1004800000A4004080B500AF02200521082201230E
:1004900002F072FD022004210822012302F06CFD0B
:1004A00080BD00BF90B585B000AF0F48012101F0BD
:1004B00067FCFFF7E7FF0D4B3C460FCB84E80F00CE
:1004C0000B4B03229A633B460948194602F084FE0F
:1004D000074B9B6803F00103002B02D0044B202242
:1004E0005A601437BD4690BD00C204000869000080
:1004F00000A4004080B483B000AF0346FB71084BFA
:1005000097F907205209F97901F01F01012000FA3B
:1005100001F143F822100C37BD465DF8047B7047AB
:1005200000E100E080B483B000AF0346FB71094BEB
:1005300097F907205209F97901F01F01012000FA0B
:1005400001F1603243F822100C37BD465DF8047BA0
:10055000704700BF00E100E080B400AF72B6084B06
:100560001B68B3F1FF3F04D0054B1B685A1C044BBA
:100570001A60034B1B681846BD465DF8047B704744
:100580005001002080B483B000AF0C4B1B68002BDF
:100590000DD00A4B1B685A1E084B1A60074B1B688C
:1005A0007B607B68002B00D162B67B6800E0002393
:1005B00018460C37BD465DF8047B7047500100209B
:1005C00080B483B000AF786039607B683A685A6362
:1005D0000C37BD465DF8047B704700BF80B483B024
:1005E00000AF78607B68DB6A18460C37BD465DF863
:1005F000047B704780B582B000AFFFF7ADFF434882
:10060000FFF7ECFF786041487968FFF7D9FF7B6816
:1006100003F00203002B32D03D4B1B7883F0010323
:10062000DBB2002B2BD03B4B5B79DAB2394B1B7919
:10063000DBB29A4222D9354B364A1168354A1279D3
:10064000D2B20A4412789A62324B1A68314B1B7943
:10065000DBB2134400221A70FFF71CFE2B4B2B4A0F
:10066000926B22F002029A63284B284A926B42F066
:1006700001029A63264B01221A7042E041E07B6836
:1006800003F00103002B3CD0214B1B78002B38D00A
:10069000204B5B79DAB21F4B1B79DBB29A4213D045
:1006A0001A4B1C4A11681B4A1279D2B20A441278BA
:1006B0009A62184B1A68174B1B79DBB2134400225D
:1006C0001A70FFF7E7FD1CE0124B5B79DAB2114BB1
:1006D0001B79DBB29A4214D10D4B00221A70002311
:1006E0000C4A194611710B4A5371084B074A926B19
:1006F00022F001029A63054B044A526B42F0010258
:100700005A63FFF73FFF0837BD4680BD00400840F1
:100710001C0100206001002080B500AF03200421EF
:100720000422012302F028FC0320052102220123D8
:1007300002F022FC80BD00BF90B585B000AF164826
:10074000012101F01DFB154802F0EEFE144B3C4662
:100750000FCB84E80F003B461048194602F0A2FE7A
:100760000E4B0E4A526D5A650C4B0C4A526D42F0BC
:1007700003025A65FFF7D0FF084B084A126842F09F
:1007800080021A601820FFF7CDFE1820FFF7B2FE96
:100790001437BD4690BD00BF7007140000400840EC
:1007A0001869000080B483B000AF0346FB71084BAA
:1007B00097F907205209F97901F01F01012000FA89
:1007C00001F143F822100C37BD465DF8047B7047F9
:1007D00000E100E080B483B000AF0346FB71094B39
:1007E00097F907205209F97901F01F01012000FA59
:1007F00001F1203243F822100C37BD465DF8047B2E
:10080000704700BF00E100E080B483B000AF7860C3
:10081000044B7A68C3F81C210C37BD465DF8047B95
:10082000704700BF0060004080B400AF034BD3F8B6
:1008300014311846BD465DF8047B704700600040E7
:1008400080B483B000AF03463960FB71FB79002BA5
:100850000DD0FB79012B0AD0FB79022B07D0FB7955
:10086000032B04D0FB79042B01D0FB79052B09481D
:10087000FA793B68012101FA03F319461346DB00BC
:1008800013449B000344103359600C37BD465DF898
:10089000047B70470060004080B483B000AF034623
:1008A0003960FB71FB79002B0DD0FB79012B0AD04D
:1008B000FB79022B07D0FB79032B04D0FB79042BA7
:1008C00001D0FB79052B0948FA793B68012101FA2F
:1008D00003F319461346DB0013449B000344103313
:1008E00019600C37BD465DF8047B7047006000401E
:1008F00080B584B002AF39600146F971BA717B717D
:10090000FA79BB7979790091397C0191104639687F
:100910003A6802F0CBFA0837BD4680BD80B582B098
:1009200000AF0C4B1B687B603B46184602F034FE60
:100930007B681B0E0F2B0AD93B78032B07D1064B84
:10094000054A126822F0500242F010021A6008377D
:10095000BD4680BDFC81E00FC0800C4080B400AF7C
:1009600072B6084B1B68B3F1FF3F04D0054B1B6800
:100970005A1C044B1A60034B1B681846BD465DF8B1
:10098000047B70475001002080B483B000AF0C4B53
:100990001B68002B0DD00A4B1B685A1E084B1A60AF
:1009A000074B1B687B607B68002B00D162B67B68BD
:1009B00000E0002318460C37BD465DF8047B704705
:1009C0005001002080B483B000AF786039607B684C
:1009D0003A689A620C37BD465DF8047B704700BFE9
:1009E00080B483B000AF786039607B68DA6A3B68B6
:1009F0001A437B68DA620C37BD465DF8047B7047AA
:100A000080B483B000AF78600B46FB707A680F4B00
:100A10009A420BD07A680E4B9A4207D07A680D4BF7
:100A20009A4203D07A680C4B9A4200D100BFFB78FF
:100A3000002B03D07B6801225A6002E07B6802220F
:100A40005A600C37BD465DF8047B704700000140DA
:100A50000004014000080140000C014080B483B054
:100A600000AF786039607B683A689A610C37BD46A0
:100A70005DF8047B704700BF80B483B000AF78603E
:100A800039607B68DA683B681A437B68DA600C3748
:100A9000BD465DF8047B704780B483B000AF7860DA
:100AA00039607B683A681A620C37BD465DF8047B92
:100AB000704700BF80B483B000AF78600B46FB7016
:100AC000FA787B685A600C37BD465DF8047B704746
:100AD00080B586B000AF7860164B1B6803F47F03C7
:100AE0001B0C184603F082F903467B61124B1B680E
:100AF0001B0D184603F07AF903463B610F4BFB6070
:100B0000786803F077F903463869194603F0BCF8B2
:100B100003461846F96803F075FA034678691946E2
:100B200003F0B2F80346BB60BB6818461837BD46F1
:100B300080BD00BFB081E00FBC81E00FD7A3C8C06B
:100B400080B58AB002AFF8600B467A60FB72002372
:100B5000FB614FF000037B610023BB61394B394AD5
:100B6000526842F002025A60012000F0F9FC0023B2
:100B7000BB610BE0344BBA6933F812309BB21BB245
:100B8000FA691344FB61BB690133BB61BB69B3F50F
:100B9000FA7FEFDBFA692D4BA3FB02135B09FB61C4
:100BA000FB691846FFF794FF78617869284903F0DC
:100BB00027FB0346002B0BD07869264903F016FB70
:100BC0000346002B04D004200321FFF739FE11E077
:100BD00078691F4903F000FB0346002B06D17869B2
:100BE0001C4903F00DFB0346002B03D00420032116
:100BF000FFF752FE184B54221A70786902F0ECFF8E
:100C000002460B46CDE9002314480621144A03F09E
:100C10001DFC144810490622FFF7FCFA124B124A39
:100C2000926B42F002029A630E4810490622FFF7C7
:100C3000F1FA0D4B0C4A926B42F002029A63203794
:100C4000BD4680BD0020004000040020D34D62104E
:100C50000000704100000C423001002031010020F2
:100C60002869000060010020004008402C69000055
:100C700080B582B000AF0023FB80FFF76FFEFFF767
:100C8000D3FD03461846FFF7BFFDC020FFF7DEFB8C
:100C90008C20FFF775FB0346BB80284B4C221A7053
:100CA0008D20FFF76DFB03461B029AB2BB881343EE
:100CB0009BB2BB80BB880E2B1DD8BB88002B1AD0E3
:100CC00004200221FFF7E8FD1C4B4E225A7002233C
:100CD000FB8006E0FB88194A4121D154FB8801338F
:100CE000FB80FB88052BF5D9154B154A926B42F01A
:100CF00002029A631DE0BB88B3F5006F19D9042086
:100D00000221FFF79DFD0D4B46225A700223FB8006
:100D100006E0FB88094A4121D154FB880133FB805E
:100D2000FB88052BF5D9064B054A926B42F002026F
:100D30009A63FFF729FE0837BD4680BD30010020C9
:100D40000040084080B500AF02480121FFF786FE51
:100D500080BD00BF0000014080B400AF034B012202
:100D60009A61BD465DF8047B704700BF00100040EB
:100D700080B582B000AF4FF000037B60FFF7EEFD5F
:100D80002D480121FFF788FE2C4B1B88002B0DD02E
:100D9000294B5A6A2A4B1B681A44294B1A60274B65
:100DA0001B88013B9AB2254B1A803FE0234B4FF43E
:100DB000FA721A80224B1A68224BA3FB02135A09BB
:100DC0001F4B1A601E4B1B681846FFF781FE7860A8
:100DD00078681D4903F014FA0346002B0BD078689D
:100DE0001A4903F003FA0346002B04D00420032120
:100DF000FFF726FD11E07868134903F0EDF903468B
:100E0000002B06D17868114903F0FAF90346002B4C
:100E100003D004200321FFF73FFD074B064A526829
:100E200042F002025A60012000F09AFBFFF7ACFD8D
:100E30000837BD4680BD00BF0020004000000020F4
:100E400038010020D34D62100000704100000C42B8
:100E500080B584B002AF0023FB70FFF77FFD3F4BEE
:100E600001229A623D4B0022DA603C4B3C4A1268F8
:100E70001A613C4B1B78002B25D103200021FFF782
:100E80000BFDFFF7FFFA032001210122002302F0EE
:100E900073F800237B6002E07B6801337B607B6832
:100EA000B3F57A7FF8DBFFF7B1FA0B20FFF77AFC96
:100EB00003200121FFF7F0FC2A4B1B780133DAB243
:100EC000284B1A7032E0274B1B78012B06D1254B9B
:100ED0001B780133DAB2234B1A7027E0214B1B78C1
:100EE000022B23D10B20FFF775FC80200021FFF798
:100EF0000BFA022004210022002302F03DF8022018
:100F000005210022002302F037F8032001210022EE
:100F1000002302F031F803200021FFF791FC0320A9
:100F20000121FFF78DFC0F4B00221A70012000F009
:100F300033FB0D4B009340F2F3130193002001218A
:100F400000220A4B01F030FC09480121FFF7B2FDF5
:100F5000FFF71AFD0837BD4680BD00BF00200840DE
:100F6000200100202801002024200040000400204F
:100F70000020004080B582B000AF0346FB71FB79D2
:100F8000022B09D100200121012201F05BFA124855
:100F9000022101F0FBF80BE0FB79032B08D10520BF
:100FA0000121012201F04EFA0B48092101F0EEF86F
:100FB0000A48012100F0E4FE0948012100F0E0FEAA
:100FC0000848022101F0E2F80648012100F0D8FEAD
:100FD0000837BD4680BD00BF0200180040810400F4
:100FE0000043020003001A0080B586B000AF03463C
:100FF000FB71FB79184600F0CFFA3648012100F06A
:10100000BFFE01233B7300237B730023BB730023CC
:10101000FB7300233B7400237B740023BB74002309
:10102000FB7400233B7500237B750023BB752A4BA3
:101030009B6A29481946FFF7C5FC27480121FFF79D
:10104000CFFCFB79022B18D1244B244A926E42F438
:1010500000729A66224B4FF448421A60204B1B687C
:10106000C3F57F43FF331E4A13601D4B1B681A48AC
:1010700000211A4602F0ECF81CE0FB79032B19D191
:10108000184B1B6841F66A0202FB03F2164BA3FBE6
:1010900002139A09154B1A60144B1B68C3F57F4362
:1010A000FF33124A1360114B1B680B4800211A468C
:1010B00002F0CEF807F10C030748194602F00AF9CE
:1010C0001A20FFF76FFB0448012102F0EDF81837F2
:1010D000BD4680BD602612000020084000800C4004
:1010E000200100202C010020D34D6210240100209B
:1010F00080B582B002AF1B48012100F041FE042000
:1011000002210422002301F037FF042003210422DE
:10111000002301F031FF032006210422002301F007
:101120002BFF022006210022002301F025FF0320CF
:1011300000210422002301F01FFF0320002101F001
:101140007DFE032001210122002301F015FF012370
:1011500000930320012100220123FFF7C9FBBD46B4
:1011600080BD00BF00D2040080B588B000AF214828
:10117000012100F005FE2048012100F001FE07F1E9
:10118000100300221A60043300221A600433002284
:101190001A60043300221A7001333B4600221A60A1
:1011A000043300221A60043300221A600433002240
:1011B0001A7001330223FB7001233B7307F1100304
:1011C0000E48194602F022FA3B460D48194602F035
:1011D0001DFA0A4B9B6909481946FFF73FFC07486F
:1011E0000121FFF749FC0220FFF7DCFA2037BD465A
:1011F00080BD00BF005204000062040000000140F6
:101200000004014090B587B000AF00237B6100234C
:101210003B61012000F0C0F9FFF7A6FF002001218B
:10122000012201F00FF95F48022100F0AFFF5E4894
:10123000012100F0A5FD5D48012100F0A1FD012381
:101240003B7100237B710023BB710023FB710023E2
:101250003B7200237B720023BB720023FB720023CE
:101260003B7300237B730023BB730123BB730123F8
:101270003B7200233B714E4B4FF400421A613B1D01
:101280004B48194602F026F8494B4FF40042DA6009
:101290004748012102F008F846480121FFF7B0FB5A
:1012A00045480121FFF7ACFB414BDB687B6102E065
:1012B0003F4BDB687B617B69002BF9D13D4B5A6A60
:1012C0003D4B5B6A1B0413447B610020002101221B
:1012D00001F0B8F805200121012201F0B3F83148EE
:1012E000092100F053FF33480021FFF789FB324802
:1012F0000021FFF785FB2E4B4FF47A721A612C4BBD
:101300004FF47A72DA602B4B00225A622A4B002289
:101310005A622748012101F0C7FF26480121FFF743
:101320006FFB25480121FFF76BFB214BDB683B611D
:1013300002E01F4BDB683B613B69002BF9D11D4B81
:101340005A6A1D4B5B6A1B0413443B61786902F0C7
:101350004DFD0446386902F049FD03462046194612
:1013600002F050FE03461846144902F097FD03466A
:10137000184602F059FF0246114B1A600D48002131
:10138000FFF73EFB0C480021FFF73AFB0520002148
:10139000012201F057F8012000F0E2F81C37BD46A9
:1013A00090BD00BF0200180000430200602612003A
:1013B00000200840000001400004014000007A4481
:1013C0002C01002080B586B000AF1048012100F04C
:1013D000D7FC0F4A07F110031068186092889A80B2
:1013E00007F110030B48194600F0A0F90A4A3B1D0B
:1013F0001068516803C3127A1A703B1D05481946DC
:1014000000F0D8F91837BD4680BD00BF00020500C6
:1014100034690000002000403C69000080B588B0BD
:1014200000AF1A48012100F0ABFC00233B76184BBB
:10143000FB6107F11803184601F056FA154B164ADE
:101440001A60144B00225A60124B7B6101237B739C
:1014500001233B734FF400233B6107F10C03002091
:10146000194601F0C1F90023FB7101233B710323ED
:101470007B710123BB7100233B723B1D00200121C6
:101480001A4601F0F9F92037BD4680BD000302007D
:1014900000020020E8070020410B000080B500AFEB
:1014A000FFF73CFA032000F077F8FFF7ABFE0220CD
:1014B000FFF760FDFEF778FEFFF71AFEFEF7F2FF7A
:1014C000FFF73AF9FFF77EFFFFF7A8FF0220FFF7CB
:1014D0008BFD00F077F8FCE780B400AF72B6084BE4
:1014E0001B68B3F1FF3F04D0054B1B685A1C044B2B
:1014F0001A60034B1B681846BD465DF8047B7047B5
:101500005001002080B483B000AF0C4B1B68002B4F
:101510000DD00A4B1B685A1E084B1A60074B1B68FC
:101520007B607B68002B00D162B67B6800E0002303
:1015300018460C37BD465DF8047B7047500100200B
:1015400080B400AF054B054A126922F004021A610B
:1015500030BFBD465DF8047B704700BF00ED00E082
:1015600080B582B000AF0346FB71FFF7B5FFFA7993
:10157000084B53F82230002B07DDFB79054A52F85F
:101580002320511E034A42F82310FFF7BBFF083700
:10159000BD4680BD3C01002080B582B000AF03464F
:1015A000FB71FFF799FFFB79054A52F82320511C84
:1015B000034A42F82310FFF7A5FF0837BD4680BD58
:1015C0003C01002080B500AF0F4B1B68002B00DDF5
:1015D00018E00D4B5B68002B02DDFFF7B1FF11E057
:1015E000094B9B68002B03DD012001F0C3FA09E0E1
:1015F000054BDB68002B03DD012001F009FB01E056
:1016000001F064FB80BD00BF3C01002080B487B0C6
:1016100000AF786013460A46FA70BB70BB78002BA7
:1016200004D01023FB603E4B3B6103E00023FB60D2
:101630003C4B3B617B685A6B3B691340BB600023AA
:101640007B61FB78062B5BD801A252F823F000BF28
:101650006D1600008B160000AF160000CD160000BE
:101660000117000001170000F11600002E4B5B6807
:1016700003F4FE437A6913437B612B4B5B6803F0F1
:101680007F037A6913437B613DE0274B5B6803F07E
:10169000FE431B0E1B027A6913437B61224B5B687E
:1016A00003F4FE031B0C7A6913437B612BE01E4B92
:1016B0009B6803F4FE437A6913437B611A4B9B6872
:1016C00003F07F037A6913437B611CE0164B9B6830
:1016D00003F0FE431B0E1B027A6913437B61124B1E
:1016E0009B6803F4FE031B0C7A6913437B610AE0D9
:1016F0000D4BDB6803F07F037A6913437B6102E0E3
:1017000000237B6100BFFB687A699A40BB681A437B
:101710007B685A631C37BD465DF8047B704700BF89
:10172000FFFF80808080FFFFB081E00F80B584B034
:1017300000AF786039603B681B79FB72FB7A002B45
:1017400006D11B48002100F081F80346FB7208E037
:101750001748002100F07AF84FF4FA40002100F019
:1017600075F87B680A225A603B681B781A063B684A
:10177000DB781B0403F4FE031A43FB7A1B0203F419
:10178000FE431A433B685B781B011A433B689B7816
:101790001343FB603B685B79002B03D0FB6843F08D
:1017A0000803FB607B68FA681A601037BD4680BD8D
:1017B000405DC60080B584B000AF786039607B685A
:1017C00002225A603B689B78786819460022FFF72E
:1017D0001DFF3B681B781A073B685B781B051A43A3
:1017E0003B681B791B0213431A463B68DB781B01DD
:1017F0001343FB603B689B79002B03D0FB6843F0ED
:101800008073FB603B68DB79002B03D0FB6843F0FF
:101810000403FB603B685B79002B03D0FB6843F05B
:101820000203FB603B681B7A002B03D0FB6843F08C
:101830000103FB603B689B781B04FA681343FB6061
:101840007B68FA68DA601037BD4680BD80B584B029
:1018500000AF786039607A68134B9A4202D9124B14
:101860007B6006E07B68B3F5FA4F02D24FF4FA438F
:101870007B603B68002B03D10C4800F0EDFA386028
:101880003A687B6813445A1E7B68B2FBF3F3FB6033
:10189000FB68002B02D0FB68013BFB60FB68DBB2FE
:1018A00018461037BD4680BD405DC600408104002B
:1018B00080B487B000AFF860B9607A60FB6803F16C
:1018C0000473DA00BB6813449B007B617B697A6810
:1018D0001A601C37BD465DF8047B704780B485B044
:1018E00000AF786039607B6803F10473DA003B680D
:1018F00013449B00FB60FB681B6818461437BD4609
:101900005DF8047B704700BF80B485B000AF78609D
:101910007B68002B04D07B68B3F5004F00D800BF74
:101920007B68B3FA83F3C3F11F03FB60FB681846BF
:101930001437BD465DF8047B704700BF80B400AF2C
:10194000044BDB6C1B0EDBB21846BD465DF8047B16
:10195000704700BFB081E00F80B400AF054BDB6C77
:1019600003F47F031B0CDBB21846BD465DF8047B15
:10197000704700BFB081E00F80B582B000AFFFF7C5
:10198000EBFF03464A2B04D0792B02D0482B22D000
:1019900023E0144B1B699BB203F03F039BB21B0275
:1019A000FB80104B9B699BB203F0F0039AB2FB885B
:1019B0001343FB800B4BDB6903F0F0031B099AB266
:1019C000FB881343FB80FB88B3F5017F01D3064BF3
:1019D00004E0064B02E0054B00E000231846083700
:1019E000BD4680BDD0FF0FE000366E010048E80123
:1019F00080B584B000AF786039607A683B689A42FD
:101A000094BF00230123DBB2FB6006481E21FA6865
:101A1000FFF74EFF04480821FA68FFF749FF103727
:101A2000BD4680BD00800C4004800C4080B582B073
:101A300000AF07481E21FFF751FF786005480821D5
:101A4000FFF74CFF38607B6818460837BD4680BDFD
:101A500000800C4004800C4080B582B000AF214B68
:101A60005B6903F4E063B3F5007F1CD0B3F5007F3E
:101A700005D8002B25D0B3F5807F1FD02AE0B3F521
:101A8000C06F24D0B3F5E06F1ED0B3F5407F21D1F5
:101A9000FFF754FF0346122B02D9134B7B601CE067
:101AA000124B7B6019E0FFF749FF0346122B02D966
:101AB0000F4B7B6011E00F4B7B600EE00E4B7B60A9
:101AC0000BE00E4B7B6008E00D4B7B6005E00D4B9F
:101AD0007B6002E000237B6000BF7B68184608370C
:101AE000BD4680BD00800C40804F120040420F0078
:101AF00040B56400C0CF6A00C0D8A700809FD50061
:101B0000406F4001003FAB0180B582B000AF0D488F
:101B100000F08EFA0346FB70FB78072B05D0082BEC
:101B200007D101F043FE786006E0FFF795FF78608B
:101B300002E000237B6000BF7B6818460837BD4683
:101B400080BD00BF06000C0080B485B000AF786097
:101B5000284BDB6B002B0CBF00230123BB72254BF2
:101B600041F67132DA63234B5B6803F00703FB60D5
:101B7000FB68012B01D9042B02D10023FB7202E088
:101B80000123FB7200BF7A681B4B9A4207D9FB7A8C
:101B9000002B01D0052300E00423FB6016E07A68E7
:101BA000154B9A420BD87A68144B9A4207D9FB7AA4
:101BB000002B01D0032300E00123FB6006E0FB7A49
:101BC000002B01D0022300E00023FB60094B094AEF
:101BD000526822F00701FA680A435A60BB7A002B68
:101BE00002D0044B0022DA631437BD465DF8047B53
:101BF000704700BF00000C400048E8010024F400DA
:101C000080B500AF01F0C8FD03461846FFF79CFF02
:101C100080BD00BF90B585B000AF78600023BB6089
:101C20007B68344A934203D0334A934200D000E0A9
:101C300000BF786800F0FCF90346FB607B682D4A22
:101C4000934203D02C4A934206D00CE02B4B9B6A64
:101C500003F00303FB6006E0284B9B6A03F00C03D0
:101C60009B08FB6000BFFB68032B3AD801A252F827
:101C700023F000BFAB1C0000851C00008D1C000081
:101C8000951C000001F024FEB8602DE001F034FE48
:101C9000B86029E001F066FD0446FFF7C7FE034681
:101CA000013324FA03F3BB601EE00023BB607A68B3
:101CB000104B9A4203D07A680F4B9A4210D10F4BC7
:101CC0009A6A79680B4B994201D1102300E01423E2
:101CD00022FA03F3002B03D001F004FEB86003E006
:101CE00002E00023BB6000BFBB6818461437BD4646
:101CF00090BD00BF0200180003001A0000800C40D5
:101D000080B483B000AF7860094B5B6D03F00103D2
:101D1000002B00D006E000BF054B1A6D7B68134016
:101D2000002BF9D10C37BD465DF8047B704700BF2E
:101D300000800C4080B582B000AF104800F078F908
:101D40000346FB70FB78032B07D0082B09D0022B2E
:101D50000BD101F0D1FD78600AE001F0B9FD7860A7
:101D600006E001F023FD786002E000237B6000BF05
:101D70007B6818460837BD4680BD00BF072320009A
:101D800090B587B000AF78600B46FB7000233B61D5
:101D90007B681B0A03F00F03013B092B49D801A202
:101DA00052F823F0E91D0000EF1D0000CD1D0000DA
:101DB000331E0000331E0000F51D0000FF1D000053
:101DC000331E0000331E0000091E00001B4B7B6108
:101DD0001B4800F041F80446FFF7CEFD03462046BD
:101DE0001946FFF705FE12E0164B7B610FE0164B1C
:101DF0007B610CE0154B7B6101233B6107E0144BD9
:101E00007B6110233B6102E0124B7B6100BF7B686A
:101E10001B0B03F01F03FB603B69002B02D03869EA
:101E2000FFF76EFFFB787869F9681A46FFF740FD07
:101E300000E000BF1C37BD4690BD00BF40800C4095
:101E40000043020008800C4044800C4058800C4045
:101E500060800C4078800C4090B585B000AF786011
:101E60007B6803F47813B3F5A01F00F0AB80B3F5E3
:101E7000A01F1AD8B3F5402F00F0BF80B3F5402F54
:101E800008D8B3F5003F3CD0B3F5802F2DD0002B00
:101E900027D0BEE0B3F5801F3CD0B3F5901F47D0EC
:101EA000B3F5602F00F0AD80B3E0B3F5001F00F094
:101EB000AC80B3F5001F0AD8B3F5C01F25D0B3F529
:101EC000D01F7AD0B3F5B01F00F08980A1E0B3F540
:101ED000181F4ED0B3F5201F62D0B3F5101F35D0B8
:101EE00097E001F063FCF86096E001F05FFCF860B9
:101EF0004C4B9B6803F00F03FA6822FA03F3FB6074
:101F00008AE001F02FFCF86086E04748FFF782FE88
:101F1000F86081E04448FFF77DFEF860414B9B6E1E
:101F200003F0F0031B09FA6822FA03F3FB6073E085
:101F30003D48FFF76FFEF8603A4B9B6E03F4706309
:101F40001B0AFA6822FA03F3FB6065E03648FFF7E4
:101F500061FEF860334B9B6E03F440531C0B102062
:101F6000FFF7D2FC03462344FA6822FA03F3FB602E
:101F700052E02D48FFF74EFEF8602A4B9B6E03F4AB
:101F800040531B0BFA6822FA03F3FB60254BDB6F0F
:101F900003F007030133FA68B2FBF3F3FB603BE0A5
:101FA0002148FFF737FEF8601E4B9B6E03F00303DA
:101FB000FA6822FA03F3FB602EE01C48FFF72AFEC2
:101FC000F86029E01948FFF725FEF860154B1B6FF4
:101FD00003F00303FA6822FA03F3FB601CE01348E2
:101FE000FFF718FEF8600F4B1B6F03F030031B095F
:101FF000FA6822FA03F3FB600EE0FFF785FDF86054
:102000000AE0FFF729FDF86006E0FFF793FEF860AD
:1020100002E00023FB6000BFFB6818461437BD4692
:1020200090BD00BF00800C400200180003001A00A1
:1020300080B485B000AF78600123FB737B6803F048
:102040000F03BB60BB68013B062B00F2938001A22B
:1020500052F823F071200000A7200000E3200000C8
:1020600075210000752100001F21000041210000A2
:10207000454BDB6A03F47053B3F5805F09D0B3F5C9
:10208000005F03D0B3F5006F06D008E00223FB73B6
:1020900008E00323FB7305E00423FB7302E0052340
:1020A000FB7300BF69E0384B9B6A03F00303022B0C
:1020B00006D0032B07D0012B08D10323FB730FE0BD
:1020C0000223FB730CE00623FB7309E02E4B9B6A93
:1020D00003F48033002B02D00923FB7300E000BF20
:1020E0004BE0294B9B6A03F00C03082B06D00C2B0A
:1020F00007D0042B08D10323FB730FE00223FB73EB
:102100000CE00623FB7309E01F4B9B6A03F480136A
:10211000002B02D00923FB7300E000BF2DE01A4B17
:102120001B6803F08053002B03D0B3F1805F03D012
:1021300023E00723FB7302E00823FB7300BF1CE0CE
:10214000114BDB6A03F46033B3F5803F08D0B3F57D
:10215000003F08D0B3F5004F08D10823FB7308E017
:102160000223FB7305E00323FB7302E00123FB73EF
:1021700000BF02E00023FB7300BFFB7B184614374F
:10218000BD465DF8047B704700800C4090B589B077
:1021900000AF78600B46FB700323FB610323FB76E3
:1021A00000233B617B6803F00F03FB60FB68013B8E
:1021B000062B00F2348101A252F823F0D92100004D
:1021C000C5220000C52200001F2400001F240000BB
:1021D0008D230000B7230000FB78023B072B00F2A1
:1021E000228101A252F823F00922000013220000EC
:1021F0001D22000067220000272400002724000081
:1022000027240000272400000423FB610023FB7621
:1022100039E00323FB610123FB7634E00223FB61F9
:102220000223FB76FFF7A8FB03465C1CFFF7A4FB29
:10223000034620461946FFF7DBFB01F037FB024659
:102240007C4B9A4206D97C4B7B4A126842F0600272
:102250001A6018E0784B784A126822F0600242F067
:1022600020021A600FE00123FB610323FB76FFF7D6
:1022700083FB03465C1CFFF77FFB034620461946A1
:10228000FFF7B6FB00BFFB7E18460121012200F0DC
:10229000D9F8FFF7B5FC684BFA695A626748FFF74F
:1022A000DBFD0446FFF768FB034620461946FFF7AF
:1022B0009FFB00F033FD01F055FAB860B868FFF7F6
:1022C00043FCADE0FB78013B082B00F2AE8001A29D
:1022D00052F823F0F9220000FF2200000F23000033
:1022E0002B2400002B2400001F2300002B240000BF
:1022F0002B2400004323000000237B6126E0002004
:102300000121012200F09EF802237B611EE00120E2
:102310000121012200F096F801237B6116E001F013
:1023200021FAB860FFF728FB0346B8681946FFF7A3
:102330005FFB434804210122FFF7BAFA03237B61C4
:1023400004E000237B6101233B6100BFFB68022B9B
:102350000DD1394A384B9B6A23F4803323F00303B1
:10236000796919433B691B040B43936258E0324A75
:10237000314B9B6A23F4801323F00C0379698900A5
:1023800019433B691B050B43936249E0FB78072B1C
:1023900002D0082B07D049E0274B274A126822F0C9
:1023A00080521A6006E0244B234A126842F08052A1
:1023B0001A6000BF34E0FB78032B14D0082B22D026
:1023C000022B00D032E000200121012200F03AF877
:1023D000194B40225A6200BF174BDB6A03F480336B
:1023E000002BF9D01AE001200121012200F02AF887
:1023F000114B60225A6200BF0F4BDB6A03F40033BB
:10240000002BF9D00AE00C4B20225A6200BF0A4B85
:10241000DB6A03F40043002BF9D000BF00E000BFEB
:10242000FFF704FB02E000BF00E000BF2437BD4619
:1024300090BD00BF0048E80100800C40004302004E
:1024400040800C4080B586B000AF13460246FA715A
:102450000A46BA717B71FB79042B4AD801A252F863
:1024600023F000BFB1240000A32400008724000053
:10247000792400009524000001233B610223FB60C6
:1024800001237B611DE004233B610823FB600323E0
:102490007B6116E010233B612023FB6005237B61F9
:1024A0000FE040233B618023FB6007237B6108E052
:1024B0004FF480733B614FF40073FB6009237B6131
:1024C00000BFBB79002B0ED00C4B3A691A627B79A6
:1024D000002B0BD000BF0A487969FFF7FFF90346CC
:1024E000002BF8D002E0054BFA681A6200F016FCE7
:1024F00000E000BF1837BD4680BD00BF00800C4023
:102500002C800C4080B483B000AF0346FB71084BB5
:1025100097F907205209F97901F01F01012000FA0B
:1025200001F143F822100C37BD465DF8047B70477B
:1025300000E100E080B483B000AF0346FB71094BBB
:1025400097F907205209F97901F01F01012000FADB
:1025500001F1203243F822100C37BD465DF8047BB0
:10256000704700BF00E100E080B483B000AF0346D5
:10257000FB71094B97F907205209F97901F01F0106
:10258000012000FA01F1603243F822100C37BD46F9
:102590005DF8047B704700BF00E100E080B487B0C5
:1025A00000AFF860B9607A60FB6803F10473DA0089
:1025B000BB6813449B007B617B697A681A601C3797
:1025C000BD465DF8047B704780B489B000AF786089
:1025D000F970BA707B707B681A013C4B9B6813449E
:1025E000BB61BB78002B02D0BB69FB6105E07B6857
:1025F0001A01364BDB681344FB61BB69DB687B6106
:102600007B69002B02D0BA787B691A72FB6A002BB7
:1026100014D0FB699B6803F040639B0E3B613B69F0
:10262000032B03D1FB69FA6A1A6007E03B693A6B36
:102630009A40FB6A13441A46FB691A60BB6A002B76
:1026400012D0FB699B689B0F3B613B69032B03D155
:10265000FB69BA6A5A6007E03B693A6B9A40BB6A09
:1026600013441A46FB695A607B68012202FA03F39D
:10267000FB607B78002B03D0144BFA689A6102E070
:10268000124BFA68DA61BB78002B03D00F4BFA6863
:102690005A6302E00D4BFA681A63FB699B6823F4E6
:1026A0007F5323F03703BB603B6B1B01BA681343B6
:1026B000BB60FB78BA681343BB60FB69BA689A6079
:1026C0002437BD465DF8047B704700BF00200C40F6
:1026D00080B58AB000AF334B03F580531B68BB61F4
:1026E000304B03F580530C331B68BA691340BB6150
:1026F0002C4B9B6B7B61BA697B6913403B62002367
:10270000FB6149E000237B623BE03B6A03F001038D
:10271000002B30D0234B9B683B6101227B6A02FA7D
:1027200003F3FB601F4B03F580530833FA681A600C
:102730007B6A1B013A691344DB68BB60BB68002BF2
:1027400019D0BB681B7A7B60BB681B7A83F00103DE
:10275000DAB2BB681A72BB681B68002B0BD0BB686F
:102760001B68786A7A68002A0CBF00220122D1B265
:10277000BA68526898473B6A5B083B627B6A0133E0
:102780007B623B6A002BC0D17B69DA43BB69134093
:102790003B62FB690133FB61FB69012BB2DD28372A
:1027A000BD4680BD00200C4080B588B004AFF86005
:1027B0007B600B46FB721346BB72FA7ABB7A796870
:1027C0000091B9690191F9690291F8680121FFF757
:1027D000FBFE044BFA68012101FA02F29A621037FB
:1027E000BD4680BD00200C4080B584B000AF78604D
:1027F00039601F4B9B68FB607B681B01FA681344C0
:102800003A689268DA603B681B78002B06D0184B58
:102810007A68012101FA02F29A6305E0144B7A68A2
:10282000012101FA02F2DA63114B3A6851687A68C1
:1028300002F5886243F822103B685B78002B0ED0CB
:102840000B4B7A68012101FA02F203F58053083339
:102850001A60084879680122FFF7A0FE04E00548E5
:1028600079680022FFF79AFE1037BD4680BD00BF91
:1028700000200C400C300C4080B487B000AFF860F2
:102880000B467A60FB72FB7A002B03D0154B9B68DA
:102890007B6102E0134BDB687B61FB681B017A699B
:1028A00013447B617B681B789A077B689B781B07C6
:1028B0001A437B685B789B061A437B689B781B06F0
:1028C00013431A467B681B799B041A437B68DB78A9
:1028D0009B031A437B699A601C37BD465DF8047BF5
:1028E000704700BF00200C4080B582B000AF786018
:1028F00010480121FFF744FA00F020F80020FFF70C
:1029000033FE0020FFF7FEFD0B4B03F580530C3325
:102910004FF000421A60084B7A6852689A60064B82
:102920007A681278520142F001025A600837BD46B7
:1029300080BD00BF0003020000200C4080B582B0C3
:1029400000AF0020FFF7F6FD1C4B00225A601B4B26
:1029500040F6FF72DA61194B40F6FF725A62174B6C
:1029600040F6FF72DA62154B40F6FF725A63134B62
:1029700040F6FF72DA63114B0122DA640F4B03F564
:1029800080530C3300221A600C4B03F5805308333C
:102990000B4A1A6000237B6009E0084B7A6802F555
:1029A0008862002143F822107B6801337B607B68DA
:1029B0000B2BF2DD0837BD4680BD00BF00200C4068
:1029C000FF0F008080B500AF00F0CCFE80BD00BFDF
:1029D00080B400AF034B4AF6E8529A60BD465DF8FA
:1029E000047B704700600C4080B400AF034B0022B2
:1029F000C3F88420BD465DF8047B704700800C401E
:102A000080B400AF044B45F60E02C3F88420BD46E7
:102A10005DF8047B704700BF00800C4080B582B039
:102A200000AF384BD3F8843003F001037B60FFF72D
:102A3000E7FF00233B60344B1B6803F001033A6857
:102A400013433B60304B1B6803F010033A68134399
:102A50003B602D4B1B6803F040033A6813433B6017
:102A6000294B1B6803F004033A6813433B60264B71
:102A70001B6803F480733A6813433B60214B3A6848
:102A80001A62214B1B6803F47053B3F5805F06D0C4
:102A9000B3F5005F0ED0B3F5006F16D020E000BF95
:102AA000184BDB6A03F08003002BF9D0154B03228F
:102AB0005A6215E000BF134BDB6A03F40073002B6E
:102AC000F9D0104B04225A620AE000BF0D4BDB6ABA
:102AD00003F00803002BF9D00A4B02225A6200BF10
:102AE000094B1B6803F00103002B02D1054B0222A6
:102AF0001A627B68002B01D0FFF776FF0837BD46CE
:102B000080BD00BF00800C404C01002080B483B029
:102B100000AF174B1B699BB203F03F039BB21B0234
:102B2000FB80134B9B699BB203F0F0039AB2FB88C6
:102B30001343FB800E4BDB6903F0F0031B099AB2D1
:102B4000FB881343FB80FB88B3F5827F03D3FB88AC
:102B5000B3F5017F01D1012300E0002303F001035D
:102B6000DBB218460C37BD465DF8047B704700BFEA
:102B7000D0FF0FE080B586B000AF0346FB711F4B5E
:102B8000DA6A1F4B1A601F4B1E4A126942F0040298
:102B90001A61FFF7BBFF0346FB75FB7D002B11D0CD
:102BA000194B1A68194B1340FB60174BFA68C3F8AE
:102BB0008020154B5B6823F046033B61124B3A695A
:102BC000C3F8842030BFFB7D002B05D00E4BFA6884
:102BD0001A600D4B3A695A60FB79002B02D0FFF75F
:102BE0001DFF07E0064B1B6803F48063002B01D137
:102BF000FFF7E8FE1837BD4680BD00BF00800C40DF
:102C00004C01002000ED00E000E100E09CF1FD003F
:102C100080B586B000AF0346FB71274BDA6A274BBD
:102C20001A60254BD3F8843003F001037B61FFF772
:102C3000E7FE214B4FF420721A627B69002B01D012
:102C4000FFF7D2FE1E4B1E4A126942F004021A61BF
:102C5000FFF75CFF0346FB74FB7C002B11D0194B84
:102C60001A68194B1340BB60164BBA68C3F8802032
:102C7000144B5B6823F04603FB60124BFA68C3F801
:102C8000842030BFFB7C002B05D00E4BBA681A6045
:102C90000C4BFA685A60FB79002B02D0FFF7BEFE9E
:102CA00007E0064B1B6803F48063002B01D1FFF79C
:102CB00089FE1837BD4680BD00800C404C010020C5
:102CC00000ED00E000E100E09CF1FD0080B584B083
:102CD00000AF114B1B6823F00C0343F00803BB60EB
:102CE0000D4B1B6843F00C037B60FFF771FE002364
:102CF000FB6008E0084BBA681A60074B7A681A60F4
:102D0000FB680133FB60FB68032BF3DD024BBA6801
:102D10001A601037BD4680BD00600C4080B400AF23
:102D2000034BDA6A034B1A60BD465DF8047B7047BB
:102D300000800C404C01002080B487B000AFF860E8
:102D4000B9607A60FB6803F10473DA00BB6813446E
:102D50009B007B617B697A681A601C37BD465DF811
:102D6000047B704780B485B000AFF860B9607A60CA
:102D7000FB681A68BB68DB431A407B681A43FB6830
:102D80001A601437BD465DF8047B704780B483B089
:102D900000AF03463960FB71FB79002B0DD0FB7946
:102DA000012B0AD0FB79022B07D0FB79032B04D02F
:102DB000FB79042B01D0FB79052B0948FA793B6894
:102DC000012101FA03F319461346DB0013449B006B
:102DD0000344103359600C37BD465DF8047B7047DF
:102DE0000060004080B483B000AF03463960FB71DF
:102DF000FB79002B0DD0FB79012B0AD0FB79022B3C
:102E000007D0FB79032B04D0FB79042B01D0FB798D
:102E1000052B0948FA793B68012101FA03F31946A9
:102E20001346DB0013449B000344103319600C3736
:102E3000BD465DF8047B70470060004090B482B0EE
:102E400000AF02460B46FA71BB71FB79002B0ED026
:102E5000FB79012B0BD0FB79022B08D0FB79032BDC
:102E600005D0FB79042B02D0FB79052B03D1BB796C
:102E7000032B00D800BF0C48FA790B4CF9790B46AC
:102E8000DB000B449B0023441B6823F00301BB7948
:102E900019431346DB0013449B00034419600837B1
:102EA000BD4690BC704700BF0060004080B586B052
:102EB00000AFB9607A600246FA73BB73FB7B002BEC
:102EC0000DD0FB7B012B0AD0FB7B022B07D0FB7BB9
:102ED000032B04D0FB7B042B01D0FB7B052BBB68B1
:102EE000072B0ED8BB689B0007229A40F97BBB6872
:102EF0009B0001FA03F31A4811461A46FFF732FF06
:102F000010E0BB68083B7B617B699B0007229A400D
:102F1000F97B7B699B0001FA03F3124811461A46BC
:102F2000FFF720FFBB7B1048B9681A46FFF704FF84
:102F300097F820300D48B9681A46FFF7FDFE0C4B94
:102F4000BA68012101FA02F2C3F81C2197F8243073
:102F50000848B9681A46FFF7EFFE1837BD4680BD2E
:102F60000061004004610040086100400C610040C5
:102F7000006000401061004090B585B000AFB960BE
:102F80007B600346FB731346BB73FB7B002B0DD0AA
:102F9000FB7B012B0AD0FB7B022B07D0FB7B032B97
:102FA00004D0FB7B042B01D0FB7B052BBB7B002BD0
:102FB0000DD07B68002B05D0FB7B1846B968FFF766
:102FC00011FF04E0FB7B1846B968FFF7DFFEBB6822
:102FD000072B1DD82B48FA7B2A4CF97B0B46DB00CC
:102FE0000B449B0023445968BB689B000F2404FAE0
:102FF00003F3DB431940BC7BBB689B0004FA03F37B
:1030000019431346DB0013449B000344596024E03A
:103010001C48FA7B1B4CF97B0B46DB000B449B00E6
:10302000234408331968BB6803F18043083B9B00C5
:103030000F2404FA03F3DB431940BC7BBB6803F1A4
:103040008043083B9B0004FA03F319431346DB005B
:1030500013449B00034408331960BB7B002B0DD144
:103060007B68002B05D0FB7B1846B968FFF7BAFEDA
:1030700004E0FB7B1846B968FFF788FE1437BD46AD
:1030800090BD00BF0060004080B487B000AFF86022
:10309000B9607A60FB6803F10473DA00BB6813441B
:1030A0009B007B617B697A681A601C37BD465DF8BE
:1030B000047B704780B485B000AFF860B9607A6077
:1030C000FB681A68BB68DB431A407B681A43FB68DD
:1030D0001A601437BD465DF8047B704780B588B030
:1030E00000AFF860B9607A60FB707B68002B00D19C
:1030F0005EE0FB681B6823F44072FB681A60FA68A4
:10310000FB781B0210464FF440711A46FFF7D2FFBE
:10311000BB68002B03D12848FEF79EFEB8604FF035
:10312000FF33BB61FB681B6803F00203002B11D067
:10313000FB78012B07D0022B08D0002B00D019E020
:103140001E4BBB6105E01E4BBB6102E01D4BBB612A
:1031500000BF0FE0FB78012B06D0022B07D0002B1D
:1031600008D1194BBB6105E0184BBB6102E0184B5D
:10317000BB6100BFFB78174AD35C7B617B689B0017
:10318000BA68D21A7B69796801FB03F3B2FBF3F3E7
:10319000013BFB61FB681B6803F00203002B04D0BA
:1031A000FB69002B01D10123FB61FA69FB681A61FD
:1031B0002037BD4680BD00BF40810400401640005E
:1031C000C0D8A7008050740180841E00405489003C
:1031D000002D31014869000080B582B000AF7860F1
:1031E00039607A68174B9A4203D07A68164B9A4234
:1031F00000D100BF7B6800225A637B68134A1A63C0
:103200007A683B685B78002B01D0002300E0012343
:10321000104601211A46FFF737FF3B6859683B68A3
:103220009A683B681B7B7868FFF758FF7A683B68B1
:103230001B78104600211A46FFF726FF0837BD46C7
:1032400080BD00BF00A0004000A40040CFFF0100EF
:1032500080B487B000AFF860B9607A60FA68114B4B
:103260009A4208D1BB68012B05D87B681B0C1B0454
:10327000002B00D100BFBB68002B02D0012B04D073
:103280000AE0FB6810337B6103E0FB6814337B6169
:1032900000BF7B697A681A601C37BD465DF8047B05
:1032A000704700BF0020084080B483B000AF786052
:1032B0000B46FB70FB78002B03D07B6801225A6021
:1032C00002E07B6802225A600C37BD465DF8047B41
:1032D000704700BF80B485B000AF786039600023CC
:1032E000FB603B681B7883F00103DBB2002B08D046
:1032F0007B689B6803F00103002B02D07B680222ED
:103300005A603B685B78002B03D0FB6843F4805322
:10331000FB603B689B78002B03D0FB6843F4806321
:10332000FB603B68DB78002B03D0FB6843F4006351
:10333000FB603B681B79002B03D0FB6843F40073F0
:10334000FB603B685B79002B03D0FB6843F4807320
:10335000FB603B689B79002B03D0FB6843F0400384
:10336000FB603B68DB79002B03D0FB6843F08003F4
:10337000FB603B681B7A9B00FA681343FB603B6869
:103380005B7A1B01FA681343FB603B689B7AFA681F
:103390001343FB607B68FA681A603B681B78002B5C
:1033A00008D07B689B6803F00103002B02D17B6887
:1033B00001225A601437BD465DF8047B704700BF98
:1033C00080B483B000AF786039607B681B6C03F019
:1033D0000103002B00D006E000BF7B685A6C3B68FD
:1033E0001340002BF9D10C37BD465DF8047B7047C4
:1033F00080B586B000AFF860B9607A60BB68002B1A
:1034000012D1FA68164B9A4202D1164B7B6107E043
:10341000FA68154B9A4202D1144B7B6100E01BE025
:103420007869FEF719FDB860BB685A017B68B2FB8A
:10343000F3F33B613B69203B3B613B69DB003B6154
:103440003A6947F6F87313403B61F8680421FFF7C7
:10345000B7FFFB683A69DA601837BD4680BD00BF28
:103460000040084070071400004408407017160020
:1034700080B483B000AF78600B46FB70FB78002B04
:1034800008D000BF7B685B6C002BFBD17B680122FE
:103490001A6402E07B6800221A640C37BD465DF8AE
:1034A000047B704780B582B000AF786039607A687D
:1034B0001B4B9A4203D07A681A4B9A4200D100BF44
:1034C00078680221FFF77CFF7B680A225A607868DF
:1034D0000121FFF7CDFF7B681B6823F01C023B68CE
:1034E0001B7B1A433B685B7B1A433B689B7B1A43FD
:1034F0007B681A603B685A683B689B68786811462D
:103500001A46FFF775FF3B681B781A467B685A60BE
:1035100078680021FFF7ACFF0837BD4680BD00BFCB
:10352000004008400044084080B582B000AF786099
:103530007A68174B9A4203D07A68164B9A4200D1A8
:1035400000BF78680121FFF793FF7B68EA225A6089
:103550007B6800221A607B680022DA607B680022A8
:103560001A617B6800225A617B6800229A637B683B
:1035700040F2F9725A637B680022DA637B680022AA
:103580005A6578680021FFF773FF0837BD4680BD94
:10359000004008400044084080B485B000AF786027
:1035A000194B5B69DBB203F00F03DBB29B00FB73CB
:1035B000154B1B6903F0C0039B09DAB2FB7B134375
:1035C000FB737B68FA7B9A700F4B1B69DBB203F0CD
:1035D0003F03DAB27B685A700B4B9B69DBB223F076
:1035E0000F03FB73084BDB6903F0F0031B09DAB22E
:1035F000FB7B1343FB737B68FA7B1A701437BD4661
:103600005DF8047B704700BFD0FF0FE080B483B04B
:1036100000AF786039607A683B4B9A420BD07A6889
:103620003A4B9A4207D07A68394B9A4203D07A686B
:10363000384B9A4200D100BF3B681B7883F00103EE
:10364000DBB2002B02D07B6802225A607B6800222A
:103650005A623B689B781A063B68DB781B041A4366
:103660003B689B799B021A433B68DB791B021A4338
:103670003B681B7A1A433B685B78002B01D04023E0
:1036800000E000231A433B685B7A002B01D08023C3
:1036900000E000231A433B689B7A002B01D02023D3
:1036A00000E000231A433B68DB7A002B01D0102393
:1036B00000E000231A433B681B79002B02D04FF433
:1036C000005300E000231A433B685B79002B02D0D3
:1036D0004FF0805300E000231A433B681B7B002B14
:1036E00001D0082300E000231A437B681A603B687E
:1036F0001B78002B02D07B6801225A600C37BD4634
:103700005DF8047B704700BF0000014000040140E9
:1037100000080140000C0140064880470649074A5E
:10372000074B9A42BEBF51F8040B42F8040BF8E76E
:10373000FCF700FDC5380000BC6A00000000002056
:10374000B4000020FEE700BF80B400AF044BDB6C88
:103750001B0EDBB21846BD465DF8047B704700BF08
:10376000B081E00F80B582B000AF00F01FF8786044
:10377000074B5B6803F00F037A6822FA03F37B6060
:10378000044B7A681A607B6818460837BD4680BDCE
:1037900000800C400008002080B400AF024B1846A7
:1037A000BD465DF8047B7047006CDC0280B582B0DA
:1037B00000AF334BDB6A03F47053B3F5805F0AD07C
:1037C000B3F5005F03D0B3F5006F08D00BE02D4BCD
:1037D0001B687B6047E04FF400437B6043E02A4B6B
:1037E0001B687B603FE0264BDB6803F4E063B3F5C6
:1037F000007F1BD0B3F5007F05D8002B24D0B3F594
:10380000807F16D02BE0B3F5806F09D0B3F5A06FA1
:1038100003D0B3F5407F06D021E01C4B7B6021E054
:103820001B4B7B601EE01B4B7B601BE01A4B7B60DD
:1038300018E0FFF789FF0346122B02D9174B7B6074
:1038400010E0174B7B600DE0FFF77EFF0346122B65
:1038500002D9144B7B6005E0134B7B6002E0002330
:103860007B6000BF00BF064B1B6803F4E0339B0B7B
:1038700001337A68B2FBF3F318460837BD4680BDC2
:1038800000800C400800002004000020003FAB0135
:10389000406F4001809FD500C0D8A70040B56400AC
:1038A000C0CF6A00804F120040420F0080B400AFCA
:1038B000034B1B681846BD465DF8047B704700BF8C
:1038C0000400002080B400AFBD465DF8047B704763
:1038D00080B400AF4FF400431846BD465DF8047B4A
:1038E000704700BF80B400AF4FF47A731846BD46EE
:1038F0005DF8047B704700BF80B400AF034B1B68CA
:103900001846BD465DF8047B704700BF08000020E4
:1039100081F0004102E000BF83F0004330B54FEA80
:1039200041044FEA430594EA050F08BF90EA020FED
:103930001FBF54EA000C55EA020C7FEA645C7FEA80
:10394000655C00F0E2804FEA5454D4EB5555B8BFA3
:103950006D420CDD2C4480EA020281EA030382EA14
:10396000000083EA010180EA020281EA0303362DA6
:1039700088BF30BD11F0004F4FEA01314FF4801C79
:103980004CEA113102D0404261EB410113F0004F8B
:103990004FEA03334CEA133302D0524263EB430342
:1039A00094EA050F00F0A780A4F10104D5F1200EE0
:1039B0000DDB02FA0EFC22FA05F2801841F100013B
:1039C00003FA0EF2801843FA05F359410EE0A5F10F
:1039D00020050EF1200E012A03FA0EFC28BF4CF040
:1039E000020C43FA05F3C01851EBE37101F00045F6
:1039F00007D54FF0000EDCF1000C7EEB00006EEB03
:103A00000101B1F5801F1BD3B1F5001F0CD349088C
:103A10005FEA30004FEA3C0C04F101044FEA4452E3
:103A200012F5800F80F09A80BCF1004F08BF5FEA6A
:103A3000500C50F1000041EB045141EA050130BD4A
:103A40005FEA4C0C404141EB010111F4801FA4F1ED
:103A50000104E9D191F0000F04BF01460020B1FA42
:103A600081F308BF2033A3F10B03B3F120020CDA7A
:103A70000C3208DD02F1140CC2F10C0201FA0CF058
:103A800021FA02F10CE002F11402D8BFC2F1200CBD
:103A900001FA02F120FA0CFCDCBF41EA0C01904073
:103AA000E41AA2BF01EB0451294330BD6FEA0404BC
:103AB0001F3C1CDA0C340EDC04F11404C4F12002A7
:103AC00020FA04F001FA02F340EA030021FA04F3B9
:103AD00045EA030130BDC4F10C04C4F1200220FA10
:103AE00002F001FA04F340EA0300294630BD21FA4E
:103AF00004F0294630BD94F0000F83F4801306BF14
:103B000081F480110134013D4EE77FEA645C18BF07
:103B10007FEA655C29D094EA050F08BF90EA020F9E
:103B200005D054EA000C04BF1946104630BD91EA96
:103B3000030F1EBF0021002030BD5FEA545C05D199
:103B40004000494128BF41F0004130BD14F58004D8
:103B50003CBF01F5801130BD01F0004545F0FE414C
:103B600041F470014FF0000030BD7FEA645C1ABF81
:103B7000194610467FEA655C1CBF0B46024650EAB8
:103B8000013406BF52EA033591EA030F41F40021E4
:103B900030BD00BF90F0000F04BF0021704730B56A
:103BA0004FF4806404F132044FF000054FF000013F
:103BB00050E700BF90F0000F04BF0021704730B500
:103BC0004FF4806404F1320410F0004548BF4042D5
:103BD0004FF000013EE700BF42004FEAE2014FEA2A
:103BE00031014FEA02701FBF12F07F4393F07F4F05
:103BF00081F06051704792F0000F14BF93F07F4F37
:103C0000704730B54FF4607401F0004521F0004179
:103C100020E700BF50EA010208BF704730B54FF0FF
:103C200000050AE050EA010208BF704730B511F004
:103C3000004502D5404261EB41014FF4806404F13C
:103C400032045FEA915C3FF4DCAE4FF003025FEABE
:103C5000DC0C18BF03325FEADC0C18BF033202EB46
:103C6000DC02C2F1200300FA03FC20FA02F001FAA0
:103C700003FE40EA0E0021FA02F11444C1E600BF3F
:103C800080F0004002E000BF81F0004142001FBF11
:103C90005FEA410392EA030F7FEA226C7FEA236C1A
:103CA0006AD04FEA1262D2EB1363C1BFD21841400F
:103CB00048404140B8BF5B42192B88BF704710F0A5
:103CC000004F40F4000020F07F4018BF404211F048
:103CD000004F41F4000121F07F4118BF494292EAB0
:103CE000030F3FD0A2F1010241FA03FC10EB0C00DC
:103CF000C3F1200301FA03F100F0004302D5494269
:103D000060EB4000B0F5000F13D3B0F1807F06D315
:103D100040084FEA310102F10102FE2A51D2B1F10D
:103D2000004F40EBC25008BF20F0010040EA030002
:103D30007047490040EB000010F4000FA2F10102AF
:103D4000EDD1B0FA80FCACF1080CB2EB0C0200FA39
:103D50000CF0AABF00EBC25052421843BCBFD04087
:103D60001843704792F0000F81F4000106BF80F401
:103D700000000132013BB5E74FEA41037FEA226CC4
:103D800018BF7FEA236C21D092EA030F04D092F08F
:103D9000000F08BF0846704790EA010F1CBF0020C3
:103DA000704712F07F4F04D1400028BF40F0004020
:103DB000704712F100723CBF00F50000704700F040
:103DC000004343F0FE4040F4000070477FEA226267
:103DD00016BF08467FEA23630146420206BF5FEA38
:103DE000412390EA010F40F4800070474FF0000338
:103DF00004E000BF10F0004348BF40425FEA000CFF
:103E000008BF704743F0964301464FF000001CE0A6
:103E100050EA010208BF70474FF000030AE000BFFC
:103E200050EA010208BF704711F0004302D540423A
:103E300061EB41015FEA010C02BF844601460020AC
:103E400043F0B64308BFA3F18053A3F50003BCFAC7
:103E50008CF2083AA3EBC25310DB01FA02FC634474
:103E600000FA02FCC2F12002BCF1004F20FA02F27B
:103E700043EB020008BF20F00100704702F120026E
:103E800001FA02FCC2F1200250EA4C0021FA02F2CF
:103E900043EB020008BF20EADC7070474FF0FF0CD4
:103EA0001CEAD0521EBF1CEAD15392EA0C0F93EACF
:103EB0000C0F6FD01A4480EA010C400218BF5FEA71
:103EC00041211ED04FF0006343EA501043EA5111E4
:103ED000A0FB01310CF00040B1F5000F3EBF4900DE
:103EE00041EAD3715B0040EA010062F17F02FD2AE2
:103EF0001DD8B3F1004F40EBC25008BF20F00100C5
:103F0000704790F0000F0CF0004C08BF49024CEADB
:103F1000502040EA51207F3AC2BFD2F1FF0340EA6D
:103F2000C250704740F400004FF00003013A5DDCDE
:103F300012F1190FDCBF00F000407047C2F100021F
:103F4000410021FA02F1C2F1200200FA02FC5FEA0C
:103F5000310040F1000053EA4C0308BF20EADC7056
:103F6000704792F0000F00F0004C02BF400010F4C8
:103F7000000F013AF9D040EA0C0093F0000F01F075
:103F8000004C02BF490011F4000F013BF9D041EA97
:103F90000C018FE70CEAD15392EA0C0F18BF93EA99
:103FA0000C0F0AD030F0004C18BF31F0004CD8D1C3
:103FB00080EA010000F00040704790F0000F17BF4A
:103FC00090F0004F084691F0000F91F0004F14D090
:103FD00092EA0C0F01D142020FD193EA0C0F03D1E8
:103FE0004B0218BF084608D180EA010000F00040EB
:103FF00040F0FE4040F40000704740F0FE4040F4C6
:10400000400070474FF0FF0C1CEAD0521EBF1CEA64
:10401000D15392EA0C0F93EA0C0F69D0A2EB030282
:1040200080EA010C49024FEA402037D04FF080531C
:1040300043EA111143EA10130CF000408B4238BFE1
:104040005B0042F17D024FF4000C8B4224BF5B1AEF
:1040500040EA0C00B3EB510F24BFA3EB510340EA3D
:104060005C00B3EB910F24BFA3EB910340EA9C00EB
:10407000B3EBD10F24BFA3EBD10340EADC001B015B
:1040800018BF5FEA1C1CE0D1FD2A3FF650AF8B42FF
:1040900040EBC25008BF20F0010070470CF0004C0C
:1040A0004CEA50207F32C2BFD2F1FF0340EAC25037
:1040B000704740F400004FF00003013A37E792F0F8
:1040C000000F00F0004C02BF400010F4000F013A56
:1040D000F9D040EA0C0093F0000F01F0004C02BF51
:1040E000490011F4000F013BF9D041EA0C0195E7BA
:1040F0000CEAD15392EA0C0F08D142027FF47DAF53
:1041000093EA0C0F7FF470AF084676E793EA0C0F42
:1041100004D14B023FF44CAF08466EE730F0004C40
:1041200018BF31F0004CCAD130F000427FF45CAFD0
:1041300031F000437FF43CAF5FE700BF4FF0FF3C3E
:1041400006E000BF4FF0010C02E000BF4FF0010C91
:104150004DF804CD4FEA40024FEA41037FEA226C5A
:1041600018BF7FEA236C11D001B052EA530C18BF7C
:1041700090EA010F58BFB2EB030088BFC81738BFE1
:104180006FEAE17018BF40F0010070477FEA226CCF
:1041900002D15FEA402C05D17FEA236CE4D15FEACB
:1041A000412CE1D05DF8040B704700BF84460846FF
:1041B0006146FFE70FB5FFF7C9FF002848BF10F1C0
:1041C000000F0FBD4DF808EDFFF7F4FF0CBF012005
:1041D00000205DF808FB00BF4DF808EDFFF7EAFF8F
:1041E00034BF012000205DF808FB00BF4DF808ED4A
:1041F000FFF7E0FF94BF012000205DF808FB00BF3F
:104200004DF808EDFFF7D2FF94BF012000205DF8C4
:1042100008FB00BF4DF808EDFFF7C8FF34BF0120D1
:1042200000205DF808FB00BF42000ED2B2F1FE4F45
:104230000BD34FF09E03B3EB126209D44FEA002375
:1042400043F0004323FA02F070474FF0000070473C
:1042500012F1610F01D1420202D14FF0FF307047DD
:104260004FF00000704700BF08B5074B044613B17C
:104270000021AFF30080054B1868836A03B19847AB
:10428000204602F071F800BF0000000050690000F5
:1042900070B50E4B0E4D0024ED1AAD101E46AC420B
:1042A00004D056F8242090470134F8E702F020FBB0
:1042B000084D094B0024ED1AAD101E46AC4204D047
:1042C00056F8242090470134F8E770BDA80000207C
:1042D000A8000020AC000020A8000020024B0146EE
:1042E000186800F04FB800BF6C000020024403467D
:1042F000934202D003F8011BFAE7704730B500295A
:104300003CD051F8042C0B1F1D49002AB8BF9B1844
:104310000A680C4612B95A600B6030BD93420DD248
:1043200019685818904203D15A58114442681960CC
:104330005A60236030BD994203D80A46516800296B
:10434000F9D1146815199D420AD11B682344D0186D
:104350008842136012D10868034413604B680CE074
:1043600002D90C23036030BD18681C188C4203D19D
:104370000C684968204418605960536030BD00BF24
:104380005801002070B5CD1C25F0030508350C2D13
:1043900038BF0C25002D06463FDB8D423DD3214B17
:1043A0001C6818462146A1B10B685B1B0ED40B2B71
:1043B00003D90B60CC18CD501FE08C4202D162684B
:1043C00002601AE04B6863600C4616E00C464968D0
:1043D000E9E7154C23681BB9304600F027F8206048
:1043E0002946304600F022F8431C014615D0C41C73
:1043F00024F0030484420AD1256004F10B00231D3C
:1044000020F00700C31A0BD05A42E25070BD30466C
:10441000611A00F00BF80130EED10C23336000205C
:1044200070BD00BF580100205401002038B5064C73
:10443000002305460846236001F07CFF431C02D19F
:10444000236803B12B6038BD040800200CB430B5DC
:10445000164B0C1E9DB01D6804DA8B232B604FF0A9
:10446000FF301EE04FF40273ADF8143014BF04F1B6
:10447000FF332346049307934FF6FF730290069091
:10448000ADF81630284621AB02A9209A019300F01E
:104490006BF8431CBCBF8B232B6014B1029B002222
:1044A0001A701DB0BDE8304002B070476C000020AB
:1044B0002DE9F0478D688146AB420C4692461F4677
:1044C00043D38B8913F4906F3DD02668096902228B
:1044D000C1EB0608666906EB460696FBF2F608F1A4
:1044E00001023A44964238BF16465B050FD5314665
:1044F000FFF748FF054698B12169424601F0AAFB43
:10450000A38923F4906343F08003A38113E0324630
:1045100001F0B5FE054670B948462169FFF7EEFE89
:104520000C23C9F80030A3894FF0FF3043F040035B
:10453000A381BDE8F087256166614544C8EB0606A6
:104540002560A6603D46AF4200D23D462A4620681F
:10455000514601F088FBA36800205B1BA360236821
:104560001D442560BDE8F0872DE9F0439DB003931D
:104570008B8907461C060D4616460CD50B6953B9A8
:104580004021FFF7FFFE2860286110B90C233B6033
:10459000C7E040236B610023099320238DF8293065
:1045A00030238DF82A3033461C4613F8012B1AB9F4
:1045B000B4EB06090FD002E0252AF5D1F8E738461A
:1045C000294632464B46FFF773FF013000F0A480C6
:1045D000099B4B4409932378002B00F09D80002316
:1045E0004FF0FF3204930793059206938DF85330F2
:1045F0001A9304F101094D4E4C46304621780522AC
:1046000001F01AFB09F10109049B28B1861B012066
:10461000B04003430493EEE7D90644BF20228DF84F
:1046200053201A0744BF2B228DF8532022782A2AC0
:1046300002D0079B21460EE0039A111D12680391D8
:10464000002A01DB079204E0524243F00203079282
:10465000049301340AE00C4622780131303A092AE9
:1046600003D80A2000FB0323F5E7079323782E2BBA
:1046700019D163782A2B09D1039B02341A1D1B68B8
:104680000392002BB8BF4FF0FF330BE0611C0023F7
:104690000C4622780131303A092A03D80A2000FB5F
:1046A0000323F5E70593224E21783046032201F0DB
:1046B000C3FA30B1861B4020B040049B0134034351
:1046C000049321781B480622661C8DF8281001F0FF
:1046D000B3FA88B1184B33B9039B073323F00703B0
:1046E0000833039314E003AB0093384604A92A4629
:1046F000124B00F0B9F807E003AB0093384604A969
:104700002A460E4B00F030FBB0F1FF3F804603D04D
:10471000099B4344099346E7AB895B0601D409989A
:1047200001E04FF0FF301DB0BDE8F0835469000098
:104730005A6900005E69000069480000B144000049
:104740002DE9F047002B88B014461D46109E1299A3
:10475000139F05DA05F100431D4614462D2300E0A2
:1047600000230B70149B23F0200ABAF1460F04D0EB
:10477000BAF1450F03D1013601E0032300E0022323
:104780008DE8C80006AB039307AB049322462B4683
:1047900000F08EFCBAF1470F804602D1119BDB0777
:1047A00025D5BAF1460F08EB06090FD198F800306D
:1047B000302B09D1204629460022002302F03EF882
:1047C00010B9C6F101063E603B689944204629466F
:1047D0000022002302F032F808B1CDF81C90079BAC
:1047E0004B4504D25A1C079230221A70F7E7079BF8
:1047F0004046C8EB0302159B1A6008B0BDE8F0877D
:1048000073B50346002903F8022B03DA49421A461E
:104810002D2401E01A462B24092944701BDD0DF1DB
:1048200006040A2691FBF6F506FB1511092D01F188
:104830003001234604F801192946F2DC05F1300164
:1048400003F8011D0DF107018B420AD213F8011B79
:1048500002F8011BF6E730241A46214402F8024B05
:104860005970101A02B070BD2DE9F04F8FB00C4690
:1048700016461F46DDF86090054601F0D9F9D0F8DC
:1048800000A0504601F044FD00230C93D9F80030FD
:104890000990073323F0070303F10802D3E900016D
:1048A00094F81880C9F80020C4E9120101F00EFD47
:1048B0000128D4E9120117D10022002301F0C8FF1A
:1048C00010B12D2384F84330904B914AB8F1470F33
:1048D0008CBF9146994603232361236823F0040388
:1048E00023604FF0000B86E001F0F0FC236848B92C
:1048F000884A8949B8F1470F8CBF894691460322FF
:104900002261EBE7626828F0200B511C01D10622DE
:1049100004E0BBF1470F02D10AB90122626060686E
:1049200043F480618DE80300D4E912230DF12B00DC
:1049300002900BA803900CA805900020216006901F
:10494000CDF810802846FFF7FBFEBBF1470F8146EC
:104950000B9909D1C81C02DB6368994230DDA8F1CC
:1049600002085FFA88F802E0B8F1650F12D8013941
:10497000424604F150000B91FFF742FF0C9A834628
:104980008318012A236102DC2268D2072DD5013366
:1049900023612AE0B8F1660F14D10029636807DDAE
:1049A000216113B92268D0071CD501330B4418E0EC
:1049B00013B92268D20701D5023312E0012310E0B7
:1049C0004FF067080C9A914205DB23682161D807F4
:1049D00008D54B1C05E00029D4BFC1F10203012317
:1049E00013442361A1654FF0000B9DF82B3013B1E8
:1049F0002D2384F843300097284621460DAA3346DC
:104A000000F040F9013002D14FF0FF3036E1236869
:104A10005A0504D4284631464A46236908E1B8F1CC
:104A2000650F40F2CB80D4E912010022002301F08F
:104A300005FF00282AD028463146384A0123B847C6
:104A40000130E1D00C9B0B9A9A4207DB2368D80710
:104A500004D423689B0700F1F880FDE02846314626
:104A60005246099BB8470130CED04FF000080C9B4E
:104A7000013B9845EDDA2846314604F11A0201233C
:104A8000B8470130C0D008F10108F0E70B9B002BBC
:104A900028DC28463146214A0123B8470130B3D0EB
:104AA0000B9B23B90C9B13B92368D907D1D5284692
:104AB00031465246099BB8470130A5D04FF0000857
:104AC0000B9B28465B429845314608DA04F11A02EE
:104AD0000123B847013097D008F10108F0E74A46B2
:104AE0000C9BA5E0A36D0C9A9A42B4BF93469B46DB
:104AF000BBF1000F02DC4FF000081CE028463146F5
:104B00004A465B46B8470130F5D17DE7656900004C
:104B1000696900006D690000716900007569000035
:104B20002846314604F11A020123B84701303FF408
:104B30006BAF08F10108A36D2BEAEB729A1A90454E
:104B4000EEDB09EB03080B9A0C9B9A420FDB236800
:104B5000DA070CD40C9B0B9A9944C8EB09099B1AF1
:104B60009945A8BF9946B9F1000F08DC0FE0284627
:104B700031465246099BB8470130EBD144E72846FD
:104B8000314642464B46B84701303FF43DAF4FF007
:104B900000080AE02846314604F11A020123B8470A
:104BA00001303FF431AF08F101080B9B0C9A29EA60
:104BB000E971D31A5B1A9845ECDB4AE70C9A012A93
:104BC00001DCDB0739D5284631464A460123B84780
:104BD00001303FF419AF284631465246099BB84789
:104BE00001303FF411AFD4E912010022002301F09B
:104BF00025FE10B14FF0000811E00C9B284631460D
:104C000009F10102013B1CE02846314604F11A0279
:104C10000123B84701303FF4F7AE08F101080C9BBF
:104C2000013B9845F0DB2846314604F150025B46D3
:104C3000B84701307FF40DAFE6E6284631464A46D4
:104C40000123B8470130EED1DEE64FF00008E268FC
:104C50000D9BD31A984505DBE0680D9B9842B8BFC1
:104C600018460BE02846314604F119020123B847E3
:104C700001303FF4C9AE08F10108E8E70FB0BDE824
:104C8000F08F00BF2DE9F84315461F468A680B696F
:104C900006469A42A8BF13462B6091F843200C4663
:104CA000DDF820800AB101332B602368990602D514
:104CB0002B6802332B60236813F006091DD094F88B
:104CC00043302268003318BF012392061FD5E11834
:104CD000302081F843005A1C94F8451022440233D6
:104CE00082F8431013E03046394604F119020123DB
:104CF000C047013007D009F10109E2682B68D31AD7
:104D00009945F0DBDBE74FF0FF30BDE8F883304634
:104D1000394604F14302C0470130F4D023682A68C1
:104D200003F00603E168042B08BFC2EB0105236909
:104D3000A2680CBF25EAE57500259A42C4BFC3EB03
:104D40000203ED184FF00009A9450ADA304639464A
:104D500004F11A020123C0470130D4D009F101093E
:104D6000F2E70020BDE8F8832DE9FF470E7E80467C
:104D70006E2E0C4691469A460C9D01F1430000F0C0
:104D8000A58011D8632E22D009D8002E00F0AF8064
:104D9000582E40F0BF8081F845607B4A4FE0642E7A
:104DA0001ED0692E1CD0B5E0732E00F0A48009D867
:104DB0006F2E2BD0702E40F0AD800B6843F0200397
:104DC0000B6038E0752E21D0782E34D0A2E02B680D
:104DD00001F142071A1D1B682A6081F842309DE0EC
:104DE00022682B6812F0800F03D01A1D2A601D68FC
:104DF00005E05106F9D51A1D2A60B3F90050002DBF
:104E000039DA2D236D4284F8433034E022682B6870
:104E100012F0800F03D01A1D2A601D6804E05206AC
:104E2000F9D51A1D2A601D88237E574A6F2B14BF9F
:104E30000A2308231BE07823544A84F8453023686A
:104E4000296813F0800F01F104062E6001D00D686F
:104E500002E05F06FBD50D88DE0744BF43F0200368
:104E600023601DB9236823F0200323601023002151
:104E700084F8431001E0444A0A236668002EA660C5
:104E800003DB216821F00401216005B96EB104F152
:104E90004201B5FBF3F603FB1655555D0F4601F8CD
:104EA00001593546002EF4D100E00746082B0AD1FF
:104EB0002368DD0707D5626823699A4203DC302343
:104EC00007F8013C013FC01B20612CE009682B68FA
:104ED00011F0800F626904D0191D29601B681A60E7
:104EE00005E04906F8D5191D29601B681A800023C2
:104EF0002361074617E02B681A1D2A601F68384691
:104F000001F006FA63682061984288BF2361236933
:104F1000636005E004F1420784F8426001232361E5
:104F2000002384F84330CDF800A04046214603AA70
:104F30004B46FFF7A7FE013002D14FF0FF301FE0D4
:104F4000404649463A462369D0470130F5D02368A8
:104F50009B0705D4E068039B9842B8BF18460FE052
:104F60000025E268039BD31A9D42F3DA4046494686
:104F700004F119020123D0470130DED00135F0E7FA
:104F800004B0BDE8F08700BF7769000088690000C1
:104F90002DE9F74F03690C698046A342C0F2838074
:104FA000013CA20001F1140700F1140591460092A2
:104FB00057F824602A44019255F824200136B2FBA8
:104FC000F6F6B944002E3BD04FF0000E3A46284684
:104FD000F34652F804CB03681FFA8CFA4FEA1C4CD4
:104FE0000AFB06EA0CFB06FC0CEB1A4C1FFA8AFAC9
:104FF000CAEB0B0B4FEA1C4E1FFA83FA1FFA8CFC0C
:10500000DA44CCEB134C0CEB2A4C1FFA8AFA4AEA2E
:105010000C4A4A454FEA2C4B40F804ABD9D9009AC8
:10502000AB586BB9019A131FAB421A4602D8C8F8A5
:10503000104005E01268043B002AF8D1013CF3E778
:10504000404601F040F800282BDB01362B460020BB
:1050500057F804CB1A681FFA8CF1411A1FFA82FA2A
:105060004FEA1C4C5144CCEB124202EB214289B274
:1050700010144F4541EA024243F8042BE8D955F891
:10508000242005EB840362B9043BAB421A4602D8E4
:10509000C8F8104005E01268043B002AF8D1013C32
:1050A000F3E7304600E0002003B0BDE8F08F0000D9
:1050B0002DE9F04F456A9BB08246279CCDE9042339
:1050C00045B91020FFF70AF9CAF824004560856049
:1050D0000560C560DAF82430196861B15B680122A7
:1050E0004B6002FA03F350468B6000F00CFEDAF8D6
:1050F000243000221A600598002805DA012320F0E8
:1051000000412360059101E000232360059F9C4A34
:1051100027F000431B0D1B0593421DD1269A42F236
:105120000F731360049B43B9964B974AC7F3130060
:1051300000280CBF1046184600E09248289F002F18
:1051400000F07185C37813B100F1080300E0C31CBF
:10515000289F3B6000F067BDDDE904450022204642
:105160002946002301F06AFB804658B1269F01239F
:105170003B60289F002F00F0538584483860013839
:1051800000F051BD19AB009318AB01935046224675
:105190002B4601F014F8C7F30A5683465EB1C5F3F7
:1051A000130343F07F51204641F44011A6F2FF362D
:1051B000CDF854801CE0199B189E1E446FF4826346
:1051C0009E4209DB04991F3306F212409B1B21FA11
:1051D00000F09F40384304E06D48049A801B02FAB7
:1051E00000F0FEF7D7FC0127A1F1F871013E1597F9
:1051F0000022684BFEF790FB5BA3D3E9002301F08C
:10520000B5F85BA3D3E90023FEF788FB04463046DC
:105210000D46FEF7CFFC58A3D3E9002301F0A6F812
:1052200002460B4620462946FEF778FB04460D460B
:1052300001F036FB2946814600222046002301F07A
:1052400007FB58B14846FEF7B5FC02460B46204620
:10525000294601F0F3FA08B909F1FF39B9F1160F3F
:105260000DD84D4B03EBC903D3E90001DDE904235D
:1052700001F00CFB30B109F1FF39002700E00127F4
:10528000149700E01490189B9E1B013E099604D5CC
:10529000774208970027099701E000270897B9F19E
:1052A000000F07DB099FCDF844904F440997002772
:1052B0000E9708E0089FC9EB07070897C9F1000798
:1052C0000E9700271197249F092F29D8052FC4BFB7
:1052D000043F2497249FC8BF0025A7F10203D8BF2D
:1052E0000125032B21D8DFE803F0060F0204012774
:1052F00002E0012709E000270F97259F002F1EDD00
:105300000B9707973B461FE000270F97259F4F44B9
:105310000B9701373B460797012BB8BF012313E0DA
:105320000125002724970F9501E001270F974FF0E3
:10533000FF370B97079700271223259704E00127D3
:105340000B9707973B462597DAF8244000226260C6
:10535000042101F114029A4220D862684900013206
:105360006260F6E7AFF3008061436F63A787D23FC7
:10537000B3C8608B288AC63FFB799F501344D33F44
:105380000000F07FA26900009969000076690000C2
:10539000EEFBFFFF0000F83FB06900005046616877
:1053A00000F07CFCDAF824302060079F1B680E2F89
:1053B0000A9300F26B81002D00F06881B9F1000FB3
:1053C000DDE90401CDE9120131DD814A09F00F0365
:1053D00002EBC3034FEA2914D3E90001CDE90C0124
:1053E000E0060CD5DDE912017A4B04F00F04D3E995
:1053F000082301F0E5F80327CDE9040100E00227C6
:10540000744D6CB1E10708D5DDE90C01D5E9002345
:1054100000F0ACFFCDE90C01013764100835F0E76E
:10542000DDE90401DDE90C2301F0CAF81BE0C9F154
:105430000004DCB1664B04F00F0203EBC203DDE9AC
:105440001201D3E9002300F091FF624D24110227DD
:105450004CB1E20704D5D5E90023013700F086FFFF
:1054600064100835F4E7CDE9040100E0022714993F
:10547000E9B1DDE90445002220462946564B01F0FA
:10548000E7F9C8B1079AE2B10B9B002B40F3FA8011
:1054900009F1FF3010902946204600224F4B00F0C2
:1054A00065FFCDE904010B9901370C910DE0079AD6
:1054B000CDF840900C9208E0079BCDF840900C93FB
:1054C00003E00798CDF840900C903846FEF772FB49
:1054D000DDE9042300F04AFF0022414BFEF71EFAEB
:1054E0000C9F0446A1F15075CFB900223D4BDDE978
:1054F0000401FEF711FA22462B4606460F4601F03C
:10550000C5F9002840F05382224605F10043304699
:10551000394601F09DF9002840F03F82B2E00C9F2F
:105520002B4B7A1E0F9F03EBC203002F5ED0D3E9F3
:10553000002300202C4901F043F822462B46FEF7B9
:10554000EBF9DDE90467DDF8288004460D463946AD
:10555000304601F0A5F90290FEF72CFB02460B46FF
:1055600030463946FEF7D8F9DDF808C022460CF17E
:10557000300308F8013B2B4606460F4601F068F958
:10558000002840F03B8332463B4600201249FEF79C
:10559000C3F922462B4601F05BF9002840F0D58084
:1055A0000A980C99C0EB08038B426BDA2046294617
:1055B00000220A4B00F0DAFE002204460D46304677
:1055C0003946064B00F0D2FE06460F46BFE700BF45
:1055D000B0690000886A00000000F03F000024402D
:1055E00000001C40000014400000E03F2246D3E9C8
:1055F00000012B4600F0BAFEDDE90467DDF82880E3
:105600000C9ACDE916010A9C90443946304601F0C7
:1056100047F90546FEF7CEFA02460B4630463946B4
:10562000FEF77AF9303504F8015B444506460F462B
:1056300021D10022874BDDE91601FEF76FF9024602
:105640000B463046394601F021F900287DD1DDE9CD
:10565000162300207F49FEF75FF902460B463046CD
:10566000394601F0F5F868B1A04618F8013C013C54
:10567000302BF9D0C2E20022774B00F077FE0646CD
:105680000F46C2E7DDE91201CDE90401199B002BA9
:105690007CDBB9F10E0F79DC704B259F03EBC9035E
:1056A000002FD3E9004514DA079F002F11DC40F0EA
:1056B0007681204629460022694B00F057FEDDE93D
:1056C000042301F0D9F8079D2C46002840F0698199
:1056D00071E1DDF82880DDE9046722462B4630467B
:1056E000394600F06DFF01F0DBF80490FEF762FA36
:1056F00022462B4600F03AFE02460B46304639461B
:10570000FEF70AF9049F024607F130060A9F08F8DF
:10571000016BC7EB0806079F0B46BE4229D1FEF777
:10572000FDF822462B4606460F4601F0AFF870B949
:105730003046394622462B4601F080F8002800F01A
:105740005F82049FFB0702D45AE2DDF84090434693
:10575000984618F8012C013B392A06D10A9F9F422E
:10576000F6D1302209F101093A701A7801321A7023
:1057700046E20022384B00F0F9FD002200230646E5
:105780000F4601F05BF80028A7D039E20F9F002FE9
:1057900030D0249F012F0ADC159F17B103F2334349
:1057A00002E0189BC3F136030E9D089E16E0079F8A
:1057B0007D1E0E9FAF4201DB7D1B06E00E9F0E9506
:1057C000EB1B119F00251F441197079F002F03DA41
:1057D00008980023C61B01E0089E079B089F5046BF
:1057E0001F440897099F01211F44099700F029FBD6
:1057F000044602E00E9D089E0F9C6EB1099F002F8B
:105800000ADD3B46089FB342A8BF3346FF1A0897FC
:10581000099FF61AFF1A09970E9F002F28DD0F9F88
:1058200007B3002D10DD21462A46504600F0AAFBA2
:1058300004465A462146504600F00CFB594607469E
:10584000504600F060FABB460E9F7A1B10D05046BF
:1058500059460AE00000E03F00002440B069000023
:10586000000014400E9A5046594600F08BFB8346C8
:105870005046012100F0E5FA119F0546002F05DD95
:10588000294650463A4600F07DFB0546249F012FED
:1058900012DC049880B90599C1F3130373B921F0A0
:1058A00000473F0D3F0557B1089F01370897099FF3
:1058B00001370997012702E0002700E0049F1198B3
:1058C00040B12B6905EB8303186900F06DFAC0F154
:1058D000200000E00120099B034413F01F030FD0B8
:1058E000C3F12002042A09DD0899099AC3F11C03B7
:1058F00019441A4408911E44099209E008D013463D
:10590000089809991C331844194408901E440991B9
:10591000089A002A04DD5946504600F081FB834670
:10592000099B002B05DD294650461A4600F078FBFE
:1059300005461498E0B15846294600F0C4FB0028FB
:1059400016DA594650460A22002300F0F3F90F995F
:1059500009F1FF39834649B121460A225046002306
:1059600000F0E8F90B9A0446079201E00B9B0793BD
:105970000798002829DC2499022926DD88B92946C0
:105980000522079B504600F0D5F9054629465846A2
:1059900000F099FB00280EDC03E00C9D00E00025E0
:1059A0002C46259FDDF828806FEA07090AE00C9D48
:1059B000DDF840902C460A9F312307F101083B7027
:1059C00009F101092746002407E10F98002800F09B
:1059D000BB80002E05DD21465046324600F020FBFC
:1059E00004469FB16168504600F058F922690646A6
:1059F000023204F10C0192000C3000F02BF95046F9
:105A00003146012200F00CFB074600E027460A9EC3
:105A100029465846FFF7BCFA214600F1300C804673
:105A20005846CDF808C000F04EFB3A46089029468B
:105A3000504600F065FBC3680246DDF808C04BB96C
:105A400011465846039200F03EFB039A0346DDF8E8
:105A500008C000E00123504611460393CDF808C06A
:105A600000F051F9039BDDF808C063B9249951B9DE
:105A7000049800F0010232B9BCF1390F35D0089B0F
:105A8000002B24DC25E00898002802DA002B08DC33
:105A90001FE023D1249909BB049800F00102EAB960
:105AA000F4E7594601225046CDF808C000F0B8FA94
:105AB0002946834600F007FB0028DDF808C003DC18
:105AC00007D11CF0010F04D0BCF1390F0DD008F143
:105AD000310C06F1010886F800C07EE0002B06F1CB
